{"abi":[{"inputs":[{"internalType":"uint256","name":"_goal","type":"uint256"},{"internalType":"uint256","name":"_end","type":"uint256"},{"internalType":"uint256","name":"_minimum","type":"uint256"}],"name":"createCampaign","outputs":[{"internalType":"address","name":"","type":"address"}],"stateMutability":"nonpayable","type":"function"},{"inputs":[{"internalType":"uint256","name":"","type":"uint256"}],"name":"deployedCampaigns","outputs":[{"internalType":"contract Campaign","name":"","type":"address"}],"stateMutability":"view","type":"function"},{"inputs":[],"name":"getDeployedCampaign","outputs":[{"internalType":"contract Campaign[]","name":"","type":"address[]"}],"stateMutability":"view","type":"function"}],"devdoc":{"kind":"dev","methods":{},"version":1},"evm":{"assembly":"    /* \"Campaign.sol\":68:558  contract CampaignFactory {... */\n  mstore(0x40, 0x80)\n  callvalue\n  dup1\n  iszero\n  tag_1\n  jumpi\n  0x00\n  dup1\n  revert\ntag_1:\n  pop\n  dataSize(sub_0)\n  dup1\n  dataOffset(sub_0)\n  0x00\n  codecopy\n  0x00\n  return\nstop\n\nsub_0: assembly {\n        /* \"Campaign.sol\":68:558  contract CampaignFactory {... */\n      mstore(0x40, 0x80)\n      callvalue\n      dup1\n      iszero\n      tag_1\n      jumpi\n      0x00\n      dup1\n      revert\n    tag_1:\n      pop\n      jumpi(tag_2, lt(calldatasize, 0x04))\n      shr(0xe0, calldataload(0x00))\n      dup1\n      0x339d50a5\n      eq\n      tag_3\n      jumpi\n      dup1\n      0x5eac0007\n      eq\n      tag_4\n      jumpi\n      dup1\n      0xf69d3158\n      eq\n      tag_5\n      jumpi\n    tag_2:\n      0x00\n      dup1\n      revert\n        /* \"Campaign.sol\":99:134  Campaign[] public deployedCampaigns */\n    tag_3:\n      tag_6\n      0x04\n      dup1\n      calldatasize\n      sub\n      dup2\n      add\n      swap1\n      tag_7\n      swap2\n      swap1\n      tag_8\n      jump\t// in\n    tag_7:\n      tag_9\n      jump\t// in\n    tag_6:\n      mload(0x40)\n      tag_10\n      swap2\n      swap1\n      tag_11\n      jump\t// in\n    tag_10:\n      mload(0x40)\n      dup1\n      swap2\n      sub\n      swap1\n      return\n        /* \"Campaign.sol\":442:556  function getDeployedCampaign() external view returns (Campaign[] memory) {... */\n    tag_4:\n      tag_12\n      tag_13\n      jump\t// in\n    tag_12:\n      mload(0x40)\n      tag_14\n      swap2\n      swap1\n      tag_15\n      jump\t// in\n    tag_14:\n      mload(0x40)\n      dup1\n      swap2\n      sub\n      swap1\n      return\n        /* \"Campaign.sol\":141:436  function createCampaign(... */\n    tag_5:\n      tag_16\n      0x04\n      dup1\n      calldatasize\n      sub\n      dup2\n      add\n      swap1\n      tag_17\n      swap2\n      swap1\n      tag_18\n      jump\t// in\n    tag_17:\n      tag_19\n      jump\t// in\n    tag_16:\n      mload(0x40)\n      tag_20\n      swap2\n      swap1\n      tag_21\n      jump\t// in\n    tag_20:\n      mload(0x40)\n      dup1\n      swap2\n      sub\n      swap1\n      return\n        /* \"Campaign.sol\":99:134  Campaign[] public deployedCampaigns */\n    tag_9:\n      0x00\n      dup2\n      dup2\n      sload\n      dup2\n      lt\n      tag_22\n      jumpi\n      0x00\n      dup1\n      revert\n    tag_22:\n      swap1\n      0x00\n      mstore\n      keccak256(0x00, 0x20)\n      add\n      0x00\n      swap2\n      pop\n      sload\n      swap1\n      0x0100\n      exp\n      swap1\n      div\n      0xffffffffffffffffffffffffffffffffffffffff\n      and\n      dup2\n      jump\t// out\n        /* \"Campaign.sol\":442:556  function getDeployedCampaign() external view returns (Campaign[] memory) {... */\n    tag_13:\n        /* \"Campaign.sol\":496:513  Campaign[] memory */\n      0x60\n        /* \"Campaign.sol\":532:549  deployedCampaigns */\n      0x00\n        /* \"Campaign.sol\":525:549  return deployedCampaigns */\n      dup1\n      sload\n      dup1\n      0x20\n      mul\n      0x20\n      add\n      mload(0x40)\n      swap1\n      dup2\n      add\n      0x40\n      mstore\n      dup1\n      swap3\n      swap2\n      swap1\n      dup2\n      dup2\n      mstore\n      0x20\n      add\n      dup3\n      dup1\n      sload\n      dup1\n      iszero\n      tag_25\n      jumpi\n      0x20\n      mul\n      dup3\n      add\n      swap2\n      swap1\n      0x00\n      mstore\n      keccak256(0x00, 0x20)\n      swap1\n    tag_26:\n      dup2\n      0x00\n      swap1\n      sload\n      swap1\n      0x0100\n      exp\n      swap1\n      div\n      0xffffffffffffffffffffffffffffffffffffffff\n      and\n      0xffffffffffffffffffffffffffffffffffffffff\n      and\n      dup2\n      mstore\n      0x20\n      add\n      swap1\n      0x01\n      add\n      swap1\n      dup1\n      dup4\n      gt\n      tag_26\n      jumpi\n    tag_25:\n      pop\n      pop\n      pop\n      pop\n      pop\n      swap1\n      pop\n        /* \"Campaign.sol\":442:556  function getDeployedCampaign() external view returns (Campaign[] memory) {... */\n      swap1\n      jump\t// out\n        /* \"Campaign.sol\":141:436  function createCampaign(... */\n    tag_19:\n        /* \"Campaign.sol\":258:265  address */\n      0x00\n        /* \"Campaign.sol\":277:297  Campaign newCampaign */\n      dup1\n        /* \"Campaign.sol\":313:318  _goal */\n      dup5\n        /* \"Campaign.sol\":320:324  _end */\n      dup5\n        /* \"Campaign.sol\":326:334  _minimum */\n      dup5\n        /* \"Campaign.sol\":336:346  msg.sender */\n      caller\n        /* \"Campaign.sol\":300:347  new Campaign(_goal, _end, _minimum, msg.sender) */\n      mload(0x40)\n      tag_28\n      swap1\n      tag_29\n      jump\t// in\n    tag_28:\n      tag_30\n      swap5\n      swap4\n      swap3\n      swap2\n      swap1\n      tag_31\n      jump\t// in\n    tag_30:\n      mload(0x40)\n      dup1\n      swap2\n      sub\n      swap1\n      0x00\n      create\n      dup1\n      iszero\n      dup1\n      iszero\n      tag_32\n      jumpi\n      returndatasize\n      0x00\n      dup1\n      returndatacopy\n      revert(0x00, returndatasize)\n    tag_32:\n      pop\n        /* \"Campaign.sol\":277:347  Campaign newCampaign = new Campaign(_goal, _end, _minimum, msg.sender) */\n      swap1\n      pop\n        /* \"Campaign.sol\":357:374  deployedCampaigns */\n      0x00\n        /* \"Campaign.sol\":380:391  newCampaign */\n      dup2\n        /* \"Campaign.sol\":357:392  deployedCampaigns.push(newCampaign) */\n      swap1\n      dup1\n      0x01\n      dup2\n      sload\n      add\n      dup1\n      dup3\n      sstore\n      dup1\n      swap2\n      pop\n      pop\n      0x01\n      swap1\n      sub\n      swap1\n      0x00\n      mstore\n      keccak256(0x00, 0x20)\n      add\n      0x00\n      swap1\n      swap2\n      swap1\n      swap2\n      swap1\n      swap2\n      0x0100\n      exp\n      dup2\n      sload\n      dup2\n      0xffffffffffffffffffffffffffffffffffffffff\n      mul\n      not\n      and\n      swap1\n      dup4\n      0xffffffffffffffffffffffffffffffffffffffff\n      and\n      mul\n      or\n      swap1\n      sstore\n      pop\n        /* \"Campaign.sol\":417:428  newCampaign */\n      dup1\n        /* \"Campaign.sol\":402:429  return address(newCampaign) */\n      swap2\n      pop\n      pop\n        /* \"Campaign.sol\":141:436  function createCampaign(... */\n      swap4\n      swap3\n      pop\n      pop\n      pop\n      jump\t// out\n    tag_29:\n      dataSize(sub_0)\n      dup1\n      dataOffset(sub_0)\n      dup4\n      codecopy\n      add\n      swap1\n      jump\t// out\n        /* \"#utility.yul\":88:205   */\n    tag_35:\n        /* \"#utility.yul\":197:198   */\n      0x00\n        /* \"#utility.yul\":194:195   */\n      dup1\n        /* \"#utility.yul\":187:199   */\n      revert\n        /* \"#utility.yul\":334:411   */\n    tag_37:\n        /* \"#utility.yul\":371:378   */\n      0x00\n        /* \"#utility.yul\":400:405   */\n      dup2\n        /* \"#utility.yul\":389:405   */\n      swap1\n      pop\n        /* \"#utility.yul\":334:411   */\n      swap2\n      swap1\n      pop\n      jump\t// out\n        /* \"#utility.yul\":417:539   */\n    tag_38:\n        /* \"#utility.yul\":490:514   */\n      tag_62\n        /* \"#utility.yul\":508:513   */\n      dup2\n        /* \"#utility.yul\":490:514   */\n      tag_37\n      jump\t// in\n    tag_62:\n        /* \"#utility.yul\":483:488   */\n      dup2\n        /* \"#utility.yul\":480:515   */\n      eq\n        /* \"#utility.yul\":470:533   */\n      tag_63\n      jumpi\n        /* \"#utility.yul\":529:530   */\n      0x00\n        /* \"#utility.yul\":526:527   */\n      dup1\n        /* \"#utility.yul\":519:531   */\n      revert\n        /* \"#utility.yul\":470:533   */\n    tag_63:\n        /* \"#utility.yul\":417:539   */\n      pop\n      jump\t// out\n        /* \"#utility.yul\":545:684   */\n    tag_39:\n        /* \"#utility.yul\":591:596   */\n      0x00\n        /* \"#utility.yul\":629:635   */\n      dup2\n        /* \"#utility.yul\":616:636   */\n      calldataload\n        /* \"#utility.yul\":607:636   */\n      swap1\n      pop\n        /* \"#utility.yul\":645:678   */\n      tag_65\n        /* \"#utility.yul\":672:677   */\n      dup2\n        /* \"#utility.yul\":645:678   */\n      tag_38\n      jump\t// in\n    tag_65:\n        /* \"#utility.yul\":545:684   */\n      swap3\n      swap2\n      pop\n      pop\n      jump\t// out\n        /* \"#utility.yul\":690:1019   */\n    tag_8:\n        /* \"#utility.yul\":749:755   */\n      0x00\n        /* \"#utility.yul\":798:800   */\n      0x20\n        /* \"#utility.yul\":786:795   */\n      dup3\n        /* \"#utility.yul\":777:784   */\n      dup5\n        /* \"#utility.yul\":773:796   */\n      sub\n        /* \"#utility.yul\":769:801   */\n      slt\n        /* \"#utility.yul\":766:885   */\n      iszero\n      tag_67\n      jumpi\n        /* \"#utility.yul\":804:883   */\n      tag_68\n      tag_35\n      jump\t// in\n    tag_68:\n        /* \"#utility.yul\":766:885   */\n    tag_67:\n        /* \"#utility.yul\":924:925   */\n      0x00\n        /* \"#utility.yul\":949:1002   */\n      tag_69\n        /* \"#utility.yul\":994:1001   */\n      dup5\n        /* \"#utility.yul\":985:991   */\n      dup3\n        /* \"#utility.yul\":974:983   */\n      dup6\n        /* \"#utility.yul\":970:992   */\n      add\n        /* \"#utility.yul\":949:1002   */\n      tag_39\n      jump\t// in\n    tag_69:\n        /* \"#utility.yul\":939:1002   */\n      swap2\n      pop\n        /* \"#utility.yul\":895:1012   */\n      pop\n        /* \"#utility.yul\":690:1019   */\n      swap3\n      swap2\n      pop\n      pop\n      jump\t// out\n        /* \"#utility.yul\":1025:1151   */\n    tag_40:\n        /* \"#utility.yul\":1062:1069   */\n      0x00\n        /* \"#utility.yul\":1102:1144   */\n      0xffffffffffffffffffffffffffffffffffffffff\n        /* \"#utility.yul\":1095:1100   */\n      dup3\n        /* \"#utility.yul\":1091:1145   */\n      and\n        /* \"#utility.yul\":1080:1145   */\n      swap1\n      pop\n        /* \"#utility.yul\":1025:1151   */\n      swap2\n      swap1\n      pop\n      jump\t// out\n        /* \"#utility.yul\":1157:1217   */\n    tag_41:\n        /* \"#utility.yul\":1185:1188   */\n      0x00\n        /* \"#utility.yul\":1206:1211   */\n      dup2\n        /* \"#utility.yul\":1199:1211   */\n      swap1\n      pop\n        /* \"#utility.yul\":1157:1217   */\n      swap2\n      swap1\n      pop\n      jump\t// out\n        /* \"#utility.yul\":1223:1365   */\n    tag_42:\n        /* \"#utility.yul\":1273:1282   */\n      0x00\n        /* \"#utility.yul\":1306:1359   */\n      tag_73\n        /* \"#utility.yul\":1324:1358   */\n      tag_74\n        /* \"#utility.yul\":1333:1357   */\n      tag_75\n        /* \"#utility.yul\":1351:1356   */\n      dup5\n        /* \"#utility.yul\":1333:1357   */\n      tag_40\n      jump\t// in\n    tag_75:\n        /* \"#utility.yul\":1324:1358   */\n      tag_41\n      jump\t// in\n    tag_74:\n        /* \"#utility.yul\":1306:1359   */\n      tag_40\n      jump\t// in\n    tag_73:\n        /* \"#utility.yul\":1293:1359   */\n      swap1\n      pop\n        /* \"#utility.yul\":1223:1365   */\n      swap2\n      swap1\n      pop\n      jump\t// out\n        /* \"#utility.yul\":1371:1497   */\n    tag_43:\n        /* \"#utility.yul\":1421:1430   */\n      0x00\n        /* \"#utility.yul\":1454:1491   */\n      tag_77\n        /* \"#utility.yul\":1485:1490   */\n      dup3\n        /* \"#utility.yul\":1454:1491   */\n      tag_42\n      jump\t// in\n    tag_77:\n        /* \"#utility.yul\":1441:1491   */\n      swap1\n      pop\n        /* \"#utility.yul\":1371:1497   */\n      swap2\n      swap1\n      pop\n      jump\t// out\n        /* \"#utility.yul\":1503:1645   */\n    tag_44:\n        /* \"#utility.yul\":1569:1578   */\n      0x00\n        /* \"#utility.yul\":1602:1639   */\n      tag_79\n        /* \"#utility.yul\":1633:1638   */\n      dup3\n        /* \"#utility.yul\":1602:1639   */\n      tag_43\n      jump\t// in\n    tag_79:\n        /* \"#utility.yul\":1589:1639   */\n      swap1\n      pop\n        /* \"#utility.yul\":1503:1645   */\n      swap2\n      swap1\n      pop\n      jump\t// out\n        /* \"#utility.yul\":1651:1814   */\n    tag_45:\n        /* \"#utility.yul\":1754:1807   */\n      tag_81\n        /* \"#utility.yul\":1801:1806   */\n      dup2\n        /* \"#utility.yul\":1754:1807   */\n      tag_44\n      jump\t// in\n    tag_81:\n        /* \"#utility.yul\":1749:1752   */\n      dup3\n        /* \"#utility.yul\":1742:1808   */\n      mstore\n        /* \"#utility.yul\":1651:1814   */\n      pop\n      pop\n      jump\t// out\n        /* \"#utility.yul\":1820:2074   */\n    tag_11:\n        /* \"#utility.yul\":1929:1933   */\n      0x00\n        /* \"#utility.yul\":1967:1969   */\n      0x20\n        /* \"#utility.yul\":1956:1965   */\n      dup3\n        /* \"#utility.yul\":1952:1970   */\n      add\n        /* \"#utility.yul\":1944:1970   */\n      swap1\n      pop\n        /* \"#utility.yul\":1980:2067   */\n      tag_83\n        /* \"#utility.yul\":2064:2065   */\n      0x00\n        /* \"#utility.yul\":2053:2062   */\n      dup4\n        /* \"#utility.yul\":2049:2066   */\n      add\n        /* \"#utility.yul\":2040:2046   */\n      dup5\n        /* \"#utility.yul\":1980:2067   */\n      tag_45\n      jump\t// in\n    tag_83:\n        /* \"#utility.yul\":1820:2074   */\n      swap3\n      swap2\n      pop\n      pop\n      jump\t// out\n        /* \"#utility.yul\":2080:2210   */\n    tag_46:\n        /* \"#utility.yul\":2163:2169   */\n      0x00\n        /* \"#utility.yul\":2197:2202   */\n      dup2\n        /* \"#utility.yul\":2191:2203   */\n      mload\n        /* \"#utility.yul\":2181:2203   */\n      swap1\n      pop\n        /* \"#utility.yul\":2080:2210   */\n      swap2\n      swap1\n      pop\n      jump\t// out\n        /* \"#utility.yul\":2216:2400   */\n    tag_47:\n        /* \"#utility.yul\":2315:2326   */\n      0x00\n        /* \"#utility.yul\":2349:2355   */\n      dup3\n        /* \"#utility.yul\":2344:2347   */\n      dup3\n        /* \"#utility.yul\":2337:2356   */\n      mstore\n        /* \"#utility.yul\":2389:2393   */\n      0x20\n        /* \"#utility.yul\":2384:2387   */\n      dup3\n        /* \"#utility.yul\":2380:2394   */\n      add\n        /* \"#utility.yul\":2365:2394   */\n      swap1\n      pop\n        /* \"#utility.yul\":2216:2400   */\n      swap3\n      swap2\n      pop\n      pop\n      jump\t// out\n        /* \"#utility.yul\":2406:2554   */\n    tag_48:\n        /* \"#utility.yul\":2489:2493   */\n      0x00\n        /* \"#utility.yul\":2512:2515   */\n      dup2\n        /* \"#utility.yul\":2504:2515   */\n      swap1\n      pop\n        /* \"#utility.yul\":2542:2546   */\n      0x20\n        /* \"#utility.yul\":2537:2540   */\n      dup3\n        /* \"#utility.yul\":2533:2547   */\n      add\n        /* \"#utility.yul\":2525:2547   */\n      swap1\n      pop\n        /* \"#utility.yul\":2406:2554   */\n      swap2\n      swap1\n      pop\n      jump\t// out\n        /* \"#utility.yul\":2560:2713   */\n    tag_49:\n        /* \"#utility.yul\":2653:2706   */\n      tag_88\n        /* \"#utility.yul\":2700:2705   */\n      dup2\n        /* \"#utility.yul\":2653:2706   */\n      tag_44\n      jump\t// in\n    tag_88:\n        /* \"#utility.yul\":2648:2651   */\n      dup3\n        /* \"#utility.yul\":2641:2707   */\n      mstore\n        /* \"#utility.yul\":2560:2713   */\n      pop\n      pop\n      jump\t// out\n        /* \"#utility.yul\":2719:2930   */\n    tag_50:\n        /* \"#utility.yul\":2804:2814   */\n      0x00\n        /* \"#utility.yul\":2825:2887   */\n      tag_90\n        /* \"#utility.yul\":2883:2886   */\n      dup4\n        /* \"#utility.yul\":2875:2881   */\n      dup4\n        /* \"#utility.yul\":2825:2887   */\n      tag_49\n      jump\t// in\n    tag_90:\n        /* \"#utility.yul\":2919:2923   */\n      0x20\n        /* \"#utility.yul\":2914:2917   */\n      dup4\n        /* \"#utility.yul\":2910:2924   */\n      add\n        /* \"#utility.yul\":2896:2924   */\n      swap1\n      pop\n        /* \"#utility.yul\":2719:2930   */\n      swap3\n      swap2\n      pop\n      pop\n      jump\t// out\n        /* \"#utility.yul\":2936:3065   */\n    tag_51:\n        /* \"#utility.yul\":3022:3026   */\n      0x00\n        /* \"#utility.yul\":3054:3058   */\n      0x20\n        /* \"#utility.yul\":3049:3052   */\n      dup3\n        /* \"#utility.yul\":3045:3059   */\n      add\n        /* \"#utility.yul\":3037:3059   */\n      swap1\n      pop\n        /* \"#utility.yul\":2936:3065   */\n      swap2\n      swap1\n      pop\n      jump\t// out\n        /* \"#utility.yul\":3111:3923   */\n    tag_52:\n        /* \"#utility.yul\":3246:3249   */\n      0x00\n        /* \"#utility.yul\":3275:3345   */\n      tag_93\n        /* \"#utility.yul\":3339:3344   */\n      dup3\n        /* \"#utility.yul\":3275:3345   */\n      tag_46\n      jump\t// in\n    tag_93:\n        /* \"#utility.yul\":3361:3447   */\n      tag_94\n        /* \"#utility.yul\":3440:3446   */\n      dup2\n        /* \"#utility.yul\":3435:3438   */\n      dup6\n        /* \"#utility.yul\":3361:3447   */\n      tag_47\n      jump\t// in\n    tag_94:\n        /* \"#utility.yul\":3354:3447   */\n      swap4\n      pop\n        /* \"#utility.yul\":3471:3543   */\n      tag_95\n        /* \"#utility.yul\":3537:3542   */\n      dup4\n        /* \"#utility.yul\":3471:3543   */\n      tag_48\n      jump\t// in\n    tag_95:\n        /* \"#utility.yul\":3566:3573   */\n      dup1\n        /* \"#utility.yul\":3597:3598   */\n      0x00\n        /* \"#utility.yul\":3582:3898   */\n    tag_96:\n        /* \"#utility.yul\":3607:3613   */\n      dup4\n        /* \"#utility.yul\":3604:3605   */\n      dup2\n        /* \"#utility.yul\":3601:3614   */\n      lt\n        /* \"#utility.yul\":3582:3898   */\n      iszero\n      tag_98\n      jumpi\n        /* \"#utility.yul\":3683:3689   */\n      dup2\n        /* \"#utility.yul\":3677:3690   */\n      mload\n        /* \"#utility.yul\":3710:3789   */\n      tag_99\n        /* \"#utility.yul\":3785:3788   */\n      dup9\n        /* \"#utility.yul\":3770:3783   */\n      dup3\n        /* \"#utility.yul\":3710:3789   */\n      tag_50\n      jump\t// in\n    tag_99:\n        /* \"#utility.yul\":3703:3789   */\n      swap8\n      pop\n        /* \"#utility.yul\":3812:3888   */\n      tag_100\n        /* \"#utility.yul\":3881:3887   */\n      dup4\n        /* \"#utility.yul\":3812:3888   */\n      tag_51\n      jump\t// in\n    tag_100:\n        /* \"#utility.yul\":3802:3888   */\n      swap3\n      pop\n        /* \"#utility.yul\":3642:3898   */\n      pop\n        /* \"#utility.yul\":3629:3630   */\n      0x01\n        /* \"#utility.yul\":3626:3627   */\n      dup2\n        /* \"#utility.yul\":3622:3631   */\n      add\n        /* \"#utility.yul\":3617:3631   */\n      swap1\n      pop\n        /* \"#utility.yul\":3582:3898   */\n      jump(tag_96)\n    tag_98:\n        /* \"#utility.yul\":3586:3600   */\n      pop\n        /* \"#utility.yul\":3914:3917   */\n      dup6\n        /* \"#utility.yul\":3907:3917   */\n      swap4\n      pop\n        /* \"#utility.yul\":3251:3923   */\n      pop\n      pop\n      pop\n        /* \"#utility.yul\":3111:3923   */\n      swap3\n      swap2\n      pop\n      pop\n      jump\t// out\n        /* \"#utility.yul\":3929:4334   */\n    tag_15:\n        /* \"#utility.yul\":4088:4092   */\n      0x00\n        /* \"#utility.yul\":4126:4128   */\n      0x20\n        /* \"#utility.yul\":4115:4124   */\n      dup3\n        /* \"#utility.yul\":4111:4129   */\n      add\n        /* \"#utility.yul\":4103:4129   */\n      swap1\n      pop\n        /* \"#utility.yul\":4175:4184   */\n      dup2\n        /* \"#utility.yul\":4169:4173   */\n      dup2\n        /* \"#utility.yul\":4165:4185   */\n      sub\n        /* \"#utility.yul\":4161:4162   */\n      0x00\n        /* \"#utility.yul\":4150:4159   */\n      dup4\n        /* \"#utility.yul\":4146:4163   */\n      add\n        /* \"#utility.yul\":4139:4186   */\n      mstore\n        /* \"#utility.yul\":4203:4327   */\n      tag_102\n        /* \"#utility.yul\":4322:4326   */\n      dup2\n        /* \"#utility.yul\":4313:4319   */\n      dup5\n        /* \"#utility.yul\":4203:4327   */\n      tag_52\n      jump\t// in\n    tag_102:\n        /* \"#utility.yul\":4195:4327   */\n      swap1\n      pop\n        /* \"#utility.yul\":3929:4334   */\n      swap3\n      swap2\n      pop\n      pop\n      jump\t// out\n        /* \"#utility.yul\":4340:4959   */\n    tag_18:\n        /* \"#utility.yul\":4417:4423   */\n      0x00\n        /* \"#utility.yul\":4425:4431   */\n      dup1\n        /* \"#utility.yul\":4433:4439   */\n      0x00\n        /* \"#utility.yul\":4482:4484   */\n      0x60\n        /* \"#utility.yul\":4470:4479   */\n      dup5\n        /* \"#utility.yul\":4461:4468   */\n      dup7\n        /* \"#utility.yul\":4457:4480   */\n      sub\n        /* \"#utility.yul\":4453:4485   */\n      slt\n        /* \"#utility.yul\":4450:4569   */\n      iszero\n      tag_104\n      jumpi\n        /* \"#utility.yul\":4488:4567   */\n      tag_105\n      tag_35\n      jump\t// in\n    tag_105:\n        /* \"#utility.yul\":4450:4569   */\n    tag_104:\n        /* \"#utility.yul\":4608:4609   */\n      0x00\n        /* \"#utility.yul\":4633:4686   */\n      tag_106\n        /* \"#utility.yul\":4678:4685   */\n      dup7\n        /* \"#utility.yul\":4669:4675   */\n      dup3\n        /* \"#utility.yul\":4658:4667   */\n      dup8\n        /* \"#utility.yul\":4654:4676   */\n      add\n        /* \"#utility.yul\":4633:4686   */\n      tag_39\n      jump\t// in\n    tag_106:\n        /* \"#utility.yul\":4623:4686   */\n      swap4\n      pop\n        /* \"#utility.yul\":4579:4696   */\n      pop\n        /* \"#utility.yul\":4735:4737   */\n      0x20\n        /* \"#utility.yul\":4761:4814   */\n      tag_107\n        /* \"#utility.yul\":4806:4813   */\n      dup7\n        /* \"#utility.yul\":4797:4803   */\n      dup3\n        /* \"#utility.yul\":4786:4795   */\n      dup8\n        /* \"#utility.yul\":4782:4804   */\n      add\n        /* \"#utility.yul\":4761:4814   */\n      tag_39\n      jump\t// in\n    tag_107:\n        /* \"#utility.yul\":4751:4814   */\n      swap3\n      pop\n        /* \"#utility.yul\":4706:4824   */\n      pop\n        /* \"#utility.yul\":4863:4865   */\n      0x40\n        /* \"#utility.yul\":4889:4942   */\n      tag_108\n        /* \"#utility.yul\":4934:4941   */\n      dup7\n        /* \"#utility.yul\":4925:4931   */\n      dup3\n        /* \"#utility.yul\":4914:4923   */\n      dup8\n        /* \"#utility.yul\":4910:4932   */\n      add\n        /* \"#utility.yul\":4889:4942   */\n      tag_39\n      jump\t// in\n    tag_108:\n        /* \"#utility.yul\":4879:4942   */\n      swap2\n      pop\n        /* \"#utility.yul\":4834:4952   */\n      pop\n        /* \"#utility.yul\":4340:4959   */\n      swap3\n      pop\n      swap3\n      pop\n      swap3\n      jump\t// out\n        /* \"#utility.yul\":4965:5061   */\n    tag_53:\n        /* \"#utility.yul\":5002:5009   */\n      0x00\n        /* \"#utility.yul\":5031:5055   */\n      tag_110\n        /* \"#utility.yul\":5049:5054   */\n      dup3\n        /* \"#utility.yul\":5031:5055   */\n      tag_40\n      jump\t// in\n    tag_110:\n        /* \"#utility.yul\":5020:5055   */\n      swap1\n      pop\n        /* \"#utility.yul\":4965:5061   */\n      swap2\n      swap1\n      pop\n      jump\t// out\n        /* \"#utility.yul\":5067:5185   */\n    tag_54:\n        /* \"#utility.yul\":5154:5178   */\n      tag_112\n        /* \"#utility.yul\":5172:5177   */\n      dup2\n        /* \"#utility.yul\":5154:5178   */\n      tag_53\n      jump\t// in\n    tag_112:\n        /* \"#utility.yul\":5149:5152   */\n      dup3\n        /* \"#utility.yul\":5142:5179   */\n      mstore\n        /* \"#utility.yul\":5067:5185   */\n      pop\n      pop\n      jump\t// out\n        /* \"#utility.yul\":5191:5413   */\n    tag_21:\n        /* \"#utility.yul\":5284:5288   */\n      0x00\n        /* \"#utility.yul\":5322:5324   */\n      0x20\n        /* \"#utility.yul\":5311:5320   */\n      dup3\n        /* \"#utility.yul\":5307:5325   */\n      add\n        /* \"#utility.yul\":5299:5325   */\n      swap1\n      pop\n        /* \"#utility.yul\":5335:5406   */\n      tag_114\n        /* \"#utility.yul\":5403:5404   */\n      0x00\n        /* \"#utility.yul\":5392:5401   */\n      dup4\n        /* \"#utility.yul\":5388:5405   */\n      add\n        /* \"#utility.yul\":5379:5385   */\n      dup5\n        /* \"#utility.yul\":5335:5406   */\n      tag_54\n      jump\t// in\n    tag_114:\n        /* \"#utility.yul\":5191:5413   */\n      swap3\n      swap2\n      pop\n      pop\n      jump\t// out\n        /* \"#utility.yul\":5419:5537   */\n    tag_55:\n        /* \"#utility.yul\":5506:5530   */\n      tag_116\n        /* \"#utility.yul\":5524:5529   */\n      dup2\n        /* \"#utility.yul\":5506:5530   */\n      tag_37\n      jump\t// in\n    tag_116:\n        /* \"#utility.yul\":5501:5504   */\n      dup3\n        /* \"#utility.yul\":5494:5531   */\n      mstore\n        /* \"#utility.yul\":5419:5537   */\n      pop\n      pop\n      jump\t// out\n        /* \"#utility.yul\":5543:6096   */\n    tag_31:\n        /* \"#utility.yul\":5720:5724   */\n      0x00\n        /* \"#utility.yul\":5758:5761   */\n      0x80\n        /* \"#utility.yul\":5747:5756   */\n      dup3\n        /* \"#utility.yul\":5743:5762   */\n      add\n        /* \"#utility.yul\":5735:5762   */\n      swap1\n      pop\n        /* \"#utility.yul\":5772:5843   */\n      tag_118\n        /* \"#utility.yul\":5840:5841   */\n      0x00\n        /* \"#utility.yul\":5829:5838   */\n      dup4\n        /* \"#utility.yul\":5825:5842   */\n      add\n        /* \"#utility.yul\":5816:5822   */\n      dup8\n        /* \"#utility.yul\":5772:5843   */\n      tag_55\n      jump\t// in\n    tag_118:\n        /* \"#utility.yul\":5853:5925   */\n      tag_119\n        /* \"#utility.yul\":5921:5923   */\n      0x20\n        /* \"#utility.yul\":5910:5919   */\n      dup4\n        /* \"#utility.yul\":5906:5924   */\n      add\n        /* \"#utility.yul\":5897:5903   */\n      dup7\n        /* \"#utility.yul\":5853:5925   */\n      tag_55\n      jump\t// in\n    tag_119:\n        /* \"#utility.yul\":5935:6007   */\n      tag_120\n        /* \"#utility.yul\":6003:6005   */\n      0x40\n        /* \"#utility.yul\":5992:6001   */\n      dup4\n        /* \"#utility.yul\":5988:6006   */\n      add\n        /* \"#utility.yul\":5979:5985   */\n      dup6\n        /* \"#utility.yul\":5935:6007   */\n      tag_55\n      jump\t// in\n    tag_120:\n        /* \"#utility.yul\":6017:6089   */\n      tag_121\n        /* \"#utility.yul\":6085:6087   */\n      0x60\n        /* \"#utility.yul\":6074:6083   */\n      dup4\n        /* \"#utility.yul\":6070:6088   */\n      add\n        /* \"#utility.yul\":6061:6067   */\n      dup5\n        /* \"#utility.yul\":6017:6089   */\n      tag_54\n      jump\t// in\n    tag_121:\n        /* \"#utility.yul\":5543:6096   */\n      swap6\n      swap5\n      pop\n      pop\n      pop\n      pop\n      pop\n      jump\t// out\n    stop\n\n    sub_0: assembly {\n            /* \"Campaign.sol\":560:6157  contract Campaign {... */\n          mstore(0x40, 0x80)\n            /* \"Campaign.sol\":2339:2733  constructor(... */\n          callvalue\n          dup1\n          iszero\n          tag_1\n          jumpi\n          0x00\n          dup1\n          revert\n        tag_1:\n          pop\n          mload(0x40)\n          sub(codesize, bytecodeSize)\n          dup1\n          bytecodeSize\n          dup4\n          codecopy\n          dup2\n          dup2\n          add\n          0x40\n          mstore\n          dup2\n          add\n          swap1\n          tag_2\n          swap2\n          swap1\n          tag_3\n          jump\t// in\n        tag_2:\n            /* \"Campaign.sol\":2477:2492  block.timestamp */\n          timestamp\n            /* \"Campaign.sol\":2470:2474  _end */\n          dup4\n            /* \"Campaign.sol\":2470:2492  _end > block.timestamp */\n          gt\n            /* \"Campaign.sol\":2462:2531  require(_end > block.timestamp, \"End time is less than current time\") */\n          tag_6\n          jumpi\n          mload(0x40)\n          0x08c379a000000000000000000000000000000000000000000000000000000000\n          dup2\n          mstore\n          0x04\n          add\n          tag_7\n          swap1\n          tag_8\n          jump\t// in\n        tag_7:\n          mload(0x40)\n          dup1\n          swap2\n          sub\n          swap1\n          revert\n        tag_6:\n            /* \"Campaign.sol\":2552:2558  _owner */\n          dup1\n            /* \"Campaign.sol\":2542:2549  manager */\n          0x00\n          dup1\n            /* \"Campaign.sol\":2542:2558  manager = _owner */\n          0x0100\n          exp\n          dup2\n          sload\n          dup2\n          0xffffffffffffffffffffffffffffffffffffffff\n          mul\n          not\n          and\n          swap1\n          dup4\n          0xffffffffffffffffffffffffffffffffffffffff\n          and\n          mul\n          or\n          swap1\n          sstore\n          pop\n            /* \"Campaign.sol\":2575:2580  _goal */\n          dup4\n            /* \"Campaign.sol\":2568:2572  goal */\n          0x01\n            /* \"Campaign.sol\":2568:2580  goal = _goal */\n          dup2\n          swap1\n          sstore\n          pop\n            /* \"Campaign.sol\":2600:2601  0 */\n          0x00\n            /* \"Campaign.sol\":2590:2597  pledged */\n          0x02\n            /* \"Campaign.sol\":2590:2601  pledged = 0 */\n          dup2\n          swap1\n          sstore\n          pop\n            /* \"Campaign.sol\":2621:2636  block.timestamp */\n          timestamp\n            /* \"Campaign.sol\":2611:2618  startAt */\n          0x03\n            /* \"Campaign.sol\":2611:2636  startAt = block.timestamp */\n          dup2\n          swap1\n          sstore\n          pop\n            /* \"Campaign.sol\":2654:2658  _end */\n          dup3\n            /* \"Campaign.sol\":2646:2651  endAt */\n          0x04\n            /* \"Campaign.sol\":2646:2658  endAt = _end */\n          dup2\n          swap1\n          sstore\n          pop\n            /* \"Campaign.sol\":2680:2688  _minimum */\n          dup2\n            /* \"Campaign.sol\":2668:2677  minPledge */\n          0x05\n            /* \"Campaign.sol\":2668:2688  minPledge = _minimum */\n          dup2\n          swap1\n          sstore\n          pop\n            /* \"Campaign.sol\":2721:2726  false */\n          0x00\n            /* \"Campaign.sol\":2710:2718  canceled */\n          0x0a\n          0x01\n            /* \"Campaign.sol\":2710:2726  canceled = false */\n          0x0100\n          exp\n          dup2\n          sload\n          dup2\n          0xff\n          mul\n          not\n          and\n          swap1\n          dup4\n          iszero\n          iszero\n          mul\n          or\n          swap1\n          sstore\n            /* \"Campaign.sol\":2698:2707  completed */\n          0x0a\n          0x00\n            /* \"Campaign.sol\":2698:2726  completed = canceled = false */\n          0x0100\n          exp\n          dup2\n          sload\n          dup2\n          0xff\n          mul\n          not\n          and\n          swap1\n          dup4\n          iszero\n          iszero\n          mul\n          or\n          swap1\n          sstore\n          pop\n            /* \"Campaign.sol\":2339:2733  constructor(... */\n          pop\n          pop\n          pop\n          pop\n            /* \"Campaign.sol\":560:6157  contract Campaign {... */\n          jump(tag_9)\n            /* \"#utility.yul\":88:205   */\n        tag_11:\n            /* \"#utility.yul\":197:198   */\n          0x00\n            /* \"#utility.yul\":194:195   */\n          dup1\n            /* \"#utility.yul\":187:199   */\n          revert\n            /* \"#utility.yul\":334:411   */\n        tag_13:\n            /* \"#utility.yul\":371:378   */\n          0x00\n            /* \"#utility.yul\":400:405   */\n          dup2\n            /* \"#utility.yul\":389:405   */\n          swap1\n          pop\n            /* \"#utility.yul\":334:411   */\n          swap2\n          swap1\n          pop\n          jump\t// out\n            /* \"#utility.yul\":417:539   */\n        tag_14:\n            /* \"#utility.yul\":490:514   */\n          tag_29\n            /* \"#utility.yul\":508:513   */\n          dup2\n            /* \"#utility.yul\":490:514   */\n          tag_13\n          jump\t// in\n        tag_29:\n            /* \"#utility.yul\":483:488   */\n          dup2\n            /* \"#utility.yul\":480:515   */\n          eq\n            /* \"#utility.yul\":470:533   */\n          tag_30\n          jumpi\n            /* \"#utility.yul\":529:530   */\n          0x00\n            /* \"#utility.yul\":526:527   */\n          dup1\n            /* \"#utility.yul\":519:531   */\n          revert\n            /* \"#utility.yul\":470:533   */\n        tag_30:\n            /* \"#utility.yul\":417:539   */\n          pop\n          jump\t// out\n            /* \"#utility.yul\":545:688   */\n        tag_15:\n            /* \"#utility.yul\":602:607   */\n          0x00\n            /* \"#utility.yul\":633:639   */\n          dup2\n            /* \"#utility.yul\":627:640   */\n          mload\n            /* \"#utility.yul\":618:640   */\n          swap1\n          pop\n            /* \"#utility.yul\":649:682   */\n          tag_32\n            /* \"#utility.yul\":676:681   */\n          dup2\n            /* \"#utility.yul\":649:682   */\n          tag_14\n          jump\t// in\n        tag_32:\n            /* \"#utility.yul\":545:688   */\n          swap3\n          swap2\n          pop\n          pop\n          jump\t// out\n            /* \"#utility.yul\":694:820   */\n        tag_16:\n            /* \"#utility.yul\":731:738   */\n          0x00\n            /* \"#utility.yul\":771:813   */\n          0xffffffffffffffffffffffffffffffffffffffff\n            /* \"#utility.yul\":764:769   */\n          dup3\n            /* \"#utility.yul\":760:814   */\n          and\n            /* \"#utility.yul\":749:814   */\n          swap1\n          pop\n            /* \"#utility.yul\":694:820   */\n          swap2\n          swap1\n          pop\n          jump\t// out\n            /* \"#utility.yul\":826:922   */\n        tag_17:\n            /* \"#utility.yul\":863:870   */\n          0x00\n            /* \"#utility.yul\":892:916   */\n          tag_35\n            /* \"#utility.yul\":910:915   */\n          dup3\n            /* \"#utility.yul\":892:916   */\n          tag_16\n          jump\t// in\n        tag_35:\n            /* \"#utility.yul\":881:916   */\n          swap1\n          pop\n            /* \"#utility.yul\":826:922   */\n          swap2\n          swap1\n          pop\n          jump\t// out\n            /* \"#utility.yul\":928:1050   */\n        tag_18:\n            /* \"#utility.yul\":1001:1025   */\n          tag_37\n            /* \"#utility.yul\":1019:1024   */\n          dup2\n            /* \"#utility.yul\":1001:1025   */\n          tag_17\n          jump\t// in\n        tag_37:\n            /* \"#utility.yul\":994:999   */\n          dup2\n            /* \"#utility.yul\":991:1026   */\n          eq\n            /* \"#utility.yul\":981:1044   */\n          tag_38\n          jumpi\n            /* \"#utility.yul\":1040:1041   */\n          0x00\n            /* \"#utility.yul\":1037:1038   */\n          dup1\n            /* \"#utility.yul\":1030:1042   */\n          revert\n            /* \"#utility.yul\":981:1044   */\n        tag_38:\n            /* \"#utility.yul\":928:1050   */\n          pop\n          jump\t// out\n            /* \"#utility.yul\":1056:1199   */\n        tag_19:\n            /* \"#utility.yul\":1113:1118   */\n          0x00\n            /* \"#utility.yul\":1144:1150   */\n          dup2\n            /* \"#utility.yul\":1138:1151   */\n          mload\n            /* \"#utility.yul\":1129:1151   */\n          swap1\n          pop\n            /* \"#utility.yul\":1160:1193   */\n          tag_40\n            /* \"#utility.yul\":1187:1192   */\n          dup2\n            /* \"#utility.yul\":1160:1193   */\n          tag_18\n          jump\t// in\n        tag_40:\n            /* \"#utility.yul\":1056:1199   */\n          swap3\n          swap2\n          pop\n          pop\n          jump\t// out\n            /* \"#utility.yul\":1205:2025   */\n        tag_3:\n            /* \"#utility.yul\":1302:1308   */\n          0x00\n            /* \"#utility.yul\":1310:1316   */\n          dup1\n            /* \"#utility.yul\":1318:1324   */\n          0x00\n            /* \"#utility.yul\":1326:1332   */\n          dup1\n            /* \"#utility.yul\":1375:1378   */\n          0x80\n            /* \"#utility.yul\":1363:1372   */\n          dup6\n            /* \"#utility.yul\":1354:1361   */\n          dup8\n            /* \"#utility.yul\":1350:1373   */\n          sub\n            /* \"#utility.yul\":1346:1379   */\n          slt\n            /* \"#utility.yul\":1343:1463   */\n          iszero\n          tag_42\n          jumpi\n            /* \"#utility.yul\":1382:1461   */\n          tag_43\n          tag_11\n          jump\t// in\n        tag_43:\n            /* \"#utility.yul\":1343:1463   */\n        tag_42:\n            /* \"#utility.yul\":1502:1503   */\n          0x00\n            /* \"#utility.yul\":1527:1591   */\n          tag_44\n            /* \"#utility.yul\":1583:1590   */\n          dup8\n            /* \"#utility.yul\":1574:1580   */\n          dup3\n            /* \"#utility.yul\":1563:1572   */\n          dup9\n            /* \"#utility.yul\":1559:1581   */\n          add\n            /* \"#utility.yul\":1527:1591   */\n          tag_15\n          jump\t// in\n        tag_44:\n            /* \"#utility.yul\":1517:1591   */\n          swap5\n          pop\n            /* \"#utility.yul\":1473:1601   */\n          pop\n            /* \"#utility.yul\":1640:1642   */\n          0x20\n            /* \"#utility.yul\":1666:1730   */\n          tag_45\n            /* \"#utility.yul\":1722:1729   */\n          dup8\n            /* \"#utility.yul\":1713:1719   */\n          dup3\n            /* \"#utility.yul\":1702:1711   */\n          dup9\n            /* \"#utility.yul\":1698:1720   */\n          add\n            /* \"#utility.yul\":1666:1730   */\n          tag_15\n          jump\t// in\n        tag_45:\n            /* \"#utility.yul\":1656:1730   */\n          swap4\n          pop\n            /* \"#utility.yul\":1611:1740   */\n          pop\n            /* \"#utility.yul\":1779:1781   */\n          0x40\n            /* \"#utility.yul\":1805:1869   */\n          tag_46\n            /* \"#utility.yul\":1861:1868   */\n          dup8\n            /* \"#utility.yul\":1852:1858   */\n          dup3\n            /* \"#utility.yul\":1841:1850   */\n          dup9\n            /* \"#utility.yul\":1837:1859   */\n          add\n            /* \"#utility.yul\":1805:1869   */\n          tag_15\n          jump\t// in\n        tag_46:\n            /* \"#utility.yul\":1795:1869   */\n          swap3\n          pop\n            /* \"#utility.yul\":1750:1879   */\n          pop\n            /* \"#utility.yul\":1918:1920   */\n          0x60\n            /* \"#utility.yul\":1944:2008   */\n          tag_47\n            /* \"#utility.yul\":2000:2007   */\n          dup8\n            /* \"#utility.yul\":1991:1997   */\n          dup3\n            /* \"#utility.yul\":1980:1989   */\n          dup9\n            /* \"#utility.yul\":1976:1998   */\n          add\n            /* \"#utility.yul\":1944:2008   */\n          tag_19\n          jump\t// in\n        tag_47:\n            /* \"#utility.yul\":1934:2008   */\n          swap2\n          pop\n            /* \"#utility.yul\":1889:2018   */\n          pop\n            /* \"#utility.yul\":1205:2025   */\n          swap3\n          swap6\n          swap2\n          swap5\n          pop\n          swap3\n          pop\n          jump\t// out\n            /* \"#utility.yul\":2031:2200   */\n        tag_20:\n            /* \"#utility.yul\":2115:2126   */\n          0x00\n            /* \"#utility.yul\":2149:2155   */\n          dup3\n            /* \"#utility.yul\":2144:2147   */\n          dup3\n            /* \"#utility.yul\":2137:2156   */\n          mstore\n            /* \"#utility.yul\":2189:2193   */\n          0x20\n            /* \"#utility.yul\":2184:2187   */\n          dup3\n            /* \"#utility.yul\":2180:2194   */\n          add\n            /* \"#utility.yul\":2165:2194   */\n          swap1\n          pop\n            /* \"#utility.yul\":2031:2200   */\n          swap3\n          swap2\n          pop\n          pop\n          jump\t// out\n            /* \"#utility.yul\":2206:2427   */\n        tag_21:\n            /* \"#utility.yul\":2346:2380   */\n          0x456e642074696d65206973206c657373207468616e2063757272656e74207469\n            /* \"#utility.yul\":2342:2343   */\n          0x00\n            /* \"#utility.yul\":2334:2340   */\n          dup3\n            /* \"#utility.yul\":2330:2344   */\n          add\n            /* \"#utility.yul\":2323:2381   */\n          mstore\n            /* \"#utility.yul\":2415:2419   */\n          0x6d65000000000000000000000000000000000000000000000000000000000000\n            /* \"#utility.yul\":2410:2412   */\n          0x20\n            /* \"#utility.yul\":2402:2408   */\n          dup3\n            /* \"#utility.yul\":2398:2413   */\n          add\n            /* \"#utility.yul\":2391:2420   */\n          mstore\n            /* \"#utility.yul\":2206:2427   */\n          pop\n          jump\t// out\n            /* \"#utility.yul\":2433:2799   */\n        tag_22:\n            /* \"#utility.yul\":2575:2578   */\n          0x00\n            /* \"#utility.yul\":2596:2663   */\n          tag_51\n            /* \"#utility.yul\":2660:2662   */\n          0x22\n            /* \"#utility.yul\":2655:2658   */\n          dup4\n            /* \"#utility.yul\":2596:2663   */\n          tag_20\n          jump\t// in\n        tag_51:\n            /* \"#utility.yul\":2589:2663   */\n          swap2\n          pop\n            /* \"#utility.yul\":2672:2765   */\n          tag_52\n            /* \"#utility.yul\":2761:2764   */\n          dup3\n            /* \"#utility.yul\":2672:2765   */\n          tag_21\n          jump\t// in\n        tag_52:\n            /* \"#utility.yul\":2790:2792   */\n          0x40\n            /* \"#utility.yul\":2785:2788   */\n          dup3\n            /* \"#utility.yul\":2781:2793   */\n          add\n            /* \"#utility.yul\":2774:2793   */\n          swap1\n          pop\n            /* \"#utility.yul\":2433:2799   */\n          swap2\n          swap1\n          pop\n          jump\t// out\n            /* \"#utility.yul\":2805:3224   */\n        tag_8:\n            /* \"#utility.yul\":2971:2975   */\n          0x00\n            /* \"#utility.yul\":3009:3011   */\n          0x20\n            /* \"#utility.yul\":2998:3007   */\n          dup3\n            /* \"#utility.yul\":2994:3012   */\n          add\n            /* \"#utility.yul\":2986:3012   */\n          swap1\n          pop\n            /* \"#utility.yul\":3058:3067   */\n          dup2\n            /* \"#utility.yul\":3052:3056   */\n          dup2\n            /* \"#utility.yul\":3048:3068   */\n          sub\n            /* \"#utility.yul\":3044:3045   */\n          0x00\n            /* \"#utility.yul\":3033:3042   */\n          dup4\n            /* \"#utility.yul\":3029:3046   */\n          add\n            /* \"#utility.yul\":3022:3069   */\n          mstore\n            /* \"#utility.yul\":3086:3217   */\n          tag_54\n            /* \"#utility.yul\":3212:3216   */\n          dup2\n            /* \"#utility.yul\":3086:3217   */\n          tag_22\n          jump\t// in\n        tag_54:\n            /* \"#utility.yul\":3078:3217   */\n          swap1\n          pop\n            /* \"#utility.yul\":2805:3224   */\n          swap2\n          swap1\n          pop\n          jump\t// out\n            /* \"Campaign.sol\":560:6157  contract Campaign {... */\n        tag_9:\n          dataSize(sub_0)\n          dup1\n          dataOffset(sub_0)\n          0x00\n          codecopy\n          0x00\n          return\n        stop\n\n        sub_0: assembly {\n                /* \"Campaign.sol\":560:6157  contract Campaign {... */\n              mstore(0x40, 0x80)\n              jumpi(tag_1, lt(calldatasize, 0x04))\n              shr(0xe0, calldataload(0x00))\n              dup1\n              0x88ffe867\n              gt\n              tag_26\n              jumpi\n              dup1\n              0xba2cb6c5\n              gt\n              tag_27\n              jumpi\n              dup1\n              0xba2cb6c5\n              eq\n              tag_20\n              jumpi\n              dup1\n              0xc5055f2f\n              eq\n              tag_21\n              jumpi\n              dup1\n              0xc7446565\n              eq\n              tag_22\n              jumpi\n              dup1\n              0xd7d1bbdb\n              eq\n              tag_23\n              jumpi\n              dup1\n              0xea8a1af0\n              eq\n              tag_24\n              jumpi\n              dup1\n              0xffabc673\n              eq\n              tag_25\n              jumpi\n              jump(tag_1)\n            tag_27:\n              dup1\n              0x88ffe867\n              eq\n              tag_14\n              jumpi\n              dup1\n              0x8a9cfd55\n              eq\n              tag_15\n              jumpi\n              dup1\n              0x9b4b1786\n              eq\n              tag_16\n              jumpi\n              dup1\n              0x9d9a7fe9\n              eq\n              tag_17\n              jumpi\n              dup1\n              0xaeafca2e\n              eq\n              tag_18\n              jumpi\n              dup1\n              0xb761f24b\n              eq\n              tag_19\n              jumpi\n              jump(tag_1)\n            tag_26:\n              dup1\n              0x481c6a75\n              gt\n              tag_28\n              jumpi\n              dup1\n              0x481c6a75\n              eq\n              tag_8\n              jumpi\n              dup1\n              0x4bb278f3\n              eq\n              tag_9\n              jumpi\n              dup1\n              0x590e1ae3\n              eq\n              tag_10\n              jumpi\n              dup1\n              0x7cc3ae8c\n              eq\n              tag_11\n              jumpi\n              dup1\n              0x81d12c58\n              eq\n              tag_12\n              jumpi\n              dup1\n              0x8813ce12\n              eq\n              tag_13\n              jumpi\n              jump(tag_1)\n            tag_28:\n              dup1\n              0x03441006\n              eq\n              tag_2\n              jumpi\n              dup1\n              0x12065fe0\n              eq\n              tag_3\n              jumpi\n              dup1\n              0x3410452a\n              eq\n              tag_4\n              jumpi\n              dup1\n              0x3f9942ff\n              eq\n              tag_5\n              jumpi\n              dup1\n              0x40193883\n              eq\n              tag_6\n              jumpi\n              dup1\n              0x4051ddac\n              eq\n              tag_7\n              jumpi\n            tag_1:\n              0x00\n              dup1\n              revert\n                /* \"Campaign.sol\":4934:5404  function finalizeRequest(uint256 _id)... */\n            tag_2:\n              tag_29\n              0x04\n              dup1\n              calldatasize\n              sub\n              dup2\n              add\n              swap1\n              tag_30\n              swap2\n              swap1\n              tag_31\n              jump\t// in\n            tag_30:\n              tag_32\n              jump\t// in\n            tag_29:\n              stop\n                /* \"Campaign.sol\":5849:5948  function getBalance() external view returns (uint256) {... */\n            tag_3:\n              callvalue\n              dup1\n              iszero\n              tag_33\n              jumpi\n              0x00\n              dup1\n              revert\n            tag_33:\n              pop\n              tag_34\n              tag_35\n              jump\t// in\n            tag_34:\n              mload(0x40)\n              tag_36\n              swap2\n              swap1\n              tag_37\n              jump\t// in\n            tag_36:\n              mload(0x40)\n              dup1\n              swap2\n              sub\n              swap1\n              return\n                /* \"Campaign.sol\":5954:6053  function getRequestsCount() external view returns (uint256) {... */\n            tag_4:\n              callvalue\n              dup1\n              iszero\n              tag_38\n              jumpi\n              0x00\n              dup1\n              revert\n            tag_38:\n              pop\n              tag_39\n              tag_40\n              jump\t// in\n            tag_39:\n              mload(0x40)\n              tag_41\n              swap2\n              swap1\n              tag_37\n              jump\t// in\n            tag_41:\n              mload(0x40)\n              dup1\n              swap2\n              sub\n              swap1\n              return\n                /* \"Campaign.sol\":1420:1440  bool public canceled */\n            tag_5:\n              callvalue\n              dup1\n              iszero\n              tag_42\n              jumpi\n              0x00\n              dup1\n              revert\n            tag_42:\n              pop\n              tag_43\n              tag_44\n              jump\t// in\n            tag_43:\n              mload(0x40)\n              tag_45\n              swap2\n              swap1\n              tag_46\n              jump\t// in\n            tag_45:\n              mload(0x40)\n              dup1\n              swap2\n              sub\n              swap1\n              return\n                /* \"Campaign.sol\":884:903  uint256 public goal */\n            tag_6:\n              callvalue\n              dup1\n              iszero\n              tag_47\n              jumpi\n              0x00\n              dup1\n              revert\n            tag_47:\n              pop\n              tag_48\n              tag_49\n              jump\t// in\n            tag_48:\n              mload(0x40)\n              tag_50\n              swap2\n              swap1\n              tag_37\n              jump\t// in\n            tag_50:\n              mload(0x40)\n              dup1\n              swap2\n              sub\n              swap1\n              return\n                /* \"Campaign.sol\":5410:5843  function getSummary()... */\n            tag_7:\n              callvalue\n              dup1\n              iszero\n              tag_51\n              jumpi\n              0x00\n              dup1\n              revert\n            tag_51:\n              pop\n              tag_52\n              tag_53\n              jump\t// in\n            tag_52:\n              mload(0x40)\n              tag_54\n              swap6\n              swap5\n              swap4\n              swap3\n              swap2\n              swap1\n              tag_55\n              jump\t// in\n            tag_54:\n              mload(0x40)\n              dup1\n              swap2\n              sub\n              swap1\n              return\n                /* \"Campaign.sol\":847:869  address public manager */\n            tag_8:\n              callvalue\n              dup1\n              iszero\n              tag_56\n              jumpi\n              0x00\n              dup1\n              revert\n            tag_56:\n              pop\n              tag_57\n              tag_58\n              jump\t// in\n            tag_57:\n              mload(0x40)\n              tag_59\n              swap2\n              swap1\n              tag_60\n              jump\t// in\n            tag_59:\n              mload(0x40)\n              dup1\n              swap2\n              sub\n              swap1\n              return\n                /* \"Campaign.sol\":2838:2931  function finalize() external restricted activated succeeded {... */\n            tag_9:\n              callvalue\n              dup1\n              iszero\n              tag_61\n              jumpi\n              0x00\n              dup1\n              revert\n            tag_61:\n              pop\n              tag_62\n              tag_63\n              jump\t// in\n            tag_62:\n              stop\n                /* \"Campaign.sol\":3812:4095  function refund() external payable beforeed contributed notsucceeded {... */\n            tag_10:\n              tag_64\n              tag_65\n              jump\t// in\n            tag_64:\n              stop\n                /* \"Campaign.sol\":1014:1034  uint256 public endAt */\n            tag_11:\n              callvalue\n              dup1\n              iszero\n              tag_66\n              jumpi\n              0x00\n              dup1\n              revert\n            tag_66:\n              pop\n              tag_67\n              tag_68\n              jump\t// in\n            tag_67:\n              mload(0x40)\n              tag_69\n              swap2\n              swap1\n              tag_37\n              jump\t// in\n            tag_69:\n              mload(0x40)\n              dup1\n              swap2\n              sub\n              swap1\n              return\n                /* \"Campaign.sol\":1116:1141  Request[] public requests */\n            tag_12:\n              callvalue\n              dup1\n              iszero\n              tag_70\n              jumpi\n              0x00\n              dup1\n              revert\n            tag_70:\n              pop\n              tag_71\n              0x04\n              dup1\n              calldatasize\n              sub\n              dup2\n              add\n              swap1\n              tag_72\n              swap2\n              swap1\n              tag_31\n              jump\t// in\n            tag_72:\n              tag_73\n              jump\t// in\n            tag_71:\n              mload(0x40)\n              tag_74\n              swap6\n              swap5\n              swap4\n              swap3\n              swap2\n              swap1\n              tag_75\n              jump\t// in\n            tag_74:\n              mload(0x40)\n              dup1\n              swap2\n              sub\n              swap1\n              return\n                /* \"Campaign.sol\":6059:6155  function getRequests() external view returns (Request[] memory) {... */\n            tag_13:\n              callvalue\n              dup1\n              iszero\n              tag_76\n              jumpi\n              0x00\n              dup1\n              revert\n            tag_76:\n              pop\n              tag_77\n              tag_78\n              jump\t// in\n            tag_77:\n              mload(0x40)\n              tag_79\n              swap2\n              swap1\n              tag_80\n              jump\t// in\n            tag_79:\n              mload(0x40)\n              dup1\n              swap2\n              sub\n              swap1\n              return\n                /* \"Campaign.sol\":2937:3285  function pledge() external payable beforeed activated {... */\n            tag_14:\n              tag_81\n              tag_82\n              jump\t// in\n            tag_81:\n              stop\n                /* \"Campaign.sol\":4101:4531  function createRequest(... */\n            tag_15:\n              callvalue\n              dup1\n              iszero\n              tag_83\n              jumpi\n              0x00\n              dup1\n              revert\n            tag_83:\n              pop\n              tag_84\n              0x04\n              dup1\n              calldatasize\n              sub\n              dup2\n              add\n              swap1\n              tag_85\n              swap2\n              swap1\n              tag_86\n              jump\t// in\n            tag_85:\n              tag_87\n              jump\t// in\n            tag_84:\n              stop\n                /* \"Campaign.sol\":1052:1076  uint256 public minPledge */\n            tag_16:\n              callvalue\n              dup1\n              iszero\n              tag_88\n              jumpi\n              0x00\n              dup1\n              revert\n            tag_88:\n              pop\n              tag_89\n              tag_90\n              jump\t// in\n            tag_89:\n              mload(0x40)\n              tag_91\n              swap2\n              swap1\n              tag_37\n              jump\t// in\n            tag_91:\n              mload(0x40)\n              dup1\n              swap2\n              sub\n              swap1\n              return\n                /* \"Campaign.sol\":1378:1399  bool public completed */\n            tag_17:\n              callvalue\n              dup1\n              iszero\n              tag_92\n              jumpi\n              0x00\n              dup1\n              revert\n            tag_92:\n              pop\n              tag_93\n              tag_94\n              jump\t// in\n            tag_93:\n              mload(0x40)\n              tag_95\n              swap2\n              swap1\n              tag_46\n              jump\t// in\n            tag_95:\n              mload(0x40)\n              dup1\n              swap2\n              sub\n              swap1\n              return\n                /* \"Campaign.sol\":926:948  uint256 public pledged */\n            tag_18:\n              callvalue\n              dup1\n              iszero\n              tag_96\n              jumpi\n              0x00\n              dup1\n              revert\n            tag_96:\n              pop\n              tag_97\n              tag_98\n              jump\t// in\n            tag_97:\n              mload(0x40)\n              tag_99\n              swap2\n              swap1\n              tag_37\n              jump\t// in\n            tag_99:\n              mload(0x40)\n              dup1\n              swap2\n              sub\n              swap1\n              return\n                /* \"Campaign.sol\":3291:3806  function unPledge(uint256 _amount)... */\n            tag_19:\n              tag_100\n              0x04\n              dup1\n              calldatasize\n              sub\n              dup2\n              add\n              swap1\n              tag_101\n              swap2\n              swap1\n              tag_31\n              jump\t// in\n            tag_101:\n              tag_102\n              jump\t// in\n            tag_100:\n              stop\n                /* \"Campaign.sol\":1168:1195  uint256 public countPledges */\n            tag_20:\n              callvalue\n              dup1\n              iszero\n              tag_103\n              jumpi\n              0x00\n              dup1\n              revert\n            tag_103:\n              pop\n              tag_104\n              tag_105\n              jump\t// in\n            tag_104:\n              mload(0x40)\n              tag_106\n              swap2\n              swap1\n              tag_37\n              jump\t// in\n            tag_106:\n              mload(0x40)\n              dup1\n              swap2\n              sub\n              swap1\n              return\n                /* \"Campaign.sol\":1227:1270  mapping(address => uint256) public pledgeOf */\n            tag_21:\n              callvalue\n              dup1\n              iszero\n              tag_107\n              jumpi\n              0x00\n              dup1\n              revert\n            tag_107:\n              pop\n              tag_108\n              0x04\n              dup1\n              calldatasize\n              sub\n              dup2\n              add\n              swap1\n              tag_109\n              swap2\n              swap1\n              tag_110\n              jump\t// in\n            tag_109:\n              tag_111\n              jump\t// in\n            tag_108:\n              mload(0x40)\n              tag_112\n              swap2\n              swap1\n              tag_37\n              jump\t// in\n            tag_112:\n              mload(0x40)\n              dup1\n              swap2\n              sub\n              swap1\n              return\n                /* \"Campaign.sol\":971:993  uint256 public startAt */\n            tag_22:\n              callvalue\n              dup1\n              iszero\n              tag_113\n              jumpi\n              0x00\n              dup1\n              revert\n            tag_113:\n              pop\n              tag_114\n              tag_115\n              jump\t// in\n            tag_114:\n              mload(0x40)\n              tag_116\n              swap2\n              swap1\n              tag_37\n              jump\t// in\n            tag_116:\n              mload(0x40)\n              dup1\n              swap2\n              sub\n              swap1\n              return\n                /* \"Campaign.sol\":4537:4928  function approveRequest(uint256 _id) external contributed activated {... */\n            tag_23:\n              callvalue\n              dup1\n              iszero\n              tag_117\n              jumpi\n              0x00\n              dup1\n              revert\n            tag_117:\n              pop\n              tag_118\n              0x04\n              dup1\n              calldatasize\n              sub\n              dup2\n              add\n              swap1\n              tag_119\n              swap2\n              swap1\n              tag_31\n              jump\t// in\n            tag_119:\n              tag_120\n              jump\t// in\n            tag_118:\n              stop\n                /* \"Campaign.sol\":2739:2832  function cancel() external restricted activated notsucceeded {... */\n            tag_24:\n              callvalue\n              dup1\n              iszero\n              tag_121\n              jumpi\n              0x00\n              dup1\n              revert\n            tag_121:\n              pop\n              tag_122\n              tag_123\n              jump\t// in\n            tag_122:\n              stop\n                /* \"Campaign.sol\":1292:1353  mapping(address => mapping(uint256 => bool)) public approvals */\n            tag_25:\n              callvalue\n              dup1\n              iszero\n              tag_124\n              jumpi\n              0x00\n              dup1\n              revert\n            tag_124:\n              pop\n              tag_125\n              0x04\n              dup1\n              calldatasize\n              sub\n              dup2\n              add\n              swap1\n              tag_126\n              swap2\n              swap1\n              tag_127\n              jump\t// in\n            tag_126:\n              tag_128\n              jump\t// in\n            tag_125:\n              mload(0x40)\n              tag_129\n              swap2\n              swap1\n              tag_46\n              jump\t// in\n            tag_129:\n              mload(0x40)\n              dup1\n              swap2\n              sub\n              swap1\n              return\n                /* \"Campaign.sol\":4934:5404  function finalizeRequest(uint256 _id)... */\n            tag_32:\n                /* \"Campaign.sol\":1531:1538  manager */\n              0x00\n              dup1\n              sload\n              swap1\n              0x0100\n              exp\n              swap1\n              div\n              0xffffffffffffffffffffffffffffffffffffffff\n              and\n                /* \"Campaign.sol\":1517:1538  msg.sender == manager */\n              0xffffffffffffffffffffffffffffffffffffffff\n              and\n                /* \"Campaign.sol\":1517:1527  msg.sender */\n              caller\n                /* \"Campaign.sol\":1517:1538  msg.sender == manager */\n              0xffffffffffffffffffffffffffffffffffffffff\n              and\n              eq\n                /* \"Campaign.sol\":1496:1611  require(... */\n              tag_131\n              jumpi\n              mload(0x40)\n              0x08c379a000000000000000000000000000000000000000000000000000000000\n              dup2\n              mstore\n              0x04\n              add\n              tag_132\n              swap1\n              tag_133\n              jump\t// in\n            tag_132:\n              mload(0x40)\n              dup1\n              swap2\n              sub\n              swap1\n              revert\n            tag_131:\n                /* \"Campaign.sol\":2227:2236  completed */\n              0x0a\n              0x00\n              swap1\n              sload\n              swap1\n              0x0100\n              exp\n              swap1\n              div\n              0xff\n              and\n                /* \"Campaign.sol\":2226:2236  !completed */\n              iszero\n                /* \"Campaign.sol\":2218:2262  require(!completed, \"Campaign has finished\") */\n              tag_135\n              jumpi\n              mload(0x40)\n              0x08c379a000000000000000000000000000000000000000000000000000000000\n              dup2\n              mstore\n              0x04\n              add\n              tag_136\n              swap1\n              tag_137\n              jump\t// in\n            tag_136:\n              mload(0x40)\n              dup1\n              swap2\n              sub\n              swap1\n              revert\n            tag_135:\n                /* \"Campaign.sol\":2281:2289  canceled */\n              0x0a\n              0x01\n              swap1\n              sload\n              swap1\n              0x0100\n              exp\n              swap1\n              div\n              0xff\n              and\n                /* \"Campaign.sol\":2280:2289  !canceled */\n              iszero\n                /* \"Campaign.sol\":2272:2315  require(!canceled, \"Campaign has canceled\") */\n              tag_138\n              jumpi\n              mload(0x40)\n              0x08c379a000000000000000000000000000000000000000000000000000000000\n              dup2\n              mstore\n              0x04\n              add\n              tag_139\n              swap1\n              tag_140\n              jump\t// in\n            tag_139:\n              mload(0x40)\n              dup1\n              swap2\n              sub\n              swap1\n              revert\n            tag_138:\n                /* \"Campaign.sol\":5056:5079  Request storage request */\n              0x00\n                /* \"Campaign.sol\":5082:5090  requests */\n              0x06\n                /* \"Campaign.sol\":5091:5094  _id */\n              dup3\n                /* \"Campaign.sol\":5082:5095  requests[_id] */\n              dup2\n              sload\n              dup2\n              lt\n              tag_142\n              jumpi\n              tag_143\n              tag_144\n              jump\t// in\n            tag_143:\n            tag_142:\n              swap1\n              0x00\n              mstore\n              keccak256(0x00, 0x20)\n              swap1\n              0x04\n              mul\n              add\n                /* \"Campaign.sol\":5056:5095  Request storage request = requests[_id] */\n              swap1\n              pop\n                /* \"Campaign.sol\":5115:5122  request */\n              dup1\n                /* \"Campaign.sol\":5115:5132  request.completed */\n              0x02\n              add\n              0x14\n              swap1\n              sload\n              swap1\n              0x0100\n              exp\n              swap1\n              div\n              0xff\n              and\n                /* \"Campaign.sol\":5114:5132  !request.completed */\n              iszero\n                /* \"Campaign.sol\":5106:5163  require(!request.completed, \"Request has been completed\") */\n              tag_146\n              jumpi\n              mload(0x40)\n              0x08c379a000000000000000000000000000000000000000000000000000000000\n              dup2\n              mstore\n              0x04\n              add\n              tag_147\n              swap1\n              tag_148\n              jump\t// in\n            tag_147:\n              mload(0x40)\n              dup1\n              swap2\n              sub\n              swap1\n              revert\n            tag_146:\n                /* \"Campaign.sol\":5235:5236  2 */\n              0x02\n                /* \"Campaign.sol\":5220:5232  countPledges */\n              sload(0x07)\n                /* \"Campaign.sol\":5220:5236  countPledges / 2 */\n              tag_149\n              swap2\n              swap1\n              tag_150\n              jump\t// in\n            tag_149:\n                /* \"Campaign.sol\":5194:5201  request */\n              dup2\n                /* \"Campaign.sol\":5194:5216  request.countApprovals */\n              0x03\n              add\n              sload\n                /* \"Campaign.sol\":5194:5237  request.countApprovals > (countPledges / 2) */\n              gt\n                /* \"Campaign.sol\":5173:5301  require(... */\n              tag_151\n              jumpi\n              mload(0x40)\n              0x08c379a000000000000000000000000000000000000000000000000000000000\n              dup2\n              mstore\n              0x04\n              add\n              tag_152\n              swap1\n              tag_153\n              jump\t// in\n            tag_152:\n              mload(0x40)\n              dup1\n              swap2\n              sub\n              swap1\n              revert\n            tag_151:\n                /* \"Campaign.sol\":5320:5327  request */\n              dup1\n                /* \"Campaign.sol\":5320:5337  request.recipient */\n              0x02\n              add\n              0x00\n              swap1\n              sload\n              swap1\n              0x0100\n              exp\n              swap1\n              div\n              0xffffffffffffffffffffffffffffffffffffffff\n              and\n                /* \"Campaign.sol\":5312:5347  payable(request.recipient).transfer */\n              0xffffffffffffffffffffffffffffffffffffffff\n              and\n                /* \"Campaign.sol\":5312:5363  payable(request.recipient).transfer(request.amount) */\n              0x08fc\n                /* \"Campaign.sol\":5348:5355  request */\n              dup3\n                /* \"Campaign.sol\":5348:5362  request.amount */\n              0x01\n              add\n              sload\n                /* \"Campaign.sol\":5312:5363  payable(request.recipient).transfer(request.amount) */\n              swap1\n              dup2\n              iszero\n              mul\n              swap1\n              mload(0x40)\n              0x00\n              mload(0x40)\n              dup1\n              dup4\n              sub\n              dup2\n              dup6\n              dup9\n              dup9\n              call\n              swap4\n              pop\n              pop\n              pop\n              pop\n              iszero\n              dup1\n              iszero\n              tag_155\n              jumpi\n              returndatasize\n              0x00\n              dup1\n              returndatacopy\n              revert(0x00, returndatasize)\n            tag_155:\n              pop\n                /* \"Campaign.sol\":5393:5397  true */\n              0x01\n                /* \"Campaign.sol\":5373:5380  request */\n              dup2\n                /* \"Campaign.sol\":5373:5390  request.completed */\n              0x02\n              add\n              0x14\n                /* \"Campaign.sol\":5373:5397  request.completed = true */\n              0x0100\n              exp\n              dup2\n              sload\n              dup2\n              0xff\n              mul\n              not\n              and\n              swap1\n              dup4\n              iszero\n              iszero\n              mul\n              or\n              swap1\n              sstore\n              pop\n                /* \"Campaign.sol\":5046:5404  {... */\n              pop\n                /* \"Campaign.sol\":4934:5404  function finalizeRequest(uint256 _id)... */\n              pop\n              jump\t// out\n                /* \"Campaign.sol\":5849:5948  function getBalance() external view returns (uint256) {... */\n            tag_35:\n                /* \"Campaign.sol\":5894:5901  uint256 */\n              0x00\n                /* \"Campaign.sol\":5920:5941  address(this).balance */\n              selfbalance\n                /* \"Campaign.sol\":5913:5941  return address(this).balance */\n              swap1\n              pop\n                /* \"Campaign.sol\":5849:5948  function getBalance() external view returns (uint256) {... */\n              swap1\n              jump\t// out\n                /* \"Campaign.sol\":5954:6053  function getRequestsCount() external view returns (uint256) {... */\n            tag_40:\n                /* \"Campaign.sol\":6005:6012  uint256 */\n              0x00\n                /* \"Campaign.sol\":6031:6039  requests */\n              0x06\n                /* \"Campaign.sol\":6031:6046  requests.length */\n              dup1\n              sload\n              swap1\n              pop\n                /* \"Campaign.sol\":6024:6046  return requests.length */\n              swap1\n              pop\n                /* \"Campaign.sol\":5954:6053  function getRequestsCount() external view returns (uint256) {... */\n              swap1\n              jump\t// out\n                /* \"Campaign.sol\":1420:1440  bool public canceled */\n            tag_44:\n              0x0a\n              0x01\n              swap1\n              sload\n              swap1\n              0x0100\n              exp\n              swap1\n              div\n              0xff\n              and\n              dup2\n              jump\t// out\n                /* \"Campaign.sol\":884:903  uint256 public goal */\n            tag_49:\n              sload(0x01)\n              dup2\n              jump\t// out\n                /* \"Campaign.sol\":5410:5843  function getSummary()... */\n            tag_53:\n                /* \"Campaign.sol\":5492:5499  uint256 */\n              0x00\n                /* \"Campaign.sol\":5526:5533  uint256 */\n              dup1\n                /* \"Campaign.sol\":5558:5565  uint256 */\n              0x00\n                /* \"Campaign.sol\":5598:5605  uint256 */\n              dup1\n                /* \"Campaign.sol\":5642:5649  address */\n              0x00\n                /* \"Campaign.sol\":5706:5715  minPledge */\n              sload(0x05)\n                /* \"Campaign.sol\":5729:5750  address(this).balance */\n              selfbalance\n                /* \"Campaign.sol\":5764:5772  requests */\n              0x06\n                /* \"Campaign.sol\":5764:5779  requests.length */\n              dup1\n              sload\n              swap1\n              pop\n                /* \"Campaign.sol\":5793:5805  countPledges */\n              sload(0x07)\n                /* \"Campaign.sol\":5819:5826  manager */\n              0x00\n              dup1\n              sload\n              swap1\n              0x0100\n              exp\n              swap1\n              div\n              0xffffffffffffffffffffffffffffffffffffffff\n              and\n                /* \"Campaign.sol\":5685:5836  return (... */\n              swap5\n              pop\n              swap5\n              pop\n              swap5\n              pop\n              swap5\n              pop\n              swap5\n              pop\n                /* \"Campaign.sol\":5410:5843  function getSummary()... */\n              swap1\n              swap2\n              swap3\n              swap4\n              swap5\n              jump\t// out\n                /* \"Campaign.sol\":847:869  address public manager */\n            tag_58:\n              0x00\n              dup1\n              sload\n              swap1\n              0x0100\n              exp\n              swap1\n              div\n              0xffffffffffffffffffffffffffffffffffffffff\n              and\n              dup2\n              jump\t// out\n                /* \"Campaign.sol\":2838:2931  function finalize() external restricted activated succeeded {... */\n            tag_63:\n                /* \"Campaign.sol\":1531:1538  manager */\n              0x00\n              dup1\n              sload\n              swap1\n              0x0100\n              exp\n              swap1\n              div\n              0xffffffffffffffffffffffffffffffffffffffff\n              and\n                /* \"Campaign.sol\":1517:1538  msg.sender == manager */\n              0xffffffffffffffffffffffffffffffffffffffff\n              and\n                /* \"Campaign.sol\":1517:1527  msg.sender */\n              caller\n                /* \"Campaign.sol\":1517:1538  msg.sender == manager */\n              0xffffffffffffffffffffffffffffffffffffffff\n              and\n              eq\n                /* \"Campaign.sol\":1496:1611  require(... */\n              tag_160\n              jumpi\n              mload(0x40)\n              0x08c379a000000000000000000000000000000000000000000000000000000000\n              dup2\n              mstore\n              0x04\n              add\n              tag_161\n              swap1\n              tag_133\n              jump\t// in\n            tag_161:\n              mload(0x40)\n              dup1\n              swap2\n              sub\n              swap1\n              revert\n            tag_160:\n                /* \"Campaign.sol\":2227:2236  completed */\n              0x0a\n              0x00\n              swap1\n              sload\n              swap1\n              0x0100\n              exp\n              swap1\n              div\n              0xff\n              and\n                /* \"Campaign.sol\":2226:2236  !completed */\n              iszero\n                /* \"Campaign.sol\":2218:2262  require(!completed, \"Campaign has finished\") */\n              tag_163\n              jumpi\n              mload(0x40)\n              0x08c379a000000000000000000000000000000000000000000000000000000000\n              dup2\n              mstore\n              0x04\n              add\n              tag_164\n              swap1\n              tag_137\n              jump\t// in\n            tag_164:\n              mload(0x40)\n              dup1\n              swap2\n              sub\n              swap1\n              revert\n            tag_163:\n                /* \"Campaign.sol\":2281:2289  canceled */\n              0x0a\n              0x01\n              swap1\n              sload\n              swap1\n              0x0100\n              exp\n              swap1\n              div\n              0xff\n              and\n                /* \"Campaign.sol\":2280:2289  !canceled */\n              iszero\n                /* \"Campaign.sol\":2272:2315  require(!canceled, \"Campaign has canceled\") */\n              tag_165\n              jumpi\n              mload(0x40)\n              0x08c379a000000000000000000000000000000000000000000000000000000000\n              dup2\n              mstore\n              0x04\n              add\n              tag_166\n              swap1\n              tag_140\n              jump\t// in\n            tag_166:\n              mload(0x40)\n              dup1\n              swap2\n              sub\n              swap1\n              revert\n            tag_165:\n                /* \"Campaign.sol\":1966:1970  goal */\n              sload(0x01)\n                /* \"Campaign.sol\":1955:1962  pledged */\n              sload(0x02)\n                /* \"Campaign.sol\":1955:1970  pledged >= goal */\n              lt\n              iszero\n                /* \"Campaign.sol\":1947:1997  require(pledged >= goal, \"Campaign has succeeded\") */\n              tag_168\n              jumpi\n              mload(0x40)\n              0x08c379a000000000000000000000000000000000000000000000000000000000\n              dup2\n              mstore\n              0x04\n              add\n              tag_169\n              swap1\n              tag_170\n              jump\t// in\n            tag_169:\n              mload(0x40)\n              dup1\n              swap2\n              sub\n              swap1\n              revert\n            tag_168:\n                /* \"Campaign.sol\":2920:2924  true */\n              0x01\n                /* \"Campaign.sol\":2908:2917  completed */\n              0x0a\n              0x00\n                /* \"Campaign.sol\":2908:2924  completed = true */\n              0x0100\n              exp\n              dup2\n              sload\n              dup2\n              0xff\n              mul\n              not\n              and\n              swap1\n              dup4\n              iszero\n              iszero\n              mul\n              or\n              swap1\n              sstore\n              pop\n                /* \"Campaign.sol\":2838:2931  function finalize() external restricted activated succeeded {... */\n              jump\t// out\n                /* \"Campaign.sol\":3812:4095  function refund() external payable beforeed contributed notsucceeded {... */\n            tag_65:\n                /* \"Campaign.sol\":1692:1697  endAt */\n              sload(0x04)\n                /* \"Campaign.sol\":1673:1688  block.timestamp */\n              timestamp\n                /* \"Campaign.sol\":1673:1697  block.timestamp <= endAt */\n              gt\n              iszero\n                /* \"Campaign.sol\":1665:1728  require(block.timestamp <= endAt, \"Campaign has already ended\") */\n              tag_173\n              jumpi\n              mload(0x40)\n              0x08c379a000000000000000000000000000000000000000000000000000000000\n              dup2\n              mstore\n              0x04\n              add\n              tag_174\n              swap1\n              tag_175\n              jump\t// in\n            tag_174:\n              mload(0x40)\n              dup1\n              swap2\n              sub\n              swap1\n              revert\n            tag_173:\n                /* \"Campaign.sol\":1829:1830  0 */\n              0x00\n                /* \"Campaign.sol\":1806:1814  pledgeOf */\n              0x08\n                /* \"Campaign.sol\":1806:1826  pledgeOf[msg.sender] */\n              0x00\n                /* \"Campaign.sol\":1815:1825  msg.sender */\n              caller\n                /* \"Campaign.sol\":1806:1826  pledgeOf[msg.sender] */\n              0xffffffffffffffffffffffffffffffffffffffff\n              and\n              0xffffffffffffffffffffffffffffffffffffffff\n              and\n              dup2\n              mstore\n              0x20\n              add\n              swap1\n              dup2\n              mstore\n              0x20\n              add\n              0x00\n              keccak256\n              sload\n                /* \"Campaign.sol\":1806:1830  pledgeOf[msg.sender] > 0 */\n              gt\n                /* \"Campaign.sol\":1785:1892  require(... */\n              tag_177\n              jumpi\n              mload(0x40)\n              0x08c379a000000000000000000000000000000000000000000000000000000000\n              dup2\n              mstore\n              0x04\n              add\n              tag_178\n              swap1\n              tag_179\n              jump\t// in\n            tag_178:\n              mload(0x40)\n              dup1\n              swap2\n              sub\n              swap1\n              revert\n            tag_177:\n                /* \"Campaign.sol\":2086:2090  goal */\n              sload(0x01)\n                /* \"Campaign.sol\":2076:2083  pledged */\n              sload(0x02)\n                /* \"Campaign.sol\":2076:2090  pledged < goal */\n              lt\n                /* \"Campaign.sol\":2055:2163  require(... */\n              tag_181\n              jumpi\n              mload(0x40)\n              0x08c379a000000000000000000000000000000000000000000000000000000000\n              dup2\n              mstore\n              0x04\n              add\n              tag_182\n              swap1\n              tag_183\n              jump\t// in\n            tag_182:\n              mload(0x40)\n              dup1\n              swap2\n              sub\n              swap1\n              revert\n            tag_181:\n                /* \"Campaign.sol\":3891:3902  uint256 bal */\n              0x00\n                /* \"Campaign.sol\":3905:3913  pledgeOf */\n              0x08\n                /* \"Campaign.sol\":3905:3925  pledgeOf[msg.sender] */\n              0x00\n                /* \"Campaign.sol\":3914:3924  msg.sender */\n              caller\n                /* \"Campaign.sol\":3905:3925  pledgeOf[msg.sender] */\n              0xffffffffffffffffffffffffffffffffffffffff\n              and\n              0xffffffffffffffffffffffffffffffffffffffff\n              and\n              dup2\n              mstore\n              0x20\n              add\n              swap1\n              dup2\n              mstore\n              0x20\n              add\n              0x00\n              keccak256\n              sload\n                /* \"Campaign.sol\":3891:3925  uint256 bal = pledgeOf[msg.sender] */\n              swap1\n              pop\n                /* \"Campaign.sol\":3935:3955  address payable user */\n              0x00\n                /* \"Campaign.sol\":3966:3976  msg.sender */\n              caller\n                /* \"Campaign.sol\":3935:3977  address payable user = payable(msg.sender) */\n              swap1\n              pop\n                /* \"Campaign.sol\":3987:3991  user */\n              dup1\n                /* \"Campaign.sol\":3987:4000  user.transfer */\n              0xffffffffffffffffffffffffffffffffffffffff\n              and\n                /* \"Campaign.sol\":3987:4005  user.transfer(bal) */\n              0x08fc\n                /* \"Campaign.sol\":4001:4004  bal */\n              dup4\n                /* \"Campaign.sol\":3987:4005  user.transfer(bal) */\n              swap1\n              dup2\n              iszero\n              mul\n              swap1\n              mload(0x40)\n              0x00\n              mload(0x40)\n              dup1\n              dup4\n              sub\n              dup2\n              dup6\n              dup9\n              dup9\n              call\n              swap4\n              pop\n              pop\n              pop\n              pop\n              iszero\n              dup1\n              iszero\n              tag_186\n              jumpi\n              returndatasize\n              0x00\n              dup1\n              returndatacopy\n              revert(0x00, returndatasize)\n            tag_186:\n              pop\n                /* \"Campaign.sol\":4039:4040  0 */\n              0x00\n                /* \"Campaign.sol\":4016:4024  pledgeOf */\n              0x08\n                /* \"Campaign.sol\":4016:4036  pledgeOf[msg.sender] */\n              0x00\n                /* \"Campaign.sol\":4025:4035  msg.sender */\n              caller\n                /* \"Campaign.sol\":4016:4036  pledgeOf[msg.sender] */\n              0xffffffffffffffffffffffffffffffffffffffff\n              and\n              0xffffffffffffffffffffffffffffffffffffffff\n              and\n              dup2\n              mstore\n              0x20\n              add\n              swap1\n              dup2\n              mstore\n              0x20\n              add\n              0x00\n              keccak256\n                /* \"Campaign.sol\":4016:4040  pledgeOf[msg.sender] = 0 */\n              dup2\n              swap1\n              sstore\n              pop\n                /* \"Campaign.sol\":4050:4062  countPledges */\n              0x07\n              0x00\n                /* \"Campaign.sol\":4050:4064  countPledges-- */\n              dup2\n              sload\n              dup1\n              swap3\n              swap2\n              swap1\n              tag_187\n              swap1\n              tag_188\n              jump\t// in\n            tag_187:\n              swap2\n              swap1\n              pop\n              sstore\n              pop\n                /* \"Campaign.sol\":4085:4088  bal */\n              dup2\n                /* \"Campaign.sol\":4074:4081  pledged */\n              0x02\n              0x00\n                /* \"Campaign.sol\":4074:4088  pledged -= bal */\n              dup3\n              dup3\n              sload\n              tag_189\n              swap2\n              swap1\n              tag_190\n              jump\t// in\n            tag_189:\n              swap3\n              pop\n              pop\n              dup2\n              swap1\n              sstore\n              pop\n                /* \"Campaign.sol\":3881:4095  {... */\n              pop\n              pop\n                /* \"Campaign.sol\":3812:4095  function refund() external payable beforeed contributed notsucceeded {... */\n              jump\t// out\n                /* \"Campaign.sol\":1014:1034  uint256 public endAt */\n            tag_68:\n              sload(0x04)\n              dup2\n              jump\t// out\n                /* \"Campaign.sol\":1116:1141  Request[] public requests */\n            tag_73:\n              0x06\n              dup2\n              dup2\n              sload\n              dup2\n              lt\n              tag_191\n              jumpi\n              0x00\n              dup1\n              revert\n            tag_191:\n              swap1\n              0x00\n              mstore\n              keccak256(0x00, 0x20)\n              swap1\n              0x04\n              mul\n              add\n              0x00\n              swap2\n              pop\n              swap1\n              pop\n              dup1\n              0x00\n              add\n              dup1\n              sload\n              tag_193\n              swap1\n              tag_194\n              jump\t// in\n            tag_193:\n              dup1\n              0x1f\n              add\n              0x20\n              dup1\n              swap2\n              div\n              mul\n              0x20\n              add\n              mload(0x40)\n              swap1\n              dup2\n              add\n              0x40\n              mstore\n              dup1\n              swap3\n              swap2\n              swap1\n              dup2\n              dup2\n              mstore\n              0x20\n              add\n              dup3\n              dup1\n              sload\n              tag_195\n              swap1\n              tag_194\n              jump\t// in\n            tag_195:\n              dup1\n              iszero\n              tag_196\n              jumpi\n              dup1\n              0x1f\n              lt\n              tag_197\n              jumpi\n              0x0100\n              dup1\n              dup4\n              sload\n              div\n              mul\n              dup4\n              mstore\n              swap2\n              0x20\n              add\n              swap2\n              jump(tag_196)\n            tag_197:\n              dup3\n              add\n              swap2\n              swap1\n              0x00\n              mstore\n              keccak256(0x00, 0x20)\n              swap1\n            tag_198:\n              dup2\n              sload\n              dup2\n              mstore\n              swap1\n              0x01\n              add\n              swap1\n              0x20\n              add\n              dup1\n              dup4\n              gt\n              tag_198\n              jumpi\n              dup3\n              swap1\n              sub\n              0x1f\n              and\n              dup3\n              add\n              swap2\n            tag_196:\n              pop\n              pop\n              pop\n              pop\n              pop\n              swap1\n              dup1\n              0x01\n              add\n              sload\n              swap1\n              dup1\n              0x02\n              add\n              0x00\n              swap1\n              sload\n              swap1\n              0x0100\n              exp\n              swap1\n              div\n              0xffffffffffffffffffffffffffffffffffffffff\n              and\n              swap1\n              dup1\n              0x02\n              add\n              0x14\n              swap1\n              sload\n              swap1\n              0x0100\n              exp\n              swap1\n              div\n              0xff\n              and\n              swap1\n              dup1\n              0x03\n              add\n              sload\n              swap1\n              pop\n              dup6\n              jump\t// out\n                /* \"Campaign.sol\":6059:6155  function getRequests() external view returns (Request[] memory) {... */\n            tag_78:\n                /* \"Campaign.sol\":6105:6121  Request[] memory */\n              0x60\n                /* \"Campaign.sol\":6140:6148  requests */\n              0x06\n                /* \"Campaign.sol\":6133:6148  return requests */\n              dup1\n              sload\n              dup1\n              0x20\n              mul\n              0x20\n              add\n              mload(0x40)\n              swap1\n              dup2\n              add\n              0x40\n              mstore\n              dup1\n              swap3\n              swap2\n              swap1\n              dup2\n              dup2\n              mstore\n              0x20\n              add\n              0x00\n              swap1\n            tag_200:\n              dup3\n              dup3\n              lt\n              iszero\n              tag_201\n              jumpi\n              dup4\n              dup3\n              swap1\n              0x00\n              mstore\n              keccak256(0x00, 0x20)\n              swap1\n              0x04\n              mul\n              add\n              mload(0x40)\n              dup1\n              0xa0\n              add\n              0x40\n              mstore\n              swap1\n              dup2\n              0x00\n              dup3\n              add\n              dup1\n              sload\n              tag_203\n              swap1\n              tag_194\n              jump\t// in\n            tag_203:\n              dup1\n              0x1f\n              add\n              0x20\n              dup1\n              swap2\n              div\n              mul\n              0x20\n              add\n              mload(0x40)\n              swap1\n              dup2\n              add\n              0x40\n              mstore\n              dup1\n              swap3\n              swap2\n              swap1\n              dup2\n              dup2\n              mstore\n              0x20\n              add\n              dup3\n              dup1\n              sload\n              tag_204\n              swap1\n              tag_194\n              jump\t// in\n            tag_204:\n              dup1\n              iszero\n              tag_205\n              jumpi\n              dup1\n              0x1f\n              lt\n              tag_206\n              jumpi\n              0x0100\n              dup1\n              dup4\n              sload\n              div\n              mul\n              dup4\n              mstore\n              swap2\n              0x20\n              add\n              swap2\n              jump(tag_205)\n            tag_206:\n              dup3\n              add\n              swap2\n              swap1\n              0x00\n              mstore\n              keccak256(0x00, 0x20)\n              swap1\n            tag_207:\n              dup2\n              sload\n              dup2\n              mstore\n              swap1\n              0x01\n              add\n              swap1\n              0x20\n              add\n              dup1\n              dup4\n              gt\n              tag_207\n              jumpi\n              dup3\n              swap1\n              sub\n              0x1f\n              and\n              dup3\n              add\n              swap2\n            tag_205:\n              pop\n              pop\n              pop\n              pop\n              pop\n              dup2\n              mstore\n              0x20\n              add\n              0x01\n              dup3\n              add\n              sload\n              dup2\n              mstore\n              0x20\n              add\n              0x02\n              dup3\n              add\n              0x00\n              swap1\n              sload\n              swap1\n              0x0100\n              exp\n              swap1\n              div\n              0xffffffffffffffffffffffffffffffffffffffff\n              and\n              0xffffffffffffffffffffffffffffffffffffffff\n              and\n              0xffffffffffffffffffffffffffffffffffffffff\n              and\n              dup2\n              mstore\n              0x20\n              add\n              0x02\n              dup3\n              add\n              0x14\n              swap1\n              sload\n              swap1\n              0x0100\n              exp\n              swap1\n              div\n              0xff\n              and\n              iszero\n              iszero\n              iszero\n              iszero\n              dup2\n              mstore\n              0x20\n              add\n              0x03\n              dup3\n              add\n              sload\n              dup2\n              mstore\n              pop\n              pop\n              dup2\n              mstore\n              0x20\n              add\n              swap1\n              0x01\n              add\n              swap1\n              jump(tag_200)\n            tag_201:\n              pop\n              pop\n              pop\n              pop\n              swap1\n              pop\n                /* \"Campaign.sol\":6059:6155  function getRequests() external view returns (Request[] memory) {... */\n              swap1\n              jump\t// out\n                /* \"Campaign.sol\":2937:3285  function pledge() external payable beforeed activated {... */\n            tag_82:\n                /* \"Campaign.sol\":1692:1697  endAt */\n              sload(0x04)\n                /* \"Campaign.sol\":1673:1688  block.timestamp */\n              timestamp\n                /* \"Campaign.sol\":1673:1697  block.timestamp <= endAt */\n              gt\n              iszero\n                /* \"Campaign.sol\":1665:1728  require(block.timestamp <= endAt, \"Campaign has already ended\") */\n              tag_209\n              jumpi\n              mload(0x40)\n              0x08c379a000000000000000000000000000000000000000000000000000000000\n              dup2\n              mstore\n              0x04\n              add\n              tag_210\n              swap1\n              tag_175\n              jump\t// in\n            tag_210:\n              mload(0x40)\n              dup1\n              swap2\n              sub\n              swap1\n              revert\n            tag_209:\n                /* \"Campaign.sol\":2227:2236  completed */\n              0x0a\n              0x00\n              swap1\n              sload\n              swap1\n              0x0100\n              exp\n              swap1\n              div\n              0xff\n              and\n                /* \"Campaign.sol\":2226:2236  !completed */\n              iszero\n                /* \"Campaign.sol\":2218:2262  require(!completed, \"Campaign has finished\") */\n              tag_212\n              jumpi\n              mload(0x40)\n              0x08c379a000000000000000000000000000000000000000000000000000000000\n              dup2\n              mstore\n              0x04\n              add\n              tag_213\n              swap1\n              tag_137\n              jump\t// in\n            tag_213:\n              mload(0x40)\n              dup1\n              swap2\n              sub\n              swap1\n              revert\n            tag_212:\n                /* \"Campaign.sol\":2281:2289  canceled */\n              0x0a\n              0x01\n              swap1\n              sload\n              swap1\n              0x0100\n              exp\n              swap1\n              div\n              0xff\n              and\n                /* \"Campaign.sol\":2280:2289  !canceled */\n              iszero\n                /* \"Campaign.sol\":2272:2315  require(!canceled, \"Campaign has canceled\") */\n              tag_214\n              jumpi\n              mload(0x40)\n              0x08c379a000000000000000000000000000000000000000000000000000000000\n              dup2\n              mstore\n              0x04\n              add\n              tag_215\n              swap1\n              tag_140\n              jump\t// in\n            tag_215:\n              mload(0x40)\n              dup1\n              swap2\n              sub\n              swap1\n              revert\n            tag_214:\n                /* \"Campaign.sol\":3034:3043  minPledge */\n              sload(0x05)\n                /* \"Campaign.sol\":3022:3031  msg.value */\n              callvalue\n                /* \"Campaign.sol\":3022:3043  msg.value > minPledge */\n              gt\n                /* \"Campaign.sol\":3022:3060  msg.value > minPledge && msg.value > 0 */\n              dup1\n              iszero\n              tag_217\n              jumpi\n              pop\n                /* \"Campaign.sol\":3059:3060  0 */\n              0x00\n                /* \"Campaign.sol\":3047:3056  msg.value */\n              callvalue\n                /* \"Campaign.sol\":3047:3060  msg.value > 0 */\n              gt\n                /* \"Campaign.sol\":3022:3060  msg.value > minPledge && msg.value > 0 */\n            tag_217:\n                /* \"Campaign.sol\":3001:3125  require(... */\n              tag_218\n              jumpi\n              mload(0x40)\n              0x08c379a000000000000000000000000000000000000000000000000000000000\n              dup2\n              mstore\n              0x04\n              add\n              tag_219\n              swap1\n              tag_220\n              jump\t// in\n            tag_219:\n              mload(0x40)\n              dup1\n              swap2\n              sub\n              swap1\n              revert\n            tag_218:\n                /* \"Campaign.sol\":3147:3156  msg.value */\n              callvalue\n                /* \"Campaign.sol\":3136:3143  pledged */\n              0x02\n              0x00\n                /* \"Campaign.sol\":3136:3156  pledged += msg.value */\n              dup3\n              dup3\n              sload\n              tag_221\n              swap2\n              swap1\n              tag_222\n              jump\t// in\n            tag_221:\n              swap3\n              pop\n              pop\n              dup2\n              swap1\n              sstore\n              pop\n                /* \"Campaign.sol\":3194:3195  0 */\n              0x00\n                /* \"Campaign.sol\":3170:3178  pledgeOf */\n              0x08\n                /* \"Campaign.sol\":3170:3190  pledgeOf[msg.sender] */\n              0x00\n                /* \"Campaign.sol\":3179:3189  msg.sender */\n              caller\n                /* \"Campaign.sol\":3170:3190  pledgeOf[msg.sender] */\n              0xffffffffffffffffffffffffffffffffffffffff\n              and\n              0xffffffffffffffffffffffffffffffffffffffff\n              and\n              dup2\n              mstore\n              0x20\n              add\n              swap1\n              dup2\n              mstore\n              0x20\n              add\n              0x00\n              keccak256\n              sload\n                /* \"Campaign.sol\":3170:3195  pledgeOf[msg.sender] == 0 */\n              sub\n                /* \"Campaign.sol\":3166:3236  if (pledgeOf[msg.sender] == 0) {... */\n              tag_223\n              jumpi\n                /* \"Campaign.sol\":3211:3223  countPledges */\n              0x07\n              0x00\n                /* \"Campaign.sol\":3211:3225  countPledges++ */\n              dup2\n              sload\n              dup1\n              swap3\n              swap2\n              swap1\n              tag_224\n              swap1\n              tag_225\n              jump\t// in\n            tag_224:\n              swap2\n              swap1\n              pop\n              sstore\n              pop\n                /* \"Campaign.sol\":3166:3236  if (pledgeOf[msg.sender] == 0) {... */\n            tag_223:\n                /* \"Campaign.sol\":3269:3278  msg.value */\n              callvalue\n                /* \"Campaign.sol\":3245:3253  pledgeOf */\n              0x08\n                /* \"Campaign.sol\":3245:3265  pledgeOf[msg.sender] */\n              0x00\n                /* \"Campaign.sol\":3254:3264  msg.sender */\n              caller\n                /* \"Campaign.sol\":3245:3265  pledgeOf[msg.sender] */\n              0xffffffffffffffffffffffffffffffffffffffff\n              and\n              0xffffffffffffffffffffffffffffffffffffffff\n              and\n              dup2\n              mstore\n              0x20\n              add\n              swap1\n              dup2\n              mstore\n              0x20\n              add\n              0x00\n              keccak256\n              0x00\n                /* \"Campaign.sol\":3245:3278  pledgeOf[msg.sender] += msg.value */\n              dup3\n              dup3\n              sload\n              tag_226\n              swap2\n              swap1\n              tag_222\n              jump\t// in\n            tag_226:\n              swap3\n              pop\n              pop\n              dup2\n              swap1\n              sstore\n              pop\n                /* \"Campaign.sol\":2937:3285  function pledge() external payable beforeed activated {... */\n              jump\t// out\n                /* \"Campaign.sol\":4101:4531  function createRequest(... */\n            tag_87:\n                /* \"Campaign.sol\":1531:1538  manager */\n              0x00\n              dup1\n              sload\n              swap1\n              0x0100\n              exp\n              swap1\n              div\n              0xffffffffffffffffffffffffffffffffffffffff\n              and\n                /* \"Campaign.sol\":1517:1538  msg.sender == manager */\n              0xffffffffffffffffffffffffffffffffffffffff\n              and\n                /* \"Campaign.sol\":1517:1527  msg.sender */\n              caller\n                /* \"Campaign.sol\":1517:1538  msg.sender == manager */\n              0xffffffffffffffffffffffffffffffffffffffff\n              and\n              eq\n                /* \"Campaign.sol\":1496:1611  require(... */\n              tag_228\n              jumpi\n              mload(0x40)\n              0x08c379a000000000000000000000000000000000000000000000000000000000\n              dup2\n              mstore\n              0x04\n              add\n              tag_229\n              swap1\n              tag_133\n              jump\t// in\n            tag_229:\n              mload(0x40)\n              dup1\n              swap2\n              sub\n              swap1\n              revert\n            tag_228:\n                /* \"Campaign.sol\":1966:1970  goal */\n              sload(0x01)\n                /* \"Campaign.sol\":1955:1962  pledged */\n              sload(0x02)\n                /* \"Campaign.sol\":1955:1970  pledged >= goal */\n              lt\n              iszero\n                /* \"Campaign.sol\":1947:1997  require(pledged >= goal, \"Campaign has succeeded\") */\n              tag_231\n              jumpi\n              mload(0x40)\n              0x08c379a000000000000000000000000000000000000000000000000000000000\n              dup2\n              mstore\n              0x04\n              add\n              tag_232\n              swap1\n              tag_170\n              jump\t// in\n            tag_232:\n              mload(0x40)\n              dup1\n              swap2\n              sub\n              swap1\n              revert\n            tag_231:\n                /* \"Campaign.sol\":2227:2236  completed */\n              0x0a\n              0x00\n              swap1\n              sload\n              swap1\n              0x0100\n              exp\n              swap1\n              div\n              0xff\n              and\n                /* \"Campaign.sol\":2226:2236  !completed */\n              iszero\n                /* \"Campaign.sol\":2218:2262  require(!completed, \"Campaign has finished\") */\n              tag_234\n              jumpi\n              mload(0x40)\n              0x08c379a000000000000000000000000000000000000000000000000000000000\n              dup2\n              mstore\n              0x04\n              add\n              tag_235\n              swap1\n              tag_137\n              jump\t// in\n            tag_235:\n              mload(0x40)\n              dup1\n              swap2\n              sub\n              swap1\n              revert\n            tag_234:\n                /* \"Campaign.sol\":2281:2289  canceled */\n              0x0a\n              0x01\n              swap1\n              sload\n              swap1\n              0x0100\n              exp\n              swap1\n              div\n              0xff\n              and\n                /* \"Campaign.sol\":2280:2289  !canceled */\n              iszero\n                /* \"Campaign.sol\":2272:2315  require(!canceled, \"Campaign has canceled\") */\n              tag_236\n              jumpi\n              mload(0x40)\n              0x08c379a000000000000000000000000000000000000000000000000000000000\n              dup2\n              mstore\n              0x04\n              add\n              tag_237\n              swap1\n              tag_140\n              jump\t// in\n            tag_237:\n              mload(0x40)\n              dup1\n              swap2\n              sub\n              swap1\n              revert\n            tag_236:\n                /* \"Campaign.sol\":4277:4302  Request memory newRequest */\n              0x00\n                /* \"Campaign.sol\":4305:4488  Request({... */\n              mload(0x40)\n              dup1\n              0xa0\n              add\n              0x40\n              mstore\n              dup1\n                /* \"Campaign.sol\":4340:4352  _description */\n              dup6\n                /* \"Campaign.sol\":4305:4488  Request({... */\n              dup2\n              mstore\n              0x20\n              add\n                /* \"Campaign.sol\":4374:4381  _amount */\n              dup5\n                /* \"Campaign.sol\":4305:4488  Request({... */\n              dup2\n              mstore\n              0x20\n              add\n                /* \"Campaign.sol\":4406:4416  _recipient */\n              dup4\n                /* \"Campaign.sol\":4305:4488  Request({... */\n              0xffffffffffffffffffffffffffffffffffffffff\n              and\n              dup2\n              mstore\n              0x20\n              add\n                /* \"Campaign.sol\":4441:4446  false */\n              0x00\n                /* \"Campaign.sol\":4305:4488  Request({... */\n              iszero\n              iszero\n              dup2\n              mstore\n              0x20\n              add\n                /* \"Campaign.sol\":4476:4477  0 */\n              0x00\n                /* \"Campaign.sol\":4305:4488  Request({... */\n              dup2\n              mstore\n              pop\n                /* \"Campaign.sol\":4277:4488  Request memory newRequest = Request({... */\n              swap1\n              pop\n                /* \"Campaign.sol\":4499:4507  requests */\n              0x06\n                /* \"Campaign.sol\":4513:4523  newRequest */\n              dup2\n                /* \"Campaign.sol\":4499:4524  requests.push(newRequest) */\n              swap1\n              dup1\n              0x01\n              dup2\n              sload\n              add\n              dup1\n              dup3\n              sstore\n              dup1\n              swap2\n              pop\n              pop\n              0x01\n              swap1\n              sub\n              swap1\n              0x00\n              mstore\n              keccak256(0x00, 0x20)\n              swap1\n              0x04\n              mul\n              add\n              0x00\n              swap1\n              swap2\n              swap1\n              swap2\n              swap1\n              swap2\n              pop\n              0x00\n              dup3\n              add\n              mload\n              dup2\n              0x00\n              add\n              swap1\n              dup2\n              tag_240\n              swap2\n              swap1\n              tag_241\n              jump\t// in\n            tag_240:\n              pop\n              0x20\n              dup3\n              add\n              mload\n              dup2\n              0x01\n              add\n              sstore\n              0x40\n              dup3\n              add\n              mload\n              dup2\n              0x02\n              add\n              exp(0x0100, 0x00)\n              dup2\n              sload\n              dup2\n              0xffffffffffffffffffffffffffffffffffffffff\n              mul\n              not\n              and\n              swap1\n              dup4\n              0xffffffffffffffffffffffffffffffffffffffff\n              and\n              mul\n              or\n              swap1\n              sstore\n              pop\n              0x60\n              dup3\n              add\n              mload\n              dup2\n              0x02\n              add\n              exp(0x0100, 0x14)\n              dup2\n              sload\n              dup2\n              0xff\n              mul\n              not\n              and\n              swap1\n              dup4\n              iszero\n              iszero\n              mul\n              or\n              swap1\n              sstore\n              pop\n              0x80\n              dup3\n              add\n              mload\n              dup2\n              0x03\n              add\n              sstore\n              pop\n              pop\n                /* \"Campaign.sol\":4267:4531  {... */\n              pop\n                /* \"Campaign.sol\":4101:4531  function createRequest(... */\n              pop\n              pop\n              pop\n              jump\t// out\n                /* \"Campaign.sol\":1052:1076  uint256 public minPledge */\n            tag_90:\n              sload(0x05)\n              dup2\n              jump\t// out\n                /* \"Campaign.sol\":1378:1399  bool public completed */\n            tag_94:\n              0x0a\n              0x00\n              swap1\n              sload\n              swap1\n              0x0100\n              exp\n              swap1\n              div\n              0xff\n              and\n              dup2\n              jump\t// out\n                /* \"Campaign.sol\":926:948  uint256 public pledged */\n            tag_98:\n              sload(0x02)\n              dup2\n              jump\t// out\n                /* \"Campaign.sol\":3291:3806  function unPledge(uint256 _amount)... */\n            tag_102:\n                /* \"Campaign.sol\":1692:1697  endAt */\n              sload(0x04)\n                /* \"Campaign.sol\":1673:1688  block.timestamp */\n              timestamp\n                /* \"Campaign.sol\":1673:1697  block.timestamp <= endAt */\n              gt\n              iszero\n                /* \"Campaign.sol\":1665:1728  require(block.timestamp <= endAt, \"Campaign has already ended\") */\n              tag_243\n              jumpi\n              mload(0x40)\n              0x08c379a000000000000000000000000000000000000000000000000000000000\n              dup2\n              mstore\n              0x04\n              add\n              tag_244\n              swap1\n              tag_175\n              jump\t// in\n            tag_244:\n              mload(0x40)\n              dup1\n              swap2\n              sub\n              swap1\n              revert\n            tag_243:\n                /* \"Campaign.sol\":1829:1830  0 */\n              0x00\n                /* \"Campaign.sol\":1806:1814  pledgeOf */\n              0x08\n                /* \"Campaign.sol\":1806:1826  pledgeOf[msg.sender] */\n              0x00\n                /* \"Campaign.sol\":1815:1825  msg.sender */\n              caller\n                /* \"Campaign.sol\":1806:1826  pledgeOf[msg.sender] */\n              0xffffffffffffffffffffffffffffffffffffffff\n              and\n              0xffffffffffffffffffffffffffffffffffffffff\n              and\n              dup2\n              mstore\n              0x20\n              add\n              swap1\n              dup2\n              mstore\n              0x20\n              add\n              0x00\n              keccak256\n              sload\n                /* \"Campaign.sol\":1806:1830  pledgeOf[msg.sender] > 0 */\n              gt\n                /* \"Campaign.sol\":1785:1892  require(... */\n              tag_246\n              jumpi\n              mload(0x40)\n              0x08c379a000000000000000000000000000000000000000000000000000000000\n              dup2\n              mstore\n              0x04\n              add\n              tag_247\n              swap1\n              tag_179\n              jump\t// in\n            tag_247:\n              mload(0x40)\n              dup1\n              swap2\n              sub\n              swap1\n              revert\n            tag_246:\n                /* \"Campaign.sol\":2086:2090  goal */\n              sload(0x01)\n                /* \"Campaign.sol\":2076:2083  pledged */\n              sload(0x02)\n                /* \"Campaign.sol\":2076:2090  pledged < goal */\n              lt\n                /* \"Campaign.sol\":2055:2163  require(... */\n              tag_249\n              jumpi\n              mload(0x40)\n              0x08c379a000000000000000000000000000000000000000000000000000000000\n              dup2\n              mstore\n              0x04\n              add\n              tag_250\n              swap1\n              tag_183\n              jump\t// in\n            tag_250:\n              mload(0x40)\n              dup1\n              swap2\n              sub\n              swap1\n              revert\n            tag_249:\n                /* \"Campaign.sol\":3476:3483  _amount */\n              dup1\n                /* \"Campaign.sol\":3452:3460  pledgeOf */\n              0x08\n                /* \"Campaign.sol\":3452:3472  pledgeOf[msg.sender] */\n              0x00\n                /* \"Campaign.sol\":3461:3471  msg.sender */\n              caller\n                /* \"Campaign.sol\":3452:3472  pledgeOf[msg.sender] */\n              0xffffffffffffffffffffffffffffffffffffffff\n              and\n              0xffffffffffffffffffffffffffffffffffffffff\n              and\n              dup2\n              mstore\n              0x20\n              add\n              swap1\n              dup2\n              mstore\n              0x20\n              add\n              0x00\n              keccak256\n              sload\n                /* \"Campaign.sol\":3452:3483  pledgeOf[msg.sender] >= _amount */\n              lt\n              iszero\n                /* \"Campaign.sol\":3431:3559  require(... */\n              tag_252\n              jumpi\n              mload(0x40)\n              0x08c379a000000000000000000000000000000000000000000000000000000000\n              dup2\n              mstore\n              0x04\n              add\n              tag_253\n              swap1\n              tag_254\n              jump\t// in\n            tag_253:\n              mload(0x40)\n              dup1\n              swap2\n              sub\n              swap1\n              revert\n            tag_252:\n                /* \"Campaign.sol\":3570:3590  address payable user */\n              0x00\n                /* \"Campaign.sol\":3601:3611  msg.sender */\n              caller\n                /* \"Campaign.sol\":3570:3612  address payable user = payable(msg.sender) */\n              swap1\n              pop\n                /* \"Campaign.sol\":3622:3626  user */\n              dup1\n                /* \"Campaign.sol\":3622:3635  user.transfer */\n              0xffffffffffffffffffffffffffffffffffffffff\n              and\n                /* \"Campaign.sol\":3622:3644  user.transfer(_amount) */\n              0x08fc\n                /* \"Campaign.sol\":3636:3643  _amount */\n              dup4\n                /* \"Campaign.sol\":3622:3644  user.transfer(_amount) */\n              swap1\n              dup2\n              iszero\n              mul\n              swap1\n              mload(0x40)\n              0x00\n              mload(0x40)\n              dup1\n              dup4\n              sub\n              dup2\n              dup6\n              dup9\n              dup9\n              call\n              swap4\n              pop\n              pop\n              pop\n              pop\n              iszero\n              dup1\n              iszero\n              tag_256\n              jumpi\n              returndatasize\n              0x00\n              dup1\n              returndatacopy\n              revert(0x00, returndatasize)\n            tag_256:\n              pop\n                /* \"Campaign.sol\":3683:3690  _amount */\n              dup2\n                /* \"Campaign.sol\":3659:3667  pledgeOf */\n              0x08\n                /* \"Campaign.sol\":3659:3679  pledgeOf[msg.sender] */\n              0x00\n                /* \"Campaign.sol\":3668:3678  msg.sender */\n              caller\n                /* \"Campaign.sol\":3659:3679  pledgeOf[msg.sender] */\n              0xffffffffffffffffffffffffffffffffffffffff\n              and\n              0xffffffffffffffffffffffffffffffffffffffff\n              and\n              dup2\n              mstore\n              0x20\n              add\n              swap1\n              dup2\n              mstore\n              0x20\n              add\n              0x00\n              keccak256\n              sload\n                /* \"Campaign.sol\":3659:3690  pledgeOf[msg.sender] == _amount */\n              sub\n                /* \"Campaign.sol\":3655:3731  if (pledgeOf[msg.sender] == _amount) {... */\n              tag_257\n              jumpi\n                /* \"Campaign.sol\":3706:3718  countPledges */\n              0x07\n              0x00\n                /* \"Campaign.sol\":3706:3720  countPledges-- */\n              dup2\n              sload\n              dup1\n              swap3\n              swap2\n              swap1\n              tag_258\n              swap1\n              tag_188\n              jump\t// in\n            tag_258:\n              swap2\n              swap1\n              pop\n              sstore\n              pop\n                /* \"Campaign.sol\":3655:3731  if (pledgeOf[msg.sender] == _amount) {... */\n            tag_257:\n                /* \"Campaign.sol\":3751:3758  _amount */\n              dup2\n                /* \"Campaign.sol\":3740:3747  pledged */\n              0x02\n              0x00\n                /* \"Campaign.sol\":3740:3758  pledged -= _amount */\n              dup3\n              dup3\n              sload\n              tag_259\n              swap2\n              swap1\n              tag_190\n              jump\t// in\n            tag_259:\n              swap3\n              pop\n              pop\n              dup2\n              swap1\n              sstore\n              pop\n                /* \"Campaign.sol\":3792:3799  _amount */\n              dup2\n                /* \"Campaign.sol\":3768:3776  pledgeOf */\n              0x08\n                /* \"Campaign.sol\":3768:3788  pledgeOf[msg.sender] */\n              0x00\n                /* \"Campaign.sol\":3777:3787  msg.sender */\n              caller\n                /* \"Campaign.sol\":3768:3788  pledgeOf[msg.sender] */\n              0xffffffffffffffffffffffffffffffffffffffff\n              and\n              0xffffffffffffffffffffffffffffffffffffffff\n              and\n              dup2\n              mstore\n              0x20\n              add\n              swap1\n              dup2\n              mstore\n              0x20\n              add\n              0x00\n              keccak256\n              0x00\n                /* \"Campaign.sol\":3768:3799  pledgeOf[msg.sender] -= _amount */\n              dup3\n              dup3\n              sload\n              tag_260\n              swap2\n              swap1\n              tag_190\n              jump\t// in\n            tag_260:\n              swap3\n              pop\n              pop\n              dup2\n              swap1\n              sstore\n              pop\n                /* \"Campaign.sol\":3421:3806  {... */\n              pop\n                /* \"Campaign.sol\":3291:3806  function unPledge(uint256 _amount)... */\n              pop\n              jump\t// out\n                /* \"Campaign.sol\":1168:1195  uint256 public countPledges */\n            tag_105:\n              sload(0x07)\n              dup2\n              jump\t// out\n                /* \"Campaign.sol\":1227:1270  mapping(address => uint256) public pledgeOf */\n            tag_111:\n              mstore(0x20, 0x08)\n              dup1\n              0x00\n              mstore\n              keccak256(0x00, 0x40)\n              0x00\n              swap2\n              pop\n              swap1\n              pop\n              sload\n              dup2\n              jump\t// out\n                /* \"Campaign.sol\":971:993  uint256 public startAt */\n            tag_115:\n              sload(0x03)\n              dup2\n              jump\t// out\n                /* \"Campaign.sol\":4537:4928  function approveRequest(uint256 _id) external contributed activated {... */\n            tag_120:\n                /* \"Campaign.sol\":1829:1830  0 */\n              0x00\n                /* \"Campaign.sol\":1806:1814  pledgeOf */\n              0x08\n                /* \"Campaign.sol\":1806:1826  pledgeOf[msg.sender] */\n              0x00\n                /* \"Campaign.sol\":1815:1825  msg.sender */\n              caller\n                /* \"Campaign.sol\":1806:1826  pledgeOf[msg.sender] */\n              0xffffffffffffffffffffffffffffffffffffffff\n              and\n              0xffffffffffffffffffffffffffffffffffffffff\n              and\n              dup2\n              mstore\n              0x20\n              add\n              swap1\n              dup2\n              mstore\n              0x20\n              add\n              0x00\n              keccak256\n              sload\n                /* \"Campaign.sol\":1806:1830  pledgeOf[msg.sender] > 0 */\n              gt\n                /* \"Campaign.sol\":1785:1892  require(... */\n              tag_262\n              jumpi\n              mload(0x40)\n              0x08c379a000000000000000000000000000000000000000000000000000000000\n              dup2\n              mstore\n              0x04\n              add\n              tag_263\n              swap1\n              tag_179\n              jump\t// in\n            tag_263:\n              mload(0x40)\n              dup1\n              swap2\n              sub\n              swap1\n              revert\n            tag_262:\n                /* \"Campaign.sol\":2227:2236  completed */\n              0x0a\n              0x00\n              swap1\n              sload\n              swap1\n              0x0100\n              exp\n              swap1\n              div\n              0xff\n              and\n                /* \"Campaign.sol\":2226:2236  !completed */\n              iszero\n                /* \"Campaign.sol\":2218:2262  require(!completed, \"Campaign has finished\") */\n              tag_265\n              jumpi\n              mload(0x40)\n              0x08c379a000000000000000000000000000000000000000000000000000000000\n              dup2\n              mstore\n              0x04\n              add\n              tag_266\n              swap1\n              tag_137\n              jump\t// in\n            tag_266:\n              mload(0x40)\n              dup1\n              swap2\n              sub\n              swap1\n              revert\n            tag_265:\n                /* \"Campaign.sol\":2281:2289  canceled */\n              0x0a\n              0x01\n              swap1\n              sload\n              swap1\n              0x0100\n              exp\n              swap1\n              div\n              0xff\n              and\n                /* \"Campaign.sol\":2280:2289  !canceled */\n              iszero\n                /* \"Campaign.sol\":2272:2315  require(!canceled, \"Campaign has canceled\") */\n              tag_267\n              jumpi\n              mload(0x40)\n              0x08c379a000000000000000000000000000000000000000000000000000000000\n              dup2\n              mstore\n              0x04\n              add\n              tag_268\n              swap1\n              tag_140\n              jump\t// in\n            tag_268:\n              mload(0x40)\n              dup1\n              swap2\n              sub\n              swap1\n              revert\n            tag_267:\n                /* \"Campaign.sol\":4615:4638  Request storage request */\n              0x00\n                /* \"Campaign.sol\":4641:4649  requests */\n              0x06\n                /* \"Campaign.sol\":4650:4653  _id */\n              dup3\n                /* \"Campaign.sol\":4641:4654  requests[_id] */\n              dup2\n              sload\n              dup2\n              lt\n              tag_270\n              jumpi\n              tag_271\n              tag_144\n              jump\t// in\n            tag_271:\n            tag_270:\n              swap1\n              0x00\n              mstore\n              keccak256(0x00, 0x20)\n              swap1\n              0x04\n              mul\n              add\n                /* \"Campaign.sol\":4615:4654  Request storage request = requests[_id] */\n              swap1\n              pop\n                /* \"Campaign.sol\":4674:4681  request */\n              dup1\n                /* \"Campaign.sol\":4674:4691  request.completed */\n              0x02\n              add\n              0x14\n              swap1\n              sload\n              swap1\n              0x0100\n              exp\n              swap1\n              div\n              0xff\n              and\n                /* \"Campaign.sol\":4673:4691  !request.completed */\n              iszero\n                /* \"Campaign.sol\":4665:4722  require(!request.completed, \"Request has been completed\") */\n              tag_273\n              jumpi\n              mload(0x40)\n              0x08c379a000000000000000000000000000000000000000000000000000000000\n              dup2\n              mstore\n              0x04\n              add\n              tag_274\n              swap1\n              tag_148\n              jump\t// in\n            tag_274:\n              mload(0x40)\n              dup1\n              swap2\n              sub\n              swap1\n              revert\n            tag_273:\n                /* \"Campaign.sol\":4754:4763  approvals */\n              0x09\n                /* \"Campaign.sol\":4754:4775  approvals[msg.sender] */\n              0x00\n                /* \"Campaign.sol\":4764:4774  msg.sender */\n              caller\n                /* \"Campaign.sol\":4754:4775  approvals[msg.sender] */\n              0xffffffffffffffffffffffffffffffffffffffff\n              and\n              0xffffffffffffffffffffffffffffffffffffffff\n              and\n              dup2\n              mstore\n              0x20\n              add\n              swap1\n              dup2\n              mstore\n              0x20\n              add\n              0x00\n              keccak256\n                /* \"Campaign.sol\":4754:4780  approvals[msg.sender][_id] */\n              0x00\n                /* \"Campaign.sol\":4776:4779  _id */\n              dup4\n                /* \"Campaign.sol\":4754:4780  approvals[msg.sender][_id] */\n              dup2\n              mstore\n              0x20\n              add\n              swap1\n              dup2\n              mstore\n              0x20\n              add\n              0x00\n              keccak256\n              0x00\n              swap1\n              sload\n              swap1\n              0x0100\n              exp\n              swap1\n              div\n              0xff\n              and\n                /* \"Campaign.sol\":4753:4780  !approvals[msg.sender][_id] */\n              iszero\n                /* \"Campaign.sol\":4732:4843  require(... */\n              tag_275\n              jumpi\n              mload(0x40)\n              0x08c379a000000000000000000000000000000000000000000000000000000000\n              dup2\n              mstore\n              0x04\n              add\n              tag_276\n              swap1\n              tag_277\n              jump\t// in\n            tag_276:\n              mload(0x40)\n              dup1\n              swap2\n              sub\n              swap1\n              revert\n            tag_275:\n                /* \"Campaign.sol\":4883:4887  true */\n              0x01\n                /* \"Campaign.sol\":4854:4863  approvals */\n              0x09\n                /* \"Campaign.sol\":4854:4875  approvals[msg.sender] */\n              0x00\n                /* \"Campaign.sol\":4864:4874  msg.sender */\n              caller\n                /* \"Campaign.sol\":4854:4875  approvals[msg.sender] */\n              0xffffffffffffffffffffffffffffffffffffffff\n              and\n              0xffffffffffffffffffffffffffffffffffffffff\n              and\n              dup2\n              mstore\n              0x20\n              add\n              swap1\n              dup2\n              mstore\n              0x20\n              add\n              0x00\n              keccak256\n                /* \"Campaign.sol\":4854:4880  approvals[msg.sender][_id] */\n              0x00\n                /* \"Campaign.sol\":4876:4879  _id */\n              dup5\n                /* \"Campaign.sol\":4854:4880  approvals[msg.sender][_id] */\n              dup2\n              mstore\n              0x20\n              add\n              swap1\n              dup2\n              mstore\n              0x20\n              add\n              0x00\n              keccak256\n              0x00\n                /* \"Campaign.sol\":4854:4887  approvals[msg.sender][_id] = true */\n              0x0100\n              exp\n              dup2\n              sload\n              dup2\n              0xff\n              mul\n              not\n              and\n              swap1\n              dup4\n              iszero\n              iszero\n              mul\n              or\n              swap1\n              sstore\n              pop\n                /* \"Campaign.sol\":4897:4904  request */\n              dup1\n                /* \"Campaign.sol\":4897:4919  request.countApprovals */\n              0x03\n              add\n              0x00\n                /* \"Campaign.sol\":4897:4921  request.countApprovals++ */\n              dup2\n              sload\n              dup1\n              swap3\n              swap2\n              swap1\n              tag_278\n              swap1\n              tag_225\n              jump\t// in\n            tag_278:\n              swap2\n              swap1\n              pop\n              sstore\n              pop\n                /* \"Campaign.sol\":4605:4928  {... */\n              pop\n                /* \"Campaign.sol\":4537:4928  function approveRequest(uint256 _id) external contributed activated {... */\n              pop\n              jump\t// out\n                /* \"Campaign.sol\":2739:2832  function cancel() external restricted activated notsucceeded {... */\n            tag_123:\n                /* \"Campaign.sol\":1531:1538  manager */\n              0x00\n              dup1\n              sload\n              swap1\n              0x0100\n              exp\n              swap1\n              div\n              0xffffffffffffffffffffffffffffffffffffffff\n              and\n                /* \"Campaign.sol\":1517:1538  msg.sender == manager */\n              0xffffffffffffffffffffffffffffffffffffffff\n              and\n                /* \"Campaign.sol\":1517:1527  msg.sender */\n              caller\n                /* \"Campaign.sol\":1517:1538  msg.sender == manager */\n              0xffffffffffffffffffffffffffffffffffffffff\n              and\n              eq\n                /* \"Campaign.sol\":1496:1611  require(... */\n              tag_280\n              jumpi\n              mload(0x40)\n              0x08c379a000000000000000000000000000000000000000000000000000000000\n              dup2\n              mstore\n              0x04\n              add\n              tag_281\n              swap1\n              tag_133\n              jump\t// in\n            tag_281:\n              mload(0x40)\n              dup1\n              swap2\n              sub\n              swap1\n              revert\n            tag_280:\n                /* \"Campaign.sol\":2227:2236  completed */\n              0x0a\n              0x00\n              swap1\n              sload\n              swap1\n              0x0100\n              exp\n              swap1\n              div\n              0xff\n              and\n                /* \"Campaign.sol\":2226:2236  !completed */\n              iszero\n                /* \"Campaign.sol\":2218:2262  require(!completed, \"Campaign has finished\") */\n              tag_283\n              jumpi\n              mload(0x40)\n              0x08c379a000000000000000000000000000000000000000000000000000000000\n              dup2\n              mstore\n              0x04\n              add\n              tag_284\n              swap1\n              tag_137\n              jump\t// in\n            tag_284:\n              mload(0x40)\n              dup1\n              swap2\n              sub\n              swap1\n              revert\n            tag_283:\n                /* \"Campaign.sol\":2281:2289  canceled */\n              0x0a\n              0x01\n              swap1\n              sload\n              swap1\n              0x0100\n              exp\n              swap1\n              div\n              0xff\n              and\n                /* \"Campaign.sol\":2280:2289  !canceled */\n              iszero\n                /* \"Campaign.sol\":2272:2315  require(!canceled, \"Campaign has canceled\") */\n              tag_285\n              jumpi\n              mload(0x40)\n              0x08c379a000000000000000000000000000000000000000000000000000000000\n              dup2\n              mstore\n              0x04\n              add\n              tag_286\n              swap1\n              tag_140\n              jump\t// in\n            tag_286:\n              mload(0x40)\n              dup1\n              swap2\n              sub\n              swap1\n              revert\n            tag_285:\n                /* \"Campaign.sol\":2086:2090  goal */\n              sload(0x01)\n                /* \"Campaign.sol\":2076:2083  pledged */\n              sload(0x02)\n                /* \"Campaign.sol\":2076:2090  pledged < goal */\n              lt\n                /* \"Campaign.sol\":2055:2163  require(... */\n              tag_288\n              jumpi\n              mload(0x40)\n              0x08c379a000000000000000000000000000000000000000000000000000000000\n              dup2\n              mstore\n              0x04\n              add\n              tag_289\n              swap1\n              tag_183\n              jump\t// in\n            tag_289:\n              mload(0x40)\n              dup1\n              swap2\n              sub\n              swap1\n              revert\n            tag_288:\n                /* \"Campaign.sol\":2821:2825  true */\n              0x01\n                /* \"Campaign.sol\":2810:2818  canceled */\n              0x0a\n              0x01\n                /* \"Campaign.sol\":2810:2825  canceled = true */\n              0x0100\n              exp\n              dup2\n              sload\n              dup2\n              0xff\n              mul\n              not\n              and\n              swap1\n              dup4\n              iszero\n              iszero\n              mul\n              or\n              swap1\n              sstore\n              pop\n                /* \"Campaign.sol\":2739:2832  function cancel() external restricted activated notsucceeded {... */\n              jump\t// out\n                /* \"Campaign.sol\":1292:1353  mapping(address => mapping(uint256 => bool)) public approvals */\n            tag_128:\n              mstore(0x20, 0x09)\n              dup2\n              0x00\n              mstore\n              mstore(0x20, keccak256(0x00, 0x40))\n              dup1\n              0x00\n              mstore\n              keccak256(0x00, 0x40)\n              0x00\n              swap2\n              pop\n              swap2\n              pop\n              swap1\n              sload\n              swap1\n              0x0100\n              exp\n              swap1\n              div\n              0xff\n              and\n              dup2\n              jump\t// out\n                /* \"#utility.yul\":7:82   */\n            tag_291:\n                /* \"#utility.yul\":40:46   */\n              0x00\n                /* \"#utility.yul\":73:75   */\n              0x40\n                /* \"#utility.yul\":67:76   */\n              mload\n                /* \"#utility.yul\":57:76   */\n              swap1\n              pop\n                /* \"#utility.yul\":7:82   */\n              swap1\n              jump\t// out\n                /* \"#utility.yul\":88:205   */\n            tag_292:\n                /* \"#utility.yul\":197:198   */\n              0x00\n                /* \"#utility.yul\":194:195   */\n              dup1\n                /* \"#utility.yul\":187:199   */\n              revert\n                /* \"#utility.yul\":211:328   */\n            tag_293:\n                /* \"#utility.yul\":320:321   */\n              0x00\n                /* \"#utility.yul\":317:318   */\n              dup1\n                /* \"#utility.yul\":310:322   */\n              revert\n                /* \"#utility.yul\":334:411   */\n            tag_294:\n                /* \"#utility.yul\":371:378   */\n              0x00\n                /* \"#utility.yul\":400:405   */\n              dup2\n                /* \"#utility.yul\":389:405   */\n              swap1\n              pop\n                /* \"#utility.yul\":334:411   */\n              swap2\n              swap1\n              pop\n              jump\t// out\n                /* \"#utility.yul\":417:539   */\n            tag_295:\n                /* \"#utility.yul\":490:514   */\n              tag_383\n                /* \"#utility.yul\":508:513   */\n              dup2\n                /* \"#utility.yul\":490:514   */\n              tag_294\n              jump\t// in\n            tag_383:\n                /* \"#utility.yul\":483:488   */\n              dup2\n                /* \"#utility.yul\":480:515   */\n              eq\n                /* \"#utility.yul\":470:533   */\n              tag_384\n              jumpi\n                /* \"#utility.yul\":529:530   */\n              0x00\n                /* \"#utility.yul\":526:527   */\n              dup1\n                /* \"#utility.yul\":519:531   */\n              revert\n                /* \"#utility.yul\":470:533   */\n            tag_384:\n                /* \"#utility.yul\":417:539   */\n              pop\n              jump\t// out\n                /* \"#utility.yul\":545:684   */\n            tag_296:\n                /* \"#utility.yul\":591:596   */\n              0x00\n                /* \"#utility.yul\":629:635   */\n              dup2\n                /* \"#utility.yul\":616:636   */\n              calldataload\n                /* \"#utility.yul\":607:636   */\n              swap1\n              pop\n                /* \"#utility.yul\":645:678   */\n              tag_386\n                /* \"#utility.yul\":672:677   */\n              dup2\n                /* \"#utility.yul\":645:678   */\n              tag_295\n              jump\t// in\n            tag_386:\n                /* \"#utility.yul\":545:684   */\n              swap3\n              swap2\n              pop\n              pop\n              jump\t// out\n                /* \"#utility.yul\":690:1019   */\n            tag_31:\n                /* \"#utility.yul\":749:755   */\n              0x00\n                /* \"#utility.yul\":798:800   */\n              0x20\n                /* \"#utility.yul\":786:795   */\n              dup3\n                /* \"#utility.yul\":777:784   */\n              dup5\n                /* \"#utility.yul\":773:796   */\n              sub\n                /* \"#utility.yul\":769:801   */\n              slt\n                /* \"#utility.yul\":766:885   */\n              iszero\n              tag_388\n              jumpi\n                /* \"#utility.yul\":804:883   */\n              tag_389\n              tag_292\n              jump\t// in\n            tag_389:\n                /* \"#utility.yul\":766:885   */\n            tag_388:\n                /* \"#utility.yul\":924:925   */\n              0x00\n                /* \"#utility.yul\":949:1002   */\n              tag_390\n                /* \"#utility.yul\":994:1001   */\n              dup5\n                /* \"#utility.yul\":985:991   */\n              dup3\n                /* \"#utility.yul\":974:983   */\n              dup6\n                /* \"#utility.yul\":970:992   */\n              add\n                /* \"#utility.yul\":949:1002   */\n              tag_296\n              jump\t// in\n            tag_390:\n                /* \"#utility.yul\":939:1002   */\n              swap2\n              pop\n                /* \"#utility.yul\":895:1012   */\n              pop\n                /* \"#utility.yul\":690:1019   */\n              swap3\n              swap2\n              pop\n              pop\n              jump\t// out\n                /* \"#utility.yul\":1025:1143   */\n            tag_297:\n                /* \"#utility.yul\":1112:1136   */\n              tag_392\n                /* \"#utility.yul\":1130:1135   */\n              dup2\n                /* \"#utility.yul\":1112:1136   */\n              tag_294\n              jump\t// in\n            tag_392:\n                /* \"#utility.yul\":1107:1110   */\n              dup3\n                /* \"#utility.yul\":1100:1137   */\n              mstore\n                /* \"#utility.yul\":1025:1143   */\n              pop\n              pop\n              jump\t// out\n                /* \"#utility.yul\":1149:1371   */\n            tag_37:\n                /* \"#utility.yul\":1242:1246   */\n              0x00\n                /* \"#utility.yul\":1280:1282   */\n              0x20\n                /* \"#utility.yul\":1269:1278   */\n              dup3\n                /* \"#utility.yul\":1265:1283   */\n              add\n                /* \"#utility.yul\":1257:1283   */\n              swap1\n              pop\n                /* \"#utility.yul\":1293:1364   */\n              tag_394\n                /* \"#utility.yul\":1361:1362   */\n              0x00\n                /* \"#utility.yul\":1350:1359   */\n              dup4\n                /* \"#utility.yul\":1346:1363   */\n              add\n                /* \"#utility.yul\":1337:1343   */\n              dup5\n                /* \"#utility.yul\":1293:1364   */\n              tag_297\n              jump\t// in\n            tag_394:\n                /* \"#utility.yul\":1149:1371   */\n              swap3\n              swap2\n              pop\n              pop\n              jump\t// out\n                /* \"#utility.yul\":1377:1467   */\n            tag_298:\n                /* \"#utility.yul\":1411:1418   */\n              0x00\n                /* \"#utility.yul\":1454:1459   */\n              dup2\n                /* \"#utility.yul\":1447:1460   */\n              iszero\n                /* \"#utility.yul\":1440:1461   */\n              iszero\n                /* \"#utility.yul\":1429:1461   */\n              swap1\n              pop\n                /* \"#utility.yul\":1377:1467   */\n              swap2\n              swap1\n              pop\n              jump\t// out\n                /* \"#utility.yul\":1473:1582   */\n            tag_299:\n                /* \"#utility.yul\":1554:1575   */\n              tag_397\n                /* \"#utility.yul\":1569:1574   */\n              dup2\n                /* \"#utility.yul\":1554:1575   */\n              tag_298\n              jump\t// in\n            tag_397:\n                /* \"#utility.yul\":1549:1552   */\n              dup3\n                /* \"#utility.yul\":1542:1576   */\n              mstore\n                /* \"#utility.yul\":1473:1582   */\n              pop\n              pop\n              jump\t// out\n                /* \"#utility.yul\":1588:1798   */\n            tag_46:\n                /* \"#utility.yul\":1675:1679   */\n              0x00\n                /* \"#utility.yul\":1713:1715   */\n              0x20\n                /* \"#utility.yul\":1702:1711   */\n              dup3\n                /* \"#utility.yul\":1698:1716   */\n              add\n                /* \"#utility.yul\":1690:1716   */\n              swap1\n              pop\n                /* \"#utility.yul\":1726:1791   */\n              tag_399\n                /* \"#utility.yul\":1788:1789   */\n              0x00\n                /* \"#utility.yul\":1777:1786   */\n              dup4\n                /* \"#utility.yul\":1773:1790   */\n              add\n                /* \"#utility.yul\":1764:1770   */\n              dup5\n                /* \"#utility.yul\":1726:1791   */\n              tag_299\n              jump\t// in\n            tag_399:\n                /* \"#utility.yul\":1588:1798   */\n              swap3\n              swap2\n              pop\n              pop\n              jump\t// out\n                /* \"#utility.yul\":1804:1930   */\n            tag_300:\n                /* \"#utility.yul\":1841:1848   */\n              0x00\n                /* \"#utility.yul\":1881:1923   */\n              0xffffffffffffffffffffffffffffffffffffffff\n                /* \"#utility.yul\":1874:1879   */\n              dup3\n                /* \"#utility.yul\":1870:1924   */\n              and\n                /* \"#utility.yul\":1859:1924   */\n              swap1\n              pop\n                /* \"#utility.yul\":1804:1930   */\n              swap2\n              swap1\n              pop\n              jump\t// out\n                /* \"#utility.yul\":1936:2032   */\n            tag_301:\n                /* \"#utility.yul\":1973:1980   */\n              0x00\n                /* \"#utility.yul\":2002:2026   */\n              tag_402\n                /* \"#utility.yul\":2020:2025   */\n              dup3\n                /* \"#utility.yul\":2002:2026   */\n              tag_300\n              jump\t// in\n            tag_402:\n                /* \"#utility.yul\":1991:2026   */\n              swap1\n              pop\n                /* \"#utility.yul\":1936:2032   */\n              swap2\n              swap1\n              pop\n              jump\t// out\n                /* \"#utility.yul\":2038:2156   */\n            tag_302:\n                /* \"#utility.yul\":2125:2149   */\n              tag_404\n                /* \"#utility.yul\":2143:2148   */\n              dup2\n                /* \"#utility.yul\":2125:2149   */\n              tag_301\n              jump\t// in\n            tag_404:\n                /* \"#utility.yul\":2120:2123   */\n              dup3\n                /* \"#utility.yul\":2113:2150   */\n              mstore\n                /* \"#utility.yul\":2038:2156   */\n              pop\n              pop\n              jump\t// out\n                /* \"#utility.yul\":2162:2826   */\n            tag_55:\n                /* \"#utility.yul\":2367:2371   */\n              0x00\n                /* \"#utility.yul\":2405:2408   */\n              0xa0\n                /* \"#utility.yul\":2394:2403   */\n              dup3\n                /* \"#utility.yul\":2390:2409   */\n              add\n                /* \"#utility.yul\":2382:2409   */\n              swap1\n              pop\n                /* \"#utility.yul\":2419:2490   */\n              tag_406\n                /* \"#utility.yul\":2487:2488   */\n              0x00\n                /* \"#utility.yul\":2476:2485   */\n              dup4\n                /* \"#utility.yul\":2472:2489   */\n              add\n                /* \"#utility.yul\":2463:2469   */\n              dup9\n                /* \"#utility.yul\":2419:2490   */\n              tag_297\n              jump\t// in\n            tag_406:\n                /* \"#utility.yul\":2500:2572   */\n              tag_407\n                /* \"#utility.yul\":2568:2570   */\n              0x20\n                /* \"#utility.yul\":2557:2566   */\n              dup4\n                /* \"#utility.yul\":2553:2571   */\n              add\n                /* \"#utility.yul\":2544:2550   */\n              dup8\n                /* \"#utility.yul\":2500:2572   */\n              tag_297\n              jump\t// in\n            tag_407:\n                /* \"#utility.yul\":2582:2654   */\n              tag_408\n                /* \"#utility.yul\":2650:2652   */\n              0x40\n                /* \"#utility.yul\":2639:2648   */\n              dup4\n                /* \"#utility.yul\":2635:2653   */\n              add\n                /* \"#utility.yul\":2626:2632   */\n              dup7\n                /* \"#utility.yul\":2582:2654   */\n              tag_297\n              jump\t// in\n            tag_408:\n                /* \"#utility.yul\":2664:2736   */\n              tag_409\n                /* \"#utility.yul\":2732:2734   */\n              0x60\n                /* \"#utility.yul\":2721:2730   */\n              dup4\n                /* \"#utility.yul\":2717:2735   */\n              add\n                /* \"#utility.yul\":2708:2714   */\n              dup6\n                /* \"#utility.yul\":2664:2736   */\n              tag_297\n              jump\t// in\n            tag_409:\n                /* \"#utility.yul\":2746:2819   */\n              tag_410\n                /* \"#utility.yul\":2814:2817   */\n              0x80\n                /* \"#utility.yul\":2803:2812   */\n              dup4\n                /* \"#utility.yul\":2799:2818   */\n              add\n                /* \"#utility.yul\":2790:2796   */\n              dup5\n                /* \"#utility.yul\":2746:2819   */\n              tag_302\n              jump\t// in\n            tag_410:\n                /* \"#utility.yul\":2162:2826   */\n              swap7\n              swap6\n              pop\n              pop\n              pop\n              pop\n              pop\n              pop\n              jump\t// out\n                /* \"#utility.yul\":2832:3054   */\n            tag_60:\n                /* \"#utility.yul\":2925:2929   */\n              0x00\n                /* \"#utility.yul\":2963:2965   */\n              0x20\n                /* \"#utility.yul\":2952:2961   */\n              dup3\n                /* \"#utility.yul\":2948:2966   */\n              add\n                /* \"#utility.yul\":2940:2966   */\n              swap1\n              pop\n                /* \"#utility.yul\":2976:3047   */\n              tag_412\n                /* \"#utility.yul\":3044:3045   */\n              0x00\n                /* \"#utility.yul\":3033:3042   */\n              dup4\n                /* \"#utility.yul\":3029:3046   */\n              add\n                /* \"#utility.yul\":3020:3026   */\n              dup5\n                /* \"#utility.yul\":2976:3047   */\n              tag_302\n              jump\t// in\n            tag_412:\n                /* \"#utility.yul\":2832:3054   */\n              swap3\n              swap2\n              pop\n              pop\n              jump\t// out\n                /* \"#utility.yul\":3060:3159   */\n            tag_303:\n                /* \"#utility.yul\":3112:3118   */\n              0x00\n                /* \"#utility.yul\":3146:3151   */\n              dup2\n                /* \"#utility.yul\":3140:3152   */\n              mload\n                /* \"#utility.yul\":3130:3152   */\n              swap1\n              pop\n                /* \"#utility.yul\":3060:3159   */\n              swap2\n              swap1\n              pop\n              jump\t// out\n                /* \"#utility.yul\":3165:3334   */\n            tag_304:\n                /* \"#utility.yul\":3249:3260   */\n              0x00\n                /* \"#utility.yul\":3283:3289   */\n              dup3\n                /* \"#utility.yul\":3278:3281   */\n              dup3\n                /* \"#utility.yul\":3271:3290   */\n              mstore\n                /* \"#utility.yul\":3323:3327   */\n              0x20\n                /* \"#utility.yul\":3318:3321   */\n              dup3\n                /* \"#utility.yul\":3314:3328   */\n              add\n                /* \"#utility.yul\":3299:3328   */\n              swap1\n              pop\n                /* \"#utility.yul\":3165:3334   */\n              swap3\n              swap2\n              pop\n              pop\n              jump\t// out\n                /* \"#utility.yul\":3340:3647   */\n            tag_305:\n                /* \"#utility.yul\":3408:3409   */\n              0x00\n                /* \"#utility.yul\":3418:3531   */\n            tag_416:\n                /* \"#utility.yul\":3432:3438   */\n              dup4\n                /* \"#utility.yul\":3429:3430   */\n              dup2\n                /* \"#utility.yul\":3426:3439   */\n              lt\n                /* \"#utility.yul\":3418:3531   */\n              iszero\n              tag_418\n              jumpi\n                /* \"#utility.yul\":3517:3518   */\n              dup1\n                /* \"#utility.yul\":3512:3515   */\n              dup3\n                /* \"#utility.yul\":3508:3519   */\n              add\n                /* \"#utility.yul\":3502:3520   */\n              mload\n                /* \"#utility.yul\":3498:3499   */\n              dup2\n                /* \"#utility.yul\":3493:3496   */\n              dup5\n                /* \"#utility.yul\":3489:3500   */\n              add\n                /* \"#utility.yul\":3482:3521   */\n              mstore\n                /* \"#utility.yul\":3454:3456   */\n              0x20\n                /* \"#utility.yul\":3451:3452   */\n              dup2\n                /* \"#utility.yul\":3447:3457   */\n              add\n                /* \"#utility.yul\":3442:3457   */\n              swap1\n              pop\n                /* \"#utility.yul\":3418:3531   */\n              jump(tag_416)\n            tag_418:\n                /* \"#utility.yul\":3549:3555   */\n              dup4\n                /* \"#utility.yul\":3546:3547   */\n              dup2\n                /* \"#utility.yul\":3543:3556   */\n              gt\n                /* \"#utility.yul\":3540:3641   */\n              iszero\n              tag_419\n              jumpi\n                /* \"#utility.yul\":3629:3630   */\n              0x00\n                /* \"#utility.yul\":3620:3626   */\n              dup5\n                /* \"#utility.yul\":3615:3618   */\n              dup5\n                /* \"#utility.yul\":3611:3627   */\n              add\n                /* \"#utility.yul\":3604:3631   */\n              mstore\n                /* \"#utility.yul\":3540:3641   */\n            tag_419:\n                /* \"#utility.yul\":3389:3647   */\n              pop\n                /* \"#utility.yul\":3340:3647   */\n              pop\n              pop\n              pop\n              jump\t// out\n                /* \"#utility.yul\":3653:3755   */\n            tag_306:\n                /* \"#utility.yul\":3694:3700   */\n              0x00\n                /* \"#utility.yul\":3745:3747   */\n              0x1f\n                /* \"#utility.yul\":3741:3748   */\n              not\n                /* \"#utility.yul\":3736:3738   */\n              0x1f\n                /* \"#utility.yul\":3729:3734   */\n              dup4\n                /* \"#utility.yul\":3725:3739   */\n              add\n                /* \"#utility.yul\":3721:3749   */\n              and\n                /* \"#utility.yul\":3711:3749   */\n              swap1\n              pop\n                /* \"#utility.yul\":3653:3755   */\n              swap2\n              swap1\n              pop\n              jump\t// out\n                /* \"#utility.yul\":3761:4125   */\n            tag_307:\n                /* \"#utility.yul\":3849:3852   */\n              0x00\n                /* \"#utility.yul\":3877:3916   */\n              tag_422\n                /* \"#utility.yul\":3910:3915   */\n              dup3\n                /* \"#utility.yul\":3877:3916   */\n              tag_303\n              jump\t// in\n            tag_422:\n                /* \"#utility.yul\":3932:4003   */\n              tag_423\n                /* \"#utility.yul\":3996:4002   */\n              dup2\n                /* \"#utility.yul\":3991:3994   */\n              dup6\n                /* \"#utility.yul\":3932:4003   */\n              tag_304\n              jump\t// in\n            tag_423:\n                /* \"#utility.yul\":3925:4003   */\n              swap4\n              pop\n                /* \"#utility.yul\":4012:4064   */\n              tag_424\n                /* \"#utility.yul\":4057:4063   */\n              dup2\n                /* \"#utility.yul\":4052:4055   */\n              dup6\n                /* \"#utility.yul\":4045:4049   */\n              0x20\n                /* \"#utility.yul\":4038:4043   */\n              dup7\n                /* \"#utility.yul\":4034:4050   */\n              add\n                /* \"#utility.yul\":4012:4064   */\n              tag_305\n              jump\t// in\n            tag_424:\n                /* \"#utility.yul\":4089:4118   */\n              tag_425\n                /* \"#utility.yul\":4111:4117   */\n              dup2\n                /* \"#utility.yul\":4089:4118   */\n              tag_306\n              jump\t// in\n            tag_425:\n                /* \"#utility.yul\":4084:4087   */\n              dup5\n                /* \"#utility.yul\":4080:4119   */\n              add\n                /* \"#utility.yul\":4073:4119   */\n              swap2\n              pop\n                /* \"#utility.yul\":3853:4125   */\n              pop\n                /* \"#utility.yul\":3761:4125   */\n              swap3\n              swap2\n              pop\n              pop\n              jump\t// out\n                /* \"#utility.yul\":4131:4235   */\n            tag_308:\n                /* \"#utility.yul\":4176:4183   */\n              0x00\n                /* \"#utility.yul\":4205:4229   */\n              tag_427\n                /* \"#utility.yul\":4223:4228   */\n              dup3\n                /* \"#utility.yul\":4205:4229   */\n              tag_300\n              jump\t// in\n            tag_427:\n                /* \"#utility.yul\":4194:4229   */\n              swap1\n              pop\n                /* \"#utility.yul\":4131:4235   */\n              swap2\n              swap1\n              pop\n              jump\t// out\n                /* \"#utility.yul\":4241:4383   */\n            tag_309:\n                /* \"#utility.yul\":4344:4376   */\n              tag_429\n                /* \"#utility.yul\":4370:4375   */\n              dup2\n                /* \"#utility.yul\":4344:4376   */\n              tag_308\n              jump\t// in\n            tag_429:\n                /* \"#utility.yul\":4339:4342   */\n              dup3\n                /* \"#utility.yul\":4332:4377   */\n              mstore\n                /* \"#utility.yul\":4241:4383   */\n              pop\n              pop\n              jump\t// out\n                /* \"#utility.yul\":4389:5164   */\n            tag_75:\n                /* \"#utility.yul\":4624:4628   */\n              0x00\n                /* \"#utility.yul\":4662:4665   */\n              0xa0\n                /* \"#utility.yul\":4651:4660   */\n              dup3\n                /* \"#utility.yul\":4647:4666   */\n              add\n                /* \"#utility.yul\":4639:4666   */\n              swap1\n              pop\n                /* \"#utility.yul\":4712:4721   */\n              dup2\n                /* \"#utility.yul\":4706:4710   */\n              dup2\n                /* \"#utility.yul\":4702:4722   */\n              sub\n                /* \"#utility.yul\":4698:4699   */\n              0x00\n                /* \"#utility.yul\":4687:4696   */\n              dup4\n                /* \"#utility.yul\":4683:4700   */\n              add\n                /* \"#utility.yul\":4676:4723   */\n              mstore\n                /* \"#utility.yul\":4740:4818   */\n              tag_431\n                /* \"#utility.yul\":4813:4817   */\n              dup2\n                /* \"#utility.yul\":4804:4810   */\n              dup9\n                /* \"#utility.yul\":4740:4818   */\n              tag_307\n              jump\t// in\n            tag_431:\n                /* \"#utility.yul\":4732:4818   */\n              swap1\n              pop\n                /* \"#utility.yul\":4828:4900   */\n              tag_432\n                /* \"#utility.yul\":4896:4898   */\n              0x20\n                /* \"#utility.yul\":4885:4894   */\n              dup4\n                /* \"#utility.yul\":4881:4899   */\n              add\n                /* \"#utility.yul\":4872:4878   */\n              dup8\n                /* \"#utility.yul\":4828:4900   */\n              tag_297\n              jump\t// in\n            tag_432:\n                /* \"#utility.yul\":4910:4998   */\n              tag_433\n                /* \"#utility.yul\":4994:4996   */\n              0x40\n                /* \"#utility.yul\":4983:4992   */\n              dup4\n                /* \"#utility.yul\":4979:4997   */\n              add\n                /* \"#utility.yul\":4970:4976   */\n              dup7\n                /* \"#utility.yul\":4910:4998   */\n              tag_309\n              jump\t// in\n            tag_433:\n                /* \"#utility.yul\":5008:5074   */\n              tag_434\n                /* \"#utility.yul\":5070:5072   */\n              0x60\n                /* \"#utility.yul\":5059:5068   */\n              dup4\n                /* \"#utility.yul\":5055:5073   */\n              add\n                /* \"#utility.yul\":5046:5052   */\n              dup6\n                /* \"#utility.yul\":5008:5074   */\n              tag_299\n              jump\t// in\n            tag_434:\n                /* \"#utility.yul\":5084:5157   */\n              tag_435\n                /* \"#utility.yul\":5152:5155   */\n              0x80\n                /* \"#utility.yul\":5141:5150   */\n              dup4\n                /* \"#utility.yul\":5137:5156   */\n              add\n                /* \"#utility.yul\":5128:5134   */\n              dup5\n                /* \"#utility.yul\":5084:5157   */\n              tag_297\n              jump\t// in\n            tag_435:\n                /* \"#utility.yul\":4389:5164   */\n              swap7\n              swap6\n              pop\n              pop\n              pop\n              pop\n              pop\n              pop\n              jump\t// out\n                /* \"#utility.yul\":5170:5307   */\n            tag_310:\n                /* \"#utility.yul\":5260:5266   */\n              0x00\n                /* \"#utility.yul\":5294:5299   */\n              dup2\n                /* \"#utility.yul\":5288:5300   */\n              mload\n                /* \"#utility.yul\":5278:5300   */\n              swap1\n              pop\n                /* \"#utility.yul\":5170:5307   */\n              swap2\n              swap1\n              pop\n              jump\t// out\n                /* \"#utility.yul\":5313:5520   */\n            tag_311:\n                /* \"#utility.yul\":5435:5446   */\n              0x00\n                /* \"#utility.yul\":5469:5475   */\n              dup3\n                /* \"#utility.yul\":5464:5467   */\n              dup3\n                /* \"#utility.yul\":5457:5476   */\n              mstore\n                /* \"#utility.yul\":5509:5513   */\n              0x20\n                /* \"#utility.yul\":5504:5507   */\n              dup3\n                /* \"#utility.yul\":5500:5514   */\n              add\n                /* \"#utility.yul\":5485:5514   */\n              swap1\n              pop\n                /* \"#utility.yul\":5313:5520   */\n              swap3\n              swap2\n              pop\n              pop\n              jump\t// out\n                /* \"#utility.yul\":5526:5681   */\n            tag_312:\n                /* \"#utility.yul\":5616:5620   */\n              0x00\n                /* \"#utility.yul\":5639:5642   */\n              dup2\n                /* \"#utility.yul\":5631:5642   */\n              swap1\n              pop\n                /* \"#utility.yul\":5669:5673   */\n              0x20\n                /* \"#utility.yul\":5664:5667   */\n              dup3\n                /* \"#utility.yul\":5660:5674   */\n              add\n                /* \"#utility.yul\":5652:5674   */\n              swap1\n              pop\n                /* \"#utility.yul\":5526:5681   */\n              swap2\n              swap1\n              pop\n              jump\t// out\n                /* \"#utility.yul\":5687:5846   */\n            tag_313:\n                /* \"#utility.yul\":5761:5772   */\n              0x00\n                /* \"#utility.yul\":5795:5801   */\n              dup3\n                /* \"#utility.yul\":5790:5793   */\n              dup3\n                /* \"#utility.yul\":5783:5802   */\n              mstore\n                /* \"#utility.yul\":5835:5839   */\n              0x20\n                /* \"#utility.yul\":5830:5833   */\n              dup3\n                /* \"#utility.yul\":5826:5840   */\n              add\n                /* \"#utility.yul\":5811:5840   */\n              swap1\n              pop\n                /* \"#utility.yul\":5687:5846   */\n              swap3\n              swap2\n              pop\n              pop\n              jump\t// out\n                /* \"#utility.yul\":5852:6196   */\n            tag_314:\n                /* \"#utility.yul\":5930:5933   */\n              0x00\n                /* \"#utility.yul\":5958:5997   */\n              tag_441\n                /* \"#utility.yul\":5991:5996   */\n              dup3\n                /* \"#utility.yul\":5958:5997   */\n              tag_303\n              jump\t// in\n            tag_441:\n                /* \"#utility.yul\":6013:6074   */\n              tag_442\n                /* \"#utility.yul\":6067:6073   */\n              dup2\n                /* \"#utility.yul\":6062:6065   */\n              dup6\n                /* \"#utility.yul\":6013:6074   */\n              tag_313\n              jump\t// in\n            tag_442:\n                /* \"#utility.yul\":6006:6074   */\n              swap4\n              pop\n                /* \"#utility.yul\":6083:6135   */\n              tag_443\n                /* \"#utility.yul\":6128:6134   */\n              dup2\n                /* \"#utility.yul\":6123:6126   */\n              dup6\n                /* \"#utility.yul\":6116:6120   */\n              0x20\n                /* \"#utility.yul\":6109:6114   */\n              dup7\n                /* \"#utility.yul\":6105:6121   */\n              add\n                /* \"#utility.yul\":6083:6135   */\n              tag_305\n              jump\t// in\n            tag_443:\n                /* \"#utility.yul\":6160:6189   */\n              tag_444\n                /* \"#utility.yul\":6182:6188   */\n              dup2\n                /* \"#utility.yul\":6160:6189   */\n              tag_306\n              jump\t// in\n            tag_444:\n                /* \"#utility.yul\":6155:6158   */\n              dup5\n                /* \"#utility.yul\":6151:6190   */\n              add\n                /* \"#utility.yul\":6144:6190   */\n              swap2\n              pop\n                /* \"#utility.yul\":5934:6196   */\n              pop\n                /* \"#utility.yul\":5852:6196   */\n              swap3\n              swap2\n              pop\n              pop\n              jump\t// out\n                /* \"#utility.yul\":6202:6310   */\n            tag_315:\n                /* \"#utility.yul\":6279:6303   */\n              tag_446\n                /* \"#utility.yul\":6297:6302   */\n              dup2\n                /* \"#utility.yul\":6279:6303   */\n              tag_294\n              jump\t// in\n            tag_446:\n                /* \"#utility.yul\":6274:6277   */\n              dup3\n                /* \"#utility.yul\":6267:6304   */\n              mstore\n                /* \"#utility.yul\":6202:6310   */\n              pop\n              pop\n              jump\t// out\n                /* \"#utility.yul\":6316:6448   */\n            tag_316:\n                /* \"#utility.yul\":6409:6441   */\n              tag_448\n                /* \"#utility.yul\":6435:6440   */\n              dup2\n                /* \"#utility.yul\":6409:6441   */\n              tag_308\n              jump\t// in\n            tag_448:\n                /* \"#utility.yul\":6404:6407   */\n              dup3\n                /* \"#utility.yul\":6397:6442   */\n              mstore\n                /* \"#utility.yul\":6316:6448   */\n              pop\n              pop\n              jump\t// out\n                /* \"#utility.yul\":6454:6553   */\n            tag_317:\n                /* \"#utility.yul\":6525:6546   */\n              tag_450\n                /* \"#utility.yul\":6540:6545   */\n              dup2\n                /* \"#utility.yul\":6525:6546   */\n              tag_298\n              jump\t// in\n            tag_450:\n                /* \"#utility.yul\":6520:6523   */\n              dup3\n                /* \"#utility.yul\":6513:6547   */\n              mstore\n                /* \"#utility.yul\":6454:6553   */\n              pop\n              pop\n              jump\t// out\n                /* \"#utility.yul\":6617:7770   */\n            tag_318:\n                /* \"#utility.yul\":6722:6725   */\n              0x00\n                /* \"#utility.yul\":6758:6762   */\n              0xa0\n                /* \"#utility.yul\":6753:6756   */\n              dup4\n                /* \"#utility.yul\":6749:6763   */\n              add\n                /* \"#utility.yul\":6852:6856   */\n              0x00\n                /* \"#utility.yul\":6845:6850   */\n              dup4\n                /* \"#utility.yul\":6841:6857   */\n              add\n                /* \"#utility.yul\":6835:6858   */\n              mload\n                /* \"#utility.yul\":6905:6908   */\n              dup5\n                /* \"#utility.yul\":6899:6903   */\n              dup3\n                /* \"#utility.yul\":6895:6909   */\n              sub\n                /* \"#utility.yul\":6888:6892   */\n              0x00\n                /* \"#utility.yul\":6883:6886   */\n              dup7\n                /* \"#utility.yul\":6879:6893   */\n              add\n                /* \"#utility.yul\":6872:6910   */\n              mstore\n                /* \"#utility.yul\":6931:7004   */\n              tag_452\n                /* \"#utility.yul\":6999:7003   */\n              dup3\n                /* \"#utility.yul\":6985:6997   */\n              dup3\n                /* \"#utility.yul\":6931:7004   */\n              tag_314\n              jump\t// in\n            tag_452:\n                /* \"#utility.yul\":6923:7004   */\n              swap2\n              pop\n                /* \"#utility.yul\":6773:7015   */\n              pop\n                /* \"#utility.yul\":7099:7103   */\n              0x20\n                /* \"#utility.yul\":7092:7097   */\n              dup4\n                /* \"#utility.yul\":7088:7104   */\n              add\n                /* \"#utility.yul\":7082:7105   */\n              mload\n                /* \"#utility.yul\":7118:7181   */\n              tag_453\n                /* \"#utility.yul\":7175:7179   */\n              0x20\n                /* \"#utility.yul\":7170:7173   */\n              dup7\n                /* \"#utility.yul\":7166:7180   */\n              add\n                /* \"#utility.yul\":7152:7164   */\n              dup3\n                /* \"#utility.yul\":7118:7181   */\n              tag_315\n              jump\t// in\n            tag_453:\n                /* \"#utility.yul\":7025:7191   */\n              pop\n                /* \"#utility.yul\":7278:7282   */\n              0x40\n                /* \"#utility.yul\":7271:7276   */\n              dup4\n                /* \"#utility.yul\":7267:7283   */\n              add\n                /* \"#utility.yul\":7261:7284   */\n              mload\n                /* \"#utility.yul\":7297:7376   */\n              tag_454\n                /* \"#utility.yul\":7370:7374   */\n              0x40\n                /* \"#utility.yul\":7365:7368   */\n              dup7\n                /* \"#utility.yul\":7361:7375   */\n              add\n                /* \"#utility.yul\":7347:7359   */\n              dup3\n                /* \"#utility.yul\":7297:7376   */\n              tag_316\n              jump\t// in\n            tag_454:\n                /* \"#utility.yul\":7201:7386   */\n              pop\n                /* \"#utility.yul\":7473:7477   */\n              0x60\n                /* \"#utility.yul\":7466:7471   */\n              dup4\n                /* \"#utility.yul\":7462:7478   */\n              add\n                /* \"#utility.yul\":7456:7479   */\n              mload\n                /* \"#utility.yul\":7492:7549   */\n              tag_455\n                /* \"#utility.yul\":7543:7547   */\n              0x60\n                /* \"#utility.yul\":7538:7541   */\n              dup7\n                /* \"#utility.yul\":7534:7548   */\n              add\n                /* \"#utility.yul\":7520:7532   */\n              dup3\n                /* \"#utility.yul\":7492:7549   */\n              tag_317\n              jump\t// in\n            tag_455:\n                /* \"#utility.yul\":7396:7559   */\n              pop\n                /* \"#utility.yul\":7651:7655   */\n              0x80\n                /* \"#utility.yul\":7644:7649   */\n              dup4\n                /* \"#utility.yul\":7640:7656   */\n              add\n                /* \"#utility.yul\":7634:7657   */\n              mload\n                /* \"#utility.yul\":7670:7733   */\n              tag_456\n                /* \"#utility.yul\":7727:7731   */\n              0x80\n                /* \"#utility.yul\":7722:7725   */\n              dup7\n                /* \"#utility.yul\":7718:7732   */\n              add\n                /* \"#utility.yul\":7704:7716   */\n              dup3\n                /* \"#utility.yul\":7670:7733   */\n              tag_315\n              jump\t// in\n            tag_456:\n                /* \"#utility.yul\":7569:7743   */\n              pop\n                /* \"#utility.yul\":7760:7764   */\n              dup1\n                /* \"#utility.yul\":7753:7764   */\n              swap2\n              pop\n                /* \"#utility.yul\":6727:7770   */\n              pop\n                /* \"#utility.yul\":6617:7770   */\n              swap3\n              swap2\n              pop\n              pop\n              jump\t// out\n                /* \"#utility.yul\":7776:8024   */\n            tag_319:\n                /* \"#utility.yul\":7891:7901   */\n              0x00\n                /* \"#utility.yul\":7926:8018   */\n              tag_458\n                /* \"#utility.yul\":8014:8017   */\n              dup4\n                /* \"#utility.yul\":8006:8012   */\n              dup4\n                /* \"#utility.yul\":7926:8018   */\n              tag_318\n              jump\t// in\n            tag_458:\n                /* \"#utility.yul\":7912:8018   */\n              swap1\n              pop\n                /* \"#utility.yul\":7776:8024   */\n              swap3\n              swap2\n              pop\n              pop\n              jump\t// out\n                /* \"#utility.yul\":8030:8166   */\n            tag_320:\n                /* \"#utility.yul\":8123:8127   */\n              0x00\n                /* \"#utility.yul\":8155:8159   */\n              0x20\n                /* \"#utility.yul\":8150:8153   */\n              dup3\n                /* \"#utility.yul\":8146:8160   */\n              add\n                /* \"#utility.yul\":8138:8160   */\n              swap1\n              pop\n                /* \"#utility.yul\":8030:8166   */\n              swap2\n              swap1\n              pop\n              jump\t// out\n                /* \"#utility.yul\":8234:9329   */\n            tag_321:\n                /* \"#utility.yul\":8399:8402   */\n              0x00\n                /* \"#utility.yul\":8428:8505   */\n              tag_461\n                /* \"#utility.yul\":8499:8504   */\n              dup3\n                /* \"#utility.yul\":8428:8505   */\n              tag_310\n              jump\t// in\n            tag_461:\n                /* \"#utility.yul\":8521:8630   */\n              tag_462\n                /* \"#utility.yul\":8623:8629   */\n              dup2\n                /* \"#utility.yul\":8618:8621   */\n              dup6\n                /* \"#utility.yul\":8521:8630   */\n              tag_311\n              jump\t// in\n            tag_462:\n                /* \"#utility.yul\":8514:8630   */\n              swap4\n              pop\n                /* \"#utility.yul\":8656:8659   */\n              dup4\n                /* \"#utility.yul\":8701:8705   */\n              0x20\n                /* \"#utility.yul\":8693:8699   */\n              dup3\n                /* \"#utility.yul\":8689:8706   */\n              mul\n                /* \"#utility.yul\":8684:8687   */\n              dup6\n                /* \"#utility.yul\":8680:8707   */\n              add\n                /* \"#utility.yul\":8731:8810   */\n              tag_463\n                /* \"#utility.yul\":8804:8809   */\n              dup6\n                /* \"#utility.yul\":8731:8810   */\n              tag_312\n              jump\t// in\n            tag_463:\n                /* \"#utility.yul\":8833:8840   */\n              dup1\n                /* \"#utility.yul\":8864:8865   */\n              0x00\n                /* \"#utility.yul\":8849:9284   */\n            tag_464:\n                /* \"#utility.yul\":8874:8880   */\n              dup6\n                /* \"#utility.yul\":8871:8872   */\n              dup2\n                /* \"#utility.yul\":8868:8881   */\n              lt\n                /* \"#utility.yul\":8849:9284   */\n              iszero\n              tag_466\n              jumpi\n                /* \"#utility.yul\":8945:8954   */\n              dup5\n                /* \"#utility.yul\":8939:8943   */\n              dup5\n                /* \"#utility.yul\":8935:8955   */\n              sub\n                /* \"#utility.yul\":8930:8933   */\n              dup10\n                /* \"#utility.yul\":8923:8956   */\n              mstore\n                /* \"#utility.yul\":8996:9002   */\n              dup2\n                /* \"#utility.yul\":8990:9003   */\n              mload\n                /* \"#utility.yul\":9024:9134   */\n              tag_467\n                /* \"#utility.yul\":9129:9133   */\n              dup6\n                /* \"#utility.yul\":9114:9127   */\n              dup3\n                /* \"#utility.yul\":9024:9134   */\n              tag_319\n              jump\t// in\n            tag_467:\n                /* \"#utility.yul\":9016:9134   */\n              swap5\n              pop\n                /* \"#utility.yul\":9157:9240   */\n              tag_468\n                /* \"#utility.yul\":9233:9239   */\n              dup4\n                /* \"#utility.yul\":9157:9240   */\n              tag_320\n              jump\t// in\n            tag_468:\n                /* \"#utility.yul\":9147:9240   */\n              swap3\n              pop\n                /* \"#utility.yul\":9269:9273   */\n              0x20\n                /* \"#utility.yul\":9264:9267   */\n              dup11\n                /* \"#utility.yul\":9260:9274   */\n              add\n                /* \"#utility.yul\":9253:9274   */\n              swap10\n              pop\n                /* \"#utility.yul\":8909:9284   */\n              pop\n                /* \"#utility.yul\":8896:8897   */\n              0x01\n                /* \"#utility.yul\":8893:8894   */\n              dup2\n                /* \"#utility.yul\":8889:8898   */\n              add\n                /* \"#utility.yul\":8884:8898   */\n              swap1\n              pop\n                /* \"#utility.yul\":8849:9284   */\n              jump(tag_464)\n            tag_466:\n                /* \"#utility.yul\":8853:8867   */\n              pop\n                /* \"#utility.yul\":9300:9304   */\n              dup3\n                /* \"#utility.yul\":9293:9304   */\n              swap8\n              pop\n                /* \"#utility.yul\":9320:9323   */\n              dup8\n                /* \"#utility.yul\":9313:9323   */\n              swap6\n              pop\n                /* \"#utility.yul\":8404:9329   */\n              pop\n              pop\n              pop\n              pop\n              pop\n                /* \"#utility.yul\":8234:9329   */\n              swap3\n              swap2\n              pop\n              pop\n              jump\t// out\n                /* \"#utility.yul\":9335:9800   */\n            tag_80:\n                /* \"#utility.yul\":9524:9528   */\n              0x00\n                /* \"#utility.yul\":9562:9564   */\n              0x20\n                /* \"#utility.yul\":9551:9560   */\n              dup3\n                /* \"#utility.yul\":9547:9565   */\n              add\n                /* \"#utility.yul\":9539:9565   */\n              swap1\n              pop\n                /* \"#utility.yul\":9611:9620   */\n              dup2\n                /* \"#utility.yul\":9605:9609   */\n              dup2\n                /* \"#utility.yul\":9601:9621   */\n              sub\n                /* \"#utility.yul\":9597:9598   */\n              0x00\n                /* \"#utility.yul\":9586:9595   */\n              dup4\n                /* \"#utility.yul\":9582:9599   */\n              add\n                /* \"#utility.yul\":9575:9622   */\n              mstore\n                /* \"#utility.yul\":9639:9793   */\n              tag_470\n                /* \"#utility.yul\":9788:9792   */\n              dup2\n                /* \"#utility.yul\":9779:9785   */\n              dup5\n                /* \"#utility.yul\":9639:9793   */\n              tag_321\n              jump\t// in\n            tag_470:\n                /* \"#utility.yul\":9631:9793   */\n              swap1\n              pop\n                /* \"#utility.yul\":9335:9800   */\n              swap3\n              swap2\n              pop\n              pop\n              jump\t// out\n                /* \"#utility.yul\":9806:9923   */\n            tag_322:\n                /* \"#utility.yul\":9915:9916   */\n              0x00\n                /* \"#utility.yul\":9912:9913   */\n              dup1\n                /* \"#utility.yul\":9905:9917   */\n              revert\n                /* \"#utility.yul\":9929:10046   */\n            tag_323:\n                /* \"#utility.yul\":10038:10039   */\n              0x00\n                /* \"#utility.yul\":10035:10036   */\n              dup1\n                /* \"#utility.yul\":10028:10040   */\n              revert\n                /* \"#utility.yul\":10052:10232   */\n            tag_324:\n                /* \"#utility.yul\":10100:10177   */\n              0x4e487b7100000000000000000000000000000000000000000000000000000000\n                /* \"#utility.yul\":10097:10098   */\n              0x00\n                /* \"#utility.yul\":10090:10178   */\n              mstore\n                /* \"#utility.yul\":10197:10201   */\n              0x41\n                /* \"#utility.yul\":10194:10195   */\n              0x04\n                /* \"#utility.yul\":10187:10202   */\n              mstore\n                /* \"#utility.yul\":10221:10225   */\n              0x24\n                /* \"#utility.yul\":10218:10219   */\n              0x00\n                /* \"#utility.yul\":10211:10226   */\n              revert\n                /* \"#utility.yul\":10238:10519   */\n            tag_325:\n                /* \"#utility.yul\":10321:10348   */\n              tag_475\n                /* \"#utility.yul\":10343:10347   */\n              dup3\n                /* \"#utility.yul\":10321:10348   */\n              tag_306\n              jump\t// in\n            tag_475:\n                /* \"#utility.yul\":10313:10319   */\n              dup2\n                /* \"#utility.yul\":10309:10349   */\n              add\n                /* \"#utility.yul\":10451:10457   */\n              dup2\n                /* \"#utility.yul\":10439:10449   */\n              dup2\n                /* \"#utility.yul\":10436:10458   */\n              lt\n                /* \"#utility.yul\":10415:10433   */\n              0xffffffffffffffff\n                /* \"#utility.yul\":10403:10413   */\n              dup3\n                /* \"#utility.yul\":10400:10434   */\n              gt\n                /* \"#utility.yul\":10397:10459   */\n              or\n                /* \"#utility.yul\":10394:10482   */\n              iszero\n              tag_476\n              jumpi\n                /* \"#utility.yul\":10462:10480   */\n              tag_477\n              tag_324\n              jump\t// in\n            tag_477:\n                /* \"#utility.yul\":10394:10482   */\n            tag_476:\n                /* \"#utility.yul\":10502:10512   */\n              dup1\n                /* \"#utility.yul\":10498:10500   */\n              0x40\n                /* \"#utility.yul\":10491:10513   */\n              mstore\n                /* \"#utility.yul\":10281:10519   */\n              pop\n                /* \"#utility.yul\":10238:10519   */\n              pop\n              pop\n              jump\t// out\n                /* \"#utility.yul\":10525:10654   */\n            tag_326:\n                /* \"#utility.yul\":10559:10565   */\n              0x00\n                /* \"#utility.yul\":10586:10606   */\n              tag_479\n              tag_291\n              jump\t// in\n            tag_479:\n                /* \"#utility.yul\":10576:10606   */\n              swap1\n              pop\n                /* \"#utility.yul\":10615:10648   */\n              tag_480\n                /* \"#utility.yul\":10643:10647   */\n              dup3\n                /* \"#utility.yul\":10635:10641   */\n              dup3\n                /* \"#utility.yul\":10615:10648   */\n              tag_325\n              jump\t// in\n            tag_480:\n                /* \"#utility.yul\":10525:10654   */\n              swap2\n              swap1\n              pop\n              jump\t// out\n                /* \"#utility.yul\":10660:10968   */\n            tag_327:\n                /* \"#utility.yul\":10722:10726   */\n              0x00\n                /* \"#utility.yul\":10812:10830   */\n              0xffffffffffffffff\n                /* \"#utility.yul\":10804:10810   */\n              dup3\n                /* \"#utility.yul\":10801:10831   */\n              gt\n                /* \"#utility.yul\":10798:10854   */\n              iszero\n              tag_482\n              jumpi\n                /* \"#utility.yul\":10834:10852   */\n              tag_483\n              tag_324\n              jump\t// in\n            tag_483:\n                /* \"#utility.yul\":10798:10854   */\n            tag_482:\n                /* \"#utility.yul\":10872:10901   */\n              tag_484\n                /* \"#utility.yul\":10894:10900   */\n              dup3\n                /* \"#utility.yul\":10872:10901   */\n              tag_306\n              jump\t// in\n            tag_484:\n                /* \"#utility.yul\":10864:10901   */\n              swap1\n              pop\n                /* \"#utility.yul\":10956:10960   */\n              0x20\n                /* \"#utility.yul\":10950:10954   */\n              dup2\n                /* \"#utility.yul\":10946:10961   */\n              add\n                /* \"#utility.yul\":10938:10961   */\n              swap1\n              pop\n                /* \"#utility.yul\":10660:10968   */\n              swap2\n              swap1\n              pop\n              jump\t// out\n                /* \"#utility.yul\":10974:11128   */\n            tag_328:\n                /* \"#utility.yul\":11058:11064   */\n              dup3\n                /* \"#utility.yul\":11053:11056   */\n              dup2\n                /* \"#utility.yul\":11048:11051   */\n              dup4\n                /* \"#utility.yul\":11035:11065   */\n              calldatacopy\n                /* \"#utility.yul\":11120:11121   */\n              0x00\n                /* \"#utility.yul\":11111:11117   */\n              dup4\n                /* \"#utility.yul\":11106:11109   */\n              dup4\n                /* \"#utility.yul\":11102:11118   */\n              add\n                /* \"#utility.yul\":11095:11122   */\n              mstore\n                /* \"#utility.yul\":10974:11128   */\n              pop\n              pop\n              pop\n              jump\t// out\n                /* \"#utility.yul\":11134:11546   */\n            tag_329:\n                /* \"#utility.yul\":11212:11217   */\n              0x00\n                /* \"#utility.yul\":11237:11303   */\n              tag_487\n                /* \"#utility.yul\":11253:11302   */\n              tag_488\n                /* \"#utility.yul\":11295:11301   */\n              dup5\n                /* \"#utility.yul\":11253:11302   */\n              tag_327\n              jump\t// in\n            tag_488:\n                /* \"#utility.yul\":11237:11303   */\n              tag_326\n              jump\t// in\n            tag_487:\n                /* \"#utility.yul\":11228:11303   */\n              swap1\n              pop\n                /* \"#utility.yul\":11326:11332   */\n              dup3\n                /* \"#utility.yul\":11319:11324   */\n              dup2\n                /* \"#utility.yul\":11312:11333   */\n              mstore\n                /* \"#utility.yul\":11364:11368   */\n              0x20\n                /* \"#utility.yul\":11357:11362   */\n              dup2\n                /* \"#utility.yul\":11353:11369   */\n              add\n                /* \"#utility.yul\":11402:11405   */\n              dup5\n                /* \"#utility.yul\":11393:11399   */\n              dup5\n                /* \"#utility.yul\":11388:11391   */\n              dup5\n                /* \"#utility.yul\":11384:11400   */\n              add\n                /* \"#utility.yul\":11381:11406   */\n              gt\n                /* \"#utility.yul\":11378:11490   */\n              iszero\n              tag_489\n              jumpi\n                /* \"#utility.yul\":11409:11488   */\n              tag_490\n              tag_323\n              jump\t// in\n            tag_490:\n                /* \"#utility.yul\":11378:11490   */\n            tag_489:\n                /* \"#utility.yul\":11499:11540   */\n              tag_491\n                /* \"#utility.yul\":11533:11539   */\n              dup5\n                /* \"#utility.yul\":11528:11531   */\n              dup3\n                /* \"#utility.yul\":11523:11526   */\n              dup6\n                /* \"#utility.yul\":11499:11540   */\n              tag_328\n              jump\t// in\n            tag_491:\n                /* \"#utility.yul\":11218:11546   */\n              pop\n                /* \"#utility.yul\":11134:11546   */\n              swap4\n              swap3\n              pop\n              pop\n              pop\n              jump\t// out\n                /* \"#utility.yul\":11566:11906   */\n            tag_330:\n                /* \"#utility.yul\":11622:11627   */\n              0x00\n                /* \"#utility.yul\":11671:11674   */\n              dup3\n                /* \"#utility.yul\":11664:11668   */\n              0x1f\n                /* \"#utility.yul\":11656:11662   */\n              dup4\n                /* \"#utility.yul\":11652:11669   */\n              add\n                /* \"#utility.yul\":11648:11675   */\n              slt\n                /* \"#utility.yul\":11638:11760   */\n              tag_493\n              jumpi\n                /* \"#utility.yul\":11679:11758   */\n              tag_494\n              tag_322\n              jump\t// in\n            tag_494:\n                /* \"#utility.yul\":11638:11760   */\n            tag_493:\n                /* \"#utility.yul\":11796:11802   */\n              dup2\n                /* \"#utility.yul\":11783:11803   */\n              calldataload\n                /* \"#utility.yul\":11821:11900   */\n              tag_495\n                /* \"#utility.yul\":11896:11899   */\n              dup5\n                /* \"#utility.yul\":11888:11894   */\n              dup3\n                /* \"#utility.yul\":11881:11885   */\n              0x20\n                /* \"#utility.yul\":11873:11879   */\n              dup7\n                /* \"#utility.yul\":11869:11886   */\n              add\n                /* \"#utility.yul\":11821:11900   */\n              tag_329\n              jump\t// in\n            tag_495:\n                /* \"#utility.yul\":11812:11900   */\n              swap2\n              pop\n                /* \"#utility.yul\":11628:11906   */\n              pop\n                /* \"#utility.yul\":11566:11906   */\n              swap3\n              swap2\n              pop\n              pop\n              jump\t// out\n                /* \"#utility.yul\":11912:12050   */\n            tag_331:\n                /* \"#utility.yul\":11993:12025   */\n              tag_497\n                /* \"#utility.yul\":12019:12024   */\n              dup2\n                /* \"#utility.yul\":11993:12025   */\n              tag_308\n              jump\t// in\n            tag_497:\n                /* \"#utility.yul\":11986:11991   */\n              dup2\n                /* \"#utility.yul\":11983:12026   */\n              eq\n                /* \"#utility.yul\":11973:12044   */\n              tag_498\n              jumpi\n                /* \"#utility.yul\":12040:12041   */\n              0x00\n                /* \"#utility.yul\":12037:12038   */\n              dup1\n                /* \"#utility.yul\":12030:12042   */\n              revert\n                /* \"#utility.yul\":11973:12044   */\n            tag_498:\n                /* \"#utility.yul\":11912:12050   */\n              pop\n              jump\t// out\n                /* \"#utility.yul\":12056:12211   */\n            tag_332:\n                /* \"#utility.yul\":12110:12115   */\n              0x00\n                /* \"#utility.yul\":12148:12154   */\n              dup2\n                /* \"#utility.yul\":12135:12155   */\n              calldataload\n                /* \"#utility.yul\":12126:12155   */\n              swap1\n              pop\n                /* \"#utility.yul\":12164:12205   */\n              tag_500\n                /* \"#utility.yul\":12199:12204   */\n              dup2\n                /* \"#utility.yul\":12164:12205   */\n              tag_331\n              jump\t// in\n            tag_500:\n                /* \"#utility.yul\":12056:12211   */\n              swap3\n              swap2\n              pop\n              pop\n              jump\t// out\n                /* \"#utility.yul\":12217:13032   */\n            tag_86:\n                /* \"#utility.yul\":12312:12318   */\n              0x00\n                /* \"#utility.yul\":12320:12326   */\n              dup1\n                /* \"#utility.yul\":12328:12334   */\n              0x00\n                /* \"#utility.yul\":12377:12379   */\n              0x60\n                /* \"#utility.yul\":12365:12374   */\n              dup5\n                /* \"#utility.yul\":12356:12363   */\n              dup7\n                /* \"#utility.yul\":12352:12375   */\n              sub\n                /* \"#utility.yul\":12348:12380   */\n              slt\n                /* \"#utility.yul\":12345:12464   */\n              iszero\n              tag_502\n              jumpi\n                /* \"#utility.yul\":12383:12462   */\n              tag_503\n              tag_292\n              jump\t// in\n            tag_503:\n                /* \"#utility.yul\":12345:12464   */\n            tag_502:\n                /* \"#utility.yul\":12531:12532   */\n              0x00\n                /* \"#utility.yul\":12520:12529   */\n              dup5\n                /* \"#utility.yul\":12516:12533   */\n              add\n                /* \"#utility.yul\":12503:12534   */\n              calldataload\n                /* \"#utility.yul\":12561:12579   */\n              0xffffffffffffffff\n                /* \"#utility.yul\":12553:12559   */\n              dup2\n                /* \"#utility.yul\":12550:12580   */\n              gt\n                /* \"#utility.yul\":12547:12664   */\n              iszero\n              tag_504\n              jumpi\n                /* \"#utility.yul\":12583:12662   */\n              tag_505\n              tag_293\n              jump\t// in\n            tag_505:\n                /* \"#utility.yul\":12547:12664   */\n            tag_504:\n                /* \"#utility.yul\":12688:12751   */\n              tag_506\n                /* \"#utility.yul\":12743:12750   */\n              dup7\n                /* \"#utility.yul\":12734:12740   */\n              dup3\n                /* \"#utility.yul\":12723:12732   */\n              dup8\n                /* \"#utility.yul\":12719:12741   */\n              add\n                /* \"#utility.yul\":12688:12751   */\n              tag_330\n              jump\t// in\n            tag_506:\n                /* \"#utility.yul\":12678:12751   */\n              swap4\n              pop\n                /* \"#utility.yul\":12474:12761   */\n              pop\n                /* \"#utility.yul\":12800:12802   */\n              0x20\n                /* \"#utility.yul\":12826:12879   */\n              tag_507\n                /* \"#utility.yul\":12871:12878   */\n              dup7\n                /* \"#utility.yul\":12862:12868   */\n              dup3\n                /* \"#utility.yul\":12851:12860   */\n              dup8\n                /* \"#utility.yul\":12847:12869   */\n              add\n                /* \"#utility.yul\":12826:12879   */\n              tag_296\n              jump\t// in\n            tag_507:\n                /* \"#utility.yul\":12816:12879   */\n              swap3\n              pop\n                /* \"#utility.yul\":12771:12889   */\n              pop\n                /* \"#utility.yul\":12928:12930   */\n              0x40\n                /* \"#utility.yul\":12954:13015   */\n              tag_508\n                /* \"#utility.yul\":13007:13014   */\n              dup7\n                /* \"#utility.yul\":12998:13004   */\n              dup3\n                /* \"#utility.yul\":12987:12996   */\n              dup8\n                /* \"#utility.yul\":12983:13005   */\n              add\n                /* \"#utility.yul\":12954:13015   */\n              tag_332\n              jump\t// in\n            tag_508:\n                /* \"#utility.yul\":12944:13015   */\n              swap2\n              pop\n                /* \"#utility.yul\":12899:13025   */\n              pop\n                /* \"#utility.yul\":12217:13032   */\n              swap3\n              pop\n              swap3\n              pop\n              swap3\n              jump\t// out\n                /* \"#utility.yul\":13038:13160   */\n            tag_333:\n                /* \"#utility.yul\":13111:13135   */\n              tag_510\n                /* \"#utility.yul\":13129:13134   */\n              dup2\n                /* \"#utility.yul\":13111:13135   */\n              tag_301\n              jump\t// in\n            tag_510:\n                /* \"#utility.yul\":13104:13109   */\n              dup2\n                /* \"#utility.yul\":13101:13136   */\n              eq\n                /* \"#utility.yul\":13091:13154   */\n              tag_511\n              jumpi\n                /* \"#utility.yul\":13150:13151   */\n              0x00\n                /* \"#utility.yul\":13147:13148   */\n              dup1\n                /* \"#utility.yul\":13140:13152   */\n              revert\n                /* \"#utility.yul\":13091:13154   */\n            tag_511:\n                /* \"#utility.yul\":13038:13160   */\n              pop\n              jump\t// out\n                /* \"#utility.yul\":13166:13305   */\n            tag_334:\n                /* \"#utility.yul\":13212:13217   */\n              0x00\n                /* \"#utility.yul\":13250:13256   */\n              dup2\n                /* \"#utility.yul\":13237:13257   */\n              calldataload\n                /* \"#utility.yul\":13228:13257   */\n              swap1\n              pop\n                /* \"#utility.yul\":13266:13299   */\n              tag_513\n                /* \"#utility.yul\":13293:13298   */\n              dup2\n                /* \"#utility.yul\":13266:13299   */\n              tag_333\n              jump\t// in\n            tag_513:\n                /* \"#utility.yul\":13166:13305   */\n              swap3\n              swap2\n              pop\n              pop\n              jump\t// out\n                /* \"#utility.yul\":13311:13640   */\n            tag_110:\n                /* \"#utility.yul\":13370:13376   */\n              0x00\n                /* \"#utility.yul\":13419:13421   */\n              0x20\n                /* \"#utility.yul\":13407:13416   */\n              dup3\n                /* \"#utility.yul\":13398:13405   */\n              dup5\n                /* \"#utility.yul\":13394:13417   */\n              sub\n                /* \"#utility.yul\":13390:13422   */\n              slt\n                /* \"#utility.yul\":13387:13506   */\n              iszero\n              tag_515\n              jumpi\n                /* \"#utility.yul\":13425:13504   */\n              tag_516\n              tag_292\n              jump\t// in\n            tag_516:\n                /* \"#utility.yul\":13387:13506   */\n            tag_515:\n                /* \"#utility.yul\":13545:13546   */\n              0x00\n                /* \"#utility.yul\":13570:13623   */\n              tag_517\n                /* \"#utility.yul\":13615:13622   */\n              dup5\n                /* \"#utility.yul\":13606:13612   */\n              dup3\n                /* \"#utility.yul\":13595:13604   */\n              dup6\n                /* \"#utility.yul\":13591:13613   */\n              add\n                /* \"#utility.yul\":13570:13623   */\n              tag_334\n              jump\t// in\n            tag_517:\n                /* \"#utility.yul\":13560:13623   */\n              swap2\n              pop\n                /* \"#utility.yul\":13516:13633   */\n              pop\n                /* \"#utility.yul\":13311:13640   */\n              swap3\n              swap2\n              pop\n              pop\n              jump\t// out\n                /* \"#utility.yul\":13646:14120   */\n            tag_127:\n                /* \"#utility.yul\":13714:13720   */\n              0x00\n                /* \"#utility.yul\":13722:13728   */\n              dup1\n                /* \"#utility.yul\":13771:13773   */\n              0x40\n                /* \"#utility.yul\":13759:13768   */\n              dup4\n                /* \"#utility.yul\":13750:13757   */\n              dup6\n                /* \"#utility.yul\":13746:13769   */\n              sub\n                /* \"#utility.yul\":13742:13774   */\n              slt\n                /* \"#utility.yul\":13739:13858   */\n              iszero\n              tag_519\n              jumpi\n                /* \"#utility.yul\":13777:13856   */\n              tag_520\n              tag_292\n              jump\t// in\n            tag_520:\n                /* \"#utility.yul\":13739:13858   */\n            tag_519:\n                /* \"#utility.yul\":13897:13898   */\n              0x00\n                /* \"#utility.yul\":13922:13975   */\n              tag_521\n                /* \"#utility.yul\":13967:13974   */\n              dup6\n                /* \"#utility.yul\":13958:13964   */\n              dup3\n                /* \"#utility.yul\":13947:13956   */\n              dup7\n                /* \"#utility.yul\":13943:13965   */\n              add\n                /* \"#utility.yul\":13922:13975   */\n              tag_334\n              jump\t// in\n            tag_521:\n                /* \"#utility.yul\":13912:13975   */\n              swap3\n              pop\n                /* \"#utility.yul\":13868:13985   */\n              pop\n                /* \"#utility.yul\":14024:14026   */\n              0x20\n                /* \"#utility.yul\":14050:14103   */\n              tag_522\n                /* \"#utility.yul\":14095:14102   */\n              dup6\n                /* \"#utility.yul\":14086:14092   */\n              dup3\n                /* \"#utility.yul\":14075:14084   */\n              dup7\n                /* \"#utility.yul\":14071:14093   */\n              add\n                /* \"#utility.yul\":14050:14103   */\n              tag_296\n              jump\t// in\n            tag_522:\n                /* \"#utility.yul\":14040:14103   */\n              swap2\n              pop\n                /* \"#utility.yul\":13995:14113   */\n              pop\n                /* \"#utility.yul\":13646:14120   */\n              swap3\n              pop\n              swap3\n              swap1\n              pop\n              jump\t// out\n                /* \"#utility.yul\":14126:14360   */\n            tag_335:\n                /* \"#utility.yul\":14266:14300   */\n              0x5065726d697373696f6e2064656e6965643a20596f7520646f206e6f74206f77\n                /* \"#utility.yul\":14262:14263   */\n              0x00\n                /* \"#utility.yul\":14254:14260   */\n              dup3\n                /* \"#utility.yul\":14250:14264   */\n              add\n                /* \"#utility.yul\":14243:14301   */\n              mstore\n                /* \"#utility.yul\":14335:14352   */\n              0x6e20746869732063616d706169676e0000000000000000000000000000000000\n                /* \"#utility.yul\":14330:14332   */\n              0x20\n                /* \"#utility.yul\":14322:14328   */\n              dup3\n                /* \"#utility.yul\":14318:14333   */\n              add\n                /* \"#utility.yul\":14311:14353   */\n              mstore\n                /* \"#utility.yul\":14126:14360   */\n              pop\n              jump\t// out\n                /* \"#utility.yul\":14366:14732   */\n            tag_336:\n                /* \"#utility.yul\":14508:14511   */\n              0x00\n                /* \"#utility.yul\":14529:14596   */\n              tag_525\n                /* \"#utility.yul\":14593:14595   */\n              0x2f\n                /* \"#utility.yul\":14588:14591   */\n              dup4\n                /* \"#utility.yul\":14529:14596   */\n              tag_304\n              jump\t// in\n            tag_525:\n                /* \"#utility.yul\":14522:14596   */\n              swap2\n              pop\n                /* \"#utility.yul\":14605:14698   */\n              tag_526\n                /* \"#utility.yul\":14694:14697   */\n              dup3\n                /* \"#utility.yul\":14605:14698   */\n              tag_335\n              jump\t// in\n            tag_526:\n                /* \"#utility.yul\":14723:14725   */\n              0x40\n                /* \"#utility.yul\":14718:14721   */\n              dup3\n                /* \"#utility.yul\":14714:14726   */\n              add\n                /* \"#utility.yul\":14707:14726   */\n              swap1\n              pop\n                /* \"#utility.yul\":14366:14732   */\n              swap2\n              swap1\n              pop\n              jump\t// out\n                /* \"#utility.yul\":14738:15157   */\n            tag_133:\n                /* \"#utility.yul\":14904:14908   */\n              0x00\n                /* \"#utility.yul\":14942:14944   */\n              0x20\n                /* \"#utility.yul\":14931:14940   */\n              dup3\n                /* \"#utility.yul\":14927:14945   */\n              add\n                /* \"#utility.yul\":14919:14945   */\n              swap1\n              pop\n                /* \"#utility.yul\":14991:15000   */\n              dup2\n                /* \"#utility.yul\":14985:14989   */\n              dup2\n                /* \"#utility.yul\":14981:15001   */\n              sub\n                /* \"#utility.yul\":14977:14978   */\n              0x00\n                /* \"#utility.yul\":14966:14975   */\n              dup4\n                /* \"#utility.yul\":14962:14979   */\n              add\n                /* \"#utility.yul\":14955:15002   */\n              mstore\n                /* \"#utility.yul\":15019:15150   */\n              tag_528\n                /* \"#utility.yul\":15145:15149   */\n              dup2\n                /* \"#utility.yul\":15019:15150   */\n              tag_336\n              jump\t// in\n            tag_528:\n                /* \"#utility.yul\":15011:15150   */\n              swap1\n              pop\n                /* \"#utility.yul\":14738:15157   */\n              swap2\n              swap1\n              pop\n              jump\t// out\n                /* \"#utility.yul\":15163:15334   */\n            tag_337:\n                /* \"#utility.yul\":15303:15326   */\n              0x43616d706169676e206861732066696e69736865640000000000000000000000\n                /* \"#utility.yul\":15299:15300   */\n              0x00\n                /* \"#utility.yul\":15291:15297   */\n              dup3\n                /* \"#utility.yul\":15287:15301   */\n              add\n                /* \"#utility.yul\":15280:15327   */\n              mstore\n                /* \"#utility.yul\":15163:15334   */\n              pop\n              jump\t// out\n                /* \"#utility.yul\":15340:15706   */\n            tag_338:\n                /* \"#utility.yul\":15482:15485   */\n              0x00\n                /* \"#utility.yul\":15503:15570   */\n              tag_531\n                /* \"#utility.yul\":15567:15569   */\n              0x15\n                /* \"#utility.yul\":15562:15565   */\n              dup4\n                /* \"#utility.yul\":15503:15570   */\n              tag_304\n              jump\t// in\n            tag_531:\n                /* \"#utility.yul\":15496:15570   */\n              swap2\n              pop\n                /* \"#utility.yul\":15579:15672   */\n              tag_532\n                /* \"#utility.yul\":15668:15671   */\n              dup3\n                /* \"#utility.yul\":15579:15672   */\n              tag_337\n              jump\t// in\n            tag_532:\n                /* \"#utility.yul\":15697:15699   */\n              0x20\n                /* \"#utility.yul\":15692:15695   */\n              dup3\n                /* \"#utility.yul\":15688:15700   */\n              add\n                /* \"#utility.yul\":15681:15700   */\n              swap1\n              pop\n                /* \"#utility.yul\":15340:15706   */\n              swap2\n              swap1\n              pop\n              jump\t// out\n                /* \"#utility.yul\":15712:16131   */\n            tag_137:\n                /* \"#utility.yul\":15878:15882   */\n              0x00\n                /* \"#utility.yul\":15916:15918   */\n              0x20\n                /* \"#utility.yul\":15905:15914   */\n              dup3\n                /* \"#utility.yul\":15901:15919   */\n              add\n                /* \"#utility.yul\":15893:15919   */\n              swap1\n              pop\n                /* \"#utility.yul\":15965:15974   */\n              dup2\n                /* \"#utility.yul\":15959:15963   */\n              dup2\n                /* \"#utility.yul\":15955:15975   */\n              sub\n                /* \"#utility.yul\":15951:15952   */\n              0x00\n                /* \"#utility.yul\":15940:15949   */\n              dup4\n                /* \"#utility.yul\":15936:15953   */\n              add\n                /* \"#utility.yul\":15929:15976   */\n              mstore\n                /* \"#utility.yul\":15993:16124   */\n              tag_534\n                /* \"#utility.yul\":16119:16123   */\n              dup2\n                /* \"#utility.yul\":15993:16124   */\n              tag_338\n              jump\t// in\n            tag_534:\n                /* \"#utility.yul\":15985:16124   */\n              swap1\n              pop\n                /* \"#utility.yul\":15712:16131   */\n              swap2\n              swap1\n              pop\n              jump\t// out\n                /* \"#utility.yul\":16137:16308   */\n            tag_339:\n                /* \"#utility.yul\":16277:16300   */\n              0x43616d706169676e206861732063616e63656c65640000000000000000000000\n                /* \"#utility.yul\":16273:16274   */\n              0x00\n                /* \"#utility.yul\":16265:16271   */\n              dup3\n                /* \"#utility.yul\":16261:16275   */\n              add\n                /* \"#utility.yul\":16254:16301   */\n              mstore\n                /* \"#utility.yul\":16137:16308   */\n              pop\n              jump\t// out\n                /* \"#utility.yul\":16314:16680   */\n            tag_340:\n                /* \"#utility.yul\":16456:16459   */\n              0x00\n                /* \"#utility.yul\":16477:16544   */\n              tag_537\n                /* \"#utility.yul\":16541:16543   */\n              0x15\n                /* \"#utility.yul\":16536:16539   */\n              dup4\n                /* \"#utility.yul\":16477:16544   */\n              tag_304\n              jump\t// in\n            tag_537:\n                /* \"#utility.yul\":16470:16544   */\n              swap2\n              pop\n                /* \"#utility.yul\":16553:16646   */\n              tag_538\n                /* \"#utility.yul\":16642:16645   */\n              dup3\n                /* \"#utility.yul\":16553:16646   */\n              tag_339\n              jump\t// in\n            tag_538:\n                /* \"#utility.yul\":16671:16673   */\n              0x20\n                /* \"#utility.yul\":16666:16669   */\n              dup3\n                /* \"#utility.yul\":16662:16674   */\n              add\n                /* \"#utility.yul\":16655:16674   */\n              swap1\n              pop\n                /* \"#utility.yul\":16314:16680   */\n              swap2\n              swap1\n              pop\n              jump\t// out\n                /* \"#utility.yul\":16686:17105   */\n            tag_140:\n                /* \"#utility.yul\":16852:16856   */\n              0x00\n                /* \"#utility.yul\":16890:16892   */\n              0x20\n                /* \"#utility.yul\":16879:16888   */\n              dup3\n                /* \"#utility.yul\":16875:16893   */\n              add\n                /* \"#utility.yul\":16867:16893   */\n              swap1\n              pop\n                /* \"#utility.yul\":16939:16948   */\n              dup2\n                /* \"#utility.yul\":16933:16937   */\n              dup2\n                /* \"#utility.yul\":16929:16949   */\n              sub\n                /* \"#utility.yul\":16925:16926   */\n              0x00\n                /* \"#utility.yul\":16914:16923   */\n              dup4\n                /* \"#utility.yul\":16910:16927   */\n              add\n                /* \"#utility.yul\":16903:16950   */\n              mstore\n                /* \"#utility.yul\":16967:17098   */\n              tag_540\n                /* \"#utility.yul\":17093:17097   */\n              dup2\n                /* \"#utility.yul\":16967:17098   */\n              tag_340\n              jump\t// in\n            tag_540:\n                /* \"#utility.yul\":16959:17098   */\n              swap1\n              pop\n                /* \"#utility.yul\":16686:17105   */\n              swap2\n              swap1\n              pop\n              jump\t// out\n                /* \"#utility.yul\":17111:17291   */\n            tag_144:\n                /* \"#utility.yul\":17159:17236   */\n              0x4e487b7100000000000000000000000000000000000000000000000000000000\n                /* \"#utility.yul\":17156:17157   */\n              0x00\n                /* \"#utility.yul\":17149:17237   */\n              mstore\n                /* \"#utility.yul\":17256:17260   */\n              0x32\n                /* \"#utility.yul\":17253:17254   */\n              0x04\n                /* \"#utility.yul\":17246:17261   */\n              mstore\n                /* \"#utility.yul\":17280:17284   */\n              0x24\n                /* \"#utility.yul\":17277:17278   */\n              0x00\n                /* \"#utility.yul\":17270:17285   */\n              revert\n                /* \"#utility.yul\":17297:17473   */\n            tag_341:\n                /* \"#utility.yul\":17437:17465   */\n              0x5265717565737420686173206265656e20636f6d706c65746564000000000000\n                /* \"#utility.yul\":17433:17434   */\n              0x00\n                /* \"#utility.yul\":17425:17431   */\n              dup3\n                /* \"#utility.yul\":17421:17435   */\n              add\n                /* \"#utility.yul\":17414:17466   */\n              mstore\n                /* \"#utility.yul\":17297:17473   */\n              pop\n              jump\t// out\n                /* \"#utility.yul\":17479:17845   */\n            tag_342:\n                /* \"#utility.yul\":17621:17624   */\n              0x00\n                /* \"#utility.yul\":17642:17709   */\n              tag_544\n                /* \"#utility.yul\":17706:17708   */\n              0x1a\n                /* \"#utility.yul\":17701:17704   */\n              dup4\n                /* \"#utility.yul\":17642:17709   */\n              tag_304\n              jump\t// in\n            tag_544:\n                /* \"#utility.yul\":17635:17709   */\n              swap2\n              pop\n                /* \"#utility.yul\":17718:17811   */\n              tag_545\n                /* \"#utility.yul\":17807:17810   */\n              dup3\n                /* \"#utility.yul\":17718:17811   */\n              tag_341\n              jump\t// in\n            tag_545:\n                /* \"#utility.yul\":17836:17838   */\n              0x20\n                /* \"#utility.yul\":17831:17834   */\n              dup3\n                /* \"#utility.yul\":17827:17839   */\n              add\n                /* \"#utility.yul\":17820:17839   */\n              swap1\n              pop\n                /* \"#utility.yul\":17479:17845   */\n              swap2\n              swap1\n              pop\n              jump\t// out\n                /* \"#utility.yul\":17851:18270   */\n            tag_148:\n                /* \"#utility.yul\":18017:18021   */\n              0x00\n                /* \"#utility.yul\":18055:18057   */\n              0x20\n                /* \"#utility.yul\":18044:18053   */\n              dup3\n                /* \"#utility.yul\":18040:18058   */\n              add\n                /* \"#utility.yul\":18032:18058   */\n              swap1\n              pop\n                /* \"#utility.yul\":18104:18113   */\n              dup2\n                /* \"#utility.yul\":18098:18102   */\n              dup2\n                /* \"#utility.yul\":18094:18114   */\n              sub\n                /* \"#utility.yul\":18090:18091   */\n              0x00\n                /* \"#utility.yul\":18079:18088   */\n              dup4\n                /* \"#utility.yul\":18075:18092   */\n              add\n                /* \"#utility.yul\":18068:18115   */\n              mstore\n                /* \"#utility.yul\":18132:18263   */\n              tag_547\n                /* \"#utility.yul\":18258:18262   */\n              dup2\n                /* \"#utility.yul\":18132:18263   */\n              tag_342\n              jump\t// in\n            tag_547:\n                /* \"#utility.yul\":18124:18263   */\n              swap1\n              pop\n                /* \"#utility.yul\":17851:18270   */\n              swap2\n              swap1\n              pop\n              jump\t// out\n                /* \"#utility.yul\":18276:18456   */\n            tag_343:\n                /* \"#utility.yul\":18324:18401   */\n              0x4e487b7100000000000000000000000000000000000000000000000000000000\n                /* \"#utility.yul\":18321:18322   */\n              0x00\n                /* \"#utility.yul\":18314:18402   */\n              mstore\n                /* \"#utility.yul\":18421:18425   */\n              0x12\n                /* \"#utility.yul\":18418:18419   */\n              0x04\n                /* \"#utility.yul\":18411:18426   */\n              mstore\n                /* \"#utility.yul\":18445:18449   */\n              0x24\n                /* \"#utility.yul\":18442:18443   */\n              0x00\n                /* \"#utility.yul\":18435:18450   */\n              revert\n                /* \"#utility.yul\":18462:18642   */\n            tag_344:\n                /* \"#utility.yul\":18510:18587   */\n              0x4e487b7100000000000000000000000000000000000000000000000000000000\n                /* \"#utility.yul\":18507:18508   */\n              0x00\n                /* \"#utility.yul\":18500:18588   */\n              mstore\n                /* \"#utility.yul\":18607:18611   */\n              0x11\n                /* \"#utility.yul\":18604:18605   */\n              0x04\n                /* \"#utility.yul\":18597:18612   */\n              mstore\n                /* \"#utility.yul\":18631:18635   */\n              0x24\n                /* \"#utility.yul\":18628:18629   */\n              0x00\n                /* \"#utility.yul\":18621:18636   */\n              revert\n                /* \"#utility.yul\":18648:18833   */\n            tag_150:\n                /* \"#utility.yul\":18688:18689   */\n              0x00\n                /* \"#utility.yul\":18705:18725   */\n              tag_551\n                /* \"#utility.yul\":18723:18724   */\n              dup3\n                /* \"#utility.yul\":18705:18725   */\n              tag_294\n              jump\t// in\n            tag_551:\n                /* \"#utility.yul\":18700:18725   */\n              swap2\n              pop\n                /* \"#utility.yul\":18739:18759   */\n              tag_552\n                /* \"#utility.yul\":18757:18758   */\n              dup4\n                /* \"#utility.yul\":18739:18759   */\n              tag_294\n              jump\t// in\n            tag_552:\n                /* \"#utility.yul\":18734:18759   */\n              swap3\n              pop\n                /* \"#utility.yul\":18778:18779   */\n              dup3\n                /* \"#utility.yul\":18768:18803   */\n              tag_553\n              jumpi\n                /* \"#utility.yul\":18783:18801   */\n              tag_554\n              tag_343\n              jump\t// in\n            tag_554:\n                /* \"#utility.yul\":18768:18803   */\n            tag_553:\n                /* \"#utility.yul\":18825:18826   */\n              dup3\n                /* \"#utility.yul\":18822:18823   */\n              dup3\n                /* \"#utility.yul\":18818:18827   */\n              div\n                /* \"#utility.yul\":18813:18827   */\n              swap1\n              pop\n                /* \"#utility.yul\":18648:18833   */\n              swap3\n              swap2\n              pop\n              pop\n              jump\t// out\n                /* \"#utility.yul\":18839:19064   */\n            tag_345:\n                /* \"#utility.yul\":18979:19013   */\n              0x5265717565737420646f6573206e6f74206861766520656e6f75676820617070\n                /* \"#utility.yul\":18975:18976   */\n              0x00\n                /* \"#utility.yul\":18967:18973   */\n              dup3\n                /* \"#utility.yul\":18963:18977   */\n              add\n                /* \"#utility.yul\":18956:19014   */\n              mstore\n                /* \"#utility.yul\":19048:19056   */\n              0x726f76616c730000000000000000000000000000000000000000000000000000\n                /* \"#utility.yul\":19043:19045   */\n              0x20\n                /* \"#utility.yul\":19035:19041   */\n              dup3\n                /* \"#utility.yul\":19031:19046   */\n              add\n                /* \"#utility.yul\":19024:19057   */\n              mstore\n                /* \"#utility.yul\":18839:19064   */\n              pop\n              jump\t// out\n                /* \"#utility.yul\":19070:19436   */\n            tag_346:\n                /* \"#utility.yul\":19212:19215   */\n              0x00\n                /* \"#utility.yul\":19233:19300   */\n              tag_557\n                /* \"#utility.yul\":19297:19299   */\n              0x26\n                /* \"#utility.yul\":19292:19295   */\n              dup4\n                /* \"#utility.yul\":19233:19300   */\n              tag_304\n              jump\t// in\n            tag_557:\n                /* \"#utility.yul\":19226:19300   */\n              swap2\n              pop\n                /* \"#utility.yul\":19309:19402   */\n              tag_558\n                /* \"#utility.yul\":19398:19401   */\n              dup3\n                /* \"#utility.yul\":19309:19402   */\n              tag_345\n              jump\t// in\n            tag_558:\n                /* \"#utility.yul\":19427:19429   */\n              0x40\n                /* \"#utility.yul\":19422:19425   */\n              dup3\n                /* \"#utility.yul\":19418:19430   */\n              add\n                /* \"#utility.yul\":19411:19430   */\n              swap1\n              pop\n                /* \"#utility.yul\":19070:19436   */\n              swap2\n              swap1\n              pop\n              jump\t// out\n                /* \"#utility.yul\":19442:19861   */\n            tag_153:\n                /* \"#utility.yul\":19608:19612   */\n              0x00\n                /* \"#utility.yul\":19646:19648   */\n              0x20\n                /* \"#utility.yul\":19635:19644   */\n              dup3\n                /* \"#utility.yul\":19631:19649   */\n              add\n                /* \"#utility.yul\":19623:19649   */\n              swap1\n              pop\n                /* \"#utility.yul\":19695:19704   */\n              dup2\n                /* \"#utility.yul\":19689:19693   */\n              dup2\n                /* \"#utility.yul\":19685:19705   */\n              sub\n                /* \"#utility.yul\":19681:19682   */\n              0x00\n                /* \"#utility.yul\":19670:19679   */\n              dup4\n                /* \"#utility.yul\":19666:19683   */\n              add\n                /* \"#utility.yul\":19659:19706   */\n              mstore\n                /* \"#utility.yul\":19723:19854   */\n              tag_560\n                /* \"#utility.yul\":19849:19853   */\n              dup2\n                /* \"#utility.yul\":19723:19854   */\n              tag_346\n              jump\t// in\n            tag_560:\n                /* \"#utility.yul\":19715:19854   */\n              swap1\n              pop\n                /* \"#utility.yul\":19442:19861   */\n              swap2\n              swap1\n              pop\n              jump\t// out\n                /* \"#utility.yul\":19867:20039   */\n            tag_347:\n                /* \"#utility.yul\":20007:20031   */\n              0x43616d706169676e206861732073756363656564656400000000000000000000\n                /* \"#utility.yul\":20003:20004   */\n              0x00\n                /* \"#utility.yul\":19995:20001   */\n              dup3\n                /* \"#utility.yul\":19991:20005   */\n              add\n                /* \"#utility.yul\":19984:20032   */\n              mstore\n                /* \"#utility.yul\":19867:20039   */\n              pop\n              jump\t// out\n                /* \"#utility.yul\":20045:20411   */\n            tag_348:\n                /* \"#utility.yul\":20187:20190   */\n              0x00\n                /* \"#utility.yul\":20208:20275   */\n              tag_563\n                /* \"#utility.yul\":20272:20274   */\n              0x16\n                /* \"#utility.yul\":20267:20270   */\n              dup4\n                /* \"#utility.yul\":20208:20275   */\n              tag_304\n              jump\t// in\n            tag_563:\n                /* \"#utility.yul\":20201:20275   */\n              swap2\n              pop\n                /* \"#utility.yul\":20284:20377   */\n              tag_564\n                /* \"#utility.yul\":20373:20376   */\n              dup3\n                /* \"#utility.yul\":20284:20377   */\n              tag_347\n              jump\t// in\n            tag_564:\n                /* \"#utility.yul\":20402:20404   */\n              0x20\n                /* \"#utility.yul\":20397:20400   */\n              dup3\n                /* \"#utility.yul\":20393:20405   */\n              add\n                /* \"#utility.yul\":20386:20405   */\n              swap1\n              pop\n                /* \"#utility.yul\":20045:20411   */\n              swap2\n              swap1\n              pop\n              jump\t// out\n                /* \"#utility.yul\":20417:20836   */\n            tag_170:\n                /* \"#utility.yul\":20583:20587   */\n              0x00\n                /* \"#utility.yul\":20621:20623   */\n              0x20\n                /* \"#utility.yul\":20610:20619   */\n              dup3\n                /* \"#utility.yul\":20606:20624   */\n              add\n                /* \"#utility.yul\":20598:20624   */\n              swap1\n              pop\n                /* \"#utility.yul\":20670:20679   */\n              dup2\n                /* \"#utility.yul\":20664:20668   */\n              dup2\n                /* \"#utility.yul\":20660:20680   */\n              sub\n                /* \"#utility.yul\":20656:20657   */\n              0x00\n                /* \"#utility.yul\":20645:20654   */\n              dup4\n                /* \"#utility.yul\":20641:20658   */\n              add\n                /* \"#utility.yul\":20634:20681   */\n              mstore\n                /* \"#utility.yul\":20698:20829   */\n              tag_566\n                /* \"#utility.yul\":20824:20828   */\n              dup2\n                /* \"#utility.yul\":20698:20829   */\n              tag_348\n              jump\t// in\n            tag_566:\n                /* \"#utility.yul\":20690:20829   */\n              swap1\n              pop\n                /* \"#utility.yul\":20417:20836   */\n              swap2\n              swap1\n              pop\n              jump\t// out\n                /* \"#utility.yul\":20842:21018   */\n            tag_349:\n                /* \"#utility.yul\":20982:21010   */\n              0x43616d706169676e2068617320616c726561647920656e646564000000000000\n                /* \"#utility.yul\":20978:20979   */\n              0x00\n                /* \"#utility.yul\":20970:20976   */\n              dup3\n                /* \"#utility.yul\":20966:20980   */\n              add\n                /* \"#utility.yul\":20959:21011   */\n              mstore\n                /* \"#utility.yul\":20842:21018   */\n              pop\n              jump\t// out\n                /* \"#utility.yul\":21024:21390   */\n            tag_350:\n                /* \"#utility.yul\":21166:21169   */\n              0x00\n                /* \"#utility.yul\":21187:21254   */\n              tag_569\n                /* \"#utility.yul\":21251:21253   */\n              0x1a\n                /* \"#utility.yul\":21246:21249   */\n              dup4\n                /* \"#utility.yul\":21187:21254   */\n              tag_304\n              jump\t// in\n            tag_569:\n                /* \"#utility.yul\":21180:21254   */\n              swap2\n              pop\n                /* \"#utility.yul\":21263:21356   */\n              tag_570\n                /* \"#utility.yul\":21352:21355   */\n              dup3\n                /* \"#utility.yul\":21263:21356   */\n              tag_349\n              jump\t// in\n            tag_570:\n                /* \"#utility.yul\":21381:21383   */\n              0x20\n                /* \"#utility.yul\":21376:21379   */\n              dup3\n                /* \"#utility.yul\":21372:21384   */\n              add\n                /* \"#utility.yul\":21365:21384   */\n              swap1\n              pop\n                /* \"#utility.yul\":21024:21390   */\n              swap2\n              swap1\n              pop\n              jump\t// out\n                /* \"#utility.yul\":21396:21815   */\n            tag_175:\n                /* \"#utility.yul\":21562:21566   */\n              0x00\n                /* \"#utility.yul\":21600:21602   */\n              0x20\n                /* \"#utility.yul\":21589:21598   */\n              dup3\n                /* \"#utility.yul\":21585:21603   */\n              add\n                /* \"#utility.yul\":21577:21603   */\n              swap1\n              pop\n                /* \"#utility.yul\":21649:21658   */\n              dup2\n                /* \"#utility.yul\":21643:21647   */\n              dup2\n                /* \"#utility.yul\":21639:21659   */\n              sub\n                /* \"#utility.yul\":21635:21636   */\n              0x00\n                /* \"#utility.yul\":21624:21633   */\n              dup4\n                /* \"#utility.yul\":21620:21637   */\n              add\n                /* \"#utility.yul\":21613:21660   */\n              mstore\n                /* \"#utility.yul\":21677:21808   */\n              tag_572\n                /* \"#utility.yul\":21803:21807   */\n              dup2\n                /* \"#utility.yul\":21677:21808   */\n              tag_350\n              jump\t// in\n            tag_572:\n                /* \"#utility.yul\":21669:21808   */\n              swap1\n              pop\n                /* \"#utility.yul\":21396:21815   */\n              swap2\n              swap1\n              pop\n              jump\t// out\n                /* \"#utility.yul\":21821:22044   */\n            tag_351:\n                /* \"#utility.yul\":21961:21995   */\n              0x596f7520617265206e6f7420696e2074686520636f6e7472696275746f727320\n                /* \"#utility.yul\":21957:21958   */\n              0x00\n                /* \"#utility.yul\":21949:21955   */\n              dup3\n                /* \"#utility.yul\":21945:21959   */\n              add\n                /* \"#utility.yul\":21938:21996   */\n              mstore\n                /* \"#utility.yul\":22030:22036   */\n              0x6c69737400000000000000000000000000000000000000000000000000000000\n                /* \"#utility.yul\":22025:22027   */\n              0x20\n                /* \"#utility.yul\":22017:22023   */\n              dup3\n                /* \"#utility.yul\":22013:22028   */\n              add\n                /* \"#utility.yul\":22006:22037   */\n              mstore\n                /* \"#utility.yul\":21821:22044   */\n              pop\n              jump\t// out\n                /* \"#utility.yul\":22050:22416   */\n            tag_352:\n                /* \"#utility.yul\":22192:22195   */\n              0x00\n                /* \"#utility.yul\":22213:22280   */\n              tag_575\n                /* \"#utility.yul\":22277:22279   */\n              0x24\n                /* \"#utility.yul\":22272:22275   */\n              dup4\n                /* \"#utility.yul\":22213:22280   */\n              tag_304\n              jump\t// in\n            tag_575:\n                /* \"#utility.yul\":22206:22280   */\n              swap2\n              pop\n                /* \"#utility.yul\":22289:22382   */\n              tag_576\n                /* \"#utility.yul\":22378:22381   */\n              dup3\n                /* \"#utility.yul\":22289:22382   */\n              tag_351\n              jump\t// in\n            tag_576:\n                /* \"#utility.yul\":22407:22409   */\n              0x40\n                /* \"#utility.yul\":22402:22405   */\n              dup3\n                /* \"#utility.yul\":22398:22410   */\n              add\n                /* \"#utility.yul\":22391:22410   */\n              swap1\n              pop\n                /* \"#utility.yul\":22050:22416   */\n              swap2\n              swap1\n              pop\n              jump\t// out\n                /* \"#utility.yul\":22422:22841   */\n            tag_179:\n                /* \"#utility.yul\":22588:22592   */\n              0x00\n                /* \"#utility.yul\":22626:22628   */\n              0x20\n                /* \"#utility.yul\":22615:22624   */\n              dup3\n                /* \"#utility.yul\":22611:22629   */\n              add\n                /* \"#utility.yul\":22603:22629   */\n              swap1\n              pop\n                /* \"#utility.yul\":22675:22684   */\n              dup2\n                /* \"#utility.yul\":22669:22673   */\n              dup2\n                /* \"#utility.yul\":22665:22685   */\n              sub\n                /* \"#utility.yul\":22661:22662   */\n              0x00\n                /* \"#utility.yul\":22650:22659   */\n              dup4\n                /* \"#utility.yul\":22646:22663   */\n              add\n                /* \"#utility.yul\":22639:22686   */\n              mstore\n                /* \"#utility.yul\":22703:22834   */\n              tag_578\n                /* \"#utility.yul\":22829:22833   */\n              dup2\n                /* \"#utility.yul\":22703:22834   */\n              tag_352\n              jump\t// in\n            tag_578:\n                /* \"#utility.yul\":22695:22834   */\n              swap1\n              pop\n                /* \"#utility.yul\":22422:22841   */\n              swap2\n              swap1\n              pop\n              jump\t// out\n                /* \"#utility.yul\":22847:23081   */\n            tag_353:\n                /* \"#utility.yul\":22987:23021   */\n              0x596f752063616e6e6f742077697468647261772c2043616d706169676e206861\n                /* \"#utility.yul\":22983:22984   */\n              0x00\n                /* \"#utility.yul\":22975:22981   */\n              dup3\n                /* \"#utility.yul\":22971:22985   */\n              add\n                /* \"#utility.yul\":22964:23022   */\n              mstore\n                /* \"#utility.yul\":23056:23073   */\n              0x73206e6f74207375636365656465640000000000000000000000000000000000\n                /* \"#utility.yul\":23051:23053   */\n              0x20\n                /* \"#utility.yul\":23043:23049   */\n              dup3\n                /* \"#utility.yul\":23039:23054   */\n              add\n                /* \"#utility.yul\":23032:23074   */\n              mstore\n                /* \"#utility.yul\":22847:23081   */\n              pop\n              jump\t// out\n                /* \"#utility.yul\":23087:23453   */\n            tag_354:\n                /* \"#utility.yul\":23229:23232   */\n              0x00\n                /* \"#utility.yul\":23250:23317   */\n              tag_581\n                /* \"#utility.yul\":23314:23316   */\n              0x2f\n                /* \"#utility.yul\":23309:23312   */\n              dup4\n                /* \"#utility.yul\":23250:23317   */\n              tag_304\n              jump\t// in\n            tag_581:\n                /* \"#utility.yul\":23243:23317   */\n              swap2\n              pop\n                /* \"#utility.yul\":23326:23419   */\n              tag_582\n                /* \"#utility.yul\":23415:23418   */\n              dup3\n                /* \"#utility.yul\":23326:23419   */\n              tag_353\n              jump\t// in\n            tag_582:\n                /* \"#utility.yul\":23444:23446   */\n              0x40\n                /* \"#utility.yul\":23439:23442   */\n              dup3\n                /* \"#utility.yul\":23435:23447   */\n              add\n                /* \"#utility.yul\":23428:23447   */\n              swap1\n              pop\n                /* \"#utility.yul\":23087:23453   */\n              swap2\n              swap1\n              pop\n              jump\t// out\n                /* \"#utility.yul\":23459:23878   */\n            tag_183:\n                /* \"#utility.yul\":23625:23629   */\n              0x00\n                /* \"#utility.yul\":23663:23665   */\n              0x20\n                /* \"#utility.yul\":23652:23661   */\n              dup3\n                /* \"#utility.yul\":23648:23666   */\n              add\n                /* \"#utility.yul\":23640:23666   */\n              swap1\n              pop\n                /* \"#utility.yul\":23712:23721   */\n              dup2\n                /* \"#utility.yul\":23706:23710   */\n              dup2\n                /* \"#utility.yul\":23702:23722   */\n              sub\n                /* \"#utility.yul\":23698:23699   */\n              0x00\n                /* \"#utility.yul\":23687:23696   */\n              dup4\n                /* \"#utility.yul\":23683:23700   */\n              add\n                /* \"#utility.yul\":23676:23723   */\n              mstore\n                /* \"#utility.yul\":23740:23871   */\n              tag_584\n                /* \"#utility.yul\":23866:23870   */\n              dup2\n                /* \"#utility.yul\":23740:23871   */\n              tag_354\n              jump\t// in\n            tag_584:\n                /* \"#utility.yul\":23732:23871   */\n              swap1\n              pop\n                /* \"#utility.yul\":23459:23878   */\n              swap2\n              swap1\n              pop\n              jump\t// out\n                /* \"#utility.yul\":23884:24055   */\n            tag_188:\n                /* \"#utility.yul\":23923:23926   */\n              0x00\n                /* \"#utility.yul\":23946:23970   */\n              tag_586\n                /* \"#utility.yul\":23964:23969   */\n              dup3\n                /* \"#utility.yul\":23946:23970   */\n              tag_294\n              jump\t// in\n            tag_586:\n                /* \"#utility.yul\":23937:23970   */\n              swap2\n              pop\n                /* \"#utility.yul\":23992:23996   */\n              0x00\n                /* \"#utility.yul\":23985:23990   */\n              dup3\n                /* \"#utility.yul\":23982:23997   */\n              sub\n                /* \"#utility.yul\":23979:24020   */\n              tag_587\n              jumpi\n                /* \"#utility.yul\":24000:24018   */\n              tag_588\n              tag_344\n              jump\t// in\n            tag_588:\n                /* \"#utility.yul\":23979:24020   */\n            tag_587:\n                /* \"#utility.yul\":24047:24048   */\n              0x01\n                /* \"#utility.yul\":24040:24045   */\n              dup3\n                /* \"#utility.yul\":24036:24049   */\n              sub\n                /* \"#utility.yul\":24029:24049   */\n              swap1\n              pop\n                /* \"#utility.yul\":23884:24055   */\n              swap2\n              swap1\n              pop\n              jump\t// out\n                /* \"#utility.yul\":24061:24252   */\n            tag_190:\n                /* \"#utility.yul\":24101:24105   */\n              0x00\n                /* \"#utility.yul\":24121:24141   */\n              tag_590\n                /* \"#utility.yul\":24139:24140   */\n              dup3\n                /* \"#utility.yul\":24121:24141   */\n              tag_294\n              jump\t// in\n            tag_590:\n                /* \"#utility.yul\":24116:24141   */\n              swap2\n              pop\n                /* \"#utility.yul\":24155:24175   */\n              tag_591\n                /* \"#utility.yul\":24173:24174   */\n              dup4\n                /* \"#utility.yul\":24155:24175   */\n              tag_294\n              jump\t// in\n            tag_591:\n                /* \"#utility.yul\":24150:24175   */\n              swap3\n              pop\n                /* \"#utility.yul\":24194:24195   */\n              dup3\n                /* \"#utility.yul\":24191:24192   */\n              dup3\n                /* \"#utility.yul\":24188:24196   */\n              lt\n                /* \"#utility.yul\":24185:24219   */\n              iszero\n              tag_592\n              jumpi\n                /* \"#utility.yul\":24199:24217   */\n              tag_593\n              tag_344\n              jump\t// in\n            tag_593:\n                /* \"#utility.yul\":24185:24219   */\n            tag_592:\n                /* \"#utility.yul\":24244:24245   */\n              dup3\n                /* \"#utility.yul\":24241:24242   */\n              dup3\n                /* \"#utility.yul\":24237:24246   */\n              sub\n                /* \"#utility.yul\":24229:24246   */\n              swap1\n              pop\n                /* \"#utility.yul\":24061:24252   */\n              swap3\n              swap2\n              pop\n              pop\n              jump\t// out\n                /* \"#utility.yul\":24258:24438   */\n            tag_355:\n                /* \"#utility.yul\":24306:24383   */\n              0x4e487b7100000000000000000000000000000000000000000000000000000000\n                /* \"#utility.yul\":24303:24304   */\n              0x00\n                /* \"#utility.yul\":24296:24384   */\n              mstore\n                /* \"#utility.yul\":24403:24407   */\n              0x22\n                /* \"#utility.yul\":24400:24401   */\n              0x04\n                /* \"#utility.yul\":24393:24408   */\n              mstore\n                /* \"#utility.yul\":24427:24431   */\n              0x24\n                /* \"#utility.yul\":24424:24425   */\n              0x00\n                /* \"#utility.yul\":24417:24432   */\n              revert\n                /* \"#utility.yul\":24444:24764   */\n            tag_194:\n                /* \"#utility.yul\":24488:24494   */\n              0x00\n                /* \"#utility.yul\":24525:24526   */\n              0x02\n                /* \"#utility.yul\":24519:24523   */\n              dup3\n                /* \"#utility.yul\":24515:24527   */\n              div\n                /* \"#utility.yul\":24505:24527   */\n              swap1\n              pop\n                /* \"#utility.yul\":24572:24573   */\n              0x01\n                /* \"#utility.yul\":24566:24570   */\n              dup3\n                /* \"#utility.yul\":24562:24574   */\n              and\n                /* \"#utility.yul\":24593:24611   */\n              dup1\n                /* \"#utility.yul\":24583:24664   */\n              tag_596\n              jumpi\n                /* \"#utility.yul\":24649:24653   */\n              0x7f\n                /* \"#utility.yul\":24641:24647   */\n              dup3\n                /* \"#utility.yul\":24637:24654   */\n              and\n                /* \"#utility.yul\":24627:24654   */\n              swap2\n              pop\n                /* \"#utility.yul\":24583:24664   */\n            tag_596:\n                /* \"#utility.yul\":24711:24713   */\n              0x20\n                /* \"#utility.yul\":24703:24709   */\n              dup3\n                /* \"#utility.yul\":24700:24714   */\n              lt\n                /* \"#utility.yul\":24680:24698   */\n              dup2\n                /* \"#utility.yul\":24677:24715   */\n              sub\n                /* \"#utility.yul\":24674:24758   */\n              tag_597\n              jumpi\n                /* \"#utility.yul\":24730:24748   */\n              tag_598\n              tag_355\n              jump\t// in\n            tag_598:\n                /* \"#utility.yul\":24674:24758   */\n            tag_597:\n                /* \"#utility.yul\":24495:24764   */\n              pop\n                /* \"#utility.yul\":24444:24764   */\n              swap2\n              swap1\n              pop\n              jump\t// out\n                /* \"#utility.yul\":24770:24996   */\n            tag_356:\n                /* \"#utility.yul\":24910:24944   */\n              0x56616c7565206973206c657373207468616e206d696e696d756d20636f6e7472\n                /* \"#utility.yul\":24906:24907   */\n              0x00\n                /* \"#utility.yul\":24898:24904   */\n              dup3\n                /* \"#utility.yul\":24894:24908   */\n              add\n                /* \"#utility.yul\":24887:24945   */\n              mstore\n                /* \"#utility.yul\":24979:24988   */\n              0x69627574696f6e00000000000000000000000000000000000000000000000000\n                /* \"#utility.yul\":24974:24976   */\n              0x20\n                /* \"#utility.yul\":24966:24972   */\n              dup3\n                /* \"#utility.yul\":24962:24977   */\n              add\n                /* \"#utility.yul\":24955:24989   */\n              mstore\n                /* \"#utility.yul\":24770:24996   */\n              pop\n              jump\t// out\n                /* \"#utility.yul\":25002:25368   */\n            tag_357:\n                /* \"#utility.yul\":25144:25147   */\n              0x00\n                /* \"#utility.yul\":25165:25232   */\n              tag_601\n                /* \"#utility.yul\":25229:25231   */\n              0x27\n                /* \"#utility.yul\":25224:25227   */\n              dup4\n                /* \"#utility.yul\":25165:25232   */\n              tag_304\n              jump\t// in\n            tag_601:\n                /* \"#utility.yul\":25158:25232   */\n              swap2\n              pop\n                /* \"#utility.yul\":25241:25334   */\n              tag_602\n                /* \"#utility.yul\":25330:25333   */\n              dup3\n                /* \"#utility.yul\":25241:25334   */\n              tag_356\n              jump\t// in\n            tag_602:\n                /* \"#utility.yul\":25359:25361   */\n              0x40\n                /* \"#utility.yul\":25354:25357   */\n              dup3\n                /* \"#utility.yul\":25350:25362   */\n              add\n                /* \"#utility.yul\":25343:25362   */\n              swap1\n              pop\n                /* \"#utility.yul\":25002:25368   */\n              swap2\n              swap1\n              pop\n              jump\t// out\n                /* \"#utility.yul\":25374:25793   */\n            tag_220:\n                /* \"#utility.yul\":25540:25544   */\n              0x00\n                /* \"#utility.yul\":25578:25580   */\n              0x20\n                /* \"#utility.yul\":25567:25576   */\n              dup3\n                /* \"#utility.yul\":25563:25581   */\n              add\n                /* \"#utility.yul\":25555:25581   */\n              swap1\n              pop\n                /* \"#utility.yul\":25627:25636   */\n              dup2\n                /* \"#utility.yul\":25621:25625   */\n              dup2\n                /* \"#utility.yul\":25617:25637   */\n              sub\n                /* \"#utility.yul\":25613:25614   */\n              0x00\n                /* \"#utility.yul\":25602:25611   */\n              dup4\n                /* \"#utility.yul\":25598:25615   */\n              add\n                /* \"#utility.yul\":25591:25638   */\n              mstore\n                /* \"#utility.yul\":25655:25786   */\n              tag_604\n                /* \"#utility.yul\":25781:25785   */\n              dup2\n                /* \"#utility.yul\":25655:25786   */\n              tag_357\n              jump\t// in\n            tag_604:\n                /* \"#utility.yul\":25647:25786   */\n              swap1\n              pop\n                /* \"#utility.yul\":25374:25793   */\n              swap2\n              swap1\n              pop\n              jump\t// out\n                /* \"#utility.yul\":25799:26104   */\n            tag_222:\n                /* \"#utility.yul\":25839:25842   */\n              0x00\n                /* \"#utility.yul\":25858:25878   */\n              tag_606\n                /* \"#utility.yul\":25876:25877   */\n              dup3\n                /* \"#utility.yul\":25858:25878   */\n              tag_294\n              jump\t// in\n            tag_606:\n                /* \"#utility.yul\":25853:25878   */\n              swap2\n              pop\n                /* \"#utility.yul\":25892:25912   */\n              tag_607\n                /* \"#utility.yul\":25910:25911   */\n              dup4\n                /* \"#utility.yul\":25892:25912   */\n              tag_294\n              jump\t// in\n            tag_607:\n                /* \"#utility.yul\":25887:25912   */\n              swap3\n              pop\n                /* \"#utility.yul\":26046:26047   */\n              dup3\n                /* \"#utility.yul\":25978:26044   */\n              0xffffffffffffffffffffffffffffffffffffffffffffffffffffffffffffffff\n                /* \"#utility.yul\":25974:26048   */\n              sub\n                /* \"#utility.yul\":25971:25972   */\n              dup3\n                /* \"#utility.yul\":25968:26049   */\n              gt\n                /* \"#utility.yul\":25965:26072   */\n              iszero\n              tag_608\n              jumpi\n                /* \"#utility.yul\":26052:26070   */\n              tag_609\n              tag_344\n              jump\t// in\n            tag_609:\n                /* \"#utility.yul\":25965:26072   */\n            tag_608:\n                /* \"#utility.yul\":26096:26097   */\n              dup3\n                /* \"#utility.yul\":26093:26094   */\n              dup3\n                /* \"#utility.yul\":26089:26098   */\n              add\n                /* \"#utility.yul\":26082:26098   */\n              swap1\n              pop\n                /* \"#utility.yul\":25799:26104   */\n              swap3\n              swap2\n              pop\n              pop\n              jump\t// out\n                /* \"#utility.yul\":26110:26343   */\n            tag_225:\n                /* \"#utility.yul\":26149:26152   */\n              0x00\n                /* \"#utility.yul\":26172:26196   */\n              tag_611\n                /* \"#utility.yul\":26190:26195   */\n              dup3\n                /* \"#utility.yul\":26172:26196   */\n              tag_294\n              jump\t// in\n            tag_611:\n                /* \"#utility.yul\":26163:26196   */\n              swap2\n              pop\n                /* \"#utility.yul\":26218:26284   */\n              0xffffffffffffffffffffffffffffffffffffffffffffffffffffffffffffffff\n                /* \"#utility.yul\":26211:26216   */\n              dup3\n                /* \"#utility.yul\":26208:26285   */\n              sub\n                /* \"#utility.yul\":26205:26308   */\n              tag_612\n              jumpi\n                /* \"#utility.yul\":26288:26306   */\n              tag_613\n              tag_344\n              jump\t// in\n            tag_613:\n                /* \"#utility.yul\":26205:26308   */\n            tag_612:\n                /* \"#utility.yul\":26335:26336   */\n              0x01\n                /* \"#utility.yul\":26328:26333   */\n              dup3\n                /* \"#utility.yul\":26324:26337   */\n              add\n                /* \"#utility.yul\":26317:26337   */\n              swap1\n              pop\n                /* \"#utility.yul\":26110:26343   */\n              swap2\n              swap1\n              pop\n              jump\t// out\n                /* \"#utility.yul\":26349:26490   */\n            tag_358:\n                /* \"#utility.yul\":26398:26402   */\n              0x00\n                /* \"#utility.yul\":26421:26424   */\n              dup2\n                /* \"#utility.yul\":26413:26424   */\n              swap1\n              pop\n                /* \"#utility.yul\":26444:26447   */\n              dup2\n                /* \"#utility.yul\":26441:26442   */\n              0x00\n                /* \"#utility.yul\":26434:26448   */\n              mstore\n                /* \"#utility.yul\":26478:26482   */\n              0x20\n                /* \"#utility.yul\":26475:26476   */\n              0x00\n                /* \"#utility.yul\":26465:26483   */\n              keccak256\n                /* \"#utility.yul\":26457:26483   */\n              swap1\n              pop\n                /* \"#utility.yul\":26349:26490   */\n              swap2\n              swap1\n              pop\n              jump\t// out\n                /* \"#utility.yul\":26496:26589   */\n            tag_359:\n                /* \"#utility.yul\":26533:26539   */\n              0x00\n                /* \"#utility.yul\":26580:26582   */\n              0x20\n                /* \"#utility.yul\":26575:26577   */\n              0x1f\n                /* \"#utility.yul\":26568:26573   */\n              dup4\n                /* \"#utility.yul\":26564:26578   */\n              add\n                /* \"#utility.yul\":26560:26583   */\n              div\n                /* \"#utility.yul\":26550:26583   */\n              swap1\n              pop\n                /* \"#utility.yul\":26496:26589   */\n              swap2\n              swap1\n              pop\n              jump\t// out\n                /* \"#utility.yul\":26595:26702   */\n            tag_360:\n                /* \"#utility.yul\":26639:26647   */\n              0x00\n                /* \"#utility.yul\":26689:26694   */\n              dup3\n                /* \"#utility.yul\":26683:26687   */\n              dup3\n                /* \"#utility.yul\":26679:26695   */\n              shl\n                /* \"#utility.yul\":26658:26695   */\n              swap1\n              pop\n                /* \"#utility.yul\":26595:26702   */\n              swap3\n              swap2\n              pop\n              pop\n              jump\t// out\n                /* \"#utility.yul\":26708:27101   */\n            tag_361:\n                /* \"#utility.yul\":26777:26783   */\n              0x00\n                /* \"#utility.yul\":26827:26828   */\n              0x08\n                /* \"#utility.yul\":26815:26825   */\n              dup4\n                /* \"#utility.yul\":26811:26829   */\n              mul\n                /* \"#utility.yul\":26850:26947   */\n              tag_618\n                /* \"#utility.yul\":26880:26946   */\n              0xffffffffffffffffffffffffffffffffffffffffffffffffffffffffffffffff\n                /* \"#utility.yul\":26869:26878   */\n              dup3\n                /* \"#utility.yul\":26850:26947   */\n              tag_360\n              jump\t// in\n            tag_618:\n                /* \"#utility.yul\":26968:27007   */\n              tag_619\n                /* \"#utility.yul\":26998:27006   */\n              dup7\n                /* \"#utility.yul\":26987:26996   */\n              dup4\n                /* \"#utility.yul\":26968:27007   */\n              tag_360\n              jump\t// in\n            tag_619:\n                /* \"#utility.yul\":26956:27007   */\n              swap6\n              pop\n                /* \"#utility.yul\":27040:27044   */\n              dup1\n                /* \"#utility.yul\":27036:27045   */\n              not\n                /* \"#utility.yul\":27029:27034   */\n              dup5\n                /* \"#utility.yul\":27025:27046   */\n              and\n                /* \"#utility.yul\":27016:27046   */\n              swap4\n              pop\n                /* \"#utility.yul\":27089:27093   */\n              dup1\n                /* \"#utility.yul\":27079:27087   */\n              dup7\n                /* \"#utility.yul\":27075:27094   */\n              and\n                /* \"#utility.yul\":27068:27073   */\n              dup5\n                /* \"#utility.yul\":27065:27095   */\n              or\n                /* \"#utility.yul\":27055:27095   */\n              swap3\n              pop\n                /* \"#utility.yul\":26784:27101   */\n              pop\n              pop\n                /* \"#utility.yul\":26708:27101   */\n              swap4\n              swap3\n              pop\n              pop\n              pop\n              jump\t// out\n                /* \"#utility.yul\":27107:27167   */\n            tag_362:\n                /* \"#utility.yul\":27135:27138   */\n              0x00\n                /* \"#utility.yul\":27156:27161   */\n              dup2\n                /* \"#utility.yul\":27149:27161   */\n              swap1\n              pop\n                /* \"#utility.yul\":27107:27167   */\n              swap2\n              swap1\n              pop\n              jump\t// out\n                /* \"#utility.yul\":27173:27315   */\n            tag_363:\n                /* \"#utility.yul\":27223:27232   */\n              0x00\n                /* \"#utility.yul\":27256:27309   */\n              tag_622\n                /* \"#utility.yul\":27274:27308   */\n              tag_623\n                /* \"#utility.yul\":27283:27307   */\n              tag_624\n                /* \"#utility.yul\":27301:27306   */\n              dup5\n                /* \"#utility.yul\":27283:27307   */\n              tag_294\n              jump\t// in\n            tag_624:\n                /* \"#utility.yul\":27274:27308   */\n              tag_362\n              jump\t// in\n            tag_623:\n                /* \"#utility.yul\":27256:27309   */\n              tag_294\n              jump\t// in\n            tag_622:\n                /* \"#utility.yul\":27243:27309   */\n              swap1\n              pop\n                /* \"#utility.yul\":27173:27315   */\n              swap2\n              swap1\n              pop\n              jump\t// out\n                /* \"#utility.yul\":27321:27396   */\n            tag_364:\n                /* \"#utility.yul\":27364:27367   */\n              0x00\n                /* \"#utility.yul\":27385:27390   */\n              dup2\n                /* \"#utility.yul\":27378:27390   */\n              swap1\n              pop\n                /* \"#utility.yul\":27321:27396   */\n              swap2\n              swap1\n              pop\n              jump\t// out\n                /* \"#utility.yul\":27402:27671   */\n            tag_365:\n                /* \"#utility.yul\":27512:27551   */\n              tag_627\n                /* \"#utility.yul\":27543:27550   */\n              dup4\n                /* \"#utility.yul\":27512:27551   */\n              tag_363\n              jump\t// in\n            tag_627:\n                /* \"#utility.yul\":27573:27664   */\n              tag_628\n                /* \"#utility.yul\":27622:27663   */\n              tag_629\n                /* \"#utility.yul\":27646:27662   */\n              dup3\n                /* \"#utility.yul\":27622:27663   */\n              tag_364\n              jump\t// in\n            tag_629:\n                /* \"#utility.yul\":27614:27620   */\n              dup5\n                /* \"#utility.yul\":27607:27611   */\n              dup5\n                /* \"#utility.yul\":27601:27612   */\n              sload\n                /* \"#utility.yul\":27573:27664   */\n              tag_361\n              jump\t// in\n            tag_628:\n                /* \"#utility.yul\":27567:27571   */\n              dup3\n                /* \"#utility.yul\":27560:27665   */\n              sstore\n                /* \"#utility.yul\":27478:27671   */\n              pop\n                /* \"#utility.yul\":27402:27671   */\n              pop\n              pop\n              pop\n              jump\t// out\n                /* \"#utility.yul\":27677:27750   */\n            tag_366:\n                /* \"#utility.yul\":27722:27725   */\n              0x00\n                /* \"#utility.yul\":27677:27750   */\n              swap1\n              jump\t// out\n                /* \"#utility.yul\":27756:27945   */\n            tag_367:\n                /* \"#utility.yul\":27833:27865   */\n              tag_632\n              tag_366\n              jump\t// in\n            tag_632:\n                /* \"#utility.yul\":27874:27939   */\n              tag_633\n                /* \"#utility.yul\":27932:27938   */\n              dup2\n                /* \"#utility.yul\":27924:27930   */\n              dup5\n                /* \"#utility.yul\":27918:27922   */\n              dup5\n                /* \"#utility.yul\":27874:27939   */\n              tag_365\n              jump\t// in\n            tag_633:\n                /* \"#utility.yul\":27809:27945   */\n              pop\n                /* \"#utility.yul\":27756:27945   */\n              pop\n              pop\n              jump\t// out\n                /* \"#utility.yul\":27951:28137   */\n            tag_368:\n                /* \"#utility.yul\":28011:28131   */\n            tag_635:\n                /* \"#utility.yul\":28028:28031   */\n              dup2\n                /* \"#utility.yul\":28021:28026   */\n              dup2\n                /* \"#utility.yul\":28018:28032   */\n              lt\n                /* \"#utility.yul\":28011:28131   */\n              iszero\n              tag_637\n              jumpi\n                /* \"#utility.yul\":28082:28121   */\n              tag_638\n                /* \"#utility.yul\":28119:28120   */\n              0x00\n                /* \"#utility.yul\":28112:28117   */\n              dup3\n                /* \"#utility.yul\":28082:28121   */\n              tag_367\n              jump\t// in\n            tag_638:\n                /* \"#utility.yul\":28055:28056   */\n              0x01\n                /* \"#utility.yul\":28048:28053   */\n              dup2\n                /* \"#utility.yul\":28044:28057   */\n              add\n                /* \"#utility.yul\":28035:28057   */\n              swap1\n              pop\n                /* \"#utility.yul\":28011:28131   */\n              jump(tag_635)\n            tag_637:\n                /* \"#utility.yul\":27951:28137   */\n              pop\n              pop\n              jump\t// out\n                /* \"#utility.yul\":28143:28686   */\n            tag_369:\n                /* \"#utility.yul\":28244:28246   */\n              0x1f\n                /* \"#utility.yul\":28239:28242   */\n              dup3\n                /* \"#utility.yul\":28236:28247   */\n              gt\n                /* \"#utility.yul\":28233:28679   */\n              iszero\n              tag_640\n              jumpi\n                /* \"#utility.yul\":28278:28316   */\n              tag_641\n                /* \"#utility.yul\":28310:28315   */\n              dup2\n                /* \"#utility.yul\":28278:28316   */\n              tag_358\n              jump\t// in\n            tag_641:\n                /* \"#utility.yul\":28362:28391   */\n              tag_642\n                /* \"#utility.yul\":28380:28390   */\n              dup5\n                /* \"#utility.yul\":28362:28391   */\n              tag_359\n              jump\t// in\n            tag_642:\n                /* \"#utility.yul\":28352:28360   */\n              dup2\n                /* \"#utility.yul\":28348:28392   */\n              add\n                /* \"#utility.yul\":28545:28547   */\n              0x20\n                /* \"#utility.yul\":28533:28543   */\n              dup6\n                /* \"#utility.yul\":28530:28548   */\n              lt\n                /* \"#utility.yul\":28527:28576   */\n              iszero\n              tag_643\n              jumpi\n                /* \"#utility.yul\":28566:28574   */\n              dup2\n                /* \"#utility.yul\":28551:28574   */\n              swap1\n              pop\n                /* \"#utility.yul\":28527:28576   */\n            tag_643:\n                /* \"#utility.yul\":28589:28669   */\n              tag_644\n                /* \"#utility.yul\":28645:28667   */\n              tag_645\n                /* \"#utility.yul\":28663:28666   */\n              dup6\n                /* \"#utility.yul\":28645:28667   */\n              tag_359\n              jump\t// in\n            tag_645:\n                /* \"#utility.yul\":28635:28643   */\n              dup4\n                /* \"#utility.yul\":28631:28668   */\n              add\n                /* \"#utility.yul\":28618:28629   */\n              dup3\n                /* \"#utility.yul\":28589:28669   */\n              tag_368\n              jump\t// in\n            tag_644:\n                /* \"#utility.yul\":28248:28679   */\n              pop\n              pop\n                /* \"#utility.yul\":28233:28679   */\n            tag_640:\n                /* \"#utility.yul\":28143:28686   */\n              pop\n              pop\n              pop\n              jump\t// out\n                /* \"#utility.yul\":28692:28809   */\n            tag_370:\n                /* \"#utility.yul\":28746:28754   */\n              0x00\n                /* \"#utility.yul\":28796:28801   */\n              dup3\n                /* \"#utility.yul\":28790:28794   */\n              dup3\n                /* \"#utility.yul\":28786:28802   */\n              shr\n                /* \"#utility.yul\":28765:28802   */\n              swap1\n              pop\n                /* \"#utility.yul\":28692:28809   */\n              swap3\n              swap2\n              pop\n              pop\n              jump\t// out\n                /* \"#utility.yul\":28815:28984   */\n            tag_371:\n                /* \"#utility.yul\":28859:28865   */\n              0x00\n                /* \"#utility.yul\":28892:28943   */\n              tag_648\n                /* \"#utility.yul\":28940:28941   */\n              0x00\n                /* \"#utility.yul\":28936:28942   */\n              not\n                /* \"#utility.yul\":28928:28933   */\n              dup5\n                /* \"#utility.yul\":28925:28926   */\n              0x08\n                /* \"#utility.yul\":28921:28934   */\n              mul\n                /* \"#utility.yul\":28892:28943   */\n              tag_370\n              jump\t// in\n            tag_648:\n                /* \"#utility.yul\":28888:28944   */\n              not\n                /* \"#utility.yul\":28973:28977   */\n              dup1\n                /* \"#utility.yul\":28967:28971   */\n              dup4\n                /* \"#utility.yul\":28963:28978   */\n              and\n                /* \"#utility.yul\":28953:28978   */\n              swap2\n              pop\n                /* \"#utility.yul\":28866:28984   */\n              pop\n                /* \"#utility.yul\":28815:28984   */\n              swap3\n              swap2\n              pop\n              pop\n              jump\t// out\n                /* \"#utility.yul\":28989:29284   */\n            tag_372:\n                /* \"#utility.yul\":29065:29069   */\n              0x00\n                /* \"#utility.yul\":29211:29240   */\n              tag_650\n                /* \"#utility.yul\":29236:29239   */\n              dup4\n                /* \"#utility.yul\":29230:29234   */\n              dup4\n                /* \"#utility.yul\":29211:29240   */\n              tag_371\n              jump\t// in\n            tag_650:\n                /* \"#utility.yul\":29203:29240   */\n              swap2\n              pop\n                /* \"#utility.yul\":29273:29276   */\n              dup3\n                /* \"#utility.yul\":29270:29271   */\n              0x02\n                /* \"#utility.yul\":29266:29277   */\n              mul\n                /* \"#utility.yul\":29260:29264   */\n              dup3\n                /* \"#utility.yul\":29257:29278   */\n              or\n                /* \"#utility.yul\":29249:29278   */\n              swap1\n              pop\n                /* \"#utility.yul\":28989:29284   */\n              swap3\n              swap2\n              pop\n              pop\n              jump\t// out\n                /* \"#utility.yul\":29289:30684   */\n            tag_241:\n                /* \"#utility.yul\":29406:29443   */\n              tag_652\n                /* \"#utility.yul\":29439:29442   */\n              dup3\n                /* \"#utility.yul\":29406:29443   */\n              tag_303\n              jump\t// in\n            tag_652:\n                /* \"#utility.yul\":29508:29526   */\n              0xffffffffffffffff\n                /* \"#utility.yul\":29500:29506   */\n              dup2\n                /* \"#utility.yul\":29497:29527   */\n              gt\n                /* \"#utility.yul\":29494:29550   */\n              iszero\n              tag_653\n              jumpi\n                /* \"#utility.yul\":29530:29548   */\n              tag_654\n              tag_324\n              jump\t// in\n            tag_654:\n                /* \"#utility.yul\":29494:29550   */\n            tag_653:\n                /* \"#utility.yul\":29574:29612   */\n              tag_655\n                /* \"#utility.yul\":29606:29610   */\n              dup3\n                /* \"#utility.yul\":29600:29611   */\n              sload\n                /* \"#utility.yul\":29574:29612   */\n              tag_194\n              jump\t// in\n            tag_655:\n                /* \"#utility.yul\":29659:29726   */\n              tag_656\n                /* \"#utility.yul\":29719:29725   */\n              dup3\n                /* \"#utility.yul\":29711:29717   */\n              dup3\n                /* \"#utility.yul\":29705:29709   */\n              dup6\n                /* \"#utility.yul\":29659:29726   */\n              tag_369\n              jump\t// in\n            tag_656:\n                /* \"#utility.yul\":29753:29754   */\n              0x00\n                /* \"#utility.yul\":29777:29781   */\n              0x20\n                /* \"#utility.yul\":29764:29781   */\n              swap1\n              pop\n                /* \"#utility.yul\":29809:29811   */\n              0x1f\n                /* \"#utility.yul\":29801:29807   */\n              dup4\n                /* \"#utility.yul\":29798:29812   */\n              gt\n                /* \"#utility.yul\":29826:29827   */\n              0x01\n                /* \"#utility.yul\":29821:30439   */\n              dup2\n              eq\n              tag_658\n              jumpi\n                /* \"#utility.yul\":30483:30484   */\n              0x00\n                /* \"#utility.yul\":30500:30506   */\n              dup5\n                /* \"#utility.yul\":30497:30574   */\n              iszero\n              tag_659\n              jumpi\n                /* \"#utility.yul\":30549:30558   */\n              dup3\n                /* \"#utility.yul\":30544:30547   */\n              dup8\n                /* \"#utility.yul\":30540:30559   */\n              add\n                /* \"#utility.yul\":30534:30560   */\n              mload\n                /* \"#utility.yul\":30525:30560   */\n              swap1\n              pop\n                /* \"#utility.yul\":30497:30574   */\n            tag_659:\n                /* \"#utility.yul\":30600:30667   */\n              tag_660\n                /* \"#utility.yul\":30660:30666   */\n              dup6\n                /* \"#utility.yul\":30653:30658   */\n              dup3\n                /* \"#utility.yul\":30600:30667   */\n              tag_372\n              jump\t// in\n            tag_660:\n                /* \"#utility.yul\":30594:30598   */\n              dup7\n                /* \"#utility.yul\":30587:30668   */\n              sstore\n                /* \"#utility.yul\":30456:30678   */\n              pop\n                /* \"#utility.yul\":29791:30678   */\n              jump(tag_657)\n                /* \"#utility.yul\":29821:30439   */\n            tag_658:\n                /* \"#utility.yul\":29873:29877   */\n              0x1f\n                /* \"#utility.yul\":29869:29878   */\n              not\n                /* \"#utility.yul\":29861:29867   */\n              dup5\n                /* \"#utility.yul\":29857:29879   */\n              and\n                /* \"#utility.yul\":29907:29944   */\n              tag_661\n                /* \"#utility.yul\":29939:29943   */\n              dup7\n                /* \"#utility.yul\":29907:29944   */\n              tag_358\n              jump\t// in\n            tag_661:\n                /* \"#utility.yul\":29966:29967   */\n              0x00\n                /* \"#utility.yul\":29980:30188   */\n            tag_662:\n                /* \"#utility.yul\":29994:30001   */\n              dup3\n                /* \"#utility.yul\":29991:29992   */\n              dup2\n                /* \"#utility.yul\":29988:30002   */\n              lt\n                /* \"#utility.yul\":29980:30188   */\n              iszero\n              tag_664\n              jumpi\n                /* \"#utility.yul\":30073:30082   */\n              dup5\n                /* \"#utility.yul\":30068:30071   */\n              dup10\n                /* \"#utility.yul\":30064:30083   */\n              add\n                /* \"#utility.yul\":30058:30084   */\n              mload\n                /* \"#utility.yul\":30050:30056   */\n              dup3\n                /* \"#utility.yul\":30043:30085   */\n              sstore\n                /* \"#utility.yul\":30124:30125   */\n              0x01\n                /* \"#utility.yul\":30116:30122   */\n              dup3\n                /* \"#utility.yul\":30112:30126   */\n              add\n                /* \"#utility.yul\":30102:30126   */\n              swap2\n              pop\n                /* \"#utility.yul\":30171:30173   */\n              0x20\n                /* \"#utility.yul\":30160:30169   */\n              dup6\n                /* \"#utility.yul\":30156:30174   */\n              add\n                /* \"#utility.yul\":30143:30174   */\n              swap5\n              pop\n                /* \"#utility.yul\":30017:30021   */\n              0x20\n                /* \"#utility.yul\":30014:30015   */\n              dup2\n                /* \"#utility.yul\":30010:30022   */\n              add\n                /* \"#utility.yul\":30005:30022   */\n              swap1\n              pop\n                /* \"#utility.yul\":29980:30188   */\n              jump(tag_662)\n            tag_664:\n                /* \"#utility.yul\":30216:30222   */\n              dup7\n                /* \"#utility.yul\":30207:30214   */\n              dup4\n                /* \"#utility.yul\":30204:30223   */\n              lt\n                /* \"#utility.yul\":30201:30380   */\n              iszero\n              tag_665\n              jumpi\n                /* \"#utility.yul\":30274:30283   */\n              dup5\n                /* \"#utility.yul\":30269:30272   */\n              dup10\n                /* \"#utility.yul\":30265:30284   */\n              add\n                /* \"#utility.yul\":30259:30285   */\n              mload\n                /* \"#utility.yul\":30317:30365   */\n              tag_666\n                /* \"#utility.yul\":30359:30363   */\n              0x1f\n                /* \"#utility.yul\":30351:30357   */\n              dup10\n                /* \"#utility.yul\":30347:30364   */\n              and\n                /* \"#utility.yul\":30336:30345   */\n              dup3\n                /* \"#utility.yul\":30317:30365   */\n              tag_371\n              jump\t// in\n            tag_666:\n                /* \"#utility.yul\":30309:30315   */\n              dup4\n                /* \"#utility.yul\":30302:30366   */\n              sstore\n                /* \"#utility.yul\":30224:30380   */\n              pop\n                /* \"#utility.yul\":30201:30380   */\n            tag_665:\n                /* \"#utility.yul\":30426:30427   */\n              0x01\n                /* \"#utility.yul\":30422:30423   */\n              0x02\n                /* \"#utility.yul\":30414:30420   */\n              dup9\n                /* \"#utility.yul\":30410:30424   */\n              mul\n                /* \"#utility.yul\":30406:30428   */\n              add\n                /* \"#utility.yul\":30400:30404   */\n              dup9\n                /* \"#utility.yul\":30393:30429   */\n              sstore\n                /* \"#utility.yul\":29828:30439   */\n              pop\n              pop\n              pop\n                /* \"#utility.yul\":29791:30678   */\n            tag_657:\n              pop\n                /* \"#utility.yul\":29381:30684   */\n              pop\n              pop\n              pop\n                /* \"#utility.yul\":29289:30684   */\n              pop\n              pop\n              jump\t// out\n                /* \"#utility.yul\":30690:30927   */\n            tag_373:\n                /* \"#utility.yul\":30830:30864   */\n              0x596f7520646f206e6f74206861766520656e6f7567682062616c616e63652070\n                /* \"#utility.yul\":30826:30827   */\n              0x00\n                /* \"#utility.yul\":30818:30824   */\n              dup3\n                /* \"#utility.yul\":30814:30828   */\n              add\n                /* \"#utility.yul\":30807:30865   */\n              mstore\n                /* \"#utility.yul\":30899:30919   */\n              0x6c656467656420746f2077697468647261770000000000000000000000000000\n                /* \"#utility.yul\":30894:30896   */\n              0x20\n                /* \"#utility.yul\":30886:30892   */\n              dup3\n                /* \"#utility.yul\":30882:30897   */\n              add\n                /* \"#utility.yul\":30875:30920   */\n              mstore\n                /* \"#utility.yul\":30690:30927   */\n              pop\n              jump\t// out\n                /* \"#utility.yul\":30933:31299   */\n            tag_374:\n                /* \"#utility.yul\":31075:31078   */\n              0x00\n                /* \"#utility.yul\":31096:31163   */\n              tag_669\n                /* \"#utility.yul\":31160:31162   */\n              0x32\n                /* \"#utility.yul\":31155:31158   */\n              dup4\n                /* \"#utility.yul\":31096:31163   */\n              tag_304\n              jump\t// in\n            tag_669:\n                /* \"#utility.yul\":31089:31163   */\n              swap2\n              pop\n                /* \"#utility.yul\":31172:31265   */\n              tag_670\n                /* \"#utility.yul\":31261:31264   */\n              dup3\n                /* \"#utility.yul\":31172:31265   */\n              tag_373\n              jump\t// in\n            tag_670:\n                /* \"#utility.yul\":31290:31292   */\n              0x40\n                /* \"#utility.yul\":31285:31288   */\n              dup3\n                /* \"#utility.yul\":31281:31293   */\n              add\n                /* \"#utility.yul\":31274:31293   */\n              swap1\n              pop\n                /* \"#utility.yul\":30933:31299   */\n              swap2\n              swap1\n              pop\n              jump\t// out\n                /* \"#utility.yul\":31305:31724   */\n            tag_254:\n                /* \"#utility.yul\":31471:31475   */\n              0x00\n                /* \"#utility.yul\":31509:31511   */\n              0x20\n                /* \"#utility.yul\":31498:31507   */\n              dup3\n                /* \"#utility.yul\":31494:31512   */\n              add\n                /* \"#utility.yul\":31486:31512   */\n              swap1\n              pop\n                /* \"#utility.yul\":31558:31567   */\n              dup2\n                /* \"#utility.yul\":31552:31556   */\n              dup2\n                /* \"#utility.yul\":31548:31568   */\n              sub\n                /* \"#utility.yul\":31544:31545   */\n              0x00\n                /* \"#utility.yul\":31533:31542   */\n              dup4\n                /* \"#utility.yul\":31529:31546   */\n              add\n                /* \"#utility.yul\":31522:31569   */\n              mstore\n                /* \"#utility.yul\":31586:31717   */\n              tag_672\n                /* \"#utility.yul\":31712:31716   */\n              dup2\n                /* \"#utility.yul\":31586:31717   */\n              tag_374\n              jump\t// in\n            tag_672:\n                /* \"#utility.yul\":31578:31717   */\n              swap1\n              pop\n                /* \"#utility.yul\":31305:31724   */\n              swap2\n              swap1\n              pop\n              jump\t// out\n                /* \"#utility.yul\":31730:31954   */\n            tag_375:\n                /* \"#utility.yul\":31870:31904   */\n              0x596f75206861766520616c726561647920617070726f76656420746865207265\n                /* \"#utility.yul\":31866:31867   */\n              0x00\n                /* \"#utility.yul\":31858:31864   */\n              dup3\n                /* \"#utility.yul\":31854:31868   */\n              add\n                /* \"#utility.yul\":31847:31905   */\n              mstore\n                /* \"#utility.yul\":31939:31946   */\n              0x7175657374000000000000000000000000000000000000000000000000000000\n                /* \"#utility.yul\":31934:31936   */\n              0x20\n                /* \"#utility.yul\":31926:31932   */\n              dup3\n                /* \"#utility.yul\":31922:31937   */\n              add\n                /* \"#utility.yul\":31915:31947   */\n              mstore\n                /* \"#utility.yul\":31730:31954   */\n              pop\n              jump\t// out\n                /* \"#utility.yul\":31960:32326   */\n            tag_376:\n                /* \"#utility.yul\":32102:32105   */\n              0x00\n                /* \"#utility.yul\":32123:32190   */\n              tag_675\n                /* \"#utility.yul\":32187:32189   */\n              0x25\n                /* \"#utility.yul\":32182:32185   */\n              dup4\n                /* \"#utility.yul\":32123:32190   */\n              tag_304\n              jump\t// in\n            tag_675:\n                /* \"#utility.yul\":32116:32190   */\n              swap2\n              pop\n                /* \"#utility.yul\":32199:32292   */\n              tag_676\n                /* \"#utility.yul\":32288:32291   */\n              dup3\n                /* \"#utility.yul\":32199:32292   */\n              tag_375\n              jump\t// in\n            tag_676:\n                /* \"#utility.yul\":32317:32319   */\n              0x40\n                /* \"#utility.yul\":32312:32315   */\n              dup3\n                /* \"#utility.yul\":32308:32320   */\n              add\n                /* \"#utility.yul\":32301:32320   */\n              swap1\n              pop\n                /* \"#utility.yul\":31960:32326   */\n              swap2\n              swap1\n              pop\n              jump\t// out\n                /* \"#utility.yul\":32332:32751   */\n            tag_277:\n                /* \"#utility.yul\":32498:32502   */\n              0x00\n                /* \"#utility.yul\":32536:32538   */\n              0x20\n                /* \"#utility.yul\":32525:32534   */\n              dup3\n                /* \"#utility.yul\":32521:32539   */\n              add\n                /* \"#utility.yul\":32513:32539   */\n              swap1\n              pop\n                /* \"#utility.yul\":32585:32594   */\n              dup2\n                /* \"#utility.yul\":32579:32583   */\n              dup2\n                /* \"#utility.yul\":32575:32595   */\n              sub\n                /* \"#utility.yul\":32571:32572   */\n              0x00\n                /* \"#utility.yul\":32560:32569   */\n              dup4\n                /* \"#utility.yul\":32556:32573   */\n              add\n                /* \"#utility.yul\":32549:32596   */\n              mstore\n                /* \"#utility.yul\":32613:32744   */\n              tag_678\n                /* \"#utility.yul\":32739:32743   */\n              dup2\n                /* \"#utility.yul\":32613:32744   */\n              tag_376\n              jump\t// in\n            tag_678:\n                /* \"#utility.yul\":32605:32744   */\n              swap1\n              pop\n                /* \"#utility.yul\":32332:32751   */\n              swap2\n              swap1\n              pop\n              jump\t// out\n\n            auxdata: 0xa26469706673582212206935b5e652d48414735c7f74068410aa8cc68acbc49cec750b377873b5bd26cb64736f6c634300080f0033\n        }\n    }\n\n    auxdata: 0xa26469706673582212200be0e0543b63c2d9b1226e86ef8b8530ad5c646d101ba9adf5c657ea614834e264736f6c634300080f0033\n}\n","bytecode":{"linkReferences":{},"object":"608060405234801561001057600080fd5b50613490806100206000396000f3fe60806040523480156200001157600080fd5b5060043610620000465760003560e01c8063339d50a5146200004b5780635eac00071462000081578063f69d315814620000a3575b600080fd5b620000696004803603810190620000639190620002a9565b620000d9565b60405162000078919062000366565b60405180910390f35b6200008b62000119565b6040516200009a919062000451565b60405180910390f35b620000c16004803603810190620000bb919062000475565b620001a9565b604051620000d09190620004f6565b60405180910390f35b60008181548110620000ea57600080fd5b906000526020600020016000915054906101000a900473ffffffffffffffffffffffffffffffffffffffff1681565b606060008054806020026020016040519081016040528092919081815260200182805480156200019f57602002820191906000526020600020905b8160009054906101000a900473ffffffffffffffffffffffffffffffffffffffff1673ffffffffffffffffffffffffffffffffffffffff168152602001906001019080831162000154575b5050505050905090565b60008084848433604051620001be906200025b565b620001cd949392919062000524565b604051809103906000f080158015620001ea573d6000803e3d6000fd5b5090506000819080600181540180825580915050600190039060005260206000200160009091909190916101000a81548173ffffffffffffffffffffffffffffffffffffffff021916908373ffffffffffffffffffffffffffffffffffffffff160217905550809150509392505050565b612ee9806200057283390190565b600080fd5b6000819050919050565b62000283816200026e565b81146200028f57600080fd5b50565b600081359050620002a38162000278565b92915050565b600060208284031215620002c257620002c162000269565b5b6000620002d28482850162000292565b91505092915050565b600073ffffffffffffffffffffffffffffffffffffffff82169050919050565b6000819050919050565b600062000326620003206200031a84620002db565b620002fb565b620002db565b9050919050565b60006200033a8262000305565b9050919050565b60006200034e826200032d565b9050919050565b620003608162000341565b82525050565b60006020820190506200037d600083018462000355565b92915050565b600081519050919050565b600082825260208201905092915050565b6000819050602082019050919050565b620003ba8162000341565b82525050565b6000620003ce8383620003af565b60208301905092915050565b6000602082019050919050565b6000620003f48262000383565b6200040081856200038e565b93506200040d836200039f565b8060005b8381101562000444578151620004288882620003c0565b97506200043583620003da565b92505060018101905062000411565b5085935050505092915050565b600060208201905081810360008301526200046d8184620003e7565b905092915050565b60008060006060848603121562000491576200049062000269565b5b6000620004a18682870162000292565b9350506020620004b48682870162000292565b9250506040620004c78682870162000292565b9150509250925092565b6000620004de82620002db565b9050919050565b620004f081620004d1565b82525050565b60006020820190506200050d6000830184620004e5565b92915050565b6200051e816200026e565b82525050565b60006080820190506200053b600083018762000513565b6200054a602083018662000513565b62000559604083018562000513565b620005686060830184620004e5565b9594505050505056fe60806040523480156200001157600080fd5b5060405162002ee938038062002ee98339818101604052810190620000379190620001c2565b4283116200007c576040517f08c379a00000000000000000000000000000000000000000000000000000000081526004016200007390620002bb565b60405180910390fd5b806000806101000a81548173ffffffffffffffffffffffffffffffffffffffff021916908373ffffffffffffffffffffffffffffffffffffffff1602179055508360018190555060006002819055504260038190555082600481905550816005819055506000600a60016101000a81548160ff0219169083151502179055600a60006101000a81548160ff02191690831515021790555050505050620002dd565b600080fd5b6000819050919050565b620001378162000122565b81146200014357600080fd5b50565b60008151905062000157816200012c565b92915050565b600073ffffffffffffffffffffffffffffffffffffffff82169050919050565b60006200018a826200015d565b9050919050565b6200019c816200017d565b8114620001a857600080fd5b50565b600081519050620001bc8162000191565b92915050565b60008060008060808587031215620001df57620001de6200011d565b5b6000620001ef8782880162000146565b9450506020620002028782880162000146565b9350506040620002158782880162000146565b92505060606200022887828801620001ab565b91505092959194509250565b600082825260208201905092915050565b7f456e642074696d65206973206c657373207468616e2063757272656e7420746960008201527f6d65000000000000000000000000000000000000000000000000000000000000602082015250565b6000620002a360228362000234565b9150620002b08262000245565b604082019050919050565b60006020820190508181036000830152620002d68162000294565b9050919050565b612bfc80620002ed6000396000f3fe60806040526004361061014b5760003560e01c806388ffe867116100b6578063ba2cb6c51161006f578063ba2cb6c5146103fa578063c5055f2f14610425578063c744656514610462578063d7d1bbdb1461048d578063ea8a1af0146104b6578063ffabc673146104cd5761014b565b806388ffe8671461032a5780638a9cfd55146103345780639b4b17861461035d5780639d9a7fe914610388578063aeafca2e146103b3578063b761f24b146103de5761014b565b8063481c6a7511610108578063481c6a75146102475780634bb278f314610272578063590e1ae3146102895780637cc3ae8c1461029357806381d12c58146102be5780638813ce12146102ff5761014b565b8063034410061461015057806312065fe01461016c5780633410452a146101975780633f9942ff146101c257806340193883146101ed5780634051ddac14610218575b600080fd5b61016a60048036038101906101659190611a8b565b61050a565b005b34801561017857600080fd5b50610181610794565b60405161018e9190611ac7565b60405180910390f35b3480156101a357600080fd5b506101ac61079c565b6040516101b99190611ac7565b60405180910390f35b3480156101ce57600080fd5b506101d76107a9565b6040516101e49190611afd565b60405180910390f35b3480156101f957600080fd5b506102026107bc565b60405161020f9190611ac7565b60405180910390f35b34801561022457600080fd5b5061022d6107c2565b60405161023e959493929190611b59565b60405180910390f35b34801561025357600080fd5b5061025c610809565b6040516102699190611bac565b60405180910390f35b34801561027e57600080fd5b5061028761082d565b005b6102916109bf565b005b34801561029f57600080fd5b506102a8610bd6565b6040516102b59190611ac7565b60405180910390f35b3480156102ca57600080fd5b506102e560048036038101906102e09190611a8b565b610bdc565b6040516102f6959493929190611c81565b60405180910390f35b34801561030b57600080fd5b50610314610cd7565b6040516103219190611e8a565b60405180910390f35b610332610e4d565b005b34801561034057600080fd5b5061035b6004803603810190610356919061200d565b611053565b005b34801561036957600080fd5b506103726112d2565b60405161037f9190611ac7565b60405180910390f35b34801561039457600080fd5b5061039d6112d8565b6040516103aa9190611afd565b60405180910390f35b3480156103bf57600080fd5b506103c86112eb565b6040516103d59190611ac7565b60405180910390f35b6103f860048036038101906103f39190611a8b565b6112f1565b005b34801561040657600080fd5b5061040f61159e565b60405161041c9190611ac7565b60405180910390f35b34801561043157600080fd5b5061044c600480360381019061044791906120a8565b6115a4565b6040516104599190611ac7565b60405180910390f35b34801561046e57600080fd5b506104776115bc565b6040516104849190611ac7565b60405180910390f35b34801561049957600080fd5b506104b460048036038101906104af9190611a8b565b6115c2565b005b3480156104c257600080fd5b506104cb611881565b005b3480156104d957600080fd5b506104f460048036038101906104ef91906120d5565b611a12565b6040516105019190611afd565b60405180910390f35b60008054906101000a900473ffffffffffffffffffffffffffffffffffffffff1673ffffffffffffffffffffffffffffffffffffffff163373ffffffffffffffffffffffffffffffffffffffff1614610598576040517f08c379a000000000000000000000000000000000000000000000000000000000815260040161058f90612187565b60405180910390fd5b600a60009054906101000a900460ff16156105e8576040517f08c379a00000000000000000000000000000000000000000000000000000000081526004016105df906121f3565b60405180910390fd5b600a60019054906101000a900460ff1615610638576040517f08c379a000000000000000000000000000000000000000000000000000000000815260040161062f9061225f565b60405180910390fd5b60006006828154811061064e5761064d61227f565b5b906000526020600020906004020190508060020160149054906101000a900460ff16156106b0576040517f08c379a00000000000000000000000000000000000000000000000000000000081526004016106a7906122fa565b60405180910390fd5b60026007546106bf9190612378565b816003015411610704576040517f08c379a00000000000000000000000000000000000000000000000000000000081526004016106fb9061241b565b60405180910390fd5b8060020160009054906101000a900473ffffffffffffffffffffffffffffffffffffffff1673ffffffffffffffffffffffffffffffffffffffff166108fc82600101549081150290604051600060405180830381858888f19350505050158015610772573d6000803e3d6000fd5b5060018160020160146101000a81548160ff0219169083151502179055505050565b600047905090565b6000600680549050905090565b600a60019054906101000a900460ff1681565b60015481565b60008060008060006005544760068054905060075460008054906101000a900473ffffffffffffffffffffffffffffffffffffffff16945094509450945094509091929394565b60008054906101000a900473ffffffffffffffffffffffffffffffffffffffff1681565b60008054906101000a900473ffffffffffffffffffffffffffffffffffffffff1673ffffffffffffffffffffffffffffffffffffffff163373ffffffffffffffffffffffffffffffffffffffff16146108bb576040517f08c379a00000000000000000000000000000000000000000000000000000000081526004016108b290612187565b60405180910390fd5b600a60009054906101000a900460ff161561090b576040517f08c379a0000000000000000000000000000000000000000000000000000000008152600401610902906121f3565b60405180910390fd5b600a60019054906101000a900460ff161561095b576040517f08c379a00000000000000000000000000000000000000000000000000000000081526004016109529061225f565b60405180910390fd5b60015460025410156109a2576040517f08c379a000000000000000000000000000000000000000000000000000000000815260040161099990612487565b60405180910390fd5b6001600a60006101000a81548160ff021916908315150217905550565b600454421115610a04576040517f08c379a00000000000000000000000000000000000000000000000000000000081526004016109fb906124f3565b60405180910390fd5b6000600860003373ffffffffffffffffffffffffffffffffffffffff1673ffffffffffffffffffffffffffffffffffffffff1681526020019081526020016000205411610a86576040517f08c379a0000000000000000000000000000000000000000000000000000000008152600401610a7d90612585565b60405180910390fd5b60015460025410610acc576040517f08c379a0000000000000000000000000000000000000000000000000000000008152600401610ac390612617565b60405180910390fd5b6000600860003373ffffffffffffffffffffffffffffffffffffffff1673ffffffffffffffffffffffffffffffffffffffff16815260200190815260200160002054905060003390508073ffffffffffffffffffffffffffffffffffffffff166108fc839081150290604051600060405180830381858888f19350505050158015610b5b573d6000803e3d6000fd5b506000600860003373ffffffffffffffffffffffffffffffffffffffff1673ffffffffffffffffffffffffffffffffffffffff1681526020019081526020016000208190555060076000815480929190610bb490612637565b91905055508160026000828254610bcb9190612660565b925050819055505050565b60045481565b60068181548110610bec57600080fd5b9060005260206000209060040201600091509050806000018054610c0f906126c3565b80601f0160208091040260200160405190810160405280929190818152602001828054610c3b906126c3565b8015610c885780601f10610c5d57610100808354040283529160200191610c88565b820191906000526020600020905b815481529060010190602001808311610c6b57829003601f168201915b5050505050908060010154908060020160009054906101000a900473ffffffffffffffffffffffffffffffffffffffff16908060020160149054906101000a900460ff16908060030154905085565b60606006805480602002602001604051908101604052809291908181526020016000905b82821015610e4457838290600052602060002090600402016040518060a0016040529081600082018054610d2e906126c3565b80601f0160208091040260200160405190810160405280929190818152602001828054610d5a906126c3565b8015610da75780601f10610d7c57610100808354040283529160200191610da7565b820191906000526020600020905b815481529060010190602001808311610d8a57829003601f168201915b50505050508152602001600182015481526020016002820160009054906101000a900473ffffffffffffffffffffffffffffffffffffffff1673ffffffffffffffffffffffffffffffffffffffff1673ffffffffffffffffffffffffffffffffffffffff1681526020016002820160149054906101000a900460ff1615151515815260200160038201548152505081526020019060010190610cfb565b50505050905090565b600454421115610e92576040517f08c379a0000000000000000000000000000000000000000000000000000000008152600401610e89906124f3565b60405180910390fd5b600a60009054906101000a900460ff1615610ee2576040517f08c379a0000000000000000000000000000000000000000000000000000000008152600401610ed9906121f3565b60405180910390fd5b600a60019054906101000a900460ff1615610f32576040517f08c379a0000000000000000000000000000000000000000000000000000000008152600401610f299061225f565b60405180910390fd5b60055434118015610f435750600034115b610f82576040517f08c379a0000000000000000000000000000000000000000000000000000000008152600401610f7990612766565b60405180910390fd5b3460026000828254610f949190612786565b925050819055506000600860003373ffffffffffffffffffffffffffffffffffffffff1673ffffffffffffffffffffffffffffffffffffffff1681526020019081526020016000205403610ffb5760076000815480929190610ff5906127dc565b91905055505b34600860003373ffffffffffffffffffffffffffffffffffffffff1673ffffffffffffffffffffffffffffffffffffffff168152602001908152602001600020600082825461104a9190612786565b92505081905550565b60008054906101000a900473ffffffffffffffffffffffffffffffffffffffff1673ffffffffffffffffffffffffffffffffffffffff163373ffffffffffffffffffffffffffffffffffffffff16146110e1576040517f08c379a00000000000000000000000000000000000000000000000000000000081526004016110d890612187565b60405180910390fd5b6001546002541015611128576040517f08c379a000000000000000000000000000000000000000000000000000000000815260040161111f90612487565b60405180910390fd5b600a60009054906101000a900460ff1615611178576040517f08c379a000000000000000000000000000000000000000000000000000000000815260040161116f906121f3565b60405180910390fd5b600a60019054906101000a900460ff16156111c8576040517f08c379a00000000000000000000000000000000000000000000000000000000081526004016111bf9061225f565b60405180910390fd5b60006040518060a001604052808581526020018481526020018373ffffffffffffffffffffffffffffffffffffffff168152602001600015158152602001600081525090506006819080600181540180825580915050600190039060005260206000209060040201600090919091909150600082015181600001908161124e91906129d0565b506020820151816001015560408201518160020160006101000a81548173ffffffffffffffffffffffffffffffffffffffff021916908373ffffffffffffffffffffffffffffffffffffffff16021790555060608201518160020160146101000a81548160ff02191690831515021790555060808201518160030155505050505050565b60055481565b600a60009054906101000a900460ff1681565b60025481565b600454421115611336576040517f08c379a000000000000000000000000000000000000000000000000000000000815260040161132d906124f3565b60405180910390fd5b6000600860003373ffffffffffffffffffffffffffffffffffffffff1673ffffffffffffffffffffffffffffffffffffffff16815260200190815260200160002054116113b8576040517f08c379a00000000000000000000000000000000000000000000000000000000081526004016113af90612585565b60405180910390fd5b600154600254106113fe576040517f08c379a00000000000000000000000000000000000000000000000000000000081526004016113f590612617565b60405180910390fd5b80600860003373ffffffffffffffffffffffffffffffffffffffff1673ffffffffffffffffffffffffffffffffffffffff168152602001908152602001600020541015611480576040517f08c379a000000000000000000000000000000000000000000000000000000000815260040161147790612b14565b60405180910390fd5b60003390508073ffffffffffffffffffffffffffffffffffffffff166108fc839081150290604051600060405180830381858888f193505050501580156114cb573d6000803e3d6000fd5b5081600860003373ffffffffffffffffffffffffffffffffffffffff1673ffffffffffffffffffffffffffffffffffffffff168152602001908152602001600020540361152b576007600081548092919061152590612637565b91905055505b816002600082825461153d9190612660565b9250508190555081600860003373ffffffffffffffffffffffffffffffffffffffff1673ffffffffffffffffffffffffffffffffffffffff16815260200190815260200160002060008282546115939190612660565b925050819055505050565b60075481565b60086020528060005260406000206000915090505481565b60035481565b6000600860003373ffffffffffffffffffffffffffffffffffffffff1673ffffffffffffffffffffffffffffffffffffffff1681526020019081526020016000205411611644576040517f08c379a000000000000000000000000000000000000000000000000000000000815260040161163b90612585565b60405180910390fd5b600a60009054906101000a900460ff1615611694576040517f08c379a000000000000000000000000000000000000000000000000000000000815260040161168b906121f3565b60405180910390fd5b600a60019054906101000a900460ff16156116e4576040517f08c379a00000000000000000000000000000000000000000000000000000000081526004016116db9061225f565b60405180910390fd5b6000600682815481106116fa576116f961227f565b5b906000526020600020906004020190508060020160149054906101000a900460ff161561175c576040517f08c379a0000000000000000000000000000000000000000000000000000000008152600401611753906122fa565b60405180910390fd5b600960003373ffffffffffffffffffffffffffffffffffffffff1673ffffffffffffffffffffffffffffffffffffffff168152602001908152602001600020600083815260200190815260200160002060009054906101000a900460ff16156117fa576040517f08c379a00000000000000000000000000000000000000000000000000000000081526004016117f190612ba6565b60405180910390fd5b6001600960003373ffffffffffffffffffffffffffffffffffffffff1673ffffffffffffffffffffffffffffffffffffffff168152602001908152602001600020600084815260200190815260200160002060006101000a81548160ff021916908315150217905550806003016000815480929190611878906127dc565b91905055505050565b60008054906101000a900473ffffffffffffffffffffffffffffffffffffffff1673ffffffffffffffffffffffffffffffffffffffff163373ffffffffffffffffffffffffffffffffffffffff161461190f576040517f08c379a000000000000000000000000000000000000000000000000000000000815260040161190690612187565b60405180910390fd5b600a60009054906101000a900460ff161561195f576040517f08c379a0000000000000000000000000000000000000000000000000000000008152600401611956906121f3565b60405180910390fd5b600a60019054906101000a900460ff16156119af576040517f08c379a00000000000000000000000000000000000000000000000000000000081526004016119a69061225f565b60405180910390fd5b600154600254106119f5576040517f08c379a00000000000000000000000000000000000000000000000000000000081526004016119ec90612617565b60405180910390fd5b6001600a60016101000a81548160ff021916908315150217905550565b60096020528160005260406000206020528060005260406000206000915091509054906101000a900460ff1681565b6000604051905090565b600080fd5b600080fd5b6000819050919050565b611a6881611a55565b8114611a7357600080fd5b50565b600081359050611a8581611a5f565b92915050565b600060208284031215611aa157611aa0611a4b565b5b6000611aaf84828501611a76565b91505092915050565b611ac181611a55565b82525050565b6000602082019050611adc6000830184611ab8565b92915050565b60008115159050919050565b611af781611ae2565b82525050565b6000602082019050611b126000830184611aee565b92915050565b600073ffffffffffffffffffffffffffffffffffffffff82169050919050565b6000611b4382611b18565b9050919050565b611b5381611b38565b82525050565b600060a082019050611b6e6000830188611ab8565b611b7b6020830187611ab8565b611b886040830186611ab8565b611b956060830185611ab8565b611ba26080830184611b4a565b9695505050505050565b6000602082019050611bc16000830184611b4a565b92915050565b600081519050919050565b600082825260208201905092915050565b60005b83811015611c01578082015181840152602081019050611be6565b83811115611c10576000848401525b50505050565b6000601f19601f8301169050919050565b6000611c3282611bc7565b611c3c8185611bd2565b9350611c4c818560208601611be3565b611c5581611c16565b840191505092915050565b6000611c6b82611b18565b9050919050565b611c7b81611c60565b82525050565b600060a0820190508181036000830152611c9b8188611c27565b9050611caa6020830187611ab8565b611cb76040830186611c72565b611cc46060830185611aee565b611cd16080830184611ab8565b9695505050505050565b600081519050919050565b600082825260208201905092915050565b6000819050602082019050919050565b600082825260208201905092915050565b6000611d2382611bc7565b611d2d8185611d07565b9350611d3d818560208601611be3565b611d4681611c16565b840191505092915050565b611d5a81611a55565b82525050565b611d6981611c60565b82525050565b611d7881611ae2565b82525050565b600060a0830160008301518482036000860152611d9b8282611d18565b9150506020830151611db06020860182611d51565b506040830151611dc36040860182611d60565b506060830151611dd66060860182611d6f565b506080830151611de96080860182611d51565b508091505092915050565b6000611e008383611d7e565b905092915050565b6000602082019050919050565b6000611e2082611cdb565b611e2a8185611ce6565b935083602082028501611e3c85611cf7565b8060005b85811015611e785784840389528151611e598582611df4565b9450611e6483611e08565b925060208a01995050600181019050611e40565b50829750879550505050505092915050565b60006020820190508181036000830152611ea48184611e15565b905092915050565b600080fd5b600080fd5b7f4e487b7100000000000000000000000000000000000000000000000000000000600052604160045260246000fd5b611eee82611c16565b810181811067ffffffffffffffff82111715611f0d57611f0c611eb6565b5b80604052505050565b6000611f20611a41565b9050611f2c8282611ee5565b919050565b600067ffffffffffffffff821115611f4c57611f4b611eb6565b5b611f5582611c16565b9050602081019050919050565b82818337600083830152505050565b6000611f84611f7f84611f31565b611f16565b905082815260208101848484011115611fa057611f9f611eb1565b5b611fab848285611f62565b509392505050565b600082601f830112611fc857611fc7611eac565b5b8135611fd8848260208601611f71565b91505092915050565b611fea81611c60565b8114611ff557600080fd5b50565b60008135905061200781611fe1565b92915050565b60008060006060848603121561202657612025611a4b565b5b600084013567ffffffffffffffff81111561204457612043611a50565b5b61205086828701611fb3565b935050602061206186828701611a76565b925050604061207286828701611ff8565b9150509250925092565b61208581611b38565b811461209057600080fd5b50565b6000813590506120a28161207c565b92915050565b6000602082840312156120be576120bd611a4b565b5b60006120cc84828501612093565b91505092915050565b600080604083850312156120ec576120eb611a4b565b5b60006120fa85828601612093565b925050602061210b85828601611a76565b9150509250929050565b7f5065726d697373696f6e2064656e6965643a20596f7520646f206e6f74206f7760008201527f6e20746869732063616d706169676e0000000000000000000000000000000000602082015250565b6000612171602f83611bd2565b915061217c82612115565b604082019050919050565b600060208201905081810360008301526121a081612164565b9050919050565b7f43616d706169676e206861732066696e69736865640000000000000000000000600082015250565b60006121dd601583611bd2565b91506121e8826121a7565b602082019050919050565b6000602082019050818103600083015261220c816121d0565b9050919050565b7f43616d706169676e206861732063616e63656c65640000000000000000000000600082015250565b6000612249601583611bd2565b915061225482612213565b602082019050919050565b600060208201905081810360008301526122788161223c565b9050919050565b7f4e487b7100000000000000000000000000000000000000000000000000000000600052603260045260246000fd5b7f5265717565737420686173206265656e20636f6d706c65746564000000000000600082015250565b60006122e4601a83611bd2565b91506122ef826122ae565b602082019050919050565b60006020820190508181036000830152612313816122d7565b9050919050565b7f4e487b7100000000000000000000000000000000000000000000000000000000600052601260045260246000fd5b7f4e487b7100000000000000000000000000000000000000000000000000000000600052601160045260246000fd5b600061238382611a55565b915061238e83611a55565b92508261239e5761239d61231a565b5b828204905092915050565b7f5265717565737420646f6573206e6f74206861766520656e6f7567682061707060008201527f726f76616c730000000000000000000000000000000000000000000000000000602082015250565b6000612405602683611bd2565b9150612410826123a9565b604082019050919050565b60006020820190508181036000830152612434816123f8565b9050919050565b7f43616d706169676e206861732073756363656564656400000000000000000000600082015250565b6000612471601683611bd2565b915061247c8261243b565b602082019050919050565b600060208201905081810360008301526124a081612464565b9050919050565b7f43616d706169676e2068617320616c726561647920656e646564000000000000600082015250565b60006124dd601a83611bd2565b91506124e8826124a7565b602082019050919050565b6000602082019050818103600083015261250c816124d0565b9050919050565b7f596f7520617265206e6f7420696e2074686520636f6e7472696275746f72732060008201527f6c69737400000000000000000000000000000000000000000000000000000000602082015250565b600061256f602483611bd2565b915061257a82612513565b604082019050919050565b6000602082019050818103600083015261259e81612562565b9050919050565b7f596f752063616e6e6f742077697468647261772c2043616d706169676e20686160008201527f73206e6f74207375636365656465640000000000000000000000000000000000602082015250565b6000612601602f83611bd2565b915061260c826125a5565b604082019050919050565b60006020820190508181036000830152612630816125f4565b9050919050565b600061264282611a55565b91506000820361265557612654612349565b5b600182039050919050565b600061266b82611a55565b915061267683611a55565b92508282101561268957612688612349565b5b828203905092915050565b7f4e487b7100000000000000000000000000000000000000000000000000000000600052602260045260246000fd5b600060028204905060018216806126db57607f821691505b6020821081036126ee576126ed612694565b5b50919050565b7f56616c7565206973206c657373207468616e206d696e696d756d20636f6e747260008201527f69627574696f6e00000000000000000000000000000000000000000000000000602082015250565b6000612750602783611bd2565b915061275b826126f4565b604082019050919050565b6000602082019050818103600083015261277f81612743565b9050919050565b600061279182611a55565b915061279c83611a55565b9250827fffffffffffffffffffffffffffffffffffffffffffffffffffffffffffffffff038211156127d1576127d0612349565b5b828201905092915050565b60006127e782611a55565b91507fffffffffffffffffffffffffffffffffffffffffffffffffffffffffffffffff820361281957612818612349565b5b600182019050919050565b60008190508160005260206000209050919050565b60006020601f8301049050919050565b600082821b905092915050565b6000600883026128867fffffffffffffffffffffffffffffffffffffffffffffffffffffffffffffffff82612849565b6128908683612849565b95508019841693508086168417925050509392505050565b6000819050919050565b60006128cd6128c86128c384611a55565b6128a8565b611a55565b9050919050565b6000819050919050565b6128e7836128b2565b6128fb6128f3826128d4565b848454612856565b825550505050565b600090565b612910612903565b61291b8184846128de565b505050565b5b8181101561293f57612934600082612908565b600181019050612921565b5050565b601f8211156129845761295581612824565b61295e84612839565b8101602085101561296d578190505b61298161297985612839565b830182612920565b50505b505050565b600082821c905092915050565b60006129a760001984600802612989565b1980831691505092915050565b60006129c08383612996565b9150826002028217905092915050565b6129d982611bc7565b67ffffffffffffffff8111156129f2576129f1611eb6565b5b6129fc82546126c3565b612a07828285612943565b600060209050601f831160018114612a3a5760008415612a28578287015190505b612a3285826129b4565b865550612a9a565b601f198416612a4886612824565b60005b82811015612a7057848901518255600182019150602085019450602081019050612a4b565b86831015612a8d5784890151612a89601f891682612996565b8355505b6001600288020188555050505b505050505050565b7f596f7520646f206e6f74206861766520656e6f7567682062616c616e6365207060008201527f6c656467656420746f2077697468647261770000000000000000000000000000602082015250565b6000612afe603283611bd2565b9150612b0982612aa2565b604082019050919050565b60006020820190508181036000830152612b2d81612af1565b9050919050565b7f596f75206861766520616c726561647920617070726f7665642074686520726560008201527f7175657374000000000000000000000000000000000000000000000000000000602082015250565b6000612b90602583611bd2565b9150612b9b82612b34565b604082019050919050565b60006020820190508181036000830152612bbf81612b83565b905091905056fea26469706673582212206935b5e652d48414735c7f74068410aa8cc68acbc49cec750b377873b5bd26cb64736f6c634300080f0033a26469706673582212200be0e0543b63c2d9b1226e86ef8b8530ad5c646d101ba9adf5c657ea614834e264736f6c634300080f0033","opcodes":"PUSH1 0x80 PUSH1 0x40 MSTORE CALLVALUE DUP1 ISZERO PUSH2 0x10 JUMPI PUSH1 0x0 DUP1 REVERT JUMPDEST POP PUSH2 0x3490 DUP1 PUSH2 0x20 PUSH1 0x0 CODECOPY PUSH1 0x0 RETURN INVALID PUSH1 0x80 PUSH1 0x40 MSTORE CALLVALUE DUP1 ISZERO PUSH3 0x11 JUMPI PUSH1 0x0 DUP1 REVERT JUMPDEST POP PUSH1 0x4 CALLDATASIZE LT PUSH3 0x46 JUMPI PUSH1 0x0 CALLDATALOAD PUSH1 0xE0 SHR DUP1 PUSH4 0x339D50A5 EQ PUSH3 0x4B JUMPI DUP1 PUSH4 0x5EAC0007 EQ PUSH3 0x81 JUMPI DUP1 PUSH4 0xF69D3158 EQ PUSH3 0xA3 JUMPI JUMPDEST PUSH1 0x0 DUP1 REVERT JUMPDEST PUSH3 0x69 PUSH1 0x4 DUP1 CALLDATASIZE SUB DUP2 ADD SWAP1 PUSH3 0x63 SWAP2 SWAP1 PUSH3 0x2A9 JUMP JUMPDEST PUSH3 0xD9 JUMP JUMPDEST PUSH1 0x40 MLOAD PUSH3 0x78 SWAP2 SWAP1 PUSH3 0x366 JUMP JUMPDEST PUSH1 0x40 MLOAD DUP1 SWAP2 SUB SWAP1 RETURN JUMPDEST PUSH3 0x8B PUSH3 0x119 JUMP JUMPDEST PUSH1 0x40 MLOAD PUSH3 0x9A SWAP2 SWAP1 PUSH3 0x451 JUMP JUMPDEST PUSH1 0x40 MLOAD DUP1 SWAP2 SUB SWAP1 RETURN JUMPDEST PUSH3 0xC1 PUSH1 0x4 DUP1 CALLDATASIZE SUB DUP2 ADD SWAP1 PUSH3 0xBB SWAP2 SWAP1 PUSH3 0x475 JUMP JUMPDEST PUSH3 0x1A9 JUMP JUMPDEST PUSH1 0x40 MLOAD PUSH3 0xD0 SWAP2 SWAP1 PUSH3 0x4F6 JUMP JUMPDEST PUSH1 0x40 MLOAD DUP1 SWAP2 SUB SWAP1 RETURN JUMPDEST PUSH1 0x0 DUP2 DUP2 SLOAD DUP2 LT PUSH3 0xEA JUMPI PUSH1 0x0 DUP1 REVERT JUMPDEST SWAP1 PUSH1 0x0 MSTORE PUSH1 0x20 PUSH1 0x0 KECCAK256 ADD PUSH1 0x0 SWAP2 POP SLOAD SWAP1 PUSH2 0x100 EXP SWAP1 DIV PUSH20 0xFFFFFFFFFFFFFFFFFFFFFFFFFFFFFFFFFFFFFFFF AND DUP2 JUMP JUMPDEST PUSH1 0x60 PUSH1 0x0 DUP1 SLOAD DUP1 PUSH1 0x20 MUL PUSH1 0x20 ADD PUSH1 0x40 MLOAD SWAP1 DUP2 ADD PUSH1 0x40 MSTORE DUP1 SWAP3 SWAP2 SWAP1 DUP2 DUP2 MSTORE PUSH1 0x20 ADD DUP3 DUP1 SLOAD DUP1 ISZERO PUSH3 0x19F JUMPI PUSH1 0x20 MUL DUP3 ADD SWAP2 SWAP1 PUSH1 0x0 MSTORE PUSH1 0x20 PUSH1 0x0 KECCAK256 SWAP1 JUMPDEST DUP2 PUSH1 0x0 SWAP1 SLOAD SWAP1 PUSH2 0x100 EXP SWAP1 DIV PUSH20 0xFFFFFFFFFFFFFFFFFFFFFFFFFFFFFFFFFFFFFFFF AND PUSH20 0xFFFFFFFFFFFFFFFFFFFFFFFFFFFFFFFFFFFFFFFF AND DUP2 MSTORE PUSH1 0x20 ADD SWAP1 PUSH1 0x1 ADD SWAP1 DUP1 DUP4 GT PUSH3 0x154 JUMPI JUMPDEST POP POP POP POP POP SWAP1 POP SWAP1 JUMP JUMPDEST PUSH1 0x0 DUP1 DUP5 DUP5 DUP5 CALLER PUSH1 0x40 MLOAD PUSH3 0x1BE SWAP1 PUSH3 0x25B JUMP JUMPDEST PUSH3 0x1CD SWAP5 SWAP4 SWAP3 SWAP2 SWAP1 PUSH3 0x524 JUMP JUMPDEST PUSH1 0x40 MLOAD DUP1 SWAP2 SUB SWAP1 PUSH1 0x0 CREATE DUP1 ISZERO DUP1 ISZERO PUSH3 0x1EA JUMPI RETURNDATASIZE PUSH1 0x0 DUP1 RETURNDATACOPY RETURNDATASIZE PUSH1 0x0 REVERT JUMPDEST POP SWAP1 POP PUSH1 0x0 DUP2 SWAP1 DUP1 PUSH1 0x1 DUP2 SLOAD ADD DUP1 DUP3 SSTORE DUP1 SWAP2 POP POP PUSH1 0x1 SWAP1 SUB SWAP1 PUSH1 0x0 MSTORE PUSH1 0x20 PUSH1 0x0 KECCAK256 ADD PUSH1 0x0 SWAP1 SWAP2 SWAP1 SWAP2 SWAP1 SWAP2 PUSH2 0x100 EXP DUP2 SLOAD DUP2 PUSH20 0xFFFFFFFFFFFFFFFFFFFFFFFFFFFFFFFFFFFFFFFF MUL NOT AND SWAP1 DUP4 PUSH20 0xFFFFFFFFFFFFFFFFFFFFFFFFFFFFFFFFFFFFFFFF AND MUL OR SWAP1 SSTORE POP DUP1 SWAP2 POP POP SWAP4 SWAP3 POP POP POP JUMP JUMPDEST PUSH2 0x2EE9 DUP1 PUSH3 0x572 DUP4 CODECOPY ADD SWAP1 JUMP JUMPDEST PUSH1 0x0 DUP1 REVERT JUMPDEST PUSH1 0x0 DUP2 SWAP1 POP SWAP2 SWAP1 POP JUMP JUMPDEST PUSH3 0x283 DUP2 PUSH3 0x26E JUMP JUMPDEST DUP2 EQ PUSH3 0x28F JUMPI PUSH1 0x0 DUP1 REVERT JUMPDEST POP JUMP JUMPDEST PUSH1 0x0 DUP2 CALLDATALOAD SWAP1 POP PUSH3 0x2A3 DUP2 PUSH3 0x278 JUMP JUMPDEST SWAP3 SWAP2 POP POP JUMP JUMPDEST PUSH1 0x0 PUSH1 0x20 DUP3 DUP5 SUB SLT ISZERO PUSH3 0x2C2 JUMPI PUSH3 0x2C1 PUSH3 0x269 JUMP JUMPDEST JUMPDEST PUSH1 0x0 PUSH3 0x2D2 DUP5 DUP3 DUP6 ADD PUSH3 0x292 JUMP JUMPDEST SWAP2 POP POP SWAP3 SWAP2 POP POP JUMP JUMPDEST PUSH1 0x0 PUSH20 0xFFFFFFFFFFFFFFFFFFFFFFFFFFFFFFFFFFFFFFFF DUP3 AND SWAP1 POP SWAP2 SWAP1 POP JUMP JUMPDEST PUSH1 0x0 DUP2 SWAP1 POP SWAP2 SWAP1 POP JUMP JUMPDEST PUSH1 0x0 PUSH3 0x326 PUSH3 0x320 PUSH3 0x31A DUP5 PUSH3 0x2DB JUMP JUMPDEST PUSH3 0x2FB JUMP JUMPDEST PUSH3 0x2DB JUMP JUMPDEST SWAP1 POP SWAP2 SWAP1 POP JUMP JUMPDEST PUSH1 0x0 PUSH3 0x33A DUP3 PUSH3 0x305 JUMP JUMPDEST SWAP1 POP SWAP2 SWAP1 POP JUMP JUMPDEST PUSH1 0x0 PUSH3 0x34E DUP3 PUSH3 0x32D JUMP JUMPDEST SWAP1 POP SWAP2 SWAP1 POP JUMP JUMPDEST PUSH3 0x360 DUP2 PUSH3 0x341 JUMP JUMPDEST DUP3 MSTORE POP POP JUMP JUMPDEST PUSH1 0x0 PUSH1 0x20 DUP3 ADD SWAP1 POP PUSH3 0x37D PUSH1 0x0 DUP4 ADD DUP5 PUSH3 0x355 JUMP JUMPDEST SWAP3 SWAP2 POP POP JUMP JUMPDEST PUSH1 0x0 DUP2 MLOAD SWAP1 POP SWAP2 SWAP1 POP JUMP JUMPDEST PUSH1 0x0 DUP3 DUP3 MSTORE PUSH1 0x20 DUP3 ADD SWAP1 POP SWAP3 SWAP2 POP POP JUMP JUMPDEST PUSH1 0x0 DUP2 SWAP1 POP PUSH1 0x20 DUP3 ADD SWAP1 POP SWAP2 SWAP1 POP JUMP JUMPDEST PUSH3 0x3BA DUP2 PUSH3 0x341 JUMP JUMPDEST DUP3 MSTORE POP POP JUMP JUMPDEST PUSH1 0x0 PUSH3 0x3CE DUP4 DUP4 PUSH3 0x3AF JUMP JUMPDEST PUSH1 0x20 DUP4 ADD SWAP1 POP SWAP3 SWAP2 POP POP JUMP JUMPDEST PUSH1 0x0 PUSH1 0x20 DUP3 ADD SWAP1 POP SWAP2 SWAP1 POP JUMP JUMPDEST PUSH1 0x0 PUSH3 0x3F4 DUP3 PUSH3 0x383 JUMP JUMPDEST PUSH3 0x400 DUP2 DUP6 PUSH3 0x38E JUMP JUMPDEST SWAP4 POP PUSH3 0x40D DUP4 PUSH3 0x39F JUMP JUMPDEST DUP1 PUSH1 0x0 JUMPDEST DUP4 DUP2 LT ISZERO PUSH3 0x444 JUMPI DUP2 MLOAD PUSH3 0x428 DUP9 DUP3 PUSH3 0x3C0 JUMP JUMPDEST SWAP8 POP PUSH3 0x435 DUP4 PUSH3 0x3DA JUMP JUMPDEST SWAP3 POP POP PUSH1 0x1 DUP2 ADD SWAP1 POP PUSH3 0x411 JUMP JUMPDEST POP DUP6 SWAP4 POP POP POP POP SWAP3 SWAP2 POP POP JUMP JUMPDEST PUSH1 0x0 PUSH1 0x20 DUP3 ADD SWAP1 POP DUP2 DUP2 SUB PUSH1 0x0 DUP4 ADD MSTORE PUSH3 0x46D DUP2 DUP5 PUSH3 0x3E7 JUMP JUMPDEST SWAP1 POP SWAP3 SWAP2 POP POP JUMP JUMPDEST PUSH1 0x0 DUP1 PUSH1 0x0 PUSH1 0x60 DUP5 DUP7 SUB SLT ISZERO PUSH3 0x491 JUMPI PUSH3 0x490 PUSH3 0x269 JUMP JUMPDEST JUMPDEST PUSH1 0x0 PUSH3 0x4A1 DUP7 DUP3 DUP8 ADD PUSH3 0x292 JUMP JUMPDEST SWAP4 POP POP PUSH1 0x20 PUSH3 0x4B4 DUP7 DUP3 DUP8 ADD PUSH3 0x292 JUMP JUMPDEST SWAP3 POP POP PUSH1 0x40 PUSH3 0x4C7 DUP7 DUP3 DUP8 ADD PUSH3 0x292 JUMP JUMPDEST SWAP2 POP POP SWAP3 POP SWAP3 POP SWAP3 JUMP JUMPDEST PUSH1 0x0 PUSH3 0x4DE DUP3 PUSH3 0x2DB JUMP JUMPDEST SWAP1 POP SWAP2 SWAP1 POP JUMP JUMPDEST PUSH3 0x4F0 DUP2 PUSH3 0x4D1 JUMP JUMPDEST DUP3 MSTORE POP POP JUMP JUMPDEST PUSH1 0x0 PUSH1 0x20 DUP3 ADD SWAP1 POP PUSH3 0x50D PUSH1 0x0 DUP4 ADD DUP5 PUSH3 0x4E5 JUMP JUMPDEST SWAP3 SWAP2 POP POP JUMP JUMPDEST PUSH3 0x51E DUP2 PUSH3 0x26E JUMP JUMPDEST DUP3 MSTORE POP POP JUMP JUMPDEST PUSH1 0x0 PUSH1 0x80 DUP3 ADD SWAP1 POP PUSH3 0x53B PUSH1 0x0 DUP4 ADD DUP8 PUSH3 0x513 JUMP JUMPDEST PUSH3 0x54A PUSH1 0x20 DUP4 ADD DUP7 PUSH3 0x513 JUMP JUMPDEST PUSH3 0x559 PUSH1 0x40 DUP4 ADD DUP6 PUSH3 0x513 JUMP JUMPDEST PUSH3 0x568 PUSH1 0x60 DUP4 ADD DUP5 PUSH3 0x4E5 JUMP JUMPDEST SWAP6 SWAP5 POP POP POP POP POP JUMP INVALID PUSH1 0x80 PUSH1 0x40 MSTORE CALLVALUE DUP1 ISZERO PUSH3 0x11 JUMPI PUSH1 0x0 DUP1 REVERT JUMPDEST POP PUSH1 0x40 MLOAD PUSH3 0x2EE9 CODESIZE SUB DUP1 PUSH3 0x2EE9 DUP4 CODECOPY DUP2 DUP2 ADD PUSH1 0x40 MSTORE DUP2 ADD SWAP1 PUSH3 0x37 SWAP2 SWAP1 PUSH3 0x1C2 JUMP JUMPDEST TIMESTAMP DUP4 GT PUSH3 0x7C JUMPI PUSH1 0x40 MLOAD PUSH32 0x8C379A000000000000000000000000000000000000000000000000000000000 DUP2 MSTORE PUSH1 0x4 ADD PUSH3 0x73 SWAP1 PUSH3 0x2BB JUMP JUMPDEST PUSH1 0x40 MLOAD DUP1 SWAP2 SUB SWAP1 REVERT JUMPDEST DUP1 PUSH1 0x0 DUP1 PUSH2 0x100 EXP DUP2 SLOAD DUP2 PUSH20 0xFFFFFFFFFFFFFFFFFFFFFFFFFFFFFFFFFFFFFFFF MUL NOT AND SWAP1 DUP4 PUSH20 0xFFFFFFFFFFFFFFFFFFFFFFFFFFFFFFFFFFFFFFFF AND MUL OR SWAP1 SSTORE POP DUP4 PUSH1 0x1 DUP2 SWAP1 SSTORE POP PUSH1 0x0 PUSH1 0x2 DUP2 SWAP1 SSTORE POP TIMESTAMP PUSH1 0x3 DUP2 SWAP1 SSTORE POP DUP3 PUSH1 0x4 DUP2 SWAP1 SSTORE POP DUP2 PUSH1 0x5 DUP2 SWAP1 SSTORE POP PUSH1 0x0 PUSH1 0xA PUSH1 0x1 PUSH2 0x100 EXP DUP2 SLOAD DUP2 PUSH1 0xFF MUL NOT AND SWAP1 DUP4 ISZERO ISZERO MUL OR SWAP1 SSTORE PUSH1 0xA PUSH1 0x0 PUSH2 0x100 EXP DUP2 SLOAD DUP2 PUSH1 0xFF MUL NOT AND SWAP1 DUP4 ISZERO ISZERO MUL OR SWAP1 SSTORE POP POP POP POP POP PUSH3 0x2DD JUMP JUMPDEST PUSH1 0x0 DUP1 REVERT JUMPDEST PUSH1 0x0 DUP2 SWAP1 POP SWAP2 SWAP1 POP JUMP JUMPDEST PUSH3 0x137 DUP2 PUSH3 0x122 JUMP JUMPDEST DUP2 EQ PUSH3 0x143 JUMPI PUSH1 0x0 DUP1 REVERT JUMPDEST POP JUMP JUMPDEST PUSH1 0x0 DUP2 MLOAD SWAP1 POP PUSH3 0x157 DUP2 PUSH3 0x12C JUMP JUMPDEST SWAP3 SWAP2 POP POP JUMP JUMPDEST PUSH1 0x0 PUSH20 0xFFFFFFFFFFFFFFFFFFFFFFFFFFFFFFFFFFFFFFFF DUP3 AND SWAP1 POP SWAP2 SWAP1 POP JUMP JUMPDEST PUSH1 0x0 PUSH3 0x18A DUP3 PUSH3 0x15D JUMP JUMPDEST SWAP1 POP SWAP2 SWAP1 POP JUMP JUMPDEST PUSH3 0x19C DUP2 PUSH3 0x17D JUMP JUMPDEST DUP2 EQ PUSH3 0x1A8 JUMPI PUSH1 0x0 DUP1 REVERT JUMPDEST POP JUMP JUMPDEST PUSH1 0x0 DUP2 MLOAD SWAP1 POP PUSH3 0x1BC DUP2 PUSH3 0x191 JUMP JUMPDEST SWAP3 SWAP2 POP POP JUMP JUMPDEST PUSH1 0x0 DUP1 PUSH1 0x0 DUP1 PUSH1 0x80 DUP6 DUP8 SUB SLT ISZERO PUSH3 0x1DF JUMPI PUSH3 0x1DE PUSH3 0x11D JUMP JUMPDEST JUMPDEST PUSH1 0x0 PUSH3 0x1EF DUP8 DUP3 DUP9 ADD PUSH3 0x146 JUMP JUMPDEST SWAP5 POP POP PUSH1 0x20 PUSH3 0x202 DUP8 DUP3 DUP9 ADD PUSH3 0x146 JUMP JUMPDEST SWAP4 POP POP PUSH1 0x40 PUSH3 0x215 DUP8 DUP3 DUP9 ADD PUSH3 0x146 JUMP JUMPDEST SWAP3 POP POP PUSH1 0x60 PUSH3 0x228 DUP8 DUP3 DUP9 ADD PUSH3 0x1AB JUMP JUMPDEST SWAP2 POP POP SWAP3 SWAP6 SWAP2 SWAP5 POP SWAP3 POP JUMP JUMPDEST PUSH1 0x0 DUP3 DUP3 MSTORE PUSH1 0x20 DUP3 ADD SWAP1 POP SWAP3 SWAP2 POP POP JUMP JUMPDEST PUSH32 0x456E642074696D65206973206C657373207468616E2063757272656E74207469 PUSH1 0x0 DUP3 ADD MSTORE PUSH32 0x6D65000000000000000000000000000000000000000000000000000000000000 PUSH1 0x20 DUP3 ADD MSTORE POP JUMP JUMPDEST PUSH1 0x0 PUSH3 0x2A3 PUSH1 0x22 DUP4 PUSH3 0x234 JUMP JUMPDEST SWAP2 POP PUSH3 0x2B0 DUP3 PUSH3 0x245 JUMP JUMPDEST PUSH1 0x40 DUP3 ADD SWAP1 POP SWAP2 SWAP1 POP JUMP JUMPDEST PUSH1 0x0 PUSH1 0x20 DUP3 ADD SWAP1 POP DUP2 DUP2 SUB PUSH1 0x0 DUP4 ADD MSTORE PUSH3 0x2D6 DUP2 PUSH3 0x294 JUMP JUMPDEST SWAP1 POP SWAP2 SWAP1 POP JUMP JUMPDEST PUSH2 0x2BFC DUP1 PUSH3 0x2ED PUSH1 0x0 CODECOPY PUSH1 0x0 RETURN INVALID PUSH1 0x80 PUSH1 0x40 MSTORE PUSH1 0x4 CALLDATASIZE LT PUSH2 0x14B JUMPI PUSH1 0x0 CALLDATALOAD PUSH1 0xE0 SHR DUP1 PUSH4 0x88FFE867 GT PUSH2 0xB6 JUMPI DUP1 PUSH4 0xBA2CB6C5 GT PUSH2 0x6F JUMPI DUP1 PUSH4 0xBA2CB6C5 EQ PUSH2 0x3FA JUMPI DUP1 PUSH4 0xC5055F2F EQ PUSH2 0x425 JUMPI DUP1 PUSH4 0xC7446565 EQ PUSH2 0x462 JUMPI DUP1 PUSH4 0xD7D1BBDB EQ PUSH2 0x48D JUMPI DUP1 PUSH4 0xEA8A1AF0 EQ PUSH2 0x4B6 JUMPI DUP1 PUSH4 0xFFABC673 EQ PUSH2 0x4CD JUMPI PUSH2 0x14B JUMP JUMPDEST DUP1 PUSH4 0x88FFE867 EQ PUSH2 0x32A JUMPI DUP1 PUSH4 0x8A9CFD55 EQ PUSH2 0x334 JUMPI DUP1 PUSH4 0x9B4B1786 EQ PUSH2 0x35D JUMPI DUP1 PUSH4 0x9D9A7FE9 EQ PUSH2 0x388 JUMPI DUP1 PUSH4 0xAEAFCA2E EQ PUSH2 0x3B3 JUMPI DUP1 PUSH4 0xB761F24B EQ PUSH2 0x3DE JUMPI PUSH2 0x14B JUMP JUMPDEST DUP1 PUSH4 0x481C6A75 GT PUSH2 0x108 JUMPI DUP1 PUSH4 0x481C6A75 EQ PUSH2 0x247 JUMPI DUP1 PUSH4 0x4BB278F3 EQ PUSH2 0x272 JUMPI DUP1 PUSH4 0x590E1AE3 EQ PUSH2 0x289 JUMPI DUP1 PUSH4 0x7CC3AE8C EQ PUSH2 0x293 JUMPI DUP1 PUSH4 0x81D12C58 EQ PUSH2 0x2BE JUMPI DUP1 PUSH4 0x8813CE12 EQ PUSH2 0x2FF JUMPI PUSH2 0x14B JUMP JUMPDEST DUP1 PUSH4 0x3441006 EQ PUSH2 0x150 JUMPI DUP1 PUSH4 0x12065FE0 EQ PUSH2 0x16C JUMPI DUP1 PUSH4 0x3410452A EQ PUSH2 0x197 JUMPI DUP1 PUSH4 0x3F9942FF EQ PUSH2 0x1C2 JUMPI DUP1 PUSH4 0x40193883 EQ PUSH2 0x1ED JUMPI DUP1 PUSH4 0x4051DDAC EQ PUSH2 0x218 JUMPI JUMPDEST PUSH1 0x0 DUP1 REVERT JUMPDEST PUSH2 0x16A PUSH1 0x4 DUP1 CALLDATASIZE SUB DUP2 ADD SWAP1 PUSH2 0x165 SWAP2 SWAP1 PUSH2 0x1A8B JUMP JUMPDEST PUSH2 0x50A JUMP JUMPDEST STOP JUMPDEST CALLVALUE DUP1 ISZERO PUSH2 0x178 JUMPI PUSH1 0x0 DUP1 REVERT JUMPDEST POP PUSH2 0x181 PUSH2 0x794 JUMP JUMPDEST PUSH1 0x40 MLOAD PUSH2 0x18E SWAP2 SWAP1 PUSH2 0x1AC7 JUMP JUMPDEST PUSH1 0x40 MLOAD DUP1 SWAP2 SUB SWAP1 RETURN JUMPDEST CALLVALUE DUP1 ISZERO PUSH2 0x1A3 JUMPI PUSH1 0x0 DUP1 REVERT JUMPDEST POP PUSH2 0x1AC PUSH2 0x79C JUMP JUMPDEST PUSH1 0x40 MLOAD PUSH2 0x1B9 SWAP2 SWAP1 PUSH2 0x1AC7 JUMP JUMPDEST PUSH1 0x40 MLOAD DUP1 SWAP2 SUB SWAP1 RETURN JUMPDEST CALLVALUE DUP1 ISZERO PUSH2 0x1CE JUMPI PUSH1 0x0 DUP1 REVERT JUMPDEST POP PUSH2 0x1D7 PUSH2 0x7A9 JUMP JUMPDEST PUSH1 0x40 MLOAD PUSH2 0x1E4 SWAP2 SWAP1 PUSH2 0x1AFD JUMP JUMPDEST PUSH1 0x40 MLOAD DUP1 SWAP2 SUB SWAP1 RETURN JUMPDEST CALLVALUE DUP1 ISZERO PUSH2 0x1F9 JUMPI PUSH1 0x0 DUP1 REVERT JUMPDEST POP PUSH2 0x202 PUSH2 0x7BC JUMP JUMPDEST PUSH1 0x40 MLOAD PUSH2 0x20F SWAP2 SWAP1 PUSH2 0x1AC7 JUMP JUMPDEST PUSH1 0x40 MLOAD DUP1 SWAP2 SUB SWAP1 RETURN JUMPDEST CALLVALUE DUP1 ISZERO PUSH2 0x224 JUMPI PUSH1 0x0 DUP1 REVERT JUMPDEST POP PUSH2 0x22D PUSH2 0x7C2 JUMP JUMPDEST PUSH1 0x40 MLOAD PUSH2 0x23E SWAP6 SWAP5 SWAP4 SWAP3 SWAP2 SWAP1 PUSH2 0x1B59 JUMP JUMPDEST PUSH1 0x40 MLOAD DUP1 SWAP2 SUB SWAP1 RETURN JUMPDEST CALLVALUE DUP1 ISZERO PUSH2 0x253 JUMPI PUSH1 0x0 DUP1 REVERT JUMPDEST POP PUSH2 0x25C PUSH2 0x809 JUMP JUMPDEST PUSH1 0x40 MLOAD PUSH2 0x269 SWAP2 SWAP1 PUSH2 0x1BAC JUMP JUMPDEST PUSH1 0x40 MLOAD DUP1 SWAP2 SUB SWAP1 RETURN JUMPDEST CALLVALUE DUP1 ISZERO PUSH2 0x27E JUMPI PUSH1 0x0 DUP1 REVERT JUMPDEST POP PUSH2 0x287 PUSH2 0x82D JUMP JUMPDEST STOP JUMPDEST PUSH2 0x291 PUSH2 0x9BF JUMP JUMPDEST STOP JUMPDEST CALLVALUE DUP1 ISZERO PUSH2 0x29F JUMPI PUSH1 0x0 DUP1 REVERT JUMPDEST POP PUSH2 0x2A8 PUSH2 0xBD6 JUMP JUMPDEST PUSH1 0x40 MLOAD PUSH2 0x2B5 SWAP2 SWAP1 PUSH2 0x1AC7 JUMP JUMPDEST PUSH1 0x40 MLOAD DUP1 SWAP2 SUB SWAP1 RETURN JUMPDEST CALLVALUE DUP1 ISZERO PUSH2 0x2CA JUMPI PUSH1 0x0 DUP1 REVERT JUMPDEST POP PUSH2 0x2E5 PUSH1 0x4 DUP1 CALLDATASIZE SUB DUP2 ADD SWAP1 PUSH2 0x2E0 SWAP2 SWAP1 PUSH2 0x1A8B JUMP JUMPDEST PUSH2 0xBDC JUMP JUMPDEST PUSH1 0x40 MLOAD PUSH2 0x2F6 SWAP6 SWAP5 SWAP4 SWAP3 SWAP2 SWAP1 PUSH2 0x1C81 JUMP JUMPDEST PUSH1 0x40 MLOAD DUP1 SWAP2 SUB SWAP1 RETURN JUMPDEST CALLVALUE DUP1 ISZERO PUSH2 0x30B JUMPI PUSH1 0x0 DUP1 REVERT JUMPDEST POP PUSH2 0x314 PUSH2 0xCD7 JUMP JUMPDEST PUSH1 0x40 MLOAD PUSH2 0x321 SWAP2 SWAP1 PUSH2 0x1E8A JUMP JUMPDEST PUSH1 0x40 MLOAD DUP1 SWAP2 SUB SWAP1 RETURN JUMPDEST PUSH2 0x332 PUSH2 0xE4D JUMP JUMPDEST STOP JUMPDEST CALLVALUE DUP1 ISZERO PUSH2 0x340 JUMPI PUSH1 0x0 DUP1 REVERT JUMPDEST POP PUSH2 0x35B PUSH1 0x4 DUP1 CALLDATASIZE SUB DUP2 ADD SWAP1 PUSH2 0x356 SWAP2 SWAP1 PUSH2 0x200D JUMP JUMPDEST PUSH2 0x1053 JUMP JUMPDEST STOP JUMPDEST CALLVALUE DUP1 ISZERO PUSH2 0x369 JUMPI PUSH1 0x0 DUP1 REVERT JUMPDEST POP PUSH2 0x372 PUSH2 0x12D2 JUMP JUMPDEST PUSH1 0x40 MLOAD PUSH2 0x37F SWAP2 SWAP1 PUSH2 0x1AC7 JUMP JUMPDEST PUSH1 0x40 MLOAD DUP1 SWAP2 SUB SWAP1 RETURN JUMPDEST CALLVALUE DUP1 ISZERO PUSH2 0x394 JUMPI PUSH1 0x0 DUP1 REVERT JUMPDEST POP PUSH2 0x39D PUSH2 0x12D8 JUMP JUMPDEST PUSH1 0x40 MLOAD PUSH2 0x3AA SWAP2 SWAP1 PUSH2 0x1AFD JUMP JUMPDEST PUSH1 0x40 MLOAD DUP1 SWAP2 SUB SWAP1 RETURN JUMPDEST CALLVALUE DUP1 ISZERO PUSH2 0x3BF JUMPI PUSH1 0x0 DUP1 REVERT JUMPDEST POP PUSH2 0x3C8 PUSH2 0x12EB JUMP JUMPDEST PUSH1 0x40 MLOAD PUSH2 0x3D5 SWAP2 SWAP1 PUSH2 0x1AC7 JUMP JUMPDEST PUSH1 0x40 MLOAD DUP1 SWAP2 SUB SWAP1 RETURN JUMPDEST PUSH2 0x3F8 PUSH1 0x4 DUP1 CALLDATASIZE SUB DUP2 ADD SWAP1 PUSH2 0x3F3 SWAP2 SWAP1 PUSH2 0x1A8B JUMP JUMPDEST PUSH2 0x12F1 JUMP JUMPDEST STOP JUMPDEST CALLVALUE DUP1 ISZERO PUSH2 0x406 JUMPI PUSH1 0x0 DUP1 REVERT JUMPDEST POP PUSH2 0x40F PUSH2 0x159E JUMP JUMPDEST PUSH1 0x40 MLOAD PUSH2 0x41C SWAP2 SWAP1 PUSH2 0x1AC7 JUMP JUMPDEST PUSH1 0x40 MLOAD DUP1 SWAP2 SUB SWAP1 RETURN JUMPDEST CALLVALUE DUP1 ISZERO PUSH2 0x431 JUMPI PUSH1 0x0 DUP1 REVERT JUMPDEST POP PUSH2 0x44C PUSH1 0x4 DUP1 CALLDATASIZE SUB DUP2 ADD SWAP1 PUSH2 0x447 SWAP2 SWAP1 PUSH2 0x20A8 JUMP JUMPDEST PUSH2 0x15A4 JUMP JUMPDEST PUSH1 0x40 MLOAD PUSH2 0x459 SWAP2 SWAP1 PUSH2 0x1AC7 JUMP JUMPDEST PUSH1 0x40 MLOAD DUP1 SWAP2 SUB SWAP1 RETURN JUMPDEST CALLVALUE DUP1 ISZERO PUSH2 0x46E JUMPI PUSH1 0x0 DUP1 REVERT JUMPDEST POP PUSH2 0x477 PUSH2 0x15BC JUMP JUMPDEST PUSH1 0x40 MLOAD PUSH2 0x484 SWAP2 SWAP1 PUSH2 0x1AC7 JUMP JUMPDEST PUSH1 0x40 MLOAD DUP1 SWAP2 SUB SWAP1 RETURN JUMPDEST CALLVALUE DUP1 ISZERO PUSH2 0x499 JUMPI PUSH1 0x0 DUP1 REVERT JUMPDEST POP PUSH2 0x4B4 PUSH1 0x4 DUP1 CALLDATASIZE SUB DUP2 ADD SWAP1 PUSH2 0x4AF SWAP2 SWAP1 PUSH2 0x1A8B JUMP JUMPDEST PUSH2 0x15C2 JUMP JUMPDEST STOP JUMPDEST CALLVALUE DUP1 ISZERO PUSH2 0x4C2 JUMPI PUSH1 0x0 DUP1 REVERT JUMPDEST POP PUSH2 0x4CB PUSH2 0x1881 JUMP JUMPDEST STOP JUMPDEST CALLVALUE DUP1 ISZERO PUSH2 0x4D9 JUMPI PUSH1 0x0 DUP1 REVERT JUMPDEST POP PUSH2 0x4F4 PUSH1 0x4 DUP1 CALLDATASIZE SUB DUP2 ADD SWAP1 PUSH2 0x4EF SWAP2 SWAP1 PUSH2 0x20D5 JUMP JUMPDEST PUSH2 0x1A12 JUMP JUMPDEST PUSH1 0x40 MLOAD PUSH2 0x501 SWAP2 SWAP1 PUSH2 0x1AFD JUMP JUMPDEST PUSH1 0x40 MLOAD DUP1 SWAP2 SUB SWAP1 RETURN JUMPDEST PUSH1 0x0 DUP1 SLOAD SWAP1 PUSH2 0x100 EXP SWAP1 DIV PUSH20 0xFFFFFFFFFFFFFFFFFFFFFFFFFFFFFFFFFFFFFFFF AND PUSH20 0xFFFFFFFFFFFFFFFFFFFFFFFFFFFFFFFFFFFFFFFF AND CALLER PUSH20 0xFFFFFFFFFFFFFFFFFFFFFFFFFFFFFFFFFFFFFFFF AND EQ PUSH2 0x598 JUMPI PUSH1 0x40 MLOAD PUSH32 0x8C379A000000000000000000000000000000000000000000000000000000000 DUP2 MSTORE PUSH1 0x4 ADD PUSH2 0x58F SWAP1 PUSH2 0x2187 JUMP JUMPDEST PUSH1 0x40 MLOAD DUP1 SWAP2 SUB SWAP1 REVERT JUMPDEST PUSH1 0xA PUSH1 0x0 SWAP1 SLOAD SWAP1 PUSH2 0x100 EXP SWAP1 DIV PUSH1 0xFF AND ISZERO PUSH2 0x5E8 JUMPI PUSH1 0x40 MLOAD PUSH32 0x8C379A000000000000000000000000000000000000000000000000000000000 DUP2 MSTORE PUSH1 0x4 ADD PUSH2 0x5DF SWAP1 PUSH2 0x21F3 JUMP JUMPDEST PUSH1 0x40 MLOAD DUP1 SWAP2 SUB SWAP1 REVERT JUMPDEST PUSH1 0xA PUSH1 0x1 SWAP1 SLOAD SWAP1 PUSH2 0x100 EXP SWAP1 DIV PUSH1 0xFF AND ISZERO PUSH2 0x638 JUMPI PUSH1 0x40 MLOAD PUSH32 0x8C379A000000000000000000000000000000000000000000000000000000000 DUP2 MSTORE PUSH1 0x4 ADD PUSH2 0x62F SWAP1 PUSH2 0x225F JUMP JUMPDEST PUSH1 0x40 MLOAD DUP1 SWAP2 SUB SWAP1 REVERT JUMPDEST PUSH1 0x0 PUSH1 0x6 DUP3 DUP2 SLOAD DUP2 LT PUSH2 0x64E JUMPI PUSH2 0x64D PUSH2 0x227F JUMP JUMPDEST JUMPDEST SWAP1 PUSH1 0x0 MSTORE PUSH1 0x20 PUSH1 0x0 KECCAK256 SWAP1 PUSH1 0x4 MUL ADD SWAP1 POP DUP1 PUSH1 0x2 ADD PUSH1 0x14 SWAP1 SLOAD SWAP1 PUSH2 0x100 EXP SWAP1 DIV PUSH1 0xFF AND ISZERO PUSH2 0x6B0 JUMPI PUSH1 0x40 MLOAD PUSH32 0x8C379A000000000000000000000000000000000000000000000000000000000 DUP2 MSTORE PUSH1 0x4 ADD PUSH2 0x6A7 SWAP1 PUSH2 0x22FA JUMP JUMPDEST PUSH1 0x40 MLOAD DUP1 SWAP2 SUB SWAP1 REVERT JUMPDEST PUSH1 0x2 PUSH1 0x7 SLOAD PUSH2 0x6BF SWAP2 SWAP1 PUSH2 0x2378 JUMP JUMPDEST DUP2 PUSH1 0x3 ADD SLOAD GT PUSH2 0x704 JUMPI PUSH1 0x40 MLOAD PUSH32 0x8C379A000000000000000000000000000000000000000000000000000000000 DUP2 MSTORE PUSH1 0x4 ADD PUSH2 0x6FB SWAP1 PUSH2 0x241B JUMP JUMPDEST PUSH1 0x40 MLOAD DUP1 SWAP2 SUB SWAP1 REVERT JUMPDEST DUP1 PUSH1 0x2 ADD PUSH1 0x0 SWAP1 SLOAD SWAP1 PUSH2 0x100 EXP SWAP1 DIV PUSH20 0xFFFFFFFFFFFFFFFFFFFFFFFFFFFFFFFFFFFFFFFF AND PUSH20 0xFFFFFFFFFFFFFFFFFFFFFFFFFFFFFFFFFFFFFFFF AND PUSH2 0x8FC DUP3 PUSH1 0x1 ADD SLOAD SWAP1 DUP2 ISZERO MUL SWAP1 PUSH1 0x40 MLOAD PUSH1 0x0 PUSH1 0x40 MLOAD DUP1 DUP4 SUB DUP2 DUP6 DUP9 DUP9 CALL SWAP4 POP POP POP POP ISZERO DUP1 ISZERO PUSH2 0x772 JUMPI RETURNDATASIZE PUSH1 0x0 DUP1 RETURNDATACOPY RETURNDATASIZE PUSH1 0x0 REVERT JUMPDEST POP PUSH1 0x1 DUP2 PUSH1 0x2 ADD PUSH1 0x14 PUSH2 0x100 EXP DUP2 SLOAD DUP2 PUSH1 0xFF MUL NOT AND SWAP1 DUP4 ISZERO ISZERO MUL OR SWAP1 SSTORE POP POP POP JUMP JUMPDEST PUSH1 0x0 SELFBALANCE SWAP1 POP SWAP1 JUMP JUMPDEST PUSH1 0x0 PUSH1 0x6 DUP1 SLOAD SWAP1 POP SWAP1 POP SWAP1 JUMP JUMPDEST PUSH1 0xA PUSH1 0x1 SWAP1 SLOAD SWAP1 PUSH2 0x100 EXP SWAP1 DIV PUSH1 0xFF AND DUP2 JUMP JUMPDEST PUSH1 0x1 SLOAD DUP2 JUMP JUMPDEST PUSH1 0x0 DUP1 PUSH1 0x0 DUP1 PUSH1 0x0 PUSH1 0x5 SLOAD SELFBALANCE PUSH1 0x6 DUP1 SLOAD SWAP1 POP PUSH1 0x7 SLOAD PUSH1 0x0 DUP1 SLOAD SWAP1 PUSH2 0x100 EXP SWAP1 DIV PUSH20 0xFFFFFFFFFFFFFFFFFFFFFFFFFFFFFFFFFFFFFFFF AND SWAP5 POP SWAP5 POP SWAP5 POP SWAP5 POP SWAP5 POP SWAP1 SWAP2 SWAP3 SWAP4 SWAP5 JUMP JUMPDEST PUSH1 0x0 DUP1 SLOAD SWAP1 PUSH2 0x100 EXP SWAP1 DIV PUSH20 0xFFFFFFFFFFFFFFFFFFFFFFFFFFFFFFFFFFFFFFFF AND DUP2 JUMP JUMPDEST PUSH1 0x0 DUP1 SLOAD SWAP1 PUSH2 0x100 EXP SWAP1 DIV PUSH20 0xFFFFFFFFFFFFFFFFFFFFFFFFFFFFFFFFFFFFFFFF AND PUSH20 0xFFFFFFFFFFFFFFFFFFFFFFFFFFFFFFFFFFFFFFFF AND CALLER PUSH20 0xFFFFFFFFFFFFFFFFFFFFFFFFFFFFFFFFFFFFFFFF AND EQ PUSH2 0x8BB JUMPI PUSH1 0x40 MLOAD PUSH32 0x8C379A000000000000000000000000000000000000000000000000000000000 DUP2 MSTORE PUSH1 0x4 ADD PUSH2 0x8B2 SWAP1 PUSH2 0x2187 JUMP JUMPDEST PUSH1 0x40 MLOAD DUP1 SWAP2 SUB SWAP1 REVERT JUMPDEST PUSH1 0xA PUSH1 0x0 SWAP1 SLOAD SWAP1 PUSH2 0x100 EXP SWAP1 DIV PUSH1 0xFF AND ISZERO PUSH2 0x90B JUMPI PUSH1 0x40 MLOAD PUSH32 0x8C379A000000000000000000000000000000000000000000000000000000000 DUP2 MSTORE PUSH1 0x4 ADD PUSH2 0x902 SWAP1 PUSH2 0x21F3 JUMP JUMPDEST PUSH1 0x40 MLOAD DUP1 SWAP2 SUB SWAP1 REVERT JUMPDEST PUSH1 0xA PUSH1 0x1 SWAP1 SLOAD SWAP1 PUSH2 0x100 EXP SWAP1 DIV PUSH1 0xFF AND ISZERO PUSH2 0x95B JUMPI PUSH1 0x40 MLOAD PUSH32 0x8C379A000000000000000000000000000000000000000000000000000000000 DUP2 MSTORE PUSH1 0x4 ADD PUSH2 0x952 SWAP1 PUSH2 0x225F JUMP JUMPDEST PUSH1 0x40 MLOAD DUP1 SWAP2 SUB SWAP1 REVERT JUMPDEST PUSH1 0x1 SLOAD PUSH1 0x2 SLOAD LT ISZERO PUSH2 0x9A2 JUMPI PUSH1 0x40 MLOAD PUSH32 0x8C379A000000000000000000000000000000000000000000000000000000000 DUP2 MSTORE PUSH1 0x4 ADD PUSH2 0x999 SWAP1 PUSH2 0x2487 JUMP JUMPDEST PUSH1 0x40 MLOAD DUP1 SWAP2 SUB SWAP1 REVERT JUMPDEST PUSH1 0x1 PUSH1 0xA PUSH1 0x0 PUSH2 0x100 EXP DUP2 SLOAD DUP2 PUSH1 0xFF MUL NOT AND SWAP1 DUP4 ISZERO ISZERO MUL OR SWAP1 SSTORE POP JUMP JUMPDEST PUSH1 0x4 SLOAD TIMESTAMP GT ISZERO PUSH2 0xA04 JUMPI PUSH1 0x40 MLOAD PUSH32 0x8C379A000000000000000000000000000000000000000000000000000000000 DUP2 MSTORE PUSH1 0x4 ADD PUSH2 0x9FB SWAP1 PUSH2 0x24F3 JUMP JUMPDEST PUSH1 0x40 MLOAD DUP1 SWAP2 SUB SWAP1 REVERT JUMPDEST PUSH1 0x0 PUSH1 0x8 PUSH1 0x0 CALLER PUSH20 0xFFFFFFFFFFFFFFFFFFFFFFFFFFFFFFFFFFFFFFFF AND PUSH20 0xFFFFFFFFFFFFFFFFFFFFFFFFFFFFFFFFFFFFFFFF AND DUP2 MSTORE PUSH1 0x20 ADD SWAP1 DUP2 MSTORE PUSH1 0x20 ADD PUSH1 0x0 KECCAK256 SLOAD GT PUSH2 0xA86 JUMPI PUSH1 0x40 MLOAD PUSH32 0x8C379A000000000000000000000000000000000000000000000000000000000 DUP2 MSTORE PUSH1 0x4 ADD PUSH2 0xA7D SWAP1 PUSH2 0x2585 JUMP JUMPDEST PUSH1 0x40 MLOAD DUP1 SWAP2 SUB SWAP1 REVERT JUMPDEST PUSH1 0x1 SLOAD PUSH1 0x2 SLOAD LT PUSH2 0xACC JUMPI PUSH1 0x40 MLOAD PUSH32 0x8C379A000000000000000000000000000000000000000000000000000000000 DUP2 MSTORE PUSH1 0x4 ADD PUSH2 0xAC3 SWAP1 PUSH2 0x2617 JUMP JUMPDEST PUSH1 0x40 MLOAD DUP1 SWAP2 SUB SWAP1 REVERT JUMPDEST PUSH1 0x0 PUSH1 0x8 PUSH1 0x0 CALLER PUSH20 0xFFFFFFFFFFFFFFFFFFFFFFFFFFFFFFFFFFFFFFFF AND PUSH20 0xFFFFFFFFFFFFFFFFFFFFFFFFFFFFFFFFFFFFFFFF AND DUP2 MSTORE PUSH1 0x20 ADD SWAP1 DUP2 MSTORE PUSH1 0x20 ADD PUSH1 0x0 KECCAK256 SLOAD SWAP1 POP PUSH1 0x0 CALLER SWAP1 POP DUP1 PUSH20 0xFFFFFFFFFFFFFFFFFFFFFFFFFFFFFFFFFFFFFFFF AND PUSH2 0x8FC DUP4 SWAP1 DUP2 ISZERO MUL SWAP1 PUSH1 0x40 MLOAD PUSH1 0x0 PUSH1 0x40 MLOAD DUP1 DUP4 SUB DUP2 DUP6 DUP9 DUP9 CALL SWAP4 POP POP POP POP ISZERO DUP1 ISZERO PUSH2 0xB5B JUMPI RETURNDATASIZE PUSH1 0x0 DUP1 RETURNDATACOPY RETURNDATASIZE PUSH1 0x0 REVERT JUMPDEST POP PUSH1 0x0 PUSH1 0x8 PUSH1 0x0 CALLER PUSH20 0xFFFFFFFFFFFFFFFFFFFFFFFFFFFFFFFFFFFFFFFF AND PUSH20 0xFFFFFFFFFFFFFFFFFFFFFFFFFFFFFFFFFFFFFFFF AND DUP2 MSTORE PUSH1 0x20 ADD SWAP1 DUP2 MSTORE PUSH1 0x20 ADD PUSH1 0x0 KECCAK256 DUP2 SWAP1 SSTORE POP PUSH1 0x7 PUSH1 0x0 DUP2 SLOAD DUP1 SWAP3 SWAP2 SWAP1 PUSH2 0xBB4 SWAP1 PUSH2 0x2637 JUMP JUMPDEST SWAP2 SWAP1 POP SSTORE POP DUP2 PUSH1 0x2 PUSH1 0x0 DUP3 DUP3 SLOAD PUSH2 0xBCB SWAP2 SWAP1 PUSH2 0x2660 JUMP JUMPDEST SWAP3 POP POP DUP2 SWAP1 SSTORE POP POP POP JUMP JUMPDEST PUSH1 0x4 SLOAD DUP2 JUMP JUMPDEST PUSH1 0x6 DUP2 DUP2 SLOAD DUP2 LT PUSH2 0xBEC JUMPI PUSH1 0x0 DUP1 REVERT JUMPDEST SWAP1 PUSH1 0x0 MSTORE PUSH1 0x20 PUSH1 0x0 KECCAK256 SWAP1 PUSH1 0x4 MUL ADD PUSH1 0x0 SWAP2 POP SWAP1 POP DUP1 PUSH1 0x0 ADD DUP1 SLOAD PUSH2 0xC0F SWAP1 PUSH2 0x26C3 JUMP JUMPDEST DUP1 PUSH1 0x1F ADD PUSH1 0x20 DUP1 SWAP2 DIV MUL PUSH1 0x20 ADD PUSH1 0x40 MLOAD SWAP1 DUP2 ADD PUSH1 0x40 MSTORE DUP1 SWAP3 SWAP2 SWAP1 DUP2 DUP2 MSTORE PUSH1 0x20 ADD DUP3 DUP1 SLOAD PUSH2 0xC3B SWAP1 PUSH2 0x26C3 JUMP JUMPDEST DUP1 ISZERO PUSH2 0xC88 JUMPI DUP1 PUSH1 0x1F LT PUSH2 0xC5D JUMPI PUSH2 0x100 DUP1 DUP4 SLOAD DIV MUL DUP4 MSTORE SWAP2 PUSH1 0x20 ADD SWAP2 PUSH2 0xC88 JUMP JUMPDEST DUP3 ADD SWAP2 SWAP1 PUSH1 0x0 MSTORE PUSH1 0x20 PUSH1 0x0 KECCAK256 SWAP1 JUMPDEST DUP2 SLOAD DUP2 MSTORE SWAP1 PUSH1 0x1 ADD SWAP1 PUSH1 0x20 ADD DUP1 DUP4 GT PUSH2 0xC6B JUMPI DUP3 SWAP1 SUB PUSH1 0x1F AND DUP3 ADD SWAP2 JUMPDEST POP POP POP POP POP SWAP1 DUP1 PUSH1 0x1 ADD SLOAD SWAP1 DUP1 PUSH1 0x2 ADD PUSH1 0x0 SWAP1 SLOAD SWAP1 PUSH2 0x100 EXP SWAP1 DIV PUSH20 0xFFFFFFFFFFFFFFFFFFFFFFFFFFFFFFFFFFFFFFFF AND SWAP1 DUP1 PUSH1 0x2 ADD PUSH1 0x14 SWAP1 SLOAD SWAP1 PUSH2 0x100 EXP SWAP1 DIV PUSH1 0xFF AND SWAP1 DUP1 PUSH1 0x3 ADD SLOAD SWAP1 POP DUP6 JUMP JUMPDEST PUSH1 0x60 PUSH1 0x6 DUP1 SLOAD DUP1 PUSH1 0x20 MUL PUSH1 0x20 ADD PUSH1 0x40 MLOAD SWAP1 DUP2 ADD PUSH1 0x40 MSTORE DUP1 SWAP3 SWAP2 SWAP1 DUP2 DUP2 MSTORE PUSH1 0x20 ADD PUSH1 0x0 SWAP1 JUMPDEST DUP3 DUP3 LT ISZERO PUSH2 0xE44 JUMPI DUP4 DUP3 SWAP1 PUSH1 0x0 MSTORE PUSH1 0x20 PUSH1 0x0 KECCAK256 SWAP1 PUSH1 0x4 MUL ADD PUSH1 0x40 MLOAD DUP1 PUSH1 0xA0 ADD PUSH1 0x40 MSTORE SWAP1 DUP2 PUSH1 0x0 DUP3 ADD DUP1 SLOAD PUSH2 0xD2E SWAP1 PUSH2 0x26C3 JUMP JUMPDEST DUP1 PUSH1 0x1F ADD PUSH1 0x20 DUP1 SWAP2 DIV MUL PUSH1 0x20 ADD PUSH1 0x40 MLOAD SWAP1 DUP2 ADD PUSH1 0x40 MSTORE DUP1 SWAP3 SWAP2 SWAP1 DUP2 DUP2 MSTORE PUSH1 0x20 ADD DUP3 DUP1 SLOAD PUSH2 0xD5A SWAP1 PUSH2 0x26C3 JUMP JUMPDEST DUP1 ISZERO PUSH2 0xDA7 JUMPI DUP1 PUSH1 0x1F LT PUSH2 0xD7C JUMPI PUSH2 0x100 DUP1 DUP4 SLOAD DIV MUL DUP4 MSTORE SWAP2 PUSH1 0x20 ADD SWAP2 PUSH2 0xDA7 JUMP JUMPDEST DUP3 ADD SWAP2 SWAP1 PUSH1 0x0 MSTORE PUSH1 0x20 PUSH1 0x0 KECCAK256 SWAP1 JUMPDEST DUP2 SLOAD DUP2 MSTORE SWAP1 PUSH1 0x1 ADD SWAP1 PUSH1 0x20 ADD DUP1 DUP4 GT PUSH2 0xD8A JUMPI DUP3 SWAP1 SUB PUSH1 0x1F AND DUP3 ADD SWAP2 JUMPDEST POP POP POP POP POP DUP2 MSTORE PUSH1 0x20 ADD PUSH1 0x1 DUP3 ADD SLOAD DUP2 MSTORE PUSH1 0x20 ADD PUSH1 0x2 DUP3 ADD PUSH1 0x0 SWAP1 SLOAD SWAP1 PUSH2 0x100 EXP SWAP1 DIV PUSH20 0xFFFFFFFFFFFFFFFFFFFFFFFFFFFFFFFFFFFFFFFF AND PUSH20 0xFFFFFFFFFFFFFFFFFFFFFFFFFFFFFFFFFFFFFFFF AND PUSH20 0xFFFFFFFFFFFFFFFFFFFFFFFFFFFFFFFFFFFFFFFF AND DUP2 MSTORE PUSH1 0x20 ADD PUSH1 0x2 DUP3 ADD PUSH1 0x14 SWAP1 SLOAD SWAP1 PUSH2 0x100 EXP SWAP1 DIV PUSH1 0xFF AND ISZERO ISZERO ISZERO ISZERO DUP2 MSTORE PUSH1 0x20 ADD PUSH1 0x3 DUP3 ADD SLOAD DUP2 MSTORE POP POP DUP2 MSTORE PUSH1 0x20 ADD SWAP1 PUSH1 0x1 ADD SWAP1 PUSH2 0xCFB JUMP JUMPDEST POP POP POP POP SWAP1 POP SWAP1 JUMP JUMPDEST PUSH1 0x4 SLOAD TIMESTAMP GT ISZERO PUSH2 0xE92 JUMPI PUSH1 0x40 MLOAD PUSH32 0x8C379A000000000000000000000000000000000000000000000000000000000 DUP2 MSTORE PUSH1 0x4 ADD PUSH2 0xE89 SWAP1 PUSH2 0x24F3 JUMP JUMPDEST PUSH1 0x40 MLOAD DUP1 SWAP2 SUB SWAP1 REVERT JUMPDEST PUSH1 0xA PUSH1 0x0 SWAP1 SLOAD SWAP1 PUSH2 0x100 EXP SWAP1 DIV PUSH1 0xFF AND ISZERO PUSH2 0xEE2 JUMPI PUSH1 0x40 MLOAD PUSH32 0x8C379A000000000000000000000000000000000000000000000000000000000 DUP2 MSTORE PUSH1 0x4 ADD PUSH2 0xED9 SWAP1 PUSH2 0x21F3 JUMP JUMPDEST PUSH1 0x40 MLOAD DUP1 SWAP2 SUB SWAP1 REVERT JUMPDEST PUSH1 0xA PUSH1 0x1 SWAP1 SLOAD SWAP1 PUSH2 0x100 EXP SWAP1 DIV PUSH1 0xFF AND ISZERO PUSH2 0xF32 JUMPI PUSH1 0x40 MLOAD PUSH32 0x8C379A000000000000000000000000000000000000000000000000000000000 DUP2 MSTORE PUSH1 0x4 ADD PUSH2 0xF29 SWAP1 PUSH2 0x225F JUMP JUMPDEST PUSH1 0x40 MLOAD DUP1 SWAP2 SUB SWAP1 REVERT JUMPDEST PUSH1 0x5 SLOAD CALLVALUE GT DUP1 ISZERO PUSH2 0xF43 JUMPI POP PUSH1 0x0 CALLVALUE GT JUMPDEST PUSH2 0xF82 JUMPI PUSH1 0x40 MLOAD PUSH32 0x8C379A000000000000000000000000000000000000000000000000000000000 DUP2 MSTORE PUSH1 0x4 ADD PUSH2 0xF79 SWAP1 PUSH2 0x2766 JUMP JUMPDEST PUSH1 0x40 MLOAD DUP1 SWAP2 SUB SWAP1 REVERT JUMPDEST CALLVALUE PUSH1 0x2 PUSH1 0x0 DUP3 DUP3 SLOAD PUSH2 0xF94 SWAP2 SWAP1 PUSH2 0x2786 JUMP JUMPDEST SWAP3 POP POP DUP2 SWAP1 SSTORE POP PUSH1 0x0 PUSH1 0x8 PUSH1 0x0 CALLER PUSH20 0xFFFFFFFFFFFFFFFFFFFFFFFFFFFFFFFFFFFFFFFF AND PUSH20 0xFFFFFFFFFFFFFFFFFFFFFFFFFFFFFFFFFFFFFFFF AND DUP2 MSTORE PUSH1 0x20 ADD SWAP1 DUP2 MSTORE PUSH1 0x20 ADD PUSH1 0x0 KECCAK256 SLOAD SUB PUSH2 0xFFB JUMPI PUSH1 0x7 PUSH1 0x0 DUP2 SLOAD DUP1 SWAP3 SWAP2 SWAP1 PUSH2 0xFF5 SWAP1 PUSH2 0x27DC JUMP JUMPDEST SWAP2 SWAP1 POP SSTORE POP JUMPDEST CALLVALUE PUSH1 0x8 PUSH1 0x0 CALLER PUSH20 0xFFFFFFFFFFFFFFFFFFFFFFFFFFFFFFFFFFFFFFFF AND PUSH20 0xFFFFFFFFFFFFFFFFFFFFFFFFFFFFFFFFFFFFFFFF AND DUP2 MSTORE PUSH1 0x20 ADD SWAP1 DUP2 MSTORE PUSH1 0x20 ADD PUSH1 0x0 KECCAK256 PUSH1 0x0 DUP3 DUP3 SLOAD PUSH2 0x104A SWAP2 SWAP1 PUSH2 0x2786 JUMP JUMPDEST SWAP3 POP POP DUP2 SWAP1 SSTORE POP JUMP JUMPDEST PUSH1 0x0 DUP1 SLOAD SWAP1 PUSH2 0x100 EXP SWAP1 DIV PUSH20 0xFFFFFFFFFFFFFFFFFFFFFFFFFFFFFFFFFFFFFFFF AND PUSH20 0xFFFFFFFFFFFFFFFFFFFFFFFFFFFFFFFFFFFFFFFF AND CALLER PUSH20 0xFFFFFFFFFFFFFFFFFFFFFFFFFFFFFFFFFFFFFFFF AND EQ PUSH2 0x10E1 JUMPI PUSH1 0x40 MLOAD PUSH32 0x8C379A000000000000000000000000000000000000000000000000000000000 DUP2 MSTORE PUSH1 0x4 ADD PUSH2 0x10D8 SWAP1 PUSH2 0x2187 JUMP JUMPDEST PUSH1 0x40 MLOAD DUP1 SWAP2 SUB SWAP1 REVERT JUMPDEST PUSH1 0x1 SLOAD PUSH1 0x2 SLOAD LT ISZERO PUSH2 0x1128 JUMPI PUSH1 0x40 MLOAD PUSH32 0x8C379A000000000000000000000000000000000000000000000000000000000 DUP2 MSTORE PUSH1 0x4 ADD PUSH2 0x111F SWAP1 PUSH2 0x2487 JUMP JUMPDEST PUSH1 0x40 MLOAD DUP1 SWAP2 SUB SWAP1 REVERT JUMPDEST PUSH1 0xA PUSH1 0x0 SWAP1 SLOAD SWAP1 PUSH2 0x100 EXP SWAP1 DIV PUSH1 0xFF AND ISZERO PUSH2 0x1178 JUMPI PUSH1 0x40 MLOAD PUSH32 0x8C379A000000000000000000000000000000000000000000000000000000000 DUP2 MSTORE PUSH1 0x4 ADD PUSH2 0x116F SWAP1 PUSH2 0x21F3 JUMP JUMPDEST PUSH1 0x40 MLOAD DUP1 SWAP2 SUB SWAP1 REVERT JUMPDEST PUSH1 0xA PUSH1 0x1 SWAP1 SLOAD SWAP1 PUSH2 0x100 EXP SWAP1 DIV PUSH1 0xFF AND ISZERO PUSH2 0x11C8 JUMPI PUSH1 0x40 MLOAD PUSH32 0x8C379A000000000000000000000000000000000000000000000000000000000 DUP2 MSTORE PUSH1 0x4 ADD PUSH2 0x11BF SWAP1 PUSH2 0x225F JUMP JUMPDEST PUSH1 0x40 MLOAD DUP1 SWAP2 SUB SWAP1 REVERT JUMPDEST PUSH1 0x0 PUSH1 0x40 MLOAD DUP1 PUSH1 0xA0 ADD PUSH1 0x40 MSTORE DUP1 DUP6 DUP2 MSTORE PUSH1 0x20 ADD DUP5 DUP2 MSTORE PUSH1 0x20 ADD DUP4 PUSH20 0xFFFFFFFFFFFFFFFFFFFFFFFFFFFFFFFFFFFFFFFF AND DUP2 MSTORE PUSH1 0x20 ADD PUSH1 0x0 ISZERO ISZERO DUP2 MSTORE PUSH1 0x20 ADD PUSH1 0x0 DUP2 MSTORE POP SWAP1 POP PUSH1 0x6 DUP2 SWAP1 DUP1 PUSH1 0x1 DUP2 SLOAD ADD DUP1 DUP3 SSTORE DUP1 SWAP2 POP POP PUSH1 0x1 SWAP1 SUB SWAP1 PUSH1 0x0 MSTORE PUSH1 0x20 PUSH1 0x0 KECCAK256 SWAP1 PUSH1 0x4 MUL ADD PUSH1 0x0 SWAP1 SWAP2 SWAP1 SWAP2 SWAP1 SWAP2 POP PUSH1 0x0 DUP3 ADD MLOAD DUP2 PUSH1 0x0 ADD SWAP1 DUP2 PUSH2 0x124E SWAP2 SWAP1 PUSH2 0x29D0 JUMP JUMPDEST POP PUSH1 0x20 DUP3 ADD MLOAD DUP2 PUSH1 0x1 ADD SSTORE PUSH1 0x40 DUP3 ADD MLOAD DUP2 PUSH1 0x2 ADD PUSH1 0x0 PUSH2 0x100 EXP DUP2 SLOAD DUP2 PUSH20 0xFFFFFFFFFFFFFFFFFFFFFFFFFFFFFFFFFFFFFFFF MUL NOT AND SWAP1 DUP4 PUSH20 0xFFFFFFFFFFFFFFFFFFFFFFFFFFFFFFFFFFFFFFFF AND MUL OR SWAP1 SSTORE POP PUSH1 0x60 DUP3 ADD MLOAD DUP2 PUSH1 0x2 ADD PUSH1 0x14 PUSH2 0x100 EXP DUP2 SLOAD DUP2 PUSH1 0xFF MUL NOT AND SWAP1 DUP4 ISZERO ISZERO MUL OR SWAP1 SSTORE POP PUSH1 0x80 DUP3 ADD MLOAD DUP2 PUSH1 0x3 ADD SSTORE POP POP POP POP POP POP JUMP JUMPDEST PUSH1 0x5 SLOAD DUP2 JUMP JUMPDEST PUSH1 0xA PUSH1 0x0 SWAP1 SLOAD SWAP1 PUSH2 0x100 EXP SWAP1 DIV PUSH1 0xFF AND DUP2 JUMP JUMPDEST PUSH1 0x2 SLOAD DUP2 JUMP JUMPDEST PUSH1 0x4 SLOAD TIMESTAMP GT ISZERO PUSH2 0x1336 JUMPI PUSH1 0x40 MLOAD PUSH32 0x8C379A000000000000000000000000000000000000000000000000000000000 DUP2 MSTORE PUSH1 0x4 ADD PUSH2 0x132D SWAP1 PUSH2 0x24F3 JUMP JUMPDEST PUSH1 0x40 MLOAD DUP1 SWAP2 SUB SWAP1 REVERT JUMPDEST PUSH1 0x0 PUSH1 0x8 PUSH1 0x0 CALLER PUSH20 0xFFFFFFFFFFFFFFFFFFFFFFFFFFFFFFFFFFFFFFFF AND PUSH20 0xFFFFFFFFFFFFFFFFFFFFFFFFFFFFFFFFFFFFFFFF AND DUP2 MSTORE PUSH1 0x20 ADD SWAP1 DUP2 MSTORE PUSH1 0x20 ADD PUSH1 0x0 KECCAK256 SLOAD GT PUSH2 0x13B8 JUMPI PUSH1 0x40 MLOAD PUSH32 0x8C379A000000000000000000000000000000000000000000000000000000000 DUP2 MSTORE PUSH1 0x4 ADD PUSH2 0x13AF SWAP1 PUSH2 0x2585 JUMP JUMPDEST PUSH1 0x40 MLOAD DUP1 SWAP2 SUB SWAP1 REVERT JUMPDEST PUSH1 0x1 SLOAD PUSH1 0x2 SLOAD LT PUSH2 0x13FE JUMPI PUSH1 0x40 MLOAD PUSH32 0x8C379A000000000000000000000000000000000000000000000000000000000 DUP2 MSTORE PUSH1 0x4 ADD PUSH2 0x13F5 SWAP1 PUSH2 0x2617 JUMP JUMPDEST PUSH1 0x40 MLOAD DUP1 SWAP2 SUB SWAP1 REVERT JUMPDEST DUP1 PUSH1 0x8 PUSH1 0x0 CALLER PUSH20 0xFFFFFFFFFFFFFFFFFFFFFFFFFFFFFFFFFFFFFFFF AND PUSH20 0xFFFFFFFFFFFFFFFFFFFFFFFFFFFFFFFFFFFFFFFF AND DUP2 MSTORE PUSH1 0x20 ADD SWAP1 DUP2 MSTORE PUSH1 0x20 ADD PUSH1 0x0 KECCAK256 SLOAD LT ISZERO PUSH2 0x1480 JUMPI PUSH1 0x40 MLOAD PUSH32 0x8C379A000000000000000000000000000000000000000000000000000000000 DUP2 MSTORE PUSH1 0x4 ADD PUSH2 0x1477 SWAP1 PUSH2 0x2B14 JUMP JUMPDEST PUSH1 0x40 MLOAD DUP1 SWAP2 SUB SWAP1 REVERT JUMPDEST PUSH1 0x0 CALLER SWAP1 POP DUP1 PUSH20 0xFFFFFFFFFFFFFFFFFFFFFFFFFFFFFFFFFFFFFFFF AND PUSH2 0x8FC DUP4 SWAP1 DUP2 ISZERO MUL SWAP1 PUSH1 0x40 MLOAD PUSH1 0x0 PUSH1 0x40 MLOAD DUP1 DUP4 SUB DUP2 DUP6 DUP9 DUP9 CALL SWAP4 POP POP POP POP ISZERO DUP1 ISZERO PUSH2 0x14CB JUMPI RETURNDATASIZE PUSH1 0x0 DUP1 RETURNDATACOPY RETURNDATASIZE PUSH1 0x0 REVERT JUMPDEST POP DUP2 PUSH1 0x8 PUSH1 0x0 CALLER PUSH20 0xFFFFFFFFFFFFFFFFFFFFFFFFFFFFFFFFFFFFFFFF AND PUSH20 0xFFFFFFFFFFFFFFFFFFFFFFFFFFFFFFFFFFFFFFFF AND DUP2 MSTORE PUSH1 0x20 ADD SWAP1 DUP2 MSTORE PUSH1 0x20 ADD PUSH1 0x0 KECCAK256 SLOAD SUB PUSH2 0x152B JUMPI PUSH1 0x7 PUSH1 0x0 DUP2 SLOAD DUP1 SWAP3 SWAP2 SWAP1 PUSH2 0x1525 SWAP1 PUSH2 0x2637 JUMP JUMPDEST SWAP2 SWAP1 POP SSTORE POP JUMPDEST DUP2 PUSH1 0x2 PUSH1 0x0 DUP3 DUP3 SLOAD PUSH2 0x153D SWAP2 SWAP1 PUSH2 0x2660 JUMP JUMPDEST SWAP3 POP POP DUP2 SWAP1 SSTORE POP DUP2 PUSH1 0x8 PUSH1 0x0 CALLER PUSH20 0xFFFFFFFFFFFFFFFFFFFFFFFFFFFFFFFFFFFFFFFF AND PUSH20 0xFFFFFFFFFFFFFFFFFFFFFFFFFFFFFFFFFFFFFFFF AND DUP2 MSTORE PUSH1 0x20 ADD SWAP1 DUP2 MSTORE PUSH1 0x20 ADD PUSH1 0x0 KECCAK256 PUSH1 0x0 DUP3 DUP3 SLOAD PUSH2 0x1593 SWAP2 SWAP1 PUSH2 0x2660 JUMP JUMPDEST SWAP3 POP POP DUP2 SWAP1 SSTORE POP POP POP JUMP JUMPDEST PUSH1 0x7 SLOAD DUP2 JUMP JUMPDEST PUSH1 0x8 PUSH1 0x20 MSTORE DUP1 PUSH1 0x0 MSTORE PUSH1 0x40 PUSH1 0x0 KECCAK256 PUSH1 0x0 SWAP2 POP SWAP1 POP SLOAD DUP2 JUMP JUMPDEST PUSH1 0x3 SLOAD DUP2 JUMP JUMPDEST PUSH1 0x0 PUSH1 0x8 PUSH1 0x0 CALLER PUSH20 0xFFFFFFFFFFFFFFFFFFFFFFFFFFFFFFFFFFFFFFFF AND PUSH20 0xFFFFFFFFFFFFFFFFFFFFFFFFFFFFFFFFFFFFFFFF AND DUP2 MSTORE PUSH1 0x20 ADD SWAP1 DUP2 MSTORE PUSH1 0x20 ADD PUSH1 0x0 KECCAK256 SLOAD GT PUSH2 0x1644 JUMPI PUSH1 0x40 MLOAD PUSH32 0x8C379A000000000000000000000000000000000000000000000000000000000 DUP2 MSTORE PUSH1 0x4 ADD PUSH2 0x163B SWAP1 PUSH2 0x2585 JUMP JUMPDEST PUSH1 0x40 MLOAD DUP1 SWAP2 SUB SWAP1 REVERT JUMPDEST PUSH1 0xA PUSH1 0x0 SWAP1 SLOAD SWAP1 PUSH2 0x100 EXP SWAP1 DIV PUSH1 0xFF AND ISZERO PUSH2 0x1694 JUMPI PUSH1 0x40 MLOAD PUSH32 0x8C379A000000000000000000000000000000000000000000000000000000000 DUP2 MSTORE PUSH1 0x4 ADD PUSH2 0x168B SWAP1 PUSH2 0x21F3 JUMP JUMPDEST PUSH1 0x40 MLOAD DUP1 SWAP2 SUB SWAP1 REVERT JUMPDEST PUSH1 0xA PUSH1 0x1 SWAP1 SLOAD SWAP1 PUSH2 0x100 EXP SWAP1 DIV PUSH1 0xFF AND ISZERO PUSH2 0x16E4 JUMPI PUSH1 0x40 MLOAD PUSH32 0x8C379A000000000000000000000000000000000000000000000000000000000 DUP2 MSTORE PUSH1 0x4 ADD PUSH2 0x16DB SWAP1 PUSH2 0x225F JUMP JUMPDEST PUSH1 0x40 MLOAD DUP1 SWAP2 SUB SWAP1 REVERT JUMPDEST PUSH1 0x0 PUSH1 0x6 DUP3 DUP2 SLOAD DUP2 LT PUSH2 0x16FA JUMPI PUSH2 0x16F9 PUSH2 0x227F JUMP JUMPDEST JUMPDEST SWAP1 PUSH1 0x0 MSTORE PUSH1 0x20 PUSH1 0x0 KECCAK256 SWAP1 PUSH1 0x4 MUL ADD SWAP1 POP DUP1 PUSH1 0x2 ADD PUSH1 0x14 SWAP1 SLOAD SWAP1 PUSH2 0x100 EXP SWAP1 DIV PUSH1 0xFF AND ISZERO PUSH2 0x175C JUMPI PUSH1 0x40 MLOAD PUSH32 0x8C379A000000000000000000000000000000000000000000000000000000000 DUP2 MSTORE PUSH1 0x4 ADD PUSH2 0x1753 SWAP1 PUSH2 0x22FA JUMP JUMPDEST PUSH1 0x40 MLOAD DUP1 SWAP2 SUB SWAP1 REVERT JUMPDEST PUSH1 0x9 PUSH1 0x0 CALLER PUSH20 0xFFFFFFFFFFFFFFFFFFFFFFFFFFFFFFFFFFFFFFFF AND PUSH20 0xFFFFFFFFFFFFFFFFFFFFFFFFFFFFFFFFFFFFFFFF AND DUP2 MSTORE PUSH1 0x20 ADD SWAP1 DUP2 MSTORE PUSH1 0x20 ADD PUSH1 0x0 KECCAK256 PUSH1 0x0 DUP4 DUP2 MSTORE PUSH1 0x20 ADD SWAP1 DUP2 MSTORE PUSH1 0x20 ADD PUSH1 0x0 KECCAK256 PUSH1 0x0 SWAP1 SLOAD SWAP1 PUSH2 0x100 EXP SWAP1 DIV PUSH1 0xFF AND ISZERO PUSH2 0x17FA JUMPI PUSH1 0x40 MLOAD PUSH32 0x8C379A000000000000000000000000000000000000000000000000000000000 DUP2 MSTORE PUSH1 0x4 ADD PUSH2 0x17F1 SWAP1 PUSH2 0x2BA6 JUMP JUMPDEST PUSH1 0x40 MLOAD DUP1 SWAP2 SUB SWAP1 REVERT JUMPDEST PUSH1 0x1 PUSH1 0x9 PUSH1 0x0 CALLER PUSH20 0xFFFFFFFFFFFFFFFFFFFFFFFFFFFFFFFFFFFFFFFF AND PUSH20 0xFFFFFFFFFFFFFFFFFFFFFFFFFFFFFFFFFFFFFFFF AND DUP2 MSTORE PUSH1 0x20 ADD SWAP1 DUP2 MSTORE PUSH1 0x20 ADD PUSH1 0x0 KECCAK256 PUSH1 0x0 DUP5 DUP2 MSTORE PUSH1 0x20 ADD SWAP1 DUP2 MSTORE PUSH1 0x20 ADD PUSH1 0x0 KECCAK256 PUSH1 0x0 PUSH2 0x100 EXP DUP2 SLOAD DUP2 PUSH1 0xFF MUL NOT AND SWAP1 DUP4 ISZERO ISZERO MUL OR SWAP1 SSTORE POP DUP1 PUSH1 0x3 ADD PUSH1 0x0 DUP2 SLOAD DUP1 SWAP3 SWAP2 SWAP1 PUSH2 0x1878 SWAP1 PUSH2 0x27DC JUMP JUMPDEST SWAP2 SWAP1 POP SSTORE POP POP POP JUMP JUMPDEST PUSH1 0x0 DUP1 SLOAD SWAP1 PUSH2 0x100 EXP SWAP1 DIV PUSH20 0xFFFFFFFFFFFFFFFFFFFFFFFFFFFFFFFFFFFFFFFF AND PUSH20 0xFFFFFFFFFFFFFFFFFFFFFFFFFFFFFFFFFFFFFFFF AND CALLER PUSH20 0xFFFFFFFFFFFFFFFFFFFFFFFFFFFFFFFFFFFFFFFF AND EQ PUSH2 0x190F JUMPI PUSH1 0x40 MLOAD PUSH32 0x8C379A000000000000000000000000000000000000000000000000000000000 DUP2 MSTORE PUSH1 0x4 ADD PUSH2 0x1906 SWAP1 PUSH2 0x2187 JUMP JUMPDEST PUSH1 0x40 MLOAD DUP1 SWAP2 SUB SWAP1 REVERT JUMPDEST PUSH1 0xA PUSH1 0x0 SWAP1 SLOAD SWAP1 PUSH2 0x100 EXP SWAP1 DIV PUSH1 0xFF AND ISZERO PUSH2 0x195F JUMPI PUSH1 0x40 MLOAD PUSH32 0x8C379A000000000000000000000000000000000000000000000000000000000 DUP2 MSTORE PUSH1 0x4 ADD PUSH2 0x1956 SWAP1 PUSH2 0x21F3 JUMP JUMPDEST PUSH1 0x40 MLOAD DUP1 SWAP2 SUB SWAP1 REVERT JUMPDEST PUSH1 0xA PUSH1 0x1 SWAP1 SLOAD SWAP1 PUSH2 0x100 EXP SWAP1 DIV PUSH1 0xFF AND ISZERO PUSH2 0x19AF JUMPI PUSH1 0x40 MLOAD PUSH32 0x8C379A000000000000000000000000000000000000000000000000000000000 DUP2 MSTORE PUSH1 0x4 ADD PUSH2 0x19A6 SWAP1 PUSH2 0x225F JUMP JUMPDEST PUSH1 0x40 MLOAD DUP1 SWAP2 SUB SWAP1 REVERT JUMPDEST PUSH1 0x1 SLOAD PUSH1 0x2 SLOAD LT PUSH2 0x19F5 JUMPI PUSH1 0x40 MLOAD PUSH32 0x8C379A000000000000000000000000000000000000000000000000000000000 DUP2 MSTORE PUSH1 0x4 ADD PUSH2 0x19EC SWAP1 PUSH2 0x2617 JUMP JUMPDEST PUSH1 0x40 MLOAD DUP1 SWAP2 SUB SWAP1 REVERT JUMPDEST PUSH1 0x1 PUSH1 0xA PUSH1 0x1 PUSH2 0x100 EXP DUP2 SLOAD DUP2 PUSH1 0xFF MUL NOT AND SWAP1 DUP4 ISZERO ISZERO MUL OR SWAP1 SSTORE POP JUMP JUMPDEST PUSH1 0x9 PUSH1 0x20 MSTORE DUP2 PUSH1 0x0 MSTORE PUSH1 0x40 PUSH1 0x0 KECCAK256 PUSH1 0x20 MSTORE DUP1 PUSH1 0x0 MSTORE PUSH1 0x40 PUSH1 0x0 KECCAK256 PUSH1 0x0 SWAP2 POP SWAP2 POP SWAP1 SLOAD SWAP1 PUSH2 0x100 EXP SWAP1 DIV PUSH1 0xFF AND DUP2 JUMP JUMPDEST PUSH1 0x0 PUSH1 0x40 MLOAD SWAP1 POP SWAP1 JUMP JUMPDEST PUSH1 0x0 DUP1 REVERT JUMPDEST PUSH1 0x0 DUP1 REVERT JUMPDEST PUSH1 0x0 DUP2 SWAP1 POP SWAP2 SWAP1 POP JUMP JUMPDEST PUSH2 0x1A68 DUP2 PUSH2 0x1A55 JUMP JUMPDEST DUP2 EQ PUSH2 0x1A73 JUMPI PUSH1 0x0 DUP1 REVERT JUMPDEST POP JUMP JUMPDEST PUSH1 0x0 DUP2 CALLDATALOAD SWAP1 POP PUSH2 0x1A85 DUP2 PUSH2 0x1A5F JUMP JUMPDEST SWAP3 SWAP2 POP POP JUMP JUMPDEST PUSH1 0x0 PUSH1 0x20 DUP3 DUP5 SUB SLT ISZERO PUSH2 0x1AA1 JUMPI PUSH2 0x1AA0 PUSH2 0x1A4B JUMP JUMPDEST JUMPDEST PUSH1 0x0 PUSH2 0x1AAF DUP5 DUP3 DUP6 ADD PUSH2 0x1A76 JUMP JUMPDEST SWAP2 POP POP SWAP3 SWAP2 POP POP JUMP JUMPDEST PUSH2 0x1AC1 DUP2 PUSH2 0x1A55 JUMP JUMPDEST DUP3 MSTORE POP POP JUMP JUMPDEST PUSH1 0x0 PUSH1 0x20 DUP3 ADD SWAP1 POP PUSH2 0x1ADC PUSH1 0x0 DUP4 ADD DUP5 PUSH2 0x1AB8 JUMP JUMPDEST SWAP3 SWAP2 POP POP JUMP JUMPDEST PUSH1 0x0 DUP2 ISZERO ISZERO SWAP1 POP SWAP2 SWAP1 POP JUMP JUMPDEST PUSH2 0x1AF7 DUP2 PUSH2 0x1AE2 JUMP JUMPDEST DUP3 MSTORE POP POP JUMP JUMPDEST PUSH1 0x0 PUSH1 0x20 DUP3 ADD SWAP1 POP PUSH2 0x1B12 PUSH1 0x0 DUP4 ADD DUP5 PUSH2 0x1AEE JUMP JUMPDEST SWAP3 SWAP2 POP POP JUMP JUMPDEST PUSH1 0x0 PUSH20 0xFFFFFFFFFFFFFFFFFFFFFFFFFFFFFFFFFFFFFFFF DUP3 AND SWAP1 POP SWAP2 SWAP1 POP JUMP JUMPDEST PUSH1 0x0 PUSH2 0x1B43 DUP3 PUSH2 0x1B18 JUMP JUMPDEST SWAP1 POP SWAP2 SWAP1 POP JUMP JUMPDEST PUSH2 0x1B53 DUP2 PUSH2 0x1B38 JUMP JUMPDEST DUP3 MSTORE POP POP JUMP JUMPDEST PUSH1 0x0 PUSH1 0xA0 DUP3 ADD SWAP1 POP PUSH2 0x1B6E PUSH1 0x0 DUP4 ADD DUP9 PUSH2 0x1AB8 JUMP JUMPDEST PUSH2 0x1B7B PUSH1 0x20 DUP4 ADD DUP8 PUSH2 0x1AB8 JUMP JUMPDEST PUSH2 0x1B88 PUSH1 0x40 DUP4 ADD DUP7 PUSH2 0x1AB8 JUMP JUMPDEST PUSH2 0x1B95 PUSH1 0x60 DUP4 ADD DUP6 PUSH2 0x1AB8 JUMP JUMPDEST PUSH2 0x1BA2 PUSH1 0x80 DUP4 ADD DUP5 PUSH2 0x1B4A JUMP JUMPDEST SWAP7 SWAP6 POP POP POP POP POP POP JUMP JUMPDEST PUSH1 0x0 PUSH1 0x20 DUP3 ADD SWAP1 POP PUSH2 0x1BC1 PUSH1 0x0 DUP4 ADD DUP5 PUSH2 0x1B4A JUMP JUMPDEST SWAP3 SWAP2 POP POP JUMP JUMPDEST PUSH1 0x0 DUP2 MLOAD SWAP1 POP SWAP2 SWAP1 POP JUMP JUMPDEST PUSH1 0x0 DUP3 DUP3 MSTORE PUSH1 0x20 DUP3 ADD SWAP1 POP SWAP3 SWAP2 POP POP JUMP JUMPDEST PUSH1 0x0 JUMPDEST DUP4 DUP2 LT ISZERO PUSH2 0x1C01 JUMPI DUP1 DUP3 ADD MLOAD DUP2 DUP5 ADD MSTORE PUSH1 0x20 DUP2 ADD SWAP1 POP PUSH2 0x1BE6 JUMP JUMPDEST DUP4 DUP2 GT ISZERO PUSH2 0x1C10 JUMPI PUSH1 0x0 DUP5 DUP5 ADD MSTORE JUMPDEST POP POP POP POP JUMP JUMPDEST PUSH1 0x0 PUSH1 0x1F NOT PUSH1 0x1F DUP4 ADD AND SWAP1 POP SWAP2 SWAP1 POP JUMP JUMPDEST PUSH1 0x0 PUSH2 0x1C32 DUP3 PUSH2 0x1BC7 JUMP JUMPDEST PUSH2 0x1C3C DUP2 DUP6 PUSH2 0x1BD2 JUMP JUMPDEST SWAP4 POP PUSH2 0x1C4C DUP2 DUP6 PUSH1 0x20 DUP7 ADD PUSH2 0x1BE3 JUMP JUMPDEST PUSH2 0x1C55 DUP2 PUSH2 0x1C16 JUMP JUMPDEST DUP5 ADD SWAP2 POP POP SWAP3 SWAP2 POP POP JUMP JUMPDEST PUSH1 0x0 PUSH2 0x1C6B DUP3 PUSH2 0x1B18 JUMP JUMPDEST SWAP1 POP SWAP2 SWAP1 POP JUMP JUMPDEST PUSH2 0x1C7B DUP2 PUSH2 0x1C60 JUMP JUMPDEST DUP3 MSTORE POP POP JUMP JUMPDEST PUSH1 0x0 PUSH1 0xA0 DUP3 ADD SWAP1 POP DUP2 DUP2 SUB PUSH1 0x0 DUP4 ADD MSTORE PUSH2 0x1C9B DUP2 DUP9 PUSH2 0x1C27 JUMP JUMPDEST SWAP1 POP PUSH2 0x1CAA PUSH1 0x20 DUP4 ADD DUP8 PUSH2 0x1AB8 JUMP JUMPDEST PUSH2 0x1CB7 PUSH1 0x40 DUP4 ADD DUP7 PUSH2 0x1C72 JUMP JUMPDEST PUSH2 0x1CC4 PUSH1 0x60 DUP4 ADD DUP6 PUSH2 0x1AEE JUMP JUMPDEST PUSH2 0x1CD1 PUSH1 0x80 DUP4 ADD DUP5 PUSH2 0x1AB8 JUMP JUMPDEST SWAP7 SWAP6 POP POP POP POP POP POP JUMP JUMPDEST PUSH1 0x0 DUP2 MLOAD SWAP1 POP SWAP2 SWAP1 POP JUMP JUMPDEST PUSH1 0x0 DUP3 DUP3 MSTORE PUSH1 0x20 DUP3 ADD SWAP1 POP SWAP3 SWAP2 POP POP JUMP JUMPDEST PUSH1 0x0 DUP2 SWAP1 POP PUSH1 0x20 DUP3 ADD SWAP1 POP SWAP2 SWAP1 POP JUMP JUMPDEST PUSH1 0x0 DUP3 DUP3 MSTORE PUSH1 0x20 DUP3 ADD SWAP1 POP SWAP3 SWAP2 POP POP JUMP JUMPDEST PUSH1 0x0 PUSH2 0x1D23 DUP3 PUSH2 0x1BC7 JUMP JUMPDEST PUSH2 0x1D2D DUP2 DUP6 PUSH2 0x1D07 JUMP JUMPDEST SWAP4 POP PUSH2 0x1D3D DUP2 DUP6 PUSH1 0x20 DUP7 ADD PUSH2 0x1BE3 JUMP JUMPDEST PUSH2 0x1D46 DUP2 PUSH2 0x1C16 JUMP JUMPDEST DUP5 ADD SWAP2 POP POP SWAP3 SWAP2 POP POP JUMP JUMPDEST PUSH2 0x1D5A DUP2 PUSH2 0x1A55 JUMP JUMPDEST DUP3 MSTORE POP POP JUMP JUMPDEST PUSH2 0x1D69 DUP2 PUSH2 0x1C60 JUMP JUMPDEST DUP3 MSTORE POP POP JUMP JUMPDEST PUSH2 0x1D78 DUP2 PUSH2 0x1AE2 JUMP JUMPDEST DUP3 MSTORE POP POP JUMP JUMPDEST PUSH1 0x0 PUSH1 0xA0 DUP4 ADD PUSH1 0x0 DUP4 ADD MLOAD DUP5 DUP3 SUB PUSH1 0x0 DUP7 ADD MSTORE PUSH2 0x1D9B DUP3 DUP3 PUSH2 0x1D18 JUMP JUMPDEST SWAP2 POP POP PUSH1 0x20 DUP4 ADD MLOAD PUSH2 0x1DB0 PUSH1 0x20 DUP7 ADD DUP3 PUSH2 0x1D51 JUMP JUMPDEST POP PUSH1 0x40 DUP4 ADD MLOAD PUSH2 0x1DC3 PUSH1 0x40 DUP7 ADD DUP3 PUSH2 0x1D60 JUMP JUMPDEST POP PUSH1 0x60 DUP4 ADD MLOAD PUSH2 0x1DD6 PUSH1 0x60 DUP7 ADD DUP3 PUSH2 0x1D6F JUMP JUMPDEST POP PUSH1 0x80 DUP4 ADD MLOAD PUSH2 0x1DE9 PUSH1 0x80 DUP7 ADD DUP3 PUSH2 0x1D51 JUMP JUMPDEST POP DUP1 SWAP2 POP POP SWAP3 SWAP2 POP POP JUMP JUMPDEST PUSH1 0x0 PUSH2 0x1E00 DUP4 DUP4 PUSH2 0x1D7E JUMP JUMPDEST SWAP1 POP SWAP3 SWAP2 POP POP JUMP JUMPDEST PUSH1 0x0 PUSH1 0x20 DUP3 ADD SWAP1 POP SWAP2 SWAP1 POP JUMP JUMPDEST PUSH1 0x0 PUSH2 0x1E20 DUP3 PUSH2 0x1CDB JUMP JUMPDEST PUSH2 0x1E2A DUP2 DUP6 PUSH2 0x1CE6 JUMP JUMPDEST SWAP4 POP DUP4 PUSH1 0x20 DUP3 MUL DUP6 ADD PUSH2 0x1E3C DUP6 PUSH2 0x1CF7 JUMP JUMPDEST DUP1 PUSH1 0x0 JUMPDEST DUP6 DUP2 LT ISZERO PUSH2 0x1E78 JUMPI DUP5 DUP5 SUB DUP10 MSTORE DUP2 MLOAD PUSH2 0x1E59 DUP6 DUP3 PUSH2 0x1DF4 JUMP JUMPDEST SWAP5 POP PUSH2 0x1E64 DUP4 PUSH2 0x1E08 JUMP JUMPDEST SWAP3 POP PUSH1 0x20 DUP11 ADD SWAP10 POP POP PUSH1 0x1 DUP2 ADD SWAP1 POP PUSH2 0x1E40 JUMP JUMPDEST POP DUP3 SWAP8 POP DUP8 SWAP6 POP POP POP POP POP POP SWAP3 SWAP2 POP POP JUMP JUMPDEST PUSH1 0x0 PUSH1 0x20 DUP3 ADD SWAP1 POP DUP2 DUP2 SUB PUSH1 0x0 DUP4 ADD MSTORE PUSH2 0x1EA4 DUP2 DUP5 PUSH2 0x1E15 JUMP JUMPDEST SWAP1 POP SWAP3 SWAP2 POP POP JUMP JUMPDEST PUSH1 0x0 DUP1 REVERT JUMPDEST PUSH1 0x0 DUP1 REVERT JUMPDEST PUSH32 0x4E487B7100000000000000000000000000000000000000000000000000000000 PUSH1 0x0 MSTORE PUSH1 0x41 PUSH1 0x4 MSTORE PUSH1 0x24 PUSH1 0x0 REVERT JUMPDEST PUSH2 0x1EEE DUP3 PUSH2 0x1C16 JUMP JUMPDEST DUP2 ADD DUP2 DUP2 LT PUSH8 0xFFFFFFFFFFFFFFFF DUP3 GT OR ISZERO PUSH2 0x1F0D JUMPI PUSH2 0x1F0C PUSH2 0x1EB6 JUMP JUMPDEST JUMPDEST DUP1 PUSH1 0x40 MSTORE POP POP POP JUMP JUMPDEST PUSH1 0x0 PUSH2 0x1F20 PUSH2 0x1A41 JUMP JUMPDEST SWAP1 POP PUSH2 0x1F2C DUP3 DUP3 PUSH2 0x1EE5 JUMP JUMPDEST SWAP2 SWAP1 POP JUMP JUMPDEST PUSH1 0x0 PUSH8 0xFFFFFFFFFFFFFFFF DUP3 GT ISZERO PUSH2 0x1F4C JUMPI PUSH2 0x1F4B PUSH2 0x1EB6 JUMP JUMPDEST JUMPDEST PUSH2 0x1F55 DUP3 PUSH2 0x1C16 JUMP JUMPDEST SWAP1 POP PUSH1 0x20 DUP2 ADD SWAP1 POP SWAP2 SWAP1 POP JUMP JUMPDEST DUP3 DUP2 DUP4 CALLDATACOPY PUSH1 0x0 DUP4 DUP4 ADD MSTORE POP POP POP JUMP JUMPDEST PUSH1 0x0 PUSH2 0x1F84 PUSH2 0x1F7F DUP5 PUSH2 0x1F31 JUMP JUMPDEST PUSH2 0x1F16 JUMP JUMPDEST SWAP1 POP DUP3 DUP2 MSTORE PUSH1 0x20 DUP2 ADD DUP5 DUP5 DUP5 ADD GT ISZERO PUSH2 0x1FA0 JUMPI PUSH2 0x1F9F PUSH2 0x1EB1 JUMP JUMPDEST JUMPDEST PUSH2 0x1FAB DUP5 DUP3 DUP6 PUSH2 0x1F62 JUMP JUMPDEST POP SWAP4 SWAP3 POP POP POP JUMP JUMPDEST PUSH1 0x0 DUP3 PUSH1 0x1F DUP4 ADD SLT PUSH2 0x1FC8 JUMPI PUSH2 0x1FC7 PUSH2 0x1EAC JUMP JUMPDEST JUMPDEST DUP2 CALLDATALOAD PUSH2 0x1FD8 DUP5 DUP3 PUSH1 0x20 DUP7 ADD PUSH2 0x1F71 JUMP JUMPDEST SWAP2 POP POP SWAP3 SWAP2 POP POP JUMP JUMPDEST PUSH2 0x1FEA DUP2 PUSH2 0x1C60 JUMP JUMPDEST DUP2 EQ PUSH2 0x1FF5 JUMPI PUSH1 0x0 DUP1 REVERT JUMPDEST POP JUMP JUMPDEST PUSH1 0x0 DUP2 CALLDATALOAD SWAP1 POP PUSH2 0x2007 DUP2 PUSH2 0x1FE1 JUMP JUMPDEST SWAP3 SWAP2 POP POP JUMP JUMPDEST PUSH1 0x0 DUP1 PUSH1 0x0 PUSH1 0x60 DUP5 DUP7 SUB SLT ISZERO PUSH2 0x2026 JUMPI PUSH2 0x2025 PUSH2 0x1A4B JUMP JUMPDEST JUMPDEST PUSH1 0x0 DUP5 ADD CALLDATALOAD PUSH8 0xFFFFFFFFFFFFFFFF DUP2 GT ISZERO PUSH2 0x2044 JUMPI PUSH2 0x2043 PUSH2 0x1A50 JUMP JUMPDEST JUMPDEST PUSH2 0x2050 DUP7 DUP3 DUP8 ADD PUSH2 0x1FB3 JUMP JUMPDEST SWAP4 POP POP PUSH1 0x20 PUSH2 0x2061 DUP7 DUP3 DUP8 ADD PUSH2 0x1A76 JUMP JUMPDEST SWAP3 POP POP PUSH1 0x40 PUSH2 0x2072 DUP7 DUP3 DUP8 ADD PUSH2 0x1FF8 JUMP JUMPDEST SWAP2 POP POP SWAP3 POP SWAP3 POP SWAP3 JUMP JUMPDEST PUSH2 0x2085 DUP2 PUSH2 0x1B38 JUMP JUMPDEST DUP2 EQ PUSH2 0x2090 JUMPI PUSH1 0x0 DUP1 REVERT JUMPDEST POP JUMP JUMPDEST PUSH1 0x0 DUP2 CALLDATALOAD SWAP1 POP PUSH2 0x20A2 DUP2 PUSH2 0x207C JUMP JUMPDEST SWAP3 SWAP2 POP POP JUMP JUMPDEST PUSH1 0x0 PUSH1 0x20 DUP3 DUP5 SUB SLT ISZERO PUSH2 0x20BE JUMPI PUSH2 0x20BD PUSH2 0x1A4B JUMP JUMPDEST JUMPDEST PUSH1 0x0 PUSH2 0x20CC DUP5 DUP3 DUP6 ADD PUSH2 0x2093 JUMP JUMPDEST SWAP2 POP POP SWAP3 SWAP2 POP POP JUMP JUMPDEST PUSH1 0x0 DUP1 PUSH1 0x40 DUP4 DUP6 SUB SLT ISZERO PUSH2 0x20EC JUMPI PUSH2 0x20EB PUSH2 0x1A4B JUMP JUMPDEST JUMPDEST PUSH1 0x0 PUSH2 0x20FA DUP6 DUP3 DUP7 ADD PUSH2 0x2093 JUMP JUMPDEST SWAP3 POP POP PUSH1 0x20 PUSH2 0x210B DUP6 DUP3 DUP7 ADD PUSH2 0x1A76 JUMP JUMPDEST SWAP2 POP POP SWAP3 POP SWAP3 SWAP1 POP JUMP JUMPDEST PUSH32 0x5065726D697373696F6E2064656E6965643A20596F7520646F206E6F74206F77 PUSH1 0x0 DUP3 ADD MSTORE PUSH32 0x6E20746869732063616D706169676E0000000000000000000000000000000000 PUSH1 0x20 DUP3 ADD MSTORE POP JUMP JUMPDEST PUSH1 0x0 PUSH2 0x2171 PUSH1 0x2F DUP4 PUSH2 0x1BD2 JUMP JUMPDEST SWAP2 POP PUSH2 0x217C DUP3 PUSH2 0x2115 JUMP JUMPDEST PUSH1 0x40 DUP3 ADD SWAP1 POP SWAP2 SWAP1 POP JUMP JUMPDEST PUSH1 0x0 PUSH1 0x20 DUP3 ADD SWAP1 POP DUP2 DUP2 SUB PUSH1 0x0 DUP4 ADD MSTORE PUSH2 0x21A0 DUP2 PUSH2 0x2164 JUMP JUMPDEST SWAP1 POP SWAP2 SWAP1 POP JUMP JUMPDEST PUSH32 0x43616D706169676E206861732066696E69736865640000000000000000000000 PUSH1 0x0 DUP3 ADD MSTORE POP JUMP JUMPDEST PUSH1 0x0 PUSH2 0x21DD PUSH1 0x15 DUP4 PUSH2 0x1BD2 JUMP JUMPDEST SWAP2 POP PUSH2 0x21E8 DUP3 PUSH2 0x21A7 JUMP JUMPDEST PUSH1 0x20 DUP3 ADD SWAP1 POP SWAP2 SWAP1 POP JUMP JUMPDEST PUSH1 0x0 PUSH1 0x20 DUP3 ADD SWAP1 POP DUP2 DUP2 SUB PUSH1 0x0 DUP4 ADD MSTORE PUSH2 0x220C DUP2 PUSH2 0x21D0 JUMP JUMPDEST SWAP1 POP SWAP2 SWAP1 POP JUMP JUMPDEST PUSH32 0x43616D706169676E206861732063616E63656C65640000000000000000000000 PUSH1 0x0 DUP3 ADD MSTORE POP JUMP JUMPDEST PUSH1 0x0 PUSH2 0x2249 PUSH1 0x15 DUP4 PUSH2 0x1BD2 JUMP JUMPDEST SWAP2 POP PUSH2 0x2254 DUP3 PUSH2 0x2213 JUMP JUMPDEST PUSH1 0x20 DUP3 ADD SWAP1 POP SWAP2 SWAP1 POP JUMP JUMPDEST PUSH1 0x0 PUSH1 0x20 DUP3 ADD SWAP1 POP DUP2 DUP2 SUB PUSH1 0x0 DUP4 ADD MSTORE PUSH2 0x2278 DUP2 PUSH2 0x223C JUMP JUMPDEST SWAP1 POP SWAP2 SWAP1 POP JUMP JUMPDEST PUSH32 0x4E487B7100000000000000000000000000000000000000000000000000000000 PUSH1 0x0 MSTORE PUSH1 0x32 PUSH1 0x4 MSTORE PUSH1 0x24 PUSH1 0x0 REVERT JUMPDEST PUSH32 0x5265717565737420686173206265656E20636F6D706C65746564000000000000 PUSH1 0x0 DUP3 ADD MSTORE POP JUMP JUMPDEST PUSH1 0x0 PUSH2 0x22E4 PUSH1 0x1A DUP4 PUSH2 0x1BD2 JUMP JUMPDEST SWAP2 POP PUSH2 0x22EF DUP3 PUSH2 0x22AE JUMP JUMPDEST PUSH1 0x20 DUP3 ADD SWAP1 POP SWAP2 SWAP1 POP JUMP JUMPDEST PUSH1 0x0 PUSH1 0x20 DUP3 ADD SWAP1 POP DUP2 DUP2 SUB PUSH1 0x0 DUP4 ADD MSTORE PUSH2 0x2313 DUP2 PUSH2 0x22D7 JUMP JUMPDEST SWAP1 POP SWAP2 SWAP1 POP JUMP JUMPDEST PUSH32 0x4E487B7100000000000000000000000000000000000000000000000000000000 PUSH1 0x0 MSTORE PUSH1 0x12 PUSH1 0x4 MSTORE PUSH1 0x24 PUSH1 0x0 REVERT JUMPDEST PUSH32 0x4E487B7100000000000000000000000000000000000000000000000000000000 PUSH1 0x0 MSTORE PUSH1 0x11 PUSH1 0x4 MSTORE PUSH1 0x24 PUSH1 0x0 REVERT JUMPDEST PUSH1 0x0 PUSH2 0x2383 DUP3 PUSH2 0x1A55 JUMP JUMPDEST SWAP2 POP PUSH2 0x238E DUP4 PUSH2 0x1A55 JUMP JUMPDEST SWAP3 POP DUP3 PUSH2 0x239E JUMPI PUSH2 0x239D PUSH2 0x231A JUMP JUMPDEST JUMPDEST DUP3 DUP3 DIV SWAP1 POP SWAP3 SWAP2 POP POP JUMP JUMPDEST PUSH32 0x5265717565737420646F6573206E6F74206861766520656E6F75676820617070 PUSH1 0x0 DUP3 ADD MSTORE PUSH32 0x726F76616C730000000000000000000000000000000000000000000000000000 PUSH1 0x20 DUP3 ADD MSTORE POP JUMP JUMPDEST PUSH1 0x0 PUSH2 0x2405 PUSH1 0x26 DUP4 PUSH2 0x1BD2 JUMP JUMPDEST SWAP2 POP PUSH2 0x2410 DUP3 PUSH2 0x23A9 JUMP JUMPDEST PUSH1 0x40 DUP3 ADD SWAP1 POP SWAP2 SWAP1 POP JUMP JUMPDEST PUSH1 0x0 PUSH1 0x20 DUP3 ADD SWAP1 POP DUP2 DUP2 SUB PUSH1 0x0 DUP4 ADD MSTORE PUSH2 0x2434 DUP2 PUSH2 0x23F8 JUMP JUMPDEST SWAP1 POP SWAP2 SWAP1 POP JUMP JUMPDEST PUSH32 0x43616D706169676E206861732073756363656564656400000000000000000000 PUSH1 0x0 DUP3 ADD MSTORE POP JUMP JUMPDEST PUSH1 0x0 PUSH2 0x2471 PUSH1 0x16 DUP4 PUSH2 0x1BD2 JUMP JUMPDEST SWAP2 POP PUSH2 0x247C DUP3 PUSH2 0x243B JUMP JUMPDEST PUSH1 0x20 DUP3 ADD SWAP1 POP SWAP2 SWAP1 POP JUMP JUMPDEST PUSH1 0x0 PUSH1 0x20 DUP3 ADD SWAP1 POP DUP2 DUP2 SUB PUSH1 0x0 DUP4 ADD MSTORE PUSH2 0x24A0 DUP2 PUSH2 0x2464 JUMP JUMPDEST SWAP1 POP SWAP2 SWAP1 POP JUMP JUMPDEST PUSH32 0x43616D706169676E2068617320616C726561647920656E646564000000000000 PUSH1 0x0 DUP3 ADD MSTORE POP JUMP JUMPDEST PUSH1 0x0 PUSH2 0x24DD PUSH1 0x1A DUP4 PUSH2 0x1BD2 JUMP JUMPDEST SWAP2 POP PUSH2 0x24E8 DUP3 PUSH2 0x24A7 JUMP JUMPDEST PUSH1 0x20 DUP3 ADD SWAP1 POP SWAP2 SWAP1 POP JUMP JUMPDEST PUSH1 0x0 PUSH1 0x20 DUP3 ADD SWAP1 POP DUP2 DUP2 SUB PUSH1 0x0 DUP4 ADD MSTORE PUSH2 0x250C DUP2 PUSH2 0x24D0 JUMP JUMPDEST SWAP1 POP SWAP2 SWAP1 POP JUMP JUMPDEST PUSH32 0x596F7520617265206E6F7420696E2074686520636F6E7472696275746F727320 PUSH1 0x0 DUP3 ADD MSTORE PUSH32 0x6C69737400000000000000000000000000000000000000000000000000000000 PUSH1 0x20 DUP3 ADD MSTORE POP JUMP JUMPDEST PUSH1 0x0 PUSH2 0x256F PUSH1 0x24 DUP4 PUSH2 0x1BD2 JUMP JUMPDEST SWAP2 POP PUSH2 0x257A DUP3 PUSH2 0x2513 JUMP JUMPDEST PUSH1 0x40 DUP3 ADD SWAP1 POP SWAP2 SWAP1 POP JUMP JUMPDEST PUSH1 0x0 PUSH1 0x20 DUP3 ADD SWAP1 POP DUP2 DUP2 SUB PUSH1 0x0 DUP4 ADD MSTORE PUSH2 0x259E DUP2 PUSH2 0x2562 JUMP JUMPDEST SWAP1 POP SWAP2 SWAP1 POP JUMP JUMPDEST PUSH32 0x596F752063616E6E6F742077697468647261772C2043616D706169676E206861 PUSH1 0x0 DUP3 ADD MSTORE PUSH32 0x73206E6F74207375636365656465640000000000000000000000000000000000 PUSH1 0x20 DUP3 ADD MSTORE POP JUMP JUMPDEST PUSH1 0x0 PUSH2 0x2601 PUSH1 0x2F DUP4 PUSH2 0x1BD2 JUMP JUMPDEST SWAP2 POP PUSH2 0x260C DUP3 PUSH2 0x25A5 JUMP JUMPDEST PUSH1 0x40 DUP3 ADD SWAP1 POP SWAP2 SWAP1 POP JUMP JUMPDEST PUSH1 0x0 PUSH1 0x20 DUP3 ADD SWAP1 POP DUP2 DUP2 SUB PUSH1 0x0 DUP4 ADD MSTORE PUSH2 0x2630 DUP2 PUSH2 0x25F4 JUMP JUMPDEST SWAP1 POP SWAP2 SWAP1 POP JUMP JUMPDEST PUSH1 0x0 PUSH2 0x2642 DUP3 PUSH2 0x1A55 JUMP JUMPDEST SWAP2 POP PUSH1 0x0 DUP3 SUB PUSH2 0x2655 JUMPI PUSH2 0x2654 PUSH2 0x2349 JUMP JUMPDEST JUMPDEST PUSH1 0x1 DUP3 SUB SWAP1 POP SWAP2 SWAP1 POP JUMP JUMPDEST PUSH1 0x0 PUSH2 0x266B DUP3 PUSH2 0x1A55 JUMP JUMPDEST SWAP2 POP PUSH2 0x2676 DUP4 PUSH2 0x1A55 JUMP JUMPDEST SWAP3 POP DUP3 DUP3 LT ISZERO PUSH2 0x2689 JUMPI PUSH2 0x2688 PUSH2 0x2349 JUMP JUMPDEST JUMPDEST DUP3 DUP3 SUB SWAP1 POP SWAP3 SWAP2 POP POP JUMP JUMPDEST PUSH32 0x4E487B7100000000000000000000000000000000000000000000000000000000 PUSH1 0x0 MSTORE PUSH1 0x22 PUSH1 0x4 MSTORE PUSH1 0x24 PUSH1 0x0 REVERT JUMPDEST PUSH1 0x0 PUSH1 0x2 DUP3 DIV SWAP1 POP PUSH1 0x1 DUP3 AND DUP1 PUSH2 0x26DB JUMPI PUSH1 0x7F DUP3 AND SWAP2 POP JUMPDEST PUSH1 0x20 DUP3 LT DUP2 SUB PUSH2 0x26EE JUMPI PUSH2 0x26ED PUSH2 0x2694 JUMP JUMPDEST JUMPDEST POP SWAP2 SWAP1 POP JUMP JUMPDEST PUSH32 0x56616C7565206973206C657373207468616E206D696E696D756D20636F6E7472 PUSH1 0x0 DUP3 ADD MSTORE PUSH32 0x69627574696F6E00000000000000000000000000000000000000000000000000 PUSH1 0x20 DUP3 ADD MSTORE POP JUMP JUMPDEST PUSH1 0x0 PUSH2 0x2750 PUSH1 0x27 DUP4 PUSH2 0x1BD2 JUMP JUMPDEST SWAP2 POP PUSH2 0x275B DUP3 PUSH2 0x26F4 JUMP JUMPDEST PUSH1 0x40 DUP3 ADD SWAP1 POP SWAP2 SWAP1 POP JUMP JUMPDEST PUSH1 0x0 PUSH1 0x20 DUP3 ADD SWAP1 POP DUP2 DUP2 SUB PUSH1 0x0 DUP4 ADD MSTORE PUSH2 0x277F DUP2 PUSH2 0x2743 JUMP JUMPDEST SWAP1 POP SWAP2 SWAP1 POP JUMP JUMPDEST PUSH1 0x0 PUSH2 0x2791 DUP3 PUSH2 0x1A55 JUMP JUMPDEST SWAP2 POP PUSH2 0x279C DUP4 PUSH2 0x1A55 JUMP JUMPDEST SWAP3 POP DUP3 PUSH32 0xFFFFFFFFFFFFFFFFFFFFFFFFFFFFFFFFFFFFFFFFFFFFFFFFFFFFFFFFFFFFFFFF SUB DUP3 GT ISZERO PUSH2 0x27D1 JUMPI PUSH2 0x27D0 PUSH2 0x2349 JUMP JUMPDEST JUMPDEST DUP3 DUP3 ADD SWAP1 POP SWAP3 SWAP2 POP POP JUMP JUMPDEST PUSH1 0x0 PUSH2 0x27E7 DUP3 PUSH2 0x1A55 JUMP JUMPDEST SWAP2 POP PUSH32 0xFFFFFFFFFFFFFFFFFFFFFFFFFFFFFFFFFFFFFFFFFFFFFFFFFFFFFFFFFFFFFFFF DUP3 SUB PUSH2 0x2819 JUMPI PUSH2 0x2818 PUSH2 0x2349 JUMP JUMPDEST JUMPDEST PUSH1 0x1 DUP3 ADD SWAP1 POP SWAP2 SWAP1 POP JUMP JUMPDEST PUSH1 0x0 DUP2 SWAP1 POP DUP2 PUSH1 0x0 MSTORE PUSH1 0x20 PUSH1 0x0 KECCAK256 SWAP1 POP SWAP2 SWAP1 POP JUMP JUMPDEST PUSH1 0x0 PUSH1 0x20 PUSH1 0x1F DUP4 ADD DIV SWAP1 POP SWAP2 SWAP1 POP JUMP JUMPDEST PUSH1 0x0 DUP3 DUP3 SHL SWAP1 POP SWAP3 SWAP2 POP POP JUMP JUMPDEST PUSH1 0x0 PUSH1 0x8 DUP4 MUL PUSH2 0x2886 PUSH32 0xFFFFFFFFFFFFFFFFFFFFFFFFFFFFFFFFFFFFFFFFFFFFFFFFFFFFFFFFFFFFFFFF DUP3 PUSH2 0x2849 JUMP JUMPDEST PUSH2 0x2890 DUP7 DUP4 PUSH2 0x2849 JUMP JUMPDEST SWAP6 POP DUP1 NOT DUP5 AND SWAP4 POP DUP1 DUP7 AND DUP5 OR SWAP3 POP POP POP SWAP4 SWAP3 POP POP POP JUMP JUMPDEST PUSH1 0x0 DUP2 SWAP1 POP SWAP2 SWAP1 POP JUMP JUMPDEST PUSH1 0x0 PUSH2 0x28CD PUSH2 0x28C8 PUSH2 0x28C3 DUP5 PUSH2 0x1A55 JUMP JUMPDEST PUSH2 0x28A8 JUMP JUMPDEST PUSH2 0x1A55 JUMP JUMPDEST SWAP1 POP SWAP2 SWAP1 POP JUMP JUMPDEST PUSH1 0x0 DUP2 SWAP1 POP SWAP2 SWAP1 POP JUMP JUMPDEST PUSH2 0x28E7 DUP4 PUSH2 0x28B2 JUMP JUMPDEST PUSH2 0x28FB PUSH2 0x28F3 DUP3 PUSH2 0x28D4 JUMP JUMPDEST DUP5 DUP5 SLOAD PUSH2 0x2856 JUMP JUMPDEST DUP3 SSTORE POP POP POP POP JUMP JUMPDEST PUSH1 0x0 SWAP1 JUMP JUMPDEST PUSH2 0x2910 PUSH2 0x2903 JUMP JUMPDEST PUSH2 0x291B DUP2 DUP5 DUP5 PUSH2 0x28DE JUMP JUMPDEST POP POP POP JUMP JUMPDEST JUMPDEST DUP2 DUP2 LT ISZERO PUSH2 0x293F JUMPI PUSH2 0x2934 PUSH1 0x0 DUP3 PUSH2 0x2908 JUMP JUMPDEST PUSH1 0x1 DUP2 ADD SWAP1 POP PUSH2 0x2921 JUMP JUMPDEST POP POP JUMP JUMPDEST PUSH1 0x1F DUP3 GT ISZERO PUSH2 0x2984 JUMPI PUSH2 0x2955 DUP2 PUSH2 0x2824 JUMP JUMPDEST PUSH2 0x295E DUP5 PUSH2 0x2839 JUMP JUMPDEST DUP2 ADD PUSH1 0x20 DUP6 LT ISZERO PUSH2 0x296D JUMPI DUP2 SWAP1 POP JUMPDEST PUSH2 0x2981 PUSH2 0x2979 DUP6 PUSH2 0x2839 JUMP JUMPDEST DUP4 ADD DUP3 PUSH2 0x2920 JUMP JUMPDEST POP POP JUMPDEST POP POP POP JUMP JUMPDEST PUSH1 0x0 DUP3 DUP3 SHR SWAP1 POP SWAP3 SWAP2 POP POP JUMP JUMPDEST PUSH1 0x0 PUSH2 0x29A7 PUSH1 0x0 NOT DUP5 PUSH1 0x8 MUL PUSH2 0x2989 JUMP JUMPDEST NOT DUP1 DUP4 AND SWAP2 POP POP SWAP3 SWAP2 POP POP JUMP JUMPDEST PUSH1 0x0 PUSH2 0x29C0 DUP4 DUP4 PUSH2 0x2996 JUMP JUMPDEST SWAP2 POP DUP3 PUSH1 0x2 MUL DUP3 OR SWAP1 POP SWAP3 SWAP2 POP POP JUMP JUMPDEST PUSH2 0x29D9 DUP3 PUSH2 0x1BC7 JUMP JUMPDEST PUSH8 0xFFFFFFFFFFFFFFFF DUP2 GT ISZERO PUSH2 0x29F2 JUMPI PUSH2 0x29F1 PUSH2 0x1EB6 JUMP JUMPDEST JUMPDEST PUSH2 0x29FC DUP3 SLOAD PUSH2 0x26C3 JUMP JUMPDEST PUSH2 0x2A07 DUP3 DUP3 DUP6 PUSH2 0x2943 JUMP JUMPDEST PUSH1 0x0 PUSH1 0x20 SWAP1 POP PUSH1 0x1F DUP4 GT PUSH1 0x1 DUP2 EQ PUSH2 0x2A3A JUMPI PUSH1 0x0 DUP5 ISZERO PUSH2 0x2A28 JUMPI DUP3 DUP8 ADD MLOAD SWAP1 POP JUMPDEST PUSH2 0x2A32 DUP6 DUP3 PUSH2 0x29B4 JUMP JUMPDEST DUP7 SSTORE POP PUSH2 0x2A9A JUMP JUMPDEST PUSH1 0x1F NOT DUP5 AND PUSH2 0x2A48 DUP7 PUSH2 0x2824 JUMP JUMPDEST PUSH1 0x0 JUMPDEST DUP3 DUP2 LT ISZERO PUSH2 0x2A70 JUMPI DUP5 DUP10 ADD MLOAD DUP3 SSTORE PUSH1 0x1 DUP3 ADD SWAP2 POP PUSH1 0x20 DUP6 ADD SWAP5 POP PUSH1 0x20 DUP2 ADD SWAP1 POP PUSH2 0x2A4B JUMP JUMPDEST DUP7 DUP4 LT ISZERO PUSH2 0x2A8D JUMPI DUP5 DUP10 ADD MLOAD PUSH2 0x2A89 PUSH1 0x1F DUP10 AND DUP3 PUSH2 0x2996 JUMP JUMPDEST DUP4 SSTORE POP JUMPDEST PUSH1 0x1 PUSH1 0x2 DUP9 MUL ADD DUP9 SSTORE POP POP POP JUMPDEST POP POP POP POP POP POP JUMP JUMPDEST PUSH32 0x596F7520646F206E6F74206861766520656E6F7567682062616C616E63652070 PUSH1 0x0 DUP3 ADD MSTORE PUSH32 0x6C656467656420746F2077697468647261770000000000000000000000000000 PUSH1 0x20 DUP3 ADD MSTORE POP JUMP JUMPDEST PUSH1 0x0 PUSH2 0x2AFE PUSH1 0x32 DUP4 PUSH2 0x1BD2 JUMP JUMPDEST SWAP2 POP PUSH2 0x2B09 DUP3 PUSH2 0x2AA2 JUMP JUMPDEST PUSH1 0x40 DUP3 ADD SWAP1 POP SWAP2 SWAP1 POP JUMP JUMPDEST PUSH1 0x0 PUSH1 0x20 DUP3 ADD SWAP1 POP DUP2 DUP2 SUB PUSH1 0x0 DUP4 ADD MSTORE PUSH2 0x2B2D DUP2 PUSH2 0x2AF1 JUMP JUMPDEST SWAP1 POP SWAP2 SWAP1 POP JUMP JUMPDEST PUSH32 0x596F75206861766520616C726561647920617070726F76656420746865207265 PUSH1 0x0 DUP3 ADD MSTORE PUSH32 0x7175657374000000000000000000000000000000000000000000000000000000 PUSH1 0x20 DUP3 ADD MSTORE POP JUMP JUMPDEST PUSH1 0x0 PUSH2 0x2B90 PUSH1 0x25 DUP4 PUSH2 0x1BD2 JUMP JUMPDEST SWAP2 POP PUSH2 0x2B9B DUP3 PUSH2 0x2B34 JUMP JUMPDEST PUSH1 0x40 DUP3 ADD SWAP1 POP SWAP2 SWAP1 POP JUMP JUMPDEST PUSH1 0x0 PUSH1 0x20 DUP3 ADD SWAP1 POP DUP2 DUP2 SUB PUSH1 0x0 DUP4 ADD MSTORE PUSH2 0x2BBF DUP2 PUSH2 0x2B83 JUMP JUMPDEST SWAP1 POP SWAP2 SWAP1 POP JUMP INVALID LOG2 PUSH5 0x6970667358 0x22 SLT KECCAK256 PUSH10 0x35B5E652D48414735C7F PUSH21 0x68410AA8CC68ACBC49CEC750B377873B5BD26CB64 PUSH20 0x6F6C634300080F0033A26469706673582212200B 0xE0 0xE0 SLOAD EXTCODESIZE PUSH4 0xC2D9B122 PUSH15 0x86EF8B8530AD5C646D101BA9ADF5C6 JUMPI 0xEA PUSH2 0x4834 0xE2 PUSH5 0x736F6C6343 STOP ADDMOD 0xF STOP CALLER "},"gasEstimates":{"creation":{"codeDepositCost":"2691200","executionCost":"2923","totalCost":"2694123"},"external":{"createCampaign(uint256,uint256,uint256)":"infinite","deployedCampaigns(uint256)":"infinite","getDeployedCampaign()":"infinite"}},"methodIdentifiers":{"createCampaign(uint256,uint256,uint256)":"f69d3158","deployedCampaigns(uint256)":"339d50a5","getDeployedCampaign()":"5eac0007"}},"storageLayout":{"storage":[{"astId":5,"contract":"Campaign.sol:CampaignFactory","label":"deployedCampaigns","offset":0,"slot":"0","type":"t_array(t_contract(Campaign)589)dyn_storage"}],"types":{"t_array(t_contract(Campaign)589)dyn_storage":{"base":"t_contract(Campaign)589","encoding":"dynamic_array","label":"contract Campaign[]","numberOfBytes":"32"},"t_contract(Campaign)589":{"encoding":"inplace","label":"contract Campaign","numberOfBytes":"20"}}},"userdoc":{"kind":"user","methods":{},"version":1}}