{"abi":[{"inputs":[{"internalType":"uint256","name":"_goal","type":"uint256"},{"internalType":"uint256","name":"_end","type":"uint256"},{"internalType":"uint256","name":"_minimum","type":"uint256"},{"internalType":"address","name":"_owner","type":"address"}],"stateMutability":"nonpayable","type":"constructor"},{"inputs":[{"internalType":"address","name":"","type":"address"},{"internalType":"uint256","name":"","type":"uint256"}],"name":"approvals","outputs":[{"internalType":"bool","name":"","type":"bool"}],"stateMutability":"view","type":"function"},{"inputs":[{"internalType":"uint256","name":"_id","type":"uint256"}],"name":"approveRequest","outputs":[],"stateMutability":"nonpayable","type":"function"},{"inputs":[],"name":"cancel","outputs":[],"stateMutability":"nonpayable","type":"function"},{"inputs":[],"name":"canceled","outputs":[{"internalType":"bool","name":"","type":"bool"}],"stateMutability":"view","type":"function"},{"inputs":[],"name":"countPledges","outputs":[{"internalType":"uint256","name":"","type":"uint256"}],"stateMutability":"view","type":"function"},{"inputs":[{"internalType":"string","name":"_description","type":"string"},{"internalType":"uint256","name":"_amount","type":"uint256"},{"internalType":"address payable","name":"_recipient","type":"address"}],"name":"createRequest","outputs":[],"stateMutability":"nonpayable","type":"function"},{"inputs":[],"name":"endAt","outputs":[{"internalType":"uint256","name":"","type":"uint256"}],"stateMutability":"view","type":"function"},{"inputs":[{"internalType":"uint256","name":"_id","type":"uint256"}],"name":"finalizeRequest","outputs":[],"stateMutability":"payable","type":"function"},{"inputs":[],"name":"getBalance","outputs":[{"internalType":"uint256","name":"","type":"uint256"}],"stateMutability":"view","type":"function"},{"inputs":[],"name":"getContributionAmount","outputs":[{"internalType":"uint256","name":"","type":"uint256"}],"stateMutability":"view","type":"function"},{"inputs":[{"internalType":"uint256","name":"requestId","type":"uint256"}],"name":"getRequestApproval","outputs":[{"internalType":"bool","name":"","type":"bool"}],"stateMutability":"view","type":"function"},{"inputs":[],"name":"getRequests","outputs":[{"components":[{"internalType":"string","name":"description","type":"string"},{"internalType":"uint256","name":"amount","type":"uint256"},{"internalType":"address payable","name":"recipient","type":"address"},{"internalType":"bool","name":"completed","type":"bool"},{"internalType":"uint256","name":"countApprovals","type":"uint256"}],"internalType":"struct Campaign.Request[]","name":"","type":"tuple[]"}],"stateMutability":"view","type":"function"},{"inputs":[],"name":"getRequestsCount","outputs":[{"internalType":"uint256","name":"","type":"uint256"}],"stateMutability":"view","type":"function"},{"inputs":[],"name":"getSummary","outputs":[{"internalType":"uint256","name":"","type":"uint256"},{"internalType":"uint256","name":"","type":"uint256"},{"internalType":"uint256","name":"","type":"uint256"},{"internalType":"uint256","name":"","type":"uint256"},{"internalType":"address","name":"","type":"address"}],"stateMutability":"view","type":"function"},{"inputs":[],"name":"goal","outputs":[{"internalType":"uint256","name":"","type":"uint256"}],"stateMutability":"view","type":"function"},{"inputs":[],"name":"isOwner","outputs":[{"internalType":"bool","name":"","type":"bool"}],"stateMutability":"view","type":"function"},{"inputs":[],"name":"manager","outputs":[{"internalType":"address","name":"","type":"address"}],"stateMutability":"view","type":"function"},{"inputs":[],"name":"minPledge","outputs":[{"internalType":"uint256","name":"","type":"uint256"}],"stateMutability":"view","type":"function"},{"inputs":[],"name":"pledge","outputs":[],"stateMutability":"payable","type":"function"},{"inputs":[{"internalType":"address","name":"","type":"address"}],"name":"pledgeOf","outputs":[{"internalType":"uint256","name":"","type":"uint256"}],"stateMutability":"view","type":"function"},{"inputs":[],"name":"pledged","outputs":[{"internalType":"uint256","name":"","type":"uint256"}],"stateMutability":"view","type":"function"},{"inputs":[],"name":"refund","outputs":[],"stateMutability":"payable","type":"function"},{"inputs":[{"internalType":"uint256","name":"","type":"uint256"}],"name":"requests","outputs":[{"internalType":"string","name":"description","type":"string"},{"internalType":"uint256","name":"amount","type":"uint256"},{"internalType":"address payable","name":"recipient","type":"address"},{"internalType":"bool","name":"completed","type":"bool"},{"internalType":"uint256","name":"countApprovals","type":"uint256"}],"stateMutability":"view","type":"function"},{"inputs":[],"name":"startAt","outputs":[{"internalType":"uint256","name":"","type":"uint256"}],"stateMutability":"view","type":"function"}],"devdoc":{"kind":"dev","methods":{},"version":1},"evm":{"assembly":"    /* \"Campaign.sol\":560:5887  contract Campaign {... */\n  mstore(0x40, 0x80)\n    /* \"Campaign.sol\":2243:2599  constructor(... */\n  callvalue\n  dup1\n  iszero\n  tag_1\n  jumpi\n  0x00\n  dup1\n  revert\ntag_1:\n  pop\n  mload(0x40)\n  sub(codesize, bytecodeSize)\n  dup1\n  bytecodeSize\n  dup4\n  codecopy\n  dup2\n  dup2\n  add\n  0x40\n  mstore\n  dup2\n  add\n  swap1\n  tag_2\n  swap2\n  swap1\n  tag_3\n  jump\t// in\ntag_2:\n    /* \"Campaign.sol\":2381:2396  block.timestamp */\n  timestamp\n    /* \"Campaign.sol\":2374:2378  _end */\n  dup4\n    /* \"Campaign.sol\":2374:2396  _end > block.timestamp */\n  gt\n    /* \"Campaign.sol\":2366:2435  require(_end > block.timestamp, \"End time is less than current time\") */\n  tag_6\n  jumpi\n  mload(0x40)\n  0x08c379a000000000000000000000000000000000000000000000000000000000\n  dup2\n  mstore\n  0x04\n  add\n  tag_7\n  swap1\n  tag_8\n  jump\t// in\ntag_7:\n  mload(0x40)\n  dup1\n  swap2\n  sub\n  swap1\n  revert\ntag_6:\n    /* \"Campaign.sol\":2456:2462  _owner */\n  dup1\n    /* \"Campaign.sol\":2446:2453  manager */\n  0x00\n  dup1\n    /* \"Campaign.sol\":2446:2462  manager = _owner */\n  0x0100\n  exp\n  dup2\n  sload\n  dup2\n  0xffffffffffffffffffffffffffffffffffffffff\n  mul\n  not\n  and\n  swap1\n  dup4\n  0xffffffffffffffffffffffffffffffffffffffff\n  and\n  mul\n  or\n  swap1\n  sstore\n  pop\n    /* \"Campaign.sol\":2479:2484  _goal */\n  dup4\n    /* \"Campaign.sol\":2472:2476  goal */\n  0x01\n    /* \"Campaign.sol\":2472:2484  goal = _goal */\n  dup2\n  swap1\n  sstore\n  pop\n    /* \"Campaign.sol\":2504:2505  0 */\n  0x00\n    /* \"Campaign.sol\":2494:2501  pledged */\n  0x02\n    /* \"Campaign.sol\":2494:2505  pledged = 0 */\n  dup2\n  swap1\n  sstore\n  pop\n    /* \"Campaign.sol\":2525:2540  block.timestamp */\n  timestamp\n    /* \"Campaign.sol\":2515:2522  startAt */\n  0x03\n    /* \"Campaign.sol\":2515:2540  startAt = block.timestamp */\n  dup2\n  swap1\n  sstore\n  pop\n    /* \"Campaign.sol\":2558:2562  _end */\n  dup3\n    /* \"Campaign.sol\":2550:2555  endAt */\n  0x04\n    /* \"Campaign.sol\":2550:2562  endAt = _end */\n  dup2\n  swap1\n  sstore\n  pop\n    /* \"Campaign.sol\":2584:2592  _minimum */\n  dup2\n    /* \"Campaign.sol\":2572:2581  minPledge */\n  0x05\n    /* \"Campaign.sol\":2572:2592  minPledge = _minimum */\n  dup2\n  swap1\n  sstore\n  pop\n    /* \"Campaign.sol\":2243:2599  constructor(... */\n  pop\n  pop\n  pop\n  pop\n    /* \"Campaign.sol\":560:5887  contract Campaign {... */\n  jump(tag_9)\n    /* \"#utility.yul\":88:205   */\ntag_11:\n    /* \"#utility.yul\":197:198   */\n  0x00\n    /* \"#utility.yul\":194:195   */\n  dup1\n    /* \"#utility.yul\":187:199   */\n  revert\n    /* \"#utility.yul\":334:411   */\ntag_13:\n    /* \"#utility.yul\":371:378   */\n  0x00\n    /* \"#utility.yul\":400:405   */\n  dup2\n    /* \"#utility.yul\":389:405   */\n  swap1\n  pop\n    /* \"#utility.yul\":334:411   */\n  swap2\n  swap1\n  pop\n  jump\t// out\n    /* \"#utility.yul\":417:539   */\ntag_14:\n    /* \"#utility.yul\":490:514   */\n  tag_29\n    /* \"#utility.yul\":508:513   */\n  dup2\n    /* \"#utility.yul\":490:514   */\n  tag_13\n  jump\t// in\ntag_29:\n    /* \"#utility.yul\":483:488   */\n  dup2\n    /* \"#utility.yul\":480:515   */\n  eq\n    /* \"#utility.yul\":470:533   */\n  tag_30\n  jumpi\n    /* \"#utility.yul\":529:530   */\n  0x00\n    /* \"#utility.yul\":526:527   */\n  dup1\n    /* \"#utility.yul\":519:531   */\n  revert\n    /* \"#utility.yul\":470:533   */\ntag_30:\n    /* \"#utility.yul\":417:539   */\n  pop\n  jump\t// out\n    /* \"#utility.yul\":545:688   */\ntag_15:\n    /* \"#utility.yul\":602:607   */\n  0x00\n    /* \"#utility.yul\":633:639   */\n  dup2\n    /* \"#utility.yul\":627:640   */\n  mload\n    /* \"#utility.yul\":618:640   */\n  swap1\n  pop\n    /* \"#utility.yul\":649:682   */\n  tag_32\n    /* \"#utility.yul\":676:681   */\n  dup2\n    /* \"#utility.yul\":649:682   */\n  tag_14\n  jump\t// in\ntag_32:\n    /* \"#utility.yul\":545:688   */\n  swap3\n  swap2\n  pop\n  pop\n  jump\t// out\n    /* \"#utility.yul\":694:820   */\ntag_16:\n    /* \"#utility.yul\":731:738   */\n  0x00\n    /* \"#utility.yul\":771:813   */\n  0xffffffffffffffffffffffffffffffffffffffff\n    /* \"#utility.yul\":764:769   */\n  dup3\n    /* \"#utility.yul\":760:814   */\n  and\n    /* \"#utility.yul\":749:814   */\n  swap1\n  pop\n    /* \"#utility.yul\":694:820   */\n  swap2\n  swap1\n  pop\n  jump\t// out\n    /* \"#utility.yul\":826:922   */\ntag_17:\n    /* \"#utility.yul\":863:870   */\n  0x00\n    /* \"#utility.yul\":892:916   */\n  tag_35\n    /* \"#utility.yul\":910:915   */\n  dup3\n    /* \"#utility.yul\":892:916   */\n  tag_16\n  jump\t// in\ntag_35:\n    /* \"#utility.yul\":881:916   */\n  swap1\n  pop\n    /* \"#utility.yul\":826:922   */\n  swap2\n  swap1\n  pop\n  jump\t// out\n    /* \"#utility.yul\":928:1050   */\ntag_18:\n    /* \"#utility.yul\":1001:1025   */\n  tag_37\n    /* \"#utility.yul\":1019:1024   */\n  dup2\n    /* \"#utility.yul\":1001:1025   */\n  tag_17\n  jump\t// in\ntag_37:\n    /* \"#utility.yul\":994:999   */\n  dup2\n    /* \"#utility.yul\":991:1026   */\n  eq\n    /* \"#utility.yul\":981:1044   */\n  tag_38\n  jumpi\n    /* \"#utility.yul\":1040:1041   */\n  0x00\n    /* \"#utility.yul\":1037:1038   */\n  dup1\n    /* \"#utility.yul\":1030:1042   */\n  revert\n    /* \"#utility.yul\":981:1044   */\ntag_38:\n    /* \"#utility.yul\":928:1050   */\n  pop\n  jump\t// out\n    /* \"#utility.yul\":1056:1199   */\ntag_19:\n    /* \"#utility.yul\":1113:1118   */\n  0x00\n    /* \"#utility.yul\":1144:1150   */\n  dup2\n    /* \"#utility.yul\":1138:1151   */\n  mload\n    /* \"#utility.yul\":1129:1151   */\n  swap1\n  pop\n    /* \"#utility.yul\":1160:1193   */\n  tag_40\n    /* \"#utility.yul\":1187:1192   */\n  dup2\n    /* \"#utility.yul\":1160:1193   */\n  tag_18\n  jump\t// in\ntag_40:\n    /* \"#utility.yul\":1056:1199   */\n  swap3\n  swap2\n  pop\n  pop\n  jump\t// out\n    /* \"#utility.yul\":1205:2025   */\ntag_3:\n    /* \"#utility.yul\":1302:1308   */\n  0x00\n    /* \"#utility.yul\":1310:1316   */\n  dup1\n    /* \"#utility.yul\":1318:1324   */\n  0x00\n    /* \"#utility.yul\":1326:1332   */\n  dup1\n    /* \"#utility.yul\":1375:1378   */\n  0x80\n    /* \"#utility.yul\":1363:1372   */\n  dup6\n    /* \"#utility.yul\":1354:1361   */\n  dup8\n    /* \"#utility.yul\":1350:1373   */\n  sub\n    /* \"#utility.yul\":1346:1379   */\n  slt\n    /* \"#utility.yul\":1343:1463   */\n  iszero\n  tag_42\n  jumpi\n    /* \"#utility.yul\":1382:1461   */\n  tag_43\n  tag_11\n  jump\t// in\ntag_43:\n    /* \"#utility.yul\":1343:1463   */\ntag_42:\n    /* \"#utility.yul\":1502:1503   */\n  0x00\n    /* \"#utility.yul\":1527:1591   */\n  tag_44\n    /* \"#utility.yul\":1583:1590   */\n  dup8\n    /* \"#utility.yul\":1574:1580   */\n  dup3\n    /* \"#utility.yul\":1563:1572   */\n  dup9\n    /* \"#utility.yul\":1559:1581   */\n  add\n    /* \"#utility.yul\":1527:1591   */\n  tag_15\n  jump\t// in\ntag_44:\n    /* \"#utility.yul\":1517:1591   */\n  swap5\n  pop\n    /* \"#utility.yul\":1473:1601   */\n  pop\n    /* \"#utility.yul\":1640:1642   */\n  0x20\n    /* \"#utility.yul\":1666:1730   */\n  tag_45\n    /* \"#utility.yul\":1722:1729   */\n  dup8\n    /* \"#utility.yul\":1713:1719   */\n  dup3\n    /* \"#utility.yul\":1702:1711   */\n  dup9\n    /* \"#utility.yul\":1698:1720   */\n  add\n    /* \"#utility.yul\":1666:1730   */\n  tag_15\n  jump\t// in\ntag_45:\n    /* \"#utility.yul\":1656:1730   */\n  swap4\n  pop\n    /* \"#utility.yul\":1611:1740   */\n  pop\n    /* \"#utility.yul\":1779:1781   */\n  0x40\n    /* \"#utility.yul\":1805:1869   */\n  tag_46\n    /* \"#utility.yul\":1861:1868   */\n  dup8\n    /* \"#utility.yul\":1852:1858   */\n  dup3\n    /* \"#utility.yul\":1841:1850   */\n  dup9\n    /* \"#utility.yul\":1837:1859   */\n  add\n    /* \"#utility.yul\":1805:1869   */\n  tag_15\n  jump\t// in\ntag_46:\n    /* \"#utility.yul\":1795:1869   */\n  swap3\n  pop\n    /* \"#utility.yul\":1750:1879   */\n  pop\n    /* \"#utility.yul\":1918:1920   */\n  0x60\n    /* \"#utility.yul\":1944:2008   */\n  tag_47\n    /* \"#utility.yul\":2000:2007   */\n  dup8\n    /* \"#utility.yul\":1991:1997   */\n  dup3\n    /* \"#utility.yul\":1980:1989   */\n  dup9\n    /* \"#utility.yul\":1976:1998   */\n  add\n    /* \"#utility.yul\":1944:2008   */\n  tag_19\n  jump\t// in\ntag_47:\n    /* \"#utility.yul\":1934:2008   */\n  swap2\n  pop\n    /* \"#utility.yul\":1889:2018   */\n  pop\n    /* \"#utility.yul\":1205:2025   */\n  swap3\n  swap6\n  swap2\n  swap5\n  pop\n  swap3\n  pop\n  jump\t// out\n    /* \"#utility.yul\":2031:2200   */\ntag_20:\n    /* \"#utility.yul\":2115:2126   */\n  0x00\n    /* \"#utility.yul\":2149:2155   */\n  dup3\n    /* \"#utility.yul\":2144:2147   */\n  dup3\n    /* \"#utility.yul\":2137:2156   */\n  mstore\n    /* \"#utility.yul\":2189:2193   */\n  0x20\n    /* \"#utility.yul\":2184:2187   */\n  dup3\n    /* \"#utility.yul\":2180:2194   */\n  add\n    /* \"#utility.yul\":2165:2194   */\n  swap1\n  pop\n    /* \"#utility.yul\":2031:2200   */\n  swap3\n  swap2\n  pop\n  pop\n  jump\t// out\n    /* \"#utility.yul\":2206:2427   */\ntag_21:\n    /* \"#utility.yul\":2346:2380   */\n  0x456e642074696d65206973206c657373207468616e2063757272656e74207469\n    /* \"#utility.yul\":2342:2343   */\n  0x00\n    /* \"#utility.yul\":2334:2340   */\n  dup3\n    /* \"#utility.yul\":2330:2344   */\n  add\n    /* \"#utility.yul\":2323:2381   */\n  mstore\n    /* \"#utility.yul\":2415:2419   */\n  0x6d65000000000000000000000000000000000000000000000000000000000000\n    /* \"#utility.yul\":2410:2412   */\n  0x20\n    /* \"#utility.yul\":2402:2408   */\n  dup3\n    /* \"#utility.yul\":2398:2413   */\n  add\n    /* \"#utility.yul\":2391:2420   */\n  mstore\n    /* \"#utility.yul\":2206:2427   */\n  pop\n  jump\t// out\n    /* \"#utility.yul\":2433:2799   */\ntag_22:\n    /* \"#utility.yul\":2575:2578   */\n  0x00\n    /* \"#utility.yul\":2596:2663   */\n  tag_51\n    /* \"#utility.yul\":2660:2662   */\n  0x22\n    /* \"#utility.yul\":2655:2658   */\n  dup4\n    /* \"#utility.yul\":2596:2663   */\n  tag_20\n  jump\t// in\ntag_51:\n    /* \"#utility.yul\":2589:2663   */\n  swap2\n  pop\n    /* \"#utility.yul\":2672:2765   */\n  tag_52\n    /* \"#utility.yul\":2761:2764   */\n  dup3\n    /* \"#utility.yul\":2672:2765   */\n  tag_21\n  jump\t// in\ntag_52:\n    /* \"#utility.yul\":2790:2792   */\n  0x40\n    /* \"#utility.yul\":2785:2788   */\n  dup3\n    /* \"#utility.yul\":2781:2793   */\n  add\n    /* \"#utility.yul\":2774:2793   */\n  swap1\n  pop\n    /* \"#utility.yul\":2433:2799   */\n  swap2\n  swap1\n  pop\n  jump\t// out\n    /* \"#utility.yul\":2805:3224   */\ntag_8:\n    /* \"#utility.yul\":2971:2975   */\n  0x00\n    /* \"#utility.yul\":3009:3011   */\n  0x20\n    /* \"#utility.yul\":2998:3007   */\n  dup3\n    /* \"#utility.yul\":2994:3012   */\n  add\n    /* \"#utility.yul\":2986:3012   */\n  swap1\n  pop\n    /* \"#utility.yul\":3058:3067   */\n  dup2\n    /* \"#utility.yul\":3052:3056   */\n  dup2\n    /* \"#utility.yul\":3048:3068   */\n  sub\n    /* \"#utility.yul\":3044:3045   */\n  0x00\n    /* \"#utility.yul\":3033:3042   */\n  dup4\n    /* \"#utility.yul\":3029:3046   */\n  add\n    /* \"#utility.yul\":3022:3069   */\n  mstore\n    /* \"#utility.yul\":3086:3217   */\n  tag_54\n    /* \"#utility.yul\":3212:3216   */\n  dup2\n    /* \"#utility.yul\":3086:3217   */\n  tag_22\n  jump\t// in\ntag_54:\n    /* \"#utility.yul\":3078:3217   */\n  swap1\n  pop\n    /* \"#utility.yul\":2805:3224   */\n  swap2\n  swap1\n  pop\n  jump\t// out\n    /* \"Campaign.sol\":560:5887  contract Campaign {... */\ntag_9:\n  dataSize(sub_0)\n  dup1\n  dataOffset(sub_0)\n  0x00\n  codecopy\n  0x00\n  return\nstop\n\nsub_0: assembly {\n        /* \"Campaign.sol\":560:5887  contract Campaign {... */\n      mstore(0x40, 0x80)\n      jumpi(tag_1, lt(calldatasize, 0x04))\n      shr(0xe0, calldataload(0x00))\n      dup1\n      0x88ffe867\n      gt\n      tag_26\n      jumpi\n      dup1\n      0xbbb48445\n      gt\n      tag_27\n      jumpi\n      dup1\n      0xbbb48445\n      eq\n      tag_20\n      jumpi\n      dup1\n      0xc5055f2f\n      eq\n      tag_21\n      jumpi\n      dup1\n      0xc7446565\n      eq\n      tag_22\n      jumpi\n      dup1\n      0xd7d1bbdb\n      eq\n      tag_23\n      jumpi\n      dup1\n      0xea8a1af0\n      eq\n      tag_24\n      jumpi\n      dup1\n      0xffabc673\n      eq\n      tag_25\n      jumpi\n      jump(tag_1)\n    tag_27:\n      dup1\n      0x88ffe867\n      eq\n      tag_14\n      jumpi\n      dup1\n      0x8a9cfd55\n      eq\n      tag_15\n      jumpi\n      dup1\n      0x8f32d59b\n      eq\n      tag_16\n      jumpi\n      dup1\n      0x9b4b1786\n      eq\n      tag_17\n      jumpi\n      dup1\n      0xaeafca2e\n      eq\n      tag_18\n      jumpi\n      dup1\n      0xba2cb6c5\n      eq\n      tag_19\n      jumpi\n      jump(tag_1)\n    tag_26:\n      dup1\n      0x481c6a75\n      gt\n      tag_28\n      jumpi\n      dup1\n      0x481c6a75\n      eq\n      tag_8\n      jumpi\n      dup1\n      0x590e1ae3\n      eq\n      tag_9\n      jumpi\n      dup1\n      0x7723421d\n      eq\n      tag_10\n      jumpi\n      dup1\n      0x7cc3ae8c\n      eq\n      tag_11\n      jumpi\n      dup1\n      0x81d12c58\n      eq\n      tag_12\n      jumpi\n      dup1\n      0x8813ce12\n      eq\n      tag_13\n      jumpi\n      jump(tag_1)\n    tag_28:\n      dup1\n      0x03441006\n      eq\n      tag_2\n      jumpi\n      dup1\n      0x12065fe0\n      eq\n      tag_3\n      jumpi\n      dup1\n      0x3410452a\n      eq\n      tag_4\n      jumpi\n      dup1\n      0x3f9942ff\n      eq\n      tag_5\n      jumpi\n      dup1\n      0x40193883\n      eq\n      tag_6\n      jumpi\n      dup1\n      0x4051ddac\n      eq\n      tag_7\n      jumpi\n    tag_1:\n      0x00\n      dup1\n      revert\n        /* \"Campaign.sol\":4180:4650  function finalizeRequest(uint256 _id)... */\n    tag_2:\n      tag_29\n      0x04\n      dup1\n      calldatasize\n      sub\n      dup2\n      add\n      swap1\n      tag_30\n      swap2\n      swap1\n      tag_31\n      jump\t// in\n    tag_30:\n      tag_32\n      jump\t// in\n    tag_29:\n      stop\n        /* \"Campaign.sol\":5095:5194  function getBalance() external view returns (uint256) {... */\n    tag_3:\n      callvalue\n      dup1\n      iszero\n      tag_33\n      jumpi\n      0x00\n      dup1\n      revert\n    tag_33:\n      pop\n      tag_34\n      tag_35\n      jump\t// in\n    tag_34:\n      mload(0x40)\n      tag_36\n      swap2\n      swap1\n      tag_37\n      jump\t// in\n    tag_36:\n      mload(0x40)\n      dup1\n      swap2\n      sub\n      swap1\n      return\n        /* \"Campaign.sol\":5358:5457  function getRequestsCount() external view returns (uint256) {... */\n    tag_4:\n      callvalue\n      dup1\n      iszero\n      tag_38\n      jumpi\n      0x00\n      dup1\n      revert\n    tag_38:\n      pop\n      tag_39\n      tag_40\n      jump\t// in\n    tag_39:\n      mload(0x40)\n      tag_41\n      swap2\n      swap1\n      tag_37\n      jump\t// in\n    tag_41:\n      mload(0x40)\n      dup1\n      swap2\n      sub\n      swap1\n      return\n        /* \"Campaign.sol\":1378:1398  bool public canceled */\n    tag_5:\n      callvalue\n      dup1\n      iszero\n      tag_42\n      jumpi\n      0x00\n      dup1\n      revert\n    tag_42:\n      pop\n      tag_43\n      tag_44\n      jump\t// in\n    tag_43:\n      mload(0x40)\n      tag_45\n      swap2\n      swap1\n      tag_46\n      jump\t// in\n    tag_45:\n      mload(0x40)\n      dup1\n      swap2\n      sub\n      swap1\n      return\n        /* \"Campaign.sol\":884:903  uint256 public goal */\n    tag_6:\n      callvalue\n      dup1\n      iszero\n      tag_47\n      jumpi\n      0x00\n      dup1\n      revert\n    tag_47:\n      pop\n      tag_48\n      tag_49\n      jump\t// in\n    tag_48:\n      mload(0x40)\n      tag_50\n      swap2\n      swap1\n      tag_37\n      jump\t// in\n    tag_50:\n      mload(0x40)\n      dup1\n      swap2\n      sub\n      swap1\n      return\n        /* \"Campaign.sol\":4656:5089  function getSummary()... */\n    tag_7:\n      callvalue\n      dup1\n      iszero\n      tag_51\n      jumpi\n      0x00\n      dup1\n      revert\n    tag_51:\n      pop\n      tag_52\n      tag_53\n      jump\t// in\n    tag_52:\n      mload(0x40)\n      tag_54\n      swap6\n      swap5\n      swap4\n      swap3\n      swap2\n      swap1\n      tag_55\n      jump\t// in\n    tag_54:\n      mload(0x40)\n      dup1\n      swap2\n      sub\n      swap1\n      return\n        /* \"Campaign.sol\":847:869  address public manager */\n    tag_8:\n      callvalue\n      dup1\n      iszero\n      tag_56\n      jumpi\n      0x00\n      dup1\n      revert\n    tag_56:\n      pop\n      tag_57\n      tag_58\n      jump\t// in\n    tag_57:\n      mload(0x40)\n      tag_59\n      swap2\n      swap1\n      tag_60\n      jump\t// in\n    tag_59:\n      mload(0x40)\n      dup1\n      swap2\n      sub\n      swap1\n      return\n        /* \"Campaign.sol\":3058:3341  function refund() external payable beforeed contributed notsucceeded {... */\n    tag_9:\n      tag_61\n      tag_62\n      jump\t// in\n    tag_61:\n      stop\n        /* \"Campaign.sol\":5565:5792  function getRequestApproval(uint256 requestId)... */\n    tag_10:\n      callvalue\n      dup1\n      iszero\n      tag_63\n      jumpi\n      0x00\n      dup1\n      revert\n    tag_63:\n      pop\n      tag_64\n      0x04\n      dup1\n      calldatasize\n      sub\n      dup2\n      add\n      swap1\n      tag_65\n      swap2\n      swap1\n      tag_31\n      jump\t// in\n    tag_65:\n      tag_66\n      jump\t// in\n    tag_64:\n      mload(0x40)\n      tag_67\n      swap2\n      swap1\n      tag_46\n      jump\t// in\n    tag_67:\n      mload(0x40)\n      dup1\n      swap2\n      sub\n      swap1\n      return\n        /* \"Campaign.sol\":1014:1034  uint256 public endAt */\n    tag_11:\n      callvalue\n      dup1\n      iszero\n      tag_68\n      jumpi\n      0x00\n      dup1\n      revert\n    tag_68:\n      pop\n      tag_69\n      tag_70\n      jump\t// in\n    tag_69:\n      mload(0x40)\n      tag_71\n      swap2\n      swap1\n      tag_37\n      jump\t// in\n    tag_71:\n      mload(0x40)\n      dup1\n      swap2\n      sub\n      swap1\n      return\n        /* \"Campaign.sol\":1116:1141  Request[] public requests */\n    tag_12:\n      callvalue\n      dup1\n      iszero\n      tag_72\n      jumpi\n      0x00\n      dup1\n      revert\n    tag_72:\n      pop\n      tag_73\n      0x04\n      dup1\n      calldatasize\n      sub\n      dup2\n      add\n      swap1\n      tag_74\n      swap2\n      swap1\n      tag_31\n      jump\t// in\n    tag_74:\n      tag_75\n      jump\t// in\n    tag_73:\n      mload(0x40)\n      tag_76\n      swap6\n      swap5\n      swap4\n      swap3\n      swap2\n      swap1\n      tag_77\n      jump\t// in\n    tag_76:\n      mload(0x40)\n      dup1\n      swap2\n      sub\n      swap1\n      return\n        /* \"Campaign.sol\":5463:5559  function getRequests() external view returns (Request[] memory) {... */\n    tag_13:\n      callvalue\n      dup1\n      iszero\n      tag_78\n      jumpi\n      0x00\n      dup1\n      revert\n    tag_78:\n      pop\n      tag_79\n      tag_80\n      jump\t// in\n    tag_79:\n      mload(0x40)\n      tag_81\n      swap2\n      swap1\n      tag_82\n      jump\t// in\n    tag_81:\n      mload(0x40)\n      dup1\n      swap2\n      sub\n      swap1\n      return\n        /* \"Campaign.sol\":2704:3052  function pledge() external payable beforeed activated {... */\n    tag_14:\n      tag_83\n      tag_84\n      jump\t// in\n    tag_83:\n      stop\n        /* \"Campaign.sol\":3347:3777  function createRequest(... */\n    tag_15:\n      callvalue\n      dup1\n      iszero\n      tag_85\n      jumpi\n      0x00\n      dup1\n      revert\n    tag_85:\n      pop\n      tag_86\n      0x04\n      dup1\n      calldatasize\n      sub\n      dup2\n      add\n      swap1\n      tag_87\n      swap2\n      swap1\n      tag_88\n      jump\t// in\n    tag_87:\n      tag_89\n      jump\t// in\n    tag_86:\n      stop\n        /* \"Campaign.sol\":5798:5885  function isOwner() external restricted view returns (bool) {... */\n    tag_16:\n      callvalue\n      dup1\n      iszero\n      tag_90\n      jumpi\n      0x00\n      dup1\n      revert\n    tag_90:\n      pop\n      tag_91\n      tag_92\n      jump\t// in\n    tag_91:\n      mload(0x40)\n      tag_93\n      swap2\n      swap1\n      tag_46\n      jump\t// in\n    tag_93:\n      mload(0x40)\n      dup1\n      swap2\n      sub\n      swap1\n      return\n        /* \"Campaign.sol\":1052:1076  uint256 public minPledge */\n    tag_17:\n      callvalue\n      dup1\n      iszero\n      tag_94\n      jumpi\n      0x00\n      dup1\n      revert\n    tag_94:\n      pop\n      tag_95\n      tag_96\n      jump\t// in\n    tag_95:\n      mload(0x40)\n      tag_97\n      swap2\n      swap1\n      tag_37\n      jump\t// in\n    tag_97:\n      mload(0x40)\n      dup1\n      swap2\n      sub\n      swap1\n      return\n        /* \"Campaign.sol\":926:948  uint256 public pledged */\n    tag_18:\n      callvalue\n      dup1\n      iszero\n      tag_98\n      jumpi\n      0x00\n      dup1\n      revert\n    tag_98:\n      pop\n      tag_99\n      tag_100\n      jump\t// in\n    tag_99:\n      mload(0x40)\n      tag_101\n      swap2\n      swap1\n      tag_37\n      jump\t// in\n    tag_101:\n      mload(0x40)\n      dup1\n      swap2\n      sub\n      swap1\n      return\n        /* \"Campaign.sol\":1168:1195  uint256 public countPledges */\n    tag_19:\n      callvalue\n      dup1\n      iszero\n      tag_102\n      jumpi\n      0x00\n      dup1\n      revert\n    tag_102:\n      pop\n      tag_103\n      tag_104\n      jump\t// in\n    tag_103:\n      mload(0x40)\n      tag_105\n      swap2\n      swap1\n      tag_37\n      jump\t// in\n    tag_105:\n      mload(0x40)\n      dup1\n      swap2\n      sub\n      swap1\n      return\n        /* \"Campaign.sol\":5200:5352  function getContributionAmount() external view returns (uint256) {... */\n    tag_20:\n      callvalue\n      dup1\n      iszero\n      tag_106\n      jumpi\n      0x00\n      dup1\n      revert\n    tag_106:\n      pop\n      tag_107\n      tag_108\n      jump\t// in\n    tag_107:\n      mload(0x40)\n      tag_109\n      swap2\n      swap1\n      tag_37\n      jump\t// in\n    tag_109:\n      mload(0x40)\n      dup1\n      swap2\n      sub\n      swap1\n      return\n        /* \"Campaign.sol\":1227:1270  mapping(address => uint256) public pledgeOf */\n    tag_21:\n      callvalue\n      dup1\n      iszero\n      tag_110\n      jumpi\n      0x00\n      dup1\n      revert\n    tag_110:\n      pop\n      tag_111\n      0x04\n      dup1\n      calldatasize\n      sub\n      dup2\n      add\n      swap1\n      tag_112\n      swap2\n      swap1\n      tag_113\n      jump\t// in\n    tag_112:\n      tag_114\n      jump\t// in\n    tag_111:\n      mload(0x40)\n      tag_115\n      swap2\n      swap1\n      tag_37\n      jump\t// in\n    tag_115:\n      mload(0x40)\n      dup1\n      swap2\n      sub\n      swap1\n      return\n        /* \"Campaign.sol\":971:993  uint256 public startAt */\n    tag_22:\n      callvalue\n      dup1\n      iszero\n      tag_116\n      jumpi\n      0x00\n      dup1\n      revert\n    tag_116:\n      pop\n      tag_117\n      tag_118\n      jump\t// in\n    tag_117:\n      mload(0x40)\n      tag_119\n      swap2\n      swap1\n      tag_37\n      jump\t// in\n    tag_119:\n      mload(0x40)\n      dup1\n      swap2\n      sub\n      swap1\n      return\n        /* \"Campaign.sol\":3783:4174  function approveRequest(uint256 _id) external contributed activated {... */\n    tag_23:\n      callvalue\n      dup1\n      iszero\n      tag_120\n      jumpi\n      0x00\n      dup1\n      revert\n    tag_120:\n      pop\n      tag_121\n      0x04\n      dup1\n      calldatasize\n      sub\n      dup2\n      add\n      swap1\n      tag_122\n      swap2\n      swap1\n      tag_31\n      jump\t// in\n    tag_122:\n      tag_123\n      jump\t// in\n    tag_121:\n      stop\n        /* \"Campaign.sol\":2605:2698  function cancel() external restricted activated notsucceeded {... */\n    tag_24:\n      callvalue\n      dup1\n      iszero\n      tag_124\n      jumpi\n      0x00\n      dup1\n      revert\n    tag_124:\n      pop\n      tag_125\n      tag_126\n      jump\t// in\n    tag_125:\n      stop\n        /* \"Campaign.sol\":1292:1353  mapping(address => mapping(uint256 => bool)) public approvals */\n    tag_25:\n      callvalue\n      dup1\n      iszero\n      tag_127\n      jumpi\n      0x00\n      dup1\n      revert\n    tag_127:\n      pop\n      tag_128\n      0x04\n      dup1\n      calldatasize\n      sub\n      dup2\n      add\n      swap1\n      tag_129\n      swap2\n      swap1\n      tag_130\n      jump\t// in\n    tag_129:\n      tag_131\n      jump\t// in\n    tag_128:\n      mload(0x40)\n      tag_132\n      swap2\n      swap1\n      tag_46\n      jump\t// in\n    tag_132:\n      mload(0x40)\n      dup1\n      swap2\n      sub\n      swap1\n      return\n        /* \"Campaign.sol\":4180:4650  function finalizeRequest(uint256 _id)... */\n    tag_32:\n        /* \"Campaign.sol\":1489:1496  manager */\n      0x00\n      dup1\n      sload\n      swap1\n      0x0100\n      exp\n      swap1\n      div\n      0xffffffffffffffffffffffffffffffffffffffff\n      and\n        /* \"Campaign.sol\":1475:1496  msg.sender == manager */\n      0xffffffffffffffffffffffffffffffffffffffff\n      and\n        /* \"Campaign.sol\":1475:1485  msg.sender */\n      caller\n        /* \"Campaign.sol\":1475:1496  msg.sender == manager */\n      0xffffffffffffffffffffffffffffffffffffffff\n      and\n      eq\n        /* \"Campaign.sol\":1454:1569  require(... */\n      tag_134\n      jumpi\n      mload(0x40)\n      0x08c379a000000000000000000000000000000000000000000000000000000000\n      dup2\n      mstore\n      0x04\n      add\n      tag_135\n      swap1\n      tag_136\n      jump\t// in\n    tag_135:\n      mload(0x40)\n      dup1\n      swap2\n      sub\n      swap1\n      revert\n    tag_134:\n        /* \"Campaign.sol\":2185:2193  canceled */\n      0x0a\n      0x00\n      swap1\n      sload\n      swap1\n      0x0100\n      exp\n      swap1\n      div\n      0xff\n      and\n        /* \"Campaign.sol\":2184:2193  !canceled */\n      iszero\n        /* \"Campaign.sol\":2176:2219  require(!canceled, \"Campaign has canceled\") */\n      tag_138\n      jumpi\n      mload(0x40)\n      0x08c379a000000000000000000000000000000000000000000000000000000000\n      dup2\n      mstore\n      0x04\n      add\n      tag_139\n      swap1\n      tag_140\n      jump\t// in\n    tag_139:\n      mload(0x40)\n      dup1\n      swap2\n      sub\n      swap1\n      revert\n    tag_138:\n        /* \"Campaign.sol\":4302:4325  Request storage request */\n      0x00\n        /* \"Campaign.sol\":4328:4336  requests */\n      0x06\n        /* \"Campaign.sol\":4337:4340  _id */\n      dup3\n        /* \"Campaign.sol\":4328:4341  requests[_id] */\n      dup2\n      sload\n      dup2\n      lt\n      tag_142\n      jumpi\n      tag_143\n      tag_144\n      jump\t// in\n    tag_143:\n    tag_142:\n      swap1\n      0x00\n      mstore\n      keccak256(0x00, 0x20)\n      swap1\n      0x04\n      mul\n      add\n        /* \"Campaign.sol\":4302:4341  Request storage request = requests[_id] */\n      swap1\n      pop\n        /* \"Campaign.sol\":4361:4368  request */\n      dup1\n        /* \"Campaign.sol\":4361:4378  request.completed */\n      0x02\n      add\n      0x14\n      swap1\n      sload\n      swap1\n      0x0100\n      exp\n      swap1\n      div\n      0xff\n      and\n        /* \"Campaign.sol\":4360:4378  !request.completed */\n      iszero\n        /* \"Campaign.sol\":4352:4409  require(!request.completed, \"Request has been completed\") */\n      tag_146\n      jumpi\n      mload(0x40)\n      0x08c379a000000000000000000000000000000000000000000000000000000000\n      dup2\n      mstore\n      0x04\n      add\n      tag_147\n      swap1\n      tag_148\n      jump\t// in\n    tag_147:\n      mload(0x40)\n      dup1\n      swap2\n      sub\n      swap1\n      revert\n    tag_146:\n        /* \"Campaign.sol\":4481:4482  2 */\n      0x02\n        /* \"Campaign.sol\":4466:4478  countPledges */\n      sload(0x07)\n        /* \"Campaign.sol\":4466:4482  countPledges / 2 */\n      tag_149\n      swap2\n      swap1\n      tag_150\n      jump\t// in\n    tag_149:\n        /* \"Campaign.sol\":4440:4447  request */\n      dup2\n        /* \"Campaign.sol\":4440:4462  request.countApprovals */\n      0x03\n      add\n      sload\n        /* \"Campaign.sol\":4440:4483  request.countApprovals > (countPledges / 2) */\n      gt\n        /* \"Campaign.sol\":4419:4547  require(... */\n      tag_151\n      jumpi\n      mload(0x40)\n      0x08c379a000000000000000000000000000000000000000000000000000000000\n      dup2\n      mstore\n      0x04\n      add\n      tag_152\n      swap1\n      tag_153\n      jump\t// in\n    tag_152:\n      mload(0x40)\n      dup1\n      swap2\n      sub\n      swap1\n      revert\n    tag_151:\n        /* \"Campaign.sol\":4566:4573  request */\n      dup1\n        /* \"Campaign.sol\":4566:4583  request.recipient */\n      0x02\n      add\n      0x00\n      swap1\n      sload\n      swap1\n      0x0100\n      exp\n      swap1\n      div\n      0xffffffffffffffffffffffffffffffffffffffff\n      and\n        /* \"Campaign.sol\":4558:4593  payable(request.recipient).transfer */\n      0xffffffffffffffffffffffffffffffffffffffff\n      and\n        /* \"Campaign.sol\":4558:4609  payable(request.recipient).transfer(request.amount) */\n      0x08fc\n        /* \"Campaign.sol\":4594:4601  request */\n      dup3\n        /* \"Campaign.sol\":4594:4608  request.amount */\n      0x01\n      add\n      sload\n        /* \"Campaign.sol\":4558:4609  payable(request.recipient).transfer(request.amount) */\n      swap1\n      dup2\n      iszero\n      mul\n      swap1\n      mload(0x40)\n      0x00\n      mload(0x40)\n      dup1\n      dup4\n      sub\n      dup2\n      dup6\n      dup9\n      dup9\n      call\n      swap4\n      pop\n      pop\n      pop\n      pop\n      iszero\n      dup1\n      iszero\n      tag_155\n      jumpi\n      returndatasize\n      0x00\n      dup1\n      returndatacopy\n      revert(0x00, returndatasize)\n    tag_155:\n      pop\n        /* \"Campaign.sol\":4639:4643  true */\n      0x01\n        /* \"Campaign.sol\":4619:4626  request */\n      dup2\n        /* \"Campaign.sol\":4619:4636  request.completed */\n      0x02\n      add\n      0x14\n        /* \"Campaign.sol\":4619:4643  request.completed = true */\n      0x0100\n      exp\n      dup2\n      sload\n      dup2\n      0xff\n      mul\n      not\n      and\n      swap1\n      dup4\n      iszero\n      iszero\n      mul\n      or\n      swap1\n      sstore\n      pop\n        /* \"Campaign.sol\":4292:4650  {... */\n      pop\n        /* \"Campaign.sol\":4180:4650  function finalizeRequest(uint256 _id)... */\n      pop\n      jump\t// out\n        /* \"Campaign.sol\":5095:5194  function getBalance() external view returns (uint256) {... */\n    tag_35:\n        /* \"Campaign.sol\":5140:5147  uint256 */\n      0x00\n        /* \"Campaign.sol\":5166:5187  address(this).balance */\n      selfbalance\n        /* \"Campaign.sol\":5159:5187  return address(this).balance */\n      swap1\n      pop\n        /* \"Campaign.sol\":5095:5194  function getBalance() external view returns (uint256) {... */\n      swap1\n      jump\t// out\n        /* \"Campaign.sol\":5358:5457  function getRequestsCount() external view returns (uint256) {... */\n    tag_40:\n        /* \"Campaign.sol\":5409:5416  uint256 */\n      0x00\n        /* \"Campaign.sol\":5435:5443  requests */\n      0x06\n        /* \"Campaign.sol\":5435:5450  requests.length */\n      dup1\n      sload\n      swap1\n      pop\n        /* \"Campaign.sol\":5428:5450  return requests.length */\n      swap1\n      pop\n        /* \"Campaign.sol\":5358:5457  function getRequestsCount() external view returns (uint256) {... */\n      swap1\n      jump\t// out\n        /* \"Campaign.sol\":1378:1398  bool public canceled */\n    tag_44:\n      0x0a\n      0x00\n      swap1\n      sload\n      swap1\n      0x0100\n      exp\n      swap1\n      div\n      0xff\n      and\n      dup2\n      jump\t// out\n        /* \"Campaign.sol\":884:903  uint256 public goal */\n    tag_49:\n      sload(0x01)\n      dup2\n      jump\t// out\n        /* \"Campaign.sol\":4656:5089  function getSummary()... */\n    tag_53:\n        /* \"Campaign.sol\":4738:4745  uint256 */\n      0x00\n        /* \"Campaign.sol\":4772:4779  uint256 */\n      dup1\n        /* \"Campaign.sol\":4804:4811  uint256 */\n      0x00\n        /* \"Campaign.sol\":4844:4851  uint256 */\n      dup1\n        /* \"Campaign.sol\":4888:4895  address */\n      0x00\n        /* \"Campaign.sol\":4952:4961  minPledge */\n      sload(0x05)\n        /* \"Campaign.sol\":4975:4996  address(this).balance */\n      selfbalance\n        /* \"Campaign.sol\":5010:5018  requests */\n      0x06\n        /* \"Campaign.sol\":5010:5025  requests.length */\n      dup1\n      sload\n      swap1\n      pop\n        /* \"Campaign.sol\":5039:5051  countPledges */\n      sload(0x07)\n        /* \"Campaign.sol\":5065:5072  manager */\n      0x00\n      dup1\n      sload\n      swap1\n      0x0100\n      exp\n      swap1\n      div\n      0xffffffffffffffffffffffffffffffffffffffff\n      and\n        /* \"Campaign.sol\":4931:5082  return (... */\n      swap5\n      pop\n      swap5\n      pop\n      swap5\n      pop\n      swap5\n      pop\n      swap5\n      pop\n        /* \"Campaign.sol\":4656:5089  function getSummary()... */\n      swap1\n      swap2\n      swap3\n      swap4\n      swap5\n      jump\t// out\n        /* \"Campaign.sol\":847:869  address public manager */\n    tag_58:\n      0x00\n      dup1\n      sload\n      swap1\n      0x0100\n      exp\n      swap1\n      div\n      0xffffffffffffffffffffffffffffffffffffffff\n      and\n      dup2\n      jump\t// out\n        /* \"Campaign.sol\":3058:3341  function refund() external payable beforeed contributed notsucceeded {... */\n    tag_62:\n        /* \"Campaign.sol\":1650:1655  endAt */\n      sload(0x04)\n        /* \"Campaign.sol\":1631:1646  block.timestamp */\n      timestamp\n        /* \"Campaign.sol\":1631:1655  block.timestamp <= endAt */\n      gt\n      iszero\n        /* \"Campaign.sol\":1623:1686  require(block.timestamp <= endAt, \"Campaign has already ended\") */\n      tag_160\n      jumpi\n      mload(0x40)\n      0x08c379a000000000000000000000000000000000000000000000000000000000\n      dup2\n      mstore\n      0x04\n      add\n      tag_161\n      swap1\n      tag_162\n      jump\t// in\n    tag_161:\n      mload(0x40)\n      dup1\n      swap2\n      sub\n      swap1\n      revert\n    tag_160:\n        /* \"Campaign.sol\":1787:1788  0 */\n      0x00\n        /* \"Campaign.sol\":1764:1772  pledgeOf */\n      0x08\n        /* \"Campaign.sol\":1764:1784  pledgeOf[msg.sender] */\n      0x00\n        /* \"Campaign.sol\":1773:1783  msg.sender */\n      caller\n        /* \"Campaign.sol\":1764:1784  pledgeOf[msg.sender] */\n      0xffffffffffffffffffffffffffffffffffffffff\n      and\n      0xffffffffffffffffffffffffffffffffffffffff\n      and\n      dup2\n      mstore\n      0x20\n      add\n      swap1\n      dup2\n      mstore\n      0x20\n      add\n      0x00\n      keccak256\n      sload\n        /* \"Campaign.sol\":1764:1788  pledgeOf[msg.sender] > 0 */\n      gt\n        /* \"Campaign.sol\":1743:1850  require(... */\n      tag_164\n      jumpi\n      mload(0x40)\n      0x08c379a000000000000000000000000000000000000000000000000000000000\n      dup2\n      mstore\n      0x04\n      add\n      tag_165\n      swap1\n      tag_166\n      jump\t// in\n    tag_165:\n      mload(0x40)\n      dup1\n      swap2\n      sub\n      swap1\n      revert\n    tag_164:\n        /* \"Campaign.sol\":2044:2048  goal */\n      sload(0x01)\n        /* \"Campaign.sol\":2034:2041  pledged */\n      sload(0x02)\n        /* \"Campaign.sol\":2034:2048  pledged < goal */\n      lt\n        /* \"Campaign.sol\":2013:2121  require(... */\n      tag_168\n      jumpi\n      mload(0x40)\n      0x08c379a000000000000000000000000000000000000000000000000000000000\n      dup2\n      mstore\n      0x04\n      add\n      tag_169\n      swap1\n      tag_170\n      jump\t// in\n    tag_169:\n      mload(0x40)\n      dup1\n      swap2\n      sub\n      swap1\n      revert\n    tag_168:\n        /* \"Campaign.sol\":3137:3148  uint256 bal */\n      0x00\n        /* \"Campaign.sol\":3151:3159  pledgeOf */\n      0x08\n        /* \"Campaign.sol\":3151:3171  pledgeOf[msg.sender] */\n      0x00\n        /* \"Campaign.sol\":3160:3170  msg.sender */\n      caller\n        /* \"Campaign.sol\":3151:3171  pledgeOf[msg.sender] */\n      0xffffffffffffffffffffffffffffffffffffffff\n      and\n      0xffffffffffffffffffffffffffffffffffffffff\n      and\n      dup2\n      mstore\n      0x20\n      add\n      swap1\n      dup2\n      mstore\n      0x20\n      add\n      0x00\n      keccak256\n      sload\n        /* \"Campaign.sol\":3137:3171  uint256 bal = pledgeOf[msg.sender] */\n      swap1\n      pop\n        /* \"Campaign.sol\":3181:3201  address payable user */\n      0x00\n        /* \"Campaign.sol\":3212:3222  msg.sender */\n      caller\n        /* \"Campaign.sol\":3181:3223  address payable user = payable(msg.sender) */\n      swap1\n      pop\n        /* \"Campaign.sol\":3233:3237  user */\n      dup1\n        /* \"Campaign.sol\":3233:3246  user.transfer */\n      0xffffffffffffffffffffffffffffffffffffffff\n      and\n        /* \"Campaign.sol\":3233:3251  user.transfer(bal) */\n      0x08fc\n        /* \"Campaign.sol\":3247:3250  bal */\n      dup4\n        /* \"Campaign.sol\":3233:3251  user.transfer(bal) */\n      swap1\n      dup2\n      iszero\n      mul\n      swap1\n      mload(0x40)\n      0x00\n      mload(0x40)\n      dup1\n      dup4\n      sub\n      dup2\n      dup6\n      dup9\n      dup9\n      call\n      swap4\n      pop\n      pop\n      pop\n      pop\n      iszero\n      dup1\n      iszero\n      tag_173\n      jumpi\n      returndatasize\n      0x00\n      dup1\n      returndatacopy\n      revert(0x00, returndatasize)\n    tag_173:\n      pop\n        /* \"Campaign.sol\":3285:3286  0 */\n      0x00\n        /* \"Campaign.sol\":3262:3270  pledgeOf */\n      0x08\n        /* \"Campaign.sol\":3262:3282  pledgeOf[msg.sender] */\n      0x00\n        /* \"Campaign.sol\":3271:3281  msg.sender */\n      caller\n        /* \"Campaign.sol\":3262:3282  pledgeOf[msg.sender] */\n      0xffffffffffffffffffffffffffffffffffffffff\n      and\n      0xffffffffffffffffffffffffffffffffffffffff\n      and\n      dup2\n      mstore\n      0x20\n      add\n      swap1\n      dup2\n      mstore\n      0x20\n      add\n      0x00\n      keccak256\n        /* \"Campaign.sol\":3262:3286  pledgeOf[msg.sender] = 0 */\n      dup2\n      swap1\n      sstore\n      pop\n        /* \"Campaign.sol\":3296:3308  countPledges */\n      0x07\n      0x00\n        /* \"Campaign.sol\":3296:3310  countPledges-- */\n      dup2\n      sload\n      dup1\n      swap3\n      swap2\n      swap1\n      tag_174\n      swap1\n      tag_175\n      jump\t// in\n    tag_174:\n      swap2\n      swap1\n      pop\n      sstore\n      pop\n        /* \"Campaign.sol\":3331:3334  bal */\n      dup2\n        /* \"Campaign.sol\":3320:3327  pledged */\n      0x02\n      0x00\n        /* \"Campaign.sol\":3320:3334  pledged -= bal */\n      dup3\n      dup3\n      sload\n      tag_176\n      swap2\n      swap1\n      tag_177\n      jump\t// in\n    tag_176:\n      swap3\n      pop\n      pop\n      dup2\n      swap1\n      sstore\n      pop\n        /* \"Campaign.sol\":3127:3341  {... */\n      pop\n      pop\n        /* \"Campaign.sol\":3058:3341  function refund() external payable beforeed contributed notsucceeded {... */\n      jump\t// out\n        /* \"Campaign.sol\":5565:5792  function getRequestApproval(uint256 requestId)... */\n    tag_66:\n        /* \"Campaign.sol\":5659:5663  bool */\n      0x00\n        /* \"Campaign.sol\":5679:5695  address approver */\n      dup1\n        /* \"Campaign.sol\":5698:5708  msg.sender */\n      caller\n        /* \"Campaign.sol\":5679:5708  address approver = msg.sender */\n      swap1\n      pop\n        /* \"Campaign.sol\":5718:5729  bool result */\n      0x00\n        /* \"Campaign.sol\":5732:5741  approvals */\n      0x09\n        /* \"Campaign.sol\":5732:5751  approvals[approver] */\n      0x00\n        /* \"Campaign.sol\":5742:5750  approver */\n      dup4\n        /* \"Campaign.sol\":5732:5751  approvals[approver] */\n      0xffffffffffffffffffffffffffffffffffffffff\n      and\n      0xffffffffffffffffffffffffffffffffffffffff\n      and\n      dup2\n      mstore\n      0x20\n      add\n      swap1\n      dup2\n      mstore\n      0x20\n      add\n      0x00\n      keccak256\n        /* \"Campaign.sol\":5732:5762  approvals[approver][requestId] */\n      0x00\n        /* \"Campaign.sol\":5752:5761  requestId */\n      dup6\n        /* \"Campaign.sol\":5732:5762  approvals[approver][requestId] */\n      dup2\n      mstore\n      0x20\n      add\n      swap1\n      dup2\n      mstore\n      0x20\n      add\n      0x00\n      keccak256\n      0x00\n      swap1\n      sload\n      swap1\n      0x0100\n      exp\n      swap1\n      div\n      0xff\n      and\n        /* \"Campaign.sol\":5718:5762  bool result = approvals[approver][requestId] */\n      swap1\n      pop\n        /* \"Campaign.sol\":5779:5785  result */\n      dup1\n        /* \"Campaign.sol\":5772:5785  return result */\n      swap3\n      pop\n      pop\n      pop\n        /* \"Campaign.sol\":5565:5792  function getRequestApproval(uint256 requestId)... */\n      swap2\n      swap1\n      pop\n      jump\t// out\n        /* \"Campaign.sol\":1014:1034  uint256 public endAt */\n    tag_70:\n      sload(0x04)\n      dup2\n      jump\t// out\n        /* \"Campaign.sol\":1116:1141  Request[] public requests */\n    tag_75:\n      0x06\n      dup2\n      dup2\n      sload\n      dup2\n      lt\n      tag_179\n      jumpi\n      0x00\n      dup1\n      revert\n    tag_179:\n      swap1\n      0x00\n      mstore\n      keccak256(0x00, 0x20)\n      swap1\n      0x04\n      mul\n      add\n      0x00\n      swap2\n      pop\n      swap1\n      pop\n      dup1\n      0x00\n      add\n      dup1\n      sload\n      tag_181\n      swap1\n      tag_182\n      jump\t// in\n    tag_181:\n      dup1\n      0x1f\n      add\n      0x20\n      dup1\n      swap2\n      div\n      mul\n      0x20\n      add\n      mload(0x40)\n      swap1\n      dup2\n      add\n      0x40\n      mstore\n      dup1\n      swap3\n      swap2\n      swap1\n      dup2\n      dup2\n      mstore\n      0x20\n      add\n      dup3\n      dup1\n      sload\n      tag_183\n      swap1\n      tag_182\n      jump\t// in\n    tag_183:\n      dup1\n      iszero\n      tag_184\n      jumpi\n      dup1\n      0x1f\n      lt\n      tag_185\n      jumpi\n      0x0100\n      dup1\n      dup4\n      sload\n      div\n      mul\n      dup4\n      mstore\n      swap2\n      0x20\n      add\n      swap2\n      jump(tag_184)\n    tag_185:\n      dup3\n      add\n      swap2\n      swap1\n      0x00\n      mstore\n      keccak256(0x00, 0x20)\n      swap1\n    tag_186:\n      dup2\n      sload\n      dup2\n      mstore\n      swap1\n      0x01\n      add\n      swap1\n      0x20\n      add\n      dup1\n      dup4\n      gt\n      tag_186\n      jumpi\n      dup3\n      swap1\n      sub\n      0x1f\n      and\n      dup3\n      add\n      swap2\n    tag_184:\n      pop\n      pop\n      pop\n      pop\n      pop\n      swap1\n      dup1\n      0x01\n      add\n      sload\n      swap1\n      dup1\n      0x02\n      add\n      0x00\n      swap1\n      sload\n      swap1\n      0x0100\n      exp\n      swap1\n      div\n      0xffffffffffffffffffffffffffffffffffffffff\n      and\n      swap1\n      dup1\n      0x02\n      add\n      0x14\n      swap1\n      sload\n      swap1\n      0x0100\n      exp\n      swap1\n      div\n      0xff\n      and\n      swap1\n      dup1\n      0x03\n      add\n      sload\n      swap1\n      pop\n      dup6\n      jump\t// out\n        /* \"Campaign.sol\":5463:5559  function getRequests() external view returns (Request[] memory) {... */\n    tag_80:\n        /* \"Campaign.sol\":5509:5525  Request[] memory */\n      0x60\n        /* \"Campaign.sol\":5544:5552  requests */\n      0x06\n        /* \"Campaign.sol\":5537:5552  return requests */\n      dup1\n      sload\n      dup1\n      0x20\n      mul\n      0x20\n      add\n      mload(0x40)\n      swap1\n      dup2\n      add\n      0x40\n      mstore\n      dup1\n      swap3\n      swap2\n      swap1\n      dup2\n      dup2\n      mstore\n      0x20\n      add\n      0x00\n      swap1\n    tag_188:\n      dup3\n      dup3\n      lt\n      iszero\n      tag_189\n      jumpi\n      dup4\n      dup3\n      swap1\n      0x00\n      mstore\n      keccak256(0x00, 0x20)\n      swap1\n      0x04\n      mul\n      add\n      mload(0x40)\n      dup1\n      0xa0\n      add\n      0x40\n      mstore\n      swap1\n      dup2\n      0x00\n      dup3\n      add\n      dup1\n      sload\n      tag_191\n      swap1\n      tag_182\n      jump\t// in\n    tag_191:\n      dup1\n      0x1f\n      add\n      0x20\n      dup1\n      swap2\n      div\n      mul\n      0x20\n      add\n      mload(0x40)\n      swap1\n      dup2\n      add\n      0x40\n      mstore\n      dup1\n      swap3\n      swap2\n      swap1\n      dup2\n      dup2\n      mstore\n      0x20\n      add\n      dup3\n      dup1\n      sload\n      tag_192\n      swap1\n      tag_182\n      jump\t// in\n    tag_192:\n      dup1\n      iszero\n      tag_193\n      jumpi\n      dup1\n      0x1f\n      lt\n      tag_194\n      jumpi\n      0x0100\n      dup1\n      dup4\n      sload\n      div\n      mul\n      dup4\n      mstore\n      swap2\n      0x20\n      add\n      swap2\n      jump(tag_193)\n    tag_194:\n      dup3\n      add\n      swap2\n      swap1\n      0x00\n      mstore\n      keccak256(0x00, 0x20)\n      swap1\n    tag_195:\n      dup2\n      sload\n      dup2\n      mstore\n      swap1\n      0x01\n      add\n      swap1\n      0x20\n      add\n      dup1\n      dup4\n      gt\n      tag_195\n      jumpi\n      dup3\n      swap1\n      sub\n      0x1f\n      and\n      dup3\n      add\n      swap2\n    tag_193:\n      pop\n      pop\n      pop\n      pop\n      pop\n      dup2\n      mstore\n      0x20\n      add\n      0x01\n      dup3\n      add\n      sload\n      dup2\n      mstore\n      0x20\n      add\n      0x02\n      dup3\n      add\n      0x00\n      swap1\n      sload\n      swap1\n      0x0100\n      exp\n      swap1\n      div\n      0xffffffffffffffffffffffffffffffffffffffff\n      and\n      0xffffffffffffffffffffffffffffffffffffffff\n      and\n      0xffffffffffffffffffffffffffffffffffffffff\n      and\n      dup2\n      mstore\n      0x20\n      add\n      0x02\n      dup3\n      add\n      0x14\n      swap1\n      sload\n      swap1\n      0x0100\n      exp\n      swap1\n      div\n      0xff\n      and\n      iszero\n      iszero\n      iszero\n      iszero\n      dup2\n      mstore\n      0x20\n      add\n      0x03\n      dup3\n      add\n      sload\n      dup2\n      mstore\n      pop\n      pop\n      dup2\n      mstore\n      0x20\n      add\n      swap1\n      0x01\n      add\n      swap1\n      jump(tag_188)\n    tag_189:\n      pop\n      pop\n      pop\n      pop\n      swap1\n      pop\n        /* \"Campaign.sol\":5463:5559  function getRequests() external view returns (Request[] memory) {... */\n      swap1\n      jump\t// out\n        /* \"Campaign.sol\":2704:3052  function pledge() external payable beforeed activated {... */\n    tag_84:\n        /* \"Campaign.sol\":1650:1655  endAt */\n      sload(0x04)\n        /* \"Campaign.sol\":1631:1646  block.timestamp */\n      timestamp\n        /* \"Campaign.sol\":1631:1655  block.timestamp <= endAt */\n      gt\n      iszero\n        /* \"Campaign.sol\":1623:1686  require(block.timestamp <= endAt, \"Campaign has already ended\") */\n      tag_197\n      jumpi\n      mload(0x40)\n      0x08c379a000000000000000000000000000000000000000000000000000000000\n      dup2\n      mstore\n      0x04\n      add\n      tag_198\n      swap1\n      tag_162\n      jump\t// in\n    tag_198:\n      mload(0x40)\n      dup1\n      swap2\n      sub\n      swap1\n      revert\n    tag_197:\n        /* \"Campaign.sol\":2185:2193  canceled */\n      0x0a\n      0x00\n      swap1\n      sload\n      swap1\n      0x0100\n      exp\n      swap1\n      div\n      0xff\n      and\n        /* \"Campaign.sol\":2184:2193  !canceled */\n      iszero\n        /* \"Campaign.sol\":2176:2219  require(!canceled, \"Campaign has canceled\") */\n      tag_200\n      jumpi\n      mload(0x40)\n      0x08c379a000000000000000000000000000000000000000000000000000000000\n      dup2\n      mstore\n      0x04\n      add\n      tag_201\n      swap1\n      tag_140\n      jump\t// in\n    tag_201:\n      mload(0x40)\n      dup1\n      swap2\n      sub\n      swap1\n      revert\n    tag_200:\n        /* \"Campaign.sol\":2801:2810  minPledge */\n      sload(0x05)\n        /* \"Campaign.sol\":2789:2798  msg.value */\n      callvalue\n        /* \"Campaign.sol\":2789:2810  msg.value > minPledge */\n      gt\n        /* \"Campaign.sol\":2789:2827  msg.value > minPledge && msg.value > 0 */\n      dup1\n      iszero\n      tag_203\n      jumpi\n      pop\n        /* \"Campaign.sol\":2826:2827  0 */\n      0x00\n        /* \"Campaign.sol\":2814:2823  msg.value */\n      callvalue\n        /* \"Campaign.sol\":2814:2827  msg.value > 0 */\n      gt\n        /* \"Campaign.sol\":2789:2827  msg.value > minPledge && msg.value > 0 */\n    tag_203:\n        /* \"Campaign.sol\":2768:2892  require(... */\n      tag_204\n      jumpi\n      mload(0x40)\n      0x08c379a000000000000000000000000000000000000000000000000000000000\n      dup2\n      mstore\n      0x04\n      add\n      tag_205\n      swap1\n      tag_206\n      jump\t// in\n    tag_205:\n      mload(0x40)\n      dup1\n      swap2\n      sub\n      swap1\n      revert\n    tag_204:\n        /* \"Campaign.sol\":2914:2923  msg.value */\n      callvalue\n        /* \"Campaign.sol\":2903:2910  pledged */\n      0x02\n      0x00\n        /* \"Campaign.sol\":2903:2923  pledged += msg.value */\n      dup3\n      dup3\n      sload\n      tag_207\n      swap2\n      swap1\n      tag_208\n      jump\t// in\n    tag_207:\n      swap3\n      pop\n      pop\n      dup2\n      swap1\n      sstore\n      pop\n        /* \"Campaign.sol\":2961:2962  0 */\n      0x00\n        /* \"Campaign.sol\":2937:2945  pledgeOf */\n      0x08\n        /* \"Campaign.sol\":2937:2957  pledgeOf[msg.sender] */\n      0x00\n        /* \"Campaign.sol\":2946:2956  msg.sender */\n      caller\n        /* \"Campaign.sol\":2937:2957  pledgeOf[msg.sender] */\n      0xffffffffffffffffffffffffffffffffffffffff\n      and\n      0xffffffffffffffffffffffffffffffffffffffff\n      and\n      dup2\n      mstore\n      0x20\n      add\n      swap1\n      dup2\n      mstore\n      0x20\n      add\n      0x00\n      keccak256\n      sload\n        /* \"Campaign.sol\":2937:2962  pledgeOf[msg.sender] == 0 */\n      sub\n        /* \"Campaign.sol\":2933:3003  if (pledgeOf[msg.sender] == 0) {... */\n      tag_209\n      jumpi\n        /* \"Campaign.sol\":2978:2990  countPledges */\n      0x07\n      0x00\n        /* \"Campaign.sol\":2978:2992  countPledges++ */\n      dup2\n      sload\n      dup1\n      swap3\n      swap2\n      swap1\n      tag_210\n      swap1\n      tag_211\n      jump\t// in\n    tag_210:\n      swap2\n      swap1\n      pop\n      sstore\n      pop\n        /* \"Campaign.sol\":2933:3003  if (pledgeOf[msg.sender] == 0) {... */\n    tag_209:\n        /* \"Campaign.sol\":3036:3045  msg.value */\n      callvalue\n        /* \"Campaign.sol\":3012:3020  pledgeOf */\n      0x08\n        /* \"Campaign.sol\":3012:3032  pledgeOf[msg.sender] */\n      0x00\n        /* \"Campaign.sol\":3021:3031  msg.sender */\n      caller\n        /* \"Campaign.sol\":3012:3032  pledgeOf[msg.sender] */\n      0xffffffffffffffffffffffffffffffffffffffff\n      and\n      0xffffffffffffffffffffffffffffffffffffffff\n      and\n      dup2\n      mstore\n      0x20\n      add\n      swap1\n      dup2\n      mstore\n      0x20\n      add\n      0x00\n      keccak256\n      0x00\n        /* \"Campaign.sol\":3012:3045  pledgeOf[msg.sender] += msg.value */\n      dup3\n      dup3\n      sload\n      tag_212\n      swap2\n      swap1\n      tag_208\n      jump\t// in\n    tag_212:\n      swap3\n      pop\n      pop\n      dup2\n      swap1\n      sstore\n      pop\n        /* \"Campaign.sol\":2704:3052  function pledge() external payable beforeed activated {... */\n      jump\t// out\n        /* \"Campaign.sol\":3347:3777  function createRequest(... */\n    tag_89:\n        /* \"Campaign.sol\":1489:1496  manager */\n      0x00\n      dup1\n      sload\n      swap1\n      0x0100\n      exp\n      swap1\n      div\n      0xffffffffffffffffffffffffffffffffffffffff\n      and\n        /* \"Campaign.sol\":1475:1496  msg.sender == manager */\n      0xffffffffffffffffffffffffffffffffffffffff\n      and\n        /* \"Campaign.sol\":1475:1485  msg.sender */\n      caller\n        /* \"Campaign.sol\":1475:1496  msg.sender == manager */\n      0xffffffffffffffffffffffffffffffffffffffff\n      and\n      eq\n        /* \"Campaign.sol\":1454:1569  require(... */\n      tag_214\n      jumpi\n      mload(0x40)\n      0x08c379a000000000000000000000000000000000000000000000000000000000\n      dup2\n      mstore\n      0x04\n      add\n      tag_215\n      swap1\n      tag_136\n      jump\t// in\n    tag_215:\n      mload(0x40)\n      dup1\n      swap2\n      sub\n      swap1\n      revert\n    tag_214:\n        /* \"Campaign.sol\":1924:1928  goal */\n      sload(0x01)\n        /* \"Campaign.sol\":1913:1920  pledged */\n      sload(0x02)\n        /* \"Campaign.sol\":1913:1928  pledged >= goal */\n      lt\n      iszero\n        /* \"Campaign.sol\":1905:1955  require(pledged >= goal, \"Campaign has succeeded\") */\n      tag_217\n      jumpi\n      mload(0x40)\n      0x08c379a000000000000000000000000000000000000000000000000000000000\n      dup2\n      mstore\n      0x04\n      add\n      tag_218\n      swap1\n      tag_219\n      jump\t// in\n    tag_218:\n      mload(0x40)\n      dup1\n      swap2\n      sub\n      swap1\n      revert\n    tag_217:\n        /* \"Campaign.sol\":2185:2193  canceled */\n      0x0a\n      0x00\n      swap1\n      sload\n      swap1\n      0x0100\n      exp\n      swap1\n      div\n      0xff\n      and\n        /* \"Campaign.sol\":2184:2193  !canceled */\n      iszero\n        /* \"Campaign.sol\":2176:2219  require(!canceled, \"Campaign has canceled\") */\n      tag_221\n      jumpi\n      mload(0x40)\n      0x08c379a000000000000000000000000000000000000000000000000000000000\n      dup2\n      mstore\n      0x04\n      add\n      tag_222\n      swap1\n      tag_140\n      jump\t// in\n    tag_222:\n      mload(0x40)\n      dup1\n      swap2\n      sub\n      swap1\n      revert\n    tag_221:\n        /* \"Campaign.sol\":3523:3548  Request memory newRequest */\n      0x00\n        /* \"Campaign.sol\":3551:3734  Request({... */\n      mload(0x40)\n      dup1\n      0xa0\n      add\n      0x40\n      mstore\n      dup1\n        /* \"Campaign.sol\":3586:3598  _description */\n      dup6\n        /* \"Campaign.sol\":3551:3734  Request({... */\n      dup2\n      mstore\n      0x20\n      add\n        /* \"Campaign.sol\":3620:3627  _amount */\n      dup5\n        /* \"Campaign.sol\":3551:3734  Request({... */\n      dup2\n      mstore\n      0x20\n      add\n        /* \"Campaign.sol\":3652:3662  _recipient */\n      dup4\n        /* \"Campaign.sol\":3551:3734  Request({... */\n      0xffffffffffffffffffffffffffffffffffffffff\n      and\n      dup2\n      mstore\n      0x20\n      add\n        /* \"Campaign.sol\":3687:3692  false */\n      0x00\n        /* \"Campaign.sol\":3551:3734  Request({... */\n      iszero\n      iszero\n      dup2\n      mstore\n      0x20\n      add\n        /* \"Campaign.sol\":3722:3723  0 */\n      0x00\n        /* \"Campaign.sol\":3551:3734  Request({... */\n      dup2\n      mstore\n      pop\n        /* \"Campaign.sol\":3523:3734  Request memory newRequest = Request({... */\n      swap1\n      pop\n        /* \"Campaign.sol\":3745:3753  requests */\n      0x06\n        /* \"Campaign.sol\":3759:3769  newRequest */\n      dup2\n        /* \"Campaign.sol\":3745:3770  requests.push(newRequest) */\n      swap1\n      dup1\n      0x01\n      dup2\n      sload\n      add\n      dup1\n      dup3\n      sstore\n      dup1\n      swap2\n      pop\n      pop\n      0x01\n      swap1\n      sub\n      swap1\n      0x00\n      mstore\n      keccak256(0x00, 0x20)\n      swap1\n      0x04\n      mul\n      add\n      0x00\n      swap1\n      swap2\n      swap1\n      swap2\n      swap1\n      swap2\n      pop\n      0x00\n      dup3\n      add\n      mload\n      dup2\n      0x00\n      add\n      swap1\n      dup2\n      tag_225\n      swap2\n      swap1\n      tag_226\n      jump\t// in\n    tag_225:\n      pop\n      0x20\n      dup3\n      add\n      mload\n      dup2\n      0x01\n      add\n      sstore\n      0x40\n      dup3\n      add\n      mload\n      dup2\n      0x02\n      add\n      exp(0x0100, 0x00)\n      dup2\n      sload\n      dup2\n      0xffffffffffffffffffffffffffffffffffffffff\n      mul\n      not\n      and\n      swap1\n      dup4\n      0xffffffffffffffffffffffffffffffffffffffff\n      and\n      mul\n      or\n      swap1\n      sstore\n      pop\n      0x60\n      dup3\n      add\n      mload\n      dup2\n      0x02\n      add\n      exp(0x0100, 0x14)\n      dup2\n      sload\n      dup2\n      0xff\n      mul\n      not\n      and\n      swap1\n      dup4\n      iszero\n      iszero\n      mul\n      or\n      swap1\n      sstore\n      pop\n      0x80\n      dup3\n      add\n      mload\n      dup2\n      0x03\n      add\n      sstore\n      pop\n      pop\n        /* \"Campaign.sol\":3513:3777  {... */\n      pop\n        /* \"Campaign.sol\":3347:3777  function createRequest(... */\n      pop\n      pop\n      pop\n      jump\t// out\n        /* \"Campaign.sol\":5798:5885  function isOwner() external restricted view returns (bool) {... */\n    tag_92:\n        /* \"Campaign.sol\":5851:5855  bool */\n      0x00\n        /* \"Campaign.sol\":1489:1496  manager */\n      dup1\n      0x00\n      swap1\n      sload\n      swap1\n      0x0100\n      exp\n      swap1\n      div\n      0xffffffffffffffffffffffffffffffffffffffff\n      and\n        /* \"Campaign.sol\":1475:1496  msg.sender == manager */\n      0xffffffffffffffffffffffffffffffffffffffff\n      and\n        /* \"Campaign.sol\":1475:1485  msg.sender */\n      caller\n        /* \"Campaign.sol\":1475:1496  msg.sender == manager */\n      0xffffffffffffffffffffffffffffffffffffffff\n      and\n      eq\n        /* \"Campaign.sol\":1454:1569  require(... */\n      tag_228\n      jumpi\n      mload(0x40)\n      0x08c379a000000000000000000000000000000000000000000000000000000000\n      dup2\n      mstore\n      0x04\n      add\n      tag_229\n      swap1\n      tag_136\n      jump\t// in\n    tag_229:\n      mload(0x40)\n      dup1\n      swap2\n      sub\n      swap1\n      revert\n    tag_228:\n        /* \"Campaign.sol\":5874:5878  true */\n      0x01\n        /* \"Campaign.sol\":5867:5878  return true */\n      swap1\n      pop\n        /* \"Campaign.sol\":5798:5885  function isOwner() external restricted view returns (bool) {... */\n      swap1\n      jump\t// out\n        /* \"Campaign.sol\":1052:1076  uint256 public minPledge */\n    tag_96:\n      sload(0x05)\n      dup2\n      jump\t// out\n        /* \"Campaign.sol\":926:948  uint256 public pledged */\n    tag_100:\n      sload(0x02)\n      dup2\n      jump\t// out\n        /* \"Campaign.sol\":1168:1195  uint256 public countPledges */\n    tag_104:\n      sload(0x07)\n      dup2\n      jump\t// out\n        /* \"Campaign.sol\":5200:5352  function getContributionAmount() external view returns (uint256) {... */\n    tag_108:\n        /* \"Campaign.sol\":5256:5263  uint256 */\n      0x00\n        /* \"Campaign.sol\":5275:5294  address contributor */\n      dup1\n        /* \"Campaign.sol\":5297:5307  msg.sender */\n      caller\n        /* \"Campaign.sol\":5275:5307  address contributor = msg.sender */\n      swap1\n      pop\n        /* \"Campaign.sol\":5324:5332  pledgeOf */\n      0x08\n        /* \"Campaign.sol\":5324:5345  pledgeOf[contributor] */\n      0x00\n        /* \"Campaign.sol\":5333:5344  contributor */\n      dup3\n        /* \"Campaign.sol\":5324:5345  pledgeOf[contributor] */\n      0xffffffffffffffffffffffffffffffffffffffff\n      and\n      0xffffffffffffffffffffffffffffffffffffffff\n      and\n      dup2\n      mstore\n      0x20\n      add\n      swap1\n      dup2\n      mstore\n      0x20\n      add\n      0x00\n      keccak256\n      sload\n        /* \"Campaign.sol\":5317:5345  return pledgeOf[contributor] */\n      swap2\n      pop\n      pop\n        /* \"Campaign.sol\":5200:5352  function getContributionAmount() external view returns (uint256) {... */\n      swap1\n      jump\t// out\n        /* \"Campaign.sol\":1227:1270  mapping(address => uint256) public pledgeOf */\n    tag_114:\n      mstore(0x20, 0x08)\n      dup1\n      0x00\n      mstore\n      keccak256(0x00, 0x40)\n      0x00\n      swap2\n      pop\n      swap1\n      pop\n      sload\n      dup2\n      jump\t// out\n        /* \"Campaign.sol\":971:993  uint256 public startAt */\n    tag_118:\n      sload(0x03)\n      dup2\n      jump\t// out\n        /* \"Campaign.sol\":3783:4174  function approveRequest(uint256 _id) external contributed activated {... */\n    tag_123:\n        /* \"Campaign.sol\":1787:1788  0 */\n      0x00\n        /* \"Campaign.sol\":1764:1772  pledgeOf */\n      0x08\n        /* \"Campaign.sol\":1764:1784  pledgeOf[msg.sender] */\n      0x00\n        /* \"Campaign.sol\":1773:1783  msg.sender */\n      caller\n        /* \"Campaign.sol\":1764:1784  pledgeOf[msg.sender] */\n      0xffffffffffffffffffffffffffffffffffffffff\n      and\n      0xffffffffffffffffffffffffffffffffffffffff\n      and\n      dup2\n      mstore\n      0x20\n      add\n      swap1\n      dup2\n      mstore\n      0x20\n      add\n      0x00\n      keccak256\n      sload\n        /* \"Campaign.sol\":1764:1788  pledgeOf[msg.sender] > 0 */\n      gt\n        /* \"Campaign.sol\":1743:1850  require(... */\n      tag_233\n      jumpi\n      mload(0x40)\n      0x08c379a000000000000000000000000000000000000000000000000000000000\n      dup2\n      mstore\n      0x04\n      add\n      tag_234\n      swap1\n      tag_166\n      jump\t// in\n    tag_234:\n      mload(0x40)\n      dup1\n      swap2\n      sub\n      swap1\n      revert\n    tag_233:\n        /* \"Campaign.sol\":2185:2193  canceled */\n      0x0a\n      0x00\n      swap1\n      sload\n      swap1\n      0x0100\n      exp\n      swap1\n      div\n      0xff\n      and\n        /* \"Campaign.sol\":2184:2193  !canceled */\n      iszero\n        /* \"Campaign.sol\":2176:2219  require(!canceled, \"Campaign has canceled\") */\n      tag_236\n      jumpi\n      mload(0x40)\n      0x08c379a000000000000000000000000000000000000000000000000000000000\n      dup2\n      mstore\n      0x04\n      add\n      tag_237\n      swap1\n      tag_140\n      jump\t// in\n    tag_237:\n      mload(0x40)\n      dup1\n      swap2\n      sub\n      swap1\n      revert\n    tag_236:\n        /* \"Campaign.sol\":3861:3884  Request storage request */\n      0x00\n        /* \"Campaign.sol\":3887:3895  requests */\n      0x06\n        /* \"Campaign.sol\":3896:3899  _id */\n      dup3\n        /* \"Campaign.sol\":3887:3900  requests[_id] */\n      dup2\n      sload\n      dup2\n      lt\n      tag_239\n      jumpi\n      tag_240\n      tag_144\n      jump\t// in\n    tag_240:\n    tag_239:\n      swap1\n      0x00\n      mstore\n      keccak256(0x00, 0x20)\n      swap1\n      0x04\n      mul\n      add\n        /* \"Campaign.sol\":3861:3900  Request storage request = requests[_id] */\n      swap1\n      pop\n        /* \"Campaign.sol\":3920:3927  request */\n      dup1\n        /* \"Campaign.sol\":3920:3937  request.completed */\n      0x02\n      add\n      0x14\n      swap1\n      sload\n      swap1\n      0x0100\n      exp\n      swap1\n      div\n      0xff\n      and\n        /* \"Campaign.sol\":3919:3937  !request.completed */\n      iszero\n        /* \"Campaign.sol\":3911:3968  require(!request.completed, \"Request has been completed\") */\n      tag_242\n      jumpi\n      mload(0x40)\n      0x08c379a000000000000000000000000000000000000000000000000000000000\n      dup2\n      mstore\n      0x04\n      add\n      tag_243\n      swap1\n      tag_148\n      jump\t// in\n    tag_243:\n      mload(0x40)\n      dup1\n      swap2\n      sub\n      swap1\n      revert\n    tag_242:\n        /* \"Campaign.sol\":4000:4009  approvals */\n      0x09\n        /* \"Campaign.sol\":4000:4021  approvals[msg.sender] */\n      0x00\n        /* \"Campaign.sol\":4010:4020  msg.sender */\n      caller\n        /* \"Campaign.sol\":4000:4021  approvals[msg.sender] */\n      0xffffffffffffffffffffffffffffffffffffffff\n      and\n      0xffffffffffffffffffffffffffffffffffffffff\n      and\n      dup2\n      mstore\n      0x20\n      add\n      swap1\n      dup2\n      mstore\n      0x20\n      add\n      0x00\n      keccak256\n        /* \"Campaign.sol\":4000:4026  approvals[msg.sender][_id] */\n      0x00\n        /* \"Campaign.sol\":4022:4025  _id */\n      dup4\n        /* \"Campaign.sol\":4000:4026  approvals[msg.sender][_id] */\n      dup2\n      mstore\n      0x20\n      add\n      swap1\n      dup2\n      mstore\n      0x20\n      add\n      0x00\n      keccak256\n      0x00\n      swap1\n      sload\n      swap1\n      0x0100\n      exp\n      swap1\n      div\n      0xff\n      and\n        /* \"Campaign.sol\":3999:4026  !approvals[msg.sender][_id] */\n      iszero\n        /* \"Campaign.sol\":3978:4089  require(... */\n      tag_244\n      jumpi\n      mload(0x40)\n      0x08c379a000000000000000000000000000000000000000000000000000000000\n      dup2\n      mstore\n      0x04\n      add\n      tag_245\n      swap1\n      tag_246\n      jump\t// in\n    tag_245:\n      mload(0x40)\n      dup1\n      swap2\n      sub\n      swap1\n      revert\n    tag_244:\n        /* \"Campaign.sol\":4129:4133  true */\n      0x01\n        /* \"Campaign.sol\":4100:4109  approvals */\n      0x09\n        /* \"Campaign.sol\":4100:4121  approvals[msg.sender] */\n      0x00\n        /* \"Campaign.sol\":4110:4120  msg.sender */\n      caller\n        /* \"Campaign.sol\":4100:4121  approvals[msg.sender] */\n      0xffffffffffffffffffffffffffffffffffffffff\n      and\n      0xffffffffffffffffffffffffffffffffffffffff\n      and\n      dup2\n      mstore\n      0x20\n      add\n      swap1\n      dup2\n      mstore\n      0x20\n      add\n      0x00\n      keccak256\n        /* \"Campaign.sol\":4100:4126  approvals[msg.sender][_id] */\n      0x00\n        /* \"Campaign.sol\":4122:4125  _id */\n      dup5\n        /* \"Campaign.sol\":4100:4126  approvals[msg.sender][_id] */\n      dup2\n      mstore\n      0x20\n      add\n      swap1\n      dup2\n      mstore\n      0x20\n      add\n      0x00\n      keccak256\n      0x00\n        /* \"Campaign.sol\":4100:4133  approvals[msg.sender][_id] = true */\n      0x0100\n      exp\n      dup2\n      sload\n      dup2\n      0xff\n      mul\n      not\n      and\n      swap1\n      dup4\n      iszero\n      iszero\n      mul\n      or\n      swap1\n      sstore\n      pop\n        /* \"Campaign.sol\":4143:4150  request */\n      dup1\n        /* \"Campaign.sol\":4143:4165  request.countApprovals */\n      0x03\n      add\n      0x00\n        /* \"Campaign.sol\":4143:4167  request.countApprovals++ */\n      dup2\n      sload\n      dup1\n      swap3\n      swap2\n      swap1\n      tag_247\n      swap1\n      tag_211\n      jump\t// in\n    tag_247:\n      swap2\n      swap1\n      pop\n      sstore\n      pop\n        /* \"Campaign.sol\":3851:4174  {... */\n      pop\n        /* \"Campaign.sol\":3783:4174  function approveRequest(uint256 _id) external contributed activated {... */\n      pop\n      jump\t// out\n        /* \"Campaign.sol\":2605:2698  function cancel() external restricted activated notsucceeded {... */\n    tag_126:\n        /* \"Campaign.sol\":1489:1496  manager */\n      0x00\n      dup1\n      sload\n      swap1\n      0x0100\n      exp\n      swap1\n      div\n      0xffffffffffffffffffffffffffffffffffffffff\n      and\n        /* \"Campaign.sol\":1475:1496  msg.sender == manager */\n      0xffffffffffffffffffffffffffffffffffffffff\n      and\n        /* \"Campaign.sol\":1475:1485  msg.sender */\n      caller\n        /* \"Campaign.sol\":1475:1496  msg.sender == manager */\n      0xffffffffffffffffffffffffffffffffffffffff\n      and\n      eq\n        /* \"Campaign.sol\":1454:1569  require(... */\n      tag_249\n      jumpi\n      mload(0x40)\n      0x08c379a000000000000000000000000000000000000000000000000000000000\n      dup2\n      mstore\n      0x04\n      add\n      tag_250\n      swap1\n      tag_136\n      jump\t// in\n    tag_250:\n      mload(0x40)\n      dup1\n      swap2\n      sub\n      swap1\n      revert\n    tag_249:\n        /* \"Campaign.sol\":2185:2193  canceled */\n      0x0a\n      0x00\n      swap1\n      sload\n      swap1\n      0x0100\n      exp\n      swap1\n      div\n      0xff\n      and\n        /* \"Campaign.sol\":2184:2193  !canceled */\n      iszero\n        /* \"Campaign.sol\":2176:2219  require(!canceled, \"Campaign has canceled\") */\n      tag_252\n      jumpi\n      mload(0x40)\n      0x08c379a000000000000000000000000000000000000000000000000000000000\n      dup2\n      mstore\n      0x04\n      add\n      tag_253\n      swap1\n      tag_140\n      jump\t// in\n    tag_253:\n      mload(0x40)\n      dup1\n      swap2\n      sub\n      swap1\n      revert\n    tag_252:\n        /* \"Campaign.sol\":2044:2048  goal */\n      sload(0x01)\n        /* \"Campaign.sol\":2034:2041  pledged */\n      sload(0x02)\n        /* \"Campaign.sol\":2034:2048  pledged < goal */\n      lt\n        /* \"Campaign.sol\":2013:2121  require(... */\n      tag_255\n      jumpi\n      mload(0x40)\n      0x08c379a000000000000000000000000000000000000000000000000000000000\n      dup2\n      mstore\n      0x04\n      add\n      tag_256\n      swap1\n      tag_170\n      jump\t// in\n    tag_256:\n      mload(0x40)\n      dup1\n      swap2\n      sub\n      swap1\n      revert\n    tag_255:\n        /* \"Campaign.sol\":2687:2691  true */\n      0x01\n        /* \"Campaign.sol\":2676:2684  canceled */\n      0x0a\n      0x00\n        /* \"Campaign.sol\":2676:2691  canceled = true */\n      0x0100\n      exp\n      dup2\n      sload\n      dup2\n      0xff\n      mul\n      not\n      and\n      swap1\n      dup4\n      iszero\n      iszero\n      mul\n      or\n      swap1\n      sstore\n      pop\n        /* \"Campaign.sol\":2605:2698  function cancel() external restricted activated notsucceeded {... */\n      jump\t// out\n        /* \"Campaign.sol\":1292:1353  mapping(address => mapping(uint256 => bool)) public approvals */\n    tag_131:\n      mstore(0x20, 0x09)\n      dup2\n      0x00\n      mstore\n      mstore(0x20, keccak256(0x00, 0x40))\n      dup1\n      0x00\n      mstore\n      keccak256(0x00, 0x40)\n      0x00\n      swap2\n      pop\n      swap2\n      pop\n      swap1\n      sload\n      swap1\n      0x0100\n      exp\n      swap1\n      div\n      0xff\n      and\n      dup2\n      jump\t// out\n        /* \"#utility.yul\":7:82   */\n    tag_258:\n        /* \"#utility.yul\":40:46   */\n      0x00\n        /* \"#utility.yul\":73:75   */\n      0x40\n        /* \"#utility.yul\":67:76   */\n      mload\n        /* \"#utility.yul\":57:76   */\n      swap1\n      pop\n        /* \"#utility.yul\":7:82   */\n      swap1\n      jump\t// out\n        /* \"#utility.yul\":88:205   */\n    tag_259:\n        /* \"#utility.yul\":197:198   */\n      0x00\n        /* \"#utility.yul\":194:195   */\n      dup1\n        /* \"#utility.yul\":187:199   */\n      revert\n        /* \"#utility.yul\":211:328   */\n    tag_260:\n        /* \"#utility.yul\":320:321   */\n      0x00\n        /* \"#utility.yul\":317:318   */\n      dup1\n        /* \"#utility.yul\":310:322   */\n      revert\n        /* \"#utility.yul\":334:411   */\n    tag_261:\n        /* \"#utility.yul\":371:378   */\n      0x00\n        /* \"#utility.yul\":400:405   */\n      dup2\n        /* \"#utility.yul\":389:405   */\n      swap1\n      pop\n        /* \"#utility.yul\":334:411   */\n      swap2\n      swap1\n      pop\n      jump\t// out\n        /* \"#utility.yul\":417:539   */\n    tag_262:\n        /* \"#utility.yul\":490:514   */\n      tag_346\n        /* \"#utility.yul\":508:513   */\n      dup2\n        /* \"#utility.yul\":490:514   */\n      tag_261\n      jump\t// in\n    tag_346:\n        /* \"#utility.yul\":483:488   */\n      dup2\n        /* \"#utility.yul\":480:515   */\n      eq\n        /* \"#utility.yul\":470:533   */\n      tag_347\n      jumpi\n        /* \"#utility.yul\":529:530   */\n      0x00\n        /* \"#utility.yul\":526:527   */\n      dup1\n        /* \"#utility.yul\":519:531   */\n      revert\n        /* \"#utility.yul\":470:533   */\n    tag_347:\n        /* \"#utility.yul\":417:539   */\n      pop\n      jump\t// out\n        /* \"#utility.yul\":545:684   */\n    tag_263:\n        /* \"#utility.yul\":591:596   */\n      0x00\n        /* \"#utility.yul\":629:635   */\n      dup2\n        /* \"#utility.yul\":616:636   */\n      calldataload\n        /* \"#utility.yul\":607:636   */\n      swap1\n      pop\n        /* \"#utility.yul\":645:678   */\n      tag_349\n        /* \"#utility.yul\":672:677   */\n      dup2\n        /* \"#utility.yul\":645:678   */\n      tag_262\n      jump\t// in\n    tag_349:\n        /* \"#utility.yul\":545:684   */\n      swap3\n      swap2\n      pop\n      pop\n      jump\t// out\n        /* \"#utility.yul\":690:1019   */\n    tag_31:\n        /* \"#utility.yul\":749:755   */\n      0x00\n        /* \"#utility.yul\":798:800   */\n      0x20\n        /* \"#utility.yul\":786:795   */\n      dup3\n        /* \"#utility.yul\":777:784   */\n      dup5\n        /* \"#utility.yul\":773:796   */\n      sub\n        /* \"#utility.yul\":769:801   */\n      slt\n        /* \"#utility.yul\":766:885   */\n      iszero\n      tag_351\n      jumpi\n        /* \"#utility.yul\":804:883   */\n      tag_352\n      tag_259\n      jump\t// in\n    tag_352:\n        /* \"#utility.yul\":766:885   */\n    tag_351:\n        /* \"#utility.yul\":924:925   */\n      0x00\n        /* \"#utility.yul\":949:1002   */\n      tag_353\n        /* \"#utility.yul\":994:1001   */\n      dup5\n        /* \"#utility.yul\":985:991   */\n      dup3\n        /* \"#utility.yul\":974:983   */\n      dup6\n        /* \"#utility.yul\":970:992   */\n      add\n        /* \"#utility.yul\":949:1002   */\n      tag_263\n      jump\t// in\n    tag_353:\n        /* \"#utility.yul\":939:1002   */\n      swap2\n      pop\n        /* \"#utility.yul\":895:1012   */\n      pop\n        /* \"#utility.yul\":690:1019   */\n      swap3\n      swap2\n      pop\n      pop\n      jump\t// out\n        /* \"#utility.yul\":1025:1143   */\n    tag_264:\n        /* \"#utility.yul\":1112:1136   */\n      tag_355\n        /* \"#utility.yul\":1130:1135   */\n      dup2\n        /* \"#utility.yul\":1112:1136   */\n      tag_261\n      jump\t// in\n    tag_355:\n        /* \"#utility.yul\":1107:1110   */\n      dup3\n        /* \"#utility.yul\":1100:1137   */\n      mstore\n        /* \"#utility.yul\":1025:1143   */\n      pop\n      pop\n      jump\t// out\n        /* \"#utility.yul\":1149:1371   */\n    tag_37:\n        /* \"#utility.yul\":1242:1246   */\n      0x00\n        /* \"#utility.yul\":1280:1282   */\n      0x20\n        /* \"#utility.yul\":1269:1278   */\n      dup3\n        /* \"#utility.yul\":1265:1283   */\n      add\n        /* \"#utility.yul\":1257:1283   */\n      swap1\n      pop\n        /* \"#utility.yul\":1293:1364   */\n      tag_357\n        /* \"#utility.yul\":1361:1362   */\n      0x00\n        /* \"#utility.yul\":1350:1359   */\n      dup4\n        /* \"#utility.yul\":1346:1363   */\n      add\n        /* \"#utility.yul\":1337:1343   */\n      dup5\n        /* \"#utility.yul\":1293:1364   */\n      tag_264\n      jump\t// in\n    tag_357:\n        /* \"#utility.yul\":1149:1371   */\n      swap3\n      swap2\n      pop\n      pop\n      jump\t// out\n        /* \"#utility.yul\":1377:1467   */\n    tag_265:\n        /* \"#utility.yul\":1411:1418   */\n      0x00\n        /* \"#utility.yul\":1454:1459   */\n      dup2\n        /* \"#utility.yul\":1447:1460   */\n      iszero\n        /* \"#utility.yul\":1440:1461   */\n      iszero\n        /* \"#utility.yul\":1429:1461   */\n      swap1\n      pop\n        /* \"#utility.yul\":1377:1467   */\n      swap2\n      swap1\n      pop\n      jump\t// out\n        /* \"#utility.yul\":1473:1582   */\n    tag_266:\n        /* \"#utility.yul\":1554:1575   */\n      tag_360\n        /* \"#utility.yul\":1569:1574   */\n      dup2\n        /* \"#utility.yul\":1554:1575   */\n      tag_265\n      jump\t// in\n    tag_360:\n        /* \"#utility.yul\":1549:1552   */\n      dup3\n        /* \"#utility.yul\":1542:1576   */\n      mstore\n        /* \"#utility.yul\":1473:1582   */\n      pop\n      pop\n      jump\t// out\n        /* \"#utility.yul\":1588:1798   */\n    tag_46:\n        /* \"#utility.yul\":1675:1679   */\n      0x00\n        /* \"#utility.yul\":1713:1715   */\n      0x20\n        /* \"#utility.yul\":1702:1711   */\n      dup3\n        /* \"#utility.yul\":1698:1716   */\n      add\n        /* \"#utility.yul\":1690:1716   */\n      swap1\n      pop\n        /* \"#utility.yul\":1726:1791   */\n      tag_362\n        /* \"#utility.yul\":1788:1789   */\n      0x00\n        /* \"#utility.yul\":1777:1786   */\n      dup4\n        /* \"#utility.yul\":1773:1790   */\n      add\n        /* \"#utility.yul\":1764:1770   */\n      dup5\n        /* \"#utility.yul\":1726:1791   */\n      tag_266\n      jump\t// in\n    tag_362:\n        /* \"#utility.yul\":1588:1798   */\n      swap3\n      swap2\n      pop\n      pop\n      jump\t// out\n        /* \"#utility.yul\":1804:1930   */\n    tag_267:\n        /* \"#utility.yul\":1841:1848   */\n      0x00\n        /* \"#utility.yul\":1881:1923   */\n      0xffffffffffffffffffffffffffffffffffffffff\n        /* \"#utility.yul\":1874:1879   */\n      dup3\n        /* \"#utility.yul\":1870:1924   */\n      and\n        /* \"#utility.yul\":1859:1924   */\n      swap1\n      pop\n        /* \"#utility.yul\":1804:1930   */\n      swap2\n      swap1\n      pop\n      jump\t// out\n        /* \"#utility.yul\":1936:2032   */\n    tag_268:\n        /* \"#utility.yul\":1973:1980   */\n      0x00\n        /* \"#utility.yul\":2002:2026   */\n      tag_365\n        /* \"#utility.yul\":2020:2025   */\n      dup3\n        /* \"#utility.yul\":2002:2026   */\n      tag_267\n      jump\t// in\n    tag_365:\n        /* \"#utility.yul\":1991:2026   */\n      swap1\n      pop\n        /* \"#utility.yul\":1936:2032   */\n      swap2\n      swap1\n      pop\n      jump\t// out\n        /* \"#utility.yul\":2038:2156   */\n    tag_269:\n        /* \"#utility.yul\":2125:2149   */\n      tag_367\n        /* \"#utility.yul\":2143:2148   */\n      dup2\n        /* \"#utility.yul\":2125:2149   */\n      tag_268\n      jump\t// in\n    tag_367:\n        /* \"#utility.yul\":2120:2123   */\n      dup3\n        /* \"#utility.yul\":2113:2150   */\n      mstore\n        /* \"#utility.yul\":2038:2156   */\n      pop\n      pop\n      jump\t// out\n        /* \"#utility.yul\":2162:2826   */\n    tag_55:\n        /* \"#utility.yul\":2367:2371   */\n      0x00\n        /* \"#utility.yul\":2405:2408   */\n      0xa0\n        /* \"#utility.yul\":2394:2403   */\n      dup3\n        /* \"#utility.yul\":2390:2409   */\n      add\n        /* \"#utility.yul\":2382:2409   */\n      swap1\n      pop\n        /* \"#utility.yul\":2419:2490   */\n      tag_369\n        /* \"#utility.yul\":2487:2488   */\n      0x00\n        /* \"#utility.yul\":2476:2485   */\n      dup4\n        /* \"#utility.yul\":2472:2489   */\n      add\n        /* \"#utility.yul\":2463:2469   */\n      dup9\n        /* \"#utility.yul\":2419:2490   */\n      tag_264\n      jump\t// in\n    tag_369:\n        /* \"#utility.yul\":2500:2572   */\n      tag_370\n        /* \"#utility.yul\":2568:2570   */\n      0x20\n        /* \"#utility.yul\":2557:2566   */\n      dup4\n        /* \"#utility.yul\":2553:2571   */\n      add\n        /* \"#utility.yul\":2544:2550   */\n      dup8\n        /* \"#utility.yul\":2500:2572   */\n      tag_264\n      jump\t// in\n    tag_370:\n        /* \"#utility.yul\":2582:2654   */\n      tag_371\n        /* \"#utility.yul\":2650:2652   */\n      0x40\n        /* \"#utility.yul\":2639:2648   */\n      dup4\n        /* \"#utility.yul\":2635:2653   */\n      add\n        /* \"#utility.yul\":2626:2632   */\n      dup7\n        /* \"#utility.yul\":2582:2654   */\n      tag_264\n      jump\t// in\n    tag_371:\n        /* \"#utility.yul\":2664:2736   */\n      tag_372\n        /* \"#utility.yul\":2732:2734   */\n      0x60\n        /* \"#utility.yul\":2721:2730   */\n      dup4\n        /* \"#utility.yul\":2717:2735   */\n      add\n        /* \"#utility.yul\":2708:2714   */\n      dup6\n        /* \"#utility.yul\":2664:2736   */\n      tag_264\n      jump\t// in\n    tag_372:\n        /* \"#utility.yul\":2746:2819   */\n      tag_373\n        /* \"#utility.yul\":2814:2817   */\n      0x80\n        /* \"#utility.yul\":2803:2812   */\n      dup4\n        /* \"#utility.yul\":2799:2818   */\n      add\n        /* \"#utility.yul\":2790:2796   */\n      dup5\n        /* \"#utility.yul\":2746:2819   */\n      tag_269\n      jump\t// in\n    tag_373:\n        /* \"#utility.yul\":2162:2826   */\n      swap7\n      swap6\n      pop\n      pop\n      pop\n      pop\n      pop\n      pop\n      jump\t// out\n        /* \"#utility.yul\":2832:3054   */\n    tag_60:\n        /* \"#utility.yul\":2925:2929   */\n      0x00\n        /* \"#utility.yul\":2963:2965   */\n      0x20\n        /* \"#utility.yul\":2952:2961   */\n      dup3\n        /* \"#utility.yul\":2948:2966   */\n      add\n        /* \"#utility.yul\":2940:2966   */\n      swap1\n      pop\n        /* \"#utility.yul\":2976:3047   */\n      tag_375\n        /* \"#utility.yul\":3044:3045   */\n      0x00\n        /* \"#utility.yul\":3033:3042   */\n      dup4\n        /* \"#utility.yul\":3029:3046   */\n      add\n        /* \"#utility.yul\":3020:3026   */\n      dup5\n        /* \"#utility.yul\":2976:3047   */\n      tag_269\n      jump\t// in\n    tag_375:\n        /* \"#utility.yul\":2832:3054   */\n      swap3\n      swap2\n      pop\n      pop\n      jump\t// out\n        /* \"#utility.yul\":3060:3159   */\n    tag_270:\n        /* \"#utility.yul\":3112:3118   */\n      0x00\n        /* \"#utility.yul\":3146:3151   */\n      dup2\n        /* \"#utility.yul\":3140:3152   */\n      mload\n        /* \"#utility.yul\":3130:3152   */\n      swap1\n      pop\n        /* \"#utility.yul\":3060:3159   */\n      swap2\n      swap1\n      pop\n      jump\t// out\n        /* \"#utility.yul\":3165:3334   */\n    tag_271:\n        /* \"#utility.yul\":3249:3260   */\n      0x00\n        /* \"#utility.yul\":3283:3289   */\n      dup3\n        /* \"#utility.yul\":3278:3281   */\n      dup3\n        /* \"#utility.yul\":3271:3290   */\n      mstore\n        /* \"#utility.yul\":3323:3327   */\n      0x20\n        /* \"#utility.yul\":3318:3321   */\n      dup3\n        /* \"#utility.yul\":3314:3328   */\n      add\n        /* \"#utility.yul\":3299:3328   */\n      swap1\n      pop\n        /* \"#utility.yul\":3165:3334   */\n      swap3\n      swap2\n      pop\n      pop\n      jump\t// out\n        /* \"#utility.yul\":3340:3647   */\n    tag_272:\n        /* \"#utility.yul\":3408:3409   */\n      0x00\n        /* \"#utility.yul\":3418:3531   */\n    tag_379:\n        /* \"#utility.yul\":3432:3438   */\n      dup4\n        /* \"#utility.yul\":3429:3430   */\n      dup2\n        /* \"#utility.yul\":3426:3439   */\n      lt\n        /* \"#utility.yul\":3418:3531   */\n      iszero\n      tag_381\n      jumpi\n        /* \"#utility.yul\":3517:3518   */\n      dup1\n        /* \"#utility.yul\":3512:3515   */\n      dup3\n        /* \"#utility.yul\":3508:3519   */\n      add\n        /* \"#utility.yul\":3502:3520   */\n      mload\n        /* \"#utility.yul\":3498:3499   */\n      dup2\n        /* \"#utility.yul\":3493:3496   */\n      dup5\n        /* \"#utility.yul\":3489:3500   */\n      add\n        /* \"#utility.yul\":3482:3521   */\n      mstore\n        /* \"#utility.yul\":3454:3456   */\n      0x20\n        /* \"#utility.yul\":3451:3452   */\n      dup2\n        /* \"#utility.yul\":3447:3457   */\n      add\n        /* \"#utility.yul\":3442:3457   */\n      swap1\n      pop\n        /* \"#utility.yul\":3418:3531   */\n      jump(tag_379)\n    tag_381:\n        /* \"#utility.yul\":3549:3555   */\n      dup4\n        /* \"#utility.yul\":3546:3547   */\n      dup2\n        /* \"#utility.yul\":3543:3556   */\n      gt\n        /* \"#utility.yul\":3540:3641   */\n      iszero\n      tag_382\n      jumpi\n        /* \"#utility.yul\":3629:3630   */\n      0x00\n        /* \"#utility.yul\":3620:3626   */\n      dup5\n        /* \"#utility.yul\":3615:3618   */\n      dup5\n        /* \"#utility.yul\":3611:3627   */\n      add\n        /* \"#utility.yul\":3604:3631   */\n      mstore\n        /* \"#utility.yul\":3540:3641   */\n    tag_382:\n        /* \"#utility.yul\":3389:3647   */\n      pop\n        /* \"#utility.yul\":3340:3647   */\n      pop\n      pop\n      pop\n      jump\t// out\n        /* \"#utility.yul\":3653:3755   */\n    tag_273:\n        /* \"#utility.yul\":3694:3700   */\n      0x00\n        /* \"#utility.yul\":3745:3747   */\n      0x1f\n        /* \"#utility.yul\":3741:3748   */\n      not\n        /* \"#utility.yul\":3736:3738   */\n      0x1f\n        /* \"#utility.yul\":3729:3734   */\n      dup4\n        /* \"#utility.yul\":3725:3739   */\n      add\n        /* \"#utility.yul\":3721:3749   */\n      and\n        /* \"#utility.yul\":3711:3749   */\n      swap1\n      pop\n        /* \"#utility.yul\":3653:3755   */\n      swap2\n      swap1\n      pop\n      jump\t// out\n        /* \"#utility.yul\":3761:4125   */\n    tag_274:\n        /* \"#utility.yul\":3849:3852   */\n      0x00\n        /* \"#utility.yul\":3877:3916   */\n      tag_385\n        /* \"#utility.yul\":3910:3915   */\n      dup3\n        /* \"#utility.yul\":3877:3916   */\n      tag_270\n      jump\t// in\n    tag_385:\n        /* \"#utility.yul\":3932:4003   */\n      tag_386\n        /* \"#utility.yul\":3996:4002   */\n      dup2\n        /* \"#utility.yul\":3991:3994   */\n      dup6\n        /* \"#utility.yul\":3932:4003   */\n      tag_271\n      jump\t// in\n    tag_386:\n        /* \"#utility.yul\":3925:4003   */\n      swap4\n      pop\n        /* \"#utility.yul\":4012:4064   */\n      tag_387\n        /* \"#utility.yul\":4057:4063   */\n      dup2\n        /* \"#utility.yul\":4052:4055   */\n      dup6\n        /* \"#utility.yul\":4045:4049   */\n      0x20\n        /* \"#utility.yul\":4038:4043   */\n      dup7\n        /* \"#utility.yul\":4034:4050   */\n      add\n        /* \"#utility.yul\":4012:4064   */\n      tag_272\n      jump\t// in\n    tag_387:\n        /* \"#utility.yul\":4089:4118   */\n      tag_388\n        /* \"#utility.yul\":4111:4117   */\n      dup2\n        /* \"#utility.yul\":4089:4118   */\n      tag_273\n      jump\t// in\n    tag_388:\n        /* \"#utility.yul\":4084:4087   */\n      dup5\n        /* \"#utility.yul\":4080:4119   */\n      add\n        /* \"#utility.yul\":4073:4119   */\n      swap2\n      pop\n        /* \"#utility.yul\":3853:4125   */\n      pop\n        /* \"#utility.yul\":3761:4125   */\n      swap3\n      swap2\n      pop\n      pop\n      jump\t// out\n        /* \"#utility.yul\":4131:4235   */\n    tag_275:\n        /* \"#utility.yul\":4176:4183   */\n      0x00\n        /* \"#utility.yul\":4205:4229   */\n      tag_390\n        /* \"#utility.yul\":4223:4228   */\n      dup3\n        /* \"#utility.yul\":4205:4229   */\n      tag_267\n      jump\t// in\n    tag_390:\n        /* \"#utility.yul\":4194:4229   */\n      swap1\n      pop\n        /* \"#utility.yul\":4131:4235   */\n      swap2\n      swap1\n      pop\n      jump\t// out\n        /* \"#utility.yul\":4241:4383   */\n    tag_276:\n        /* \"#utility.yul\":4344:4376   */\n      tag_392\n        /* \"#utility.yul\":4370:4375   */\n      dup2\n        /* \"#utility.yul\":4344:4376   */\n      tag_275\n      jump\t// in\n    tag_392:\n        /* \"#utility.yul\":4339:4342   */\n      dup3\n        /* \"#utility.yul\":4332:4377   */\n      mstore\n        /* \"#utility.yul\":4241:4383   */\n      pop\n      pop\n      jump\t// out\n        /* \"#utility.yul\":4389:5164   */\n    tag_77:\n        /* \"#utility.yul\":4624:4628   */\n      0x00\n        /* \"#utility.yul\":4662:4665   */\n      0xa0\n        /* \"#utility.yul\":4651:4660   */\n      dup3\n        /* \"#utility.yul\":4647:4666   */\n      add\n        /* \"#utility.yul\":4639:4666   */\n      swap1\n      pop\n        /* \"#utility.yul\":4712:4721   */\n      dup2\n        /* \"#utility.yul\":4706:4710   */\n      dup2\n        /* \"#utility.yul\":4702:4722   */\n      sub\n        /* \"#utility.yul\":4698:4699   */\n      0x00\n        /* \"#utility.yul\":4687:4696   */\n      dup4\n        /* \"#utility.yul\":4683:4700   */\n      add\n        /* \"#utility.yul\":4676:4723   */\n      mstore\n        /* \"#utility.yul\":4740:4818   */\n      tag_394\n        /* \"#utility.yul\":4813:4817   */\n      dup2\n        /* \"#utility.yul\":4804:4810   */\n      dup9\n        /* \"#utility.yul\":4740:4818   */\n      tag_274\n      jump\t// in\n    tag_394:\n        /* \"#utility.yul\":4732:4818   */\n      swap1\n      pop\n        /* \"#utility.yul\":4828:4900   */\n      tag_395\n        /* \"#utility.yul\":4896:4898   */\n      0x20\n        /* \"#utility.yul\":4885:4894   */\n      dup4\n        /* \"#utility.yul\":4881:4899   */\n      add\n        /* \"#utility.yul\":4872:4878   */\n      dup8\n        /* \"#utility.yul\":4828:4900   */\n      tag_264\n      jump\t// in\n    tag_395:\n        /* \"#utility.yul\":4910:4998   */\n      tag_396\n        /* \"#utility.yul\":4994:4996   */\n      0x40\n        /* \"#utility.yul\":4983:4992   */\n      dup4\n        /* \"#utility.yul\":4979:4997   */\n      add\n        /* \"#utility.yul\":4970:4976   */\n      dup7\n        /* \"#utility.yul\":4910:4998   */\n      tag_276\n      jump\t// in\n    tag_396:\n        /* \"#utility.yul\":5008:5074   */\n      tag_397\n        /* \"#utility.yul\":5070:5072   */\n      0x60\n        /* \"#utility.yul\":5059:5068   */\n      dup4\n        /* \"#utility.yul\":5055:5073   */\n      add\n        /* \"#utility.yul\":5046:5052   */\n      dup6\n        /* \"#utility.yul\":5008:5074   */\n      tag_266\n      jump\t// in\n    tag_397:\n        /* \"#utility.yul\":5084:5157   */\n      tag_398\n        /* \"#utility.yul\":5152:5155   */\n      0x80\n        /* \"#utility.yul\":5141:5150   */\n      dup4\n        /* \"#utility.yul\":5137:5156   */\n      add\n        /* \"#utility.yul\":5128:5134   */\n      dup5\n        /* \"#utility.yul\":5084:5157   */\n      tag_264\n      jump\t// in\n    tag_398:\n        /* \"#utility.yul\":4389:5164   */\n      swap7\n      swap6\n      pop\n      pop\n      pop\n      pop\n      pop\n      pop\n      jump\t// out\n        /* \"#utility.yul\":5170:5307   */\n    tag_277:\n        /* \"#utility.yul\":5260:5266   */\n      0x00\n        /* \"#utility.yul\":5294:5299   */\n      dup2\n        /* \"#utility.yul\":5288:5300   */\n      mload\n        /* \"#utility.yul\":5278:5300   */\n      swap1\n      pop\n        /* \"#utility.yul\":5170:5307   */\n      swap2\n      swap1\n      pop\n      jump\t// out\n        /* \"#utility.yul\":5313:5520   */\n    tag_278:\n        /* \"#utility.yul\":5435:5446   */\n      0x00\n        /* \"#utility.yul\":5469:5475   */\n      dup3\n        /* \"#utility.yul\":5464:5467   */\n      dup3\n        /* \"#utility.yul\":5457:5476   */\n      mstore\n        /* \"#utility.yul\":5509:5513   */\n      0x20\n        /* \"#utility.yul\":5504:5507   */\n      dup3\n        /* \"#utility.yul\":5500:5514   */\n      add\n        /* \"#utility.yul\":5485:5514   */\n      swap1\n      pop\n        /* \"#utility.yul\":5313:5520   */\n      swap3\n      swap2\n      pop\n      pop\n      jump\t// out\n        /* \"#utility.yul\":5526:5681   */\n    tag_279:\n        /* \"#utility.yul\":5616:5620   */\n      0x00\n        /* \"#utility.yul\":5639:5642   */\n      dup2\n        /* \"#utility.yul\":5631:5642   */\n      swap1\n      pop\n        /* \"#utility.yul\":5669:5673   */\n      0x20\n        /* \"#utility.yul\":5664:5667   */\n      dup3\n        /* \"#utility.yul\":5660:5674   */\n      add\n        /* \"#utility.yul\":5652:5674   */\n      swap1\n      pop\n        /* \"#utility.yul\":5526:5681   */\n      swap2\n      swap1\n      pop\n      jump\t// out\n        /* \"#utility.yul\":5687:5846   */\n    tag_280:\n        /* \"#utility.yul\":5761:5772   */\n      0x00\n        /* \"#utility.yul\":5795:5801   */\n      dup3\n        /* \"#utility.yul\":5790:5793   */\n      dup3\n        /* \"#utility.yul\":5783:5802   */\n      mstore\n        /* \"#utility.yul\":5835:5839   */\n      0x20\n        /* \"#utility.yul\":5830:5833   */\n      dup3\n        /* \"#utility.yul\":5826:5840   */\n      add\n        /* \"#utility.yul\":5811:5840   */\n      swap1\n      pop\n        /* \"#utility.yul\":5687:5846   */\n      swap3\n      swap2\n      pop\n      pop\n      jump\t// out\n        /* \"#utility.yul\":5852:6196   */\n    tag_281:\n        /* \"#utility.yul\":5930:5933   */\n      0x00\n        /* \"#utility.yul\":5958:5997   */\n      tag_404\n        /* \"#utility.yul\":5991:5996   */\n      dup3\n        /* \"#utility.yul\":5958:5997   */\n      tag_270\n      jump\t// in\n    tag_404:\n        /* \"#utility.yul\":6013:6074   */\n      tag_405\n        /* \"#utility.yul\":6067:6073   */\n      dup2\n        /* \"#utility.yul\":6062:6065   */\n      dup6\n        /* \"#utility.yul\":6013:6074   */\n      tag_280\n      jump\t// in\n    tag_405:\n        /* \"#utility.yul\":6006:6074   */\n      swap4\n      pop\n        /* \"#utility.yul\":6083:6135   */\n      tag_406\n        /* \"#utility.yul\":6128:6134   */\n      dup2\n        /* \"#utility.yul\":6123:6126   */\n      dup6\n        /* \"#utility.yul\":6116:6120   */\n      0x20\n        /* \"#utility.yul\":6109:6114   */\n      dup7\n        /* \"#utility.yul\":6105:6121   */\n      add\n        /* \"#utility.yul\":6083:6135   */\n      tag_272\n      jump\t// in\n    tag_406:\n        /* \"#utility.yul\":6160:6189   */\n      tag_407\n        /* \"#utility.yul\":6182:6188   */\n      dup2\n        /* \"#utility.yul\":6160:6189   */\n      tag_273\n      jump\t// in\n    tag_407:\n        /* \"#utility.yul\":6155:6158   */\n      dup5\n        /* \"#utility.yul\":6151:6190   */\n      add\n        /* \"#utility.yul\":6144:6190   */\n      swap2\n      pop\n        /* \"#utility.yul\":5934:6196   */\n      pop\n        /* \"#utility.yul\":5852:6196   */\n      swap3\n      swap2\n      pop\n      pop\n      jump\t// out\n        /* \"#utility.yul\":6202:6310   */\n    tag_282:\n        /* \"#utility.yul\":6279:6303   */\n      tag_409\n        /* \"#utility.yul\":6297:6302   */\n      dup2\n        /* \"#utility.yul\":6279:6303   */\n      tag_261\n      jump\t// in\n    tag_409:\n        /* \"#utility.yul\":6274:6277   */\n      dup3\n        /* \"#utility.yul\":6267:6304   */\n      mstore\n        /* \"#utility.yul\":6202:6310   */\n      pop\n      pop\n      jump\t// out\n        /* \"#utility.yul\":6316:6448   */\n    tag_283:\n        /* \"#utility.yul\":6409:6441   */\n      tag_411\n        /* \"#utility.yul\":6435:6440   */\n      dup2\n        /* \"#utility.yul\":6409:6441   */\n      tag_275\n      jump\t// in\n    tag_411:\n        /* \"#utility.yul\":6404:6407   */\n      dup3\n        /* \"#utility.yul\":6397:6442   */\n      mstore\n        /* \"#utility.yul\":6316:6448   */\n      pop\n      pop\n      jump\t// out\n        /* \"#utility.yul\":6454:6553   */\n    tag_284:\n        /* \"#utility.yul\":6525:6546   */\n      tag_413\n        /* \"#utility.yul\":6540:6545   */\n      dup2\n        /* \"#utility.yul\":6525:6546   */\n      tag_265\n      jump\t// in\n    tag_413:\n        /* \"#utility.yul\":6520:6523   */\n      dup3\n        /* \"#utility.yul\":6513:6547   */\n      mstore\n        /* \"#utility.yul\":6454:6553   */\n      pop\n      pop\n      jump\t// out\n        /* \"#utility.yul\":6617:7770   */\n    tag_285:\n        /* \"#utility.yul\":6722:6725   */\n      0x00\n        /* \"#utility.yul\":6758:6762   */\n      0xa0\n        /* \"#utility.yul\":6753:6756   */\n      dup4\n        /* \"#utility.yul\":6749:6763   */\n      add\n        /* \"#utility.yul\":6852:6856   */\n      0x00\n        /* \"#utility.yul\":6845:6850   */\n      dup4\n        /* \"#utility.yul\":6841:6857   */\n      add\n        /* \"#utility.yul\":6835:6858   */\n      mload\n        /* \"#utility.yul\":6905:6908   */\n      dup5\n        /* \"#utility.yul\":6899:6903   */\n      dup3\n        /* \"#utility.yul\":6895:6909   */\n      sub\n        /* \"#utility.yul\":6888:6892   */\n      0x00\n        /* \"#utility.yul\":6883:6886   */\n      dup7\n        /* \"#utility.yul\":6879:6893   */\n      add\n        /* \"#utility.yul\":6872:6910   */\n      mstore\n        /* \"#utility.yul\":6931:7004   */\n      tag_415\n        /* \"#utility.yul\":6999:7003   */\n      dup3\n        /* \"#utility.yul\":6985:6997   */\n      dup3\n        /* \"#utility.yul\":6931:7004   */\n      tag_281\n      jump\t// in\n    tag_415:\n        /* \"#utility.yul\":6923:7004   */\n      swap2\n      pop\n        /* \"#utility.yul\":6773:7015   */\n      pop\n        /* \"#utility.yul\":7099:7103   */\n      0x20\n        /* \"#utility.yul\":7092:7097   */\n      dup4\n        /* \"#utility.yul\":7088:7104   */\n      add\n        /* \"#utility.yul\":7082:7105   */\n      mload\n        /* \"#utility.yul\":7118:7181   */\n      tag_416\n        /* \"#utility.yul\":7175:7179   */\n      0x20\n        /* \"#utility.yul\":7170:7173   */\n      dup7\n        /* \"#utility.yul\":7166:7180   */\n      add\n        /* \"#utility.yul\":7152:7164   */\n      dup3\n        /* \"#utility.yul\":7118:7181   */\n      tag_282\n      jump\t// in\n    tag_416:\n        /* \"#utility.yul\":7025:7191   */\n      pop\n        /* \"#utility.yul\":7278:7282   */\n      0x40\n        /* \"#utility.yul\":7271:7276   */\n      dup4\n        /* \"#utility.yul\":7267:7283   */\n      add\n        /* \"#utility.yul\":7261:7284   */\n      mload\n        /* \"#utility.yul\":7297:7376   */\n      tag_417\n        /* \"#utility.yul\":7370:7374   */\n      0x40\n        /* \"#utility.yul\":7365:7368   */\n      dup7\n        /* \"#utility.yul\":7361:7375   */\n      add\n        /* \"#utility.yul\":7347:7359   */\n      dup3\n        /* \"#utility.yul\":7297:7376   */\n      tag_283\n      jump\t// in\n    tag_417:\n        /* \"#utility.yul\":7201:7386   */\n      pop\n        /* \"#utility.yul\":7473:7477   */\n      0x60\n        /* \"#utility.yul\":7466:7471   */\n      dup4\n        /* \"#utility.yul\":7462:7478   */\n      add\n        /* \"#utility.yul\":7456:7479   */\n      mload\n        /* \"#utility.yul\":7492:7549   */\n      tag_418\n        /* \"#utility.yul\":7543:7547   */\n      0x60\n        /* \"#utility.yul\":7538:7541   */\n      dup7\n        /* \"#utility.yul\":7534:7548   */\n      add\n        /* \"#utility.yul\":7520:7532   */\n      dup3\n        /* \"#utility.yul\":7492:7549   */\n      tag_284\n      jump\t// in\n    tag_418:\n        /* \"#utility.yul\":7396:7559   */\n      pop\n        /* \"#utility.yul\":7651:7655   */\n      0x80\n        /* \"#utility.yul\":7644:7649   */\n      dup4\n        /* \"#utility.yul\":7640:7656   */\n      add\n        /* \"#utility.yul\":7634:7657   */\n      mload\n        /* \"#utility.yul\":7670:7733   */\n      tag_419\n        /* \"#utility.yul\":7727:7731   */\n      0x80\n        /* \"#utility.yul\":7722:7725   */\n      dup7\n        /* \"#utility.yul\":7718:7732   */\n      add\n        /* \"#utility.yul\":7704:7716   */\n      dup3\n        /* \"#utility.yul\":7670:7733   */\n      tag_282\n      jump\t// in\n    tag_419:\n        /* \"#utility.yul\":7569:7743   */\n      pop\n        /* \"#utility.yul\":7760:7764   */\n      dup1\n        /* \"#utility.yul\":7753:7764   */\n      swap2\n      pop\n        /* \"#utility.yul\":6727:7770   */\n      pop\n        /* \"#utility.yul\":6617:7770   */\n      swap3\n      swap2\n      pop\n      pop\n      jump\t// out\n        /* \"#utility.yul\":7776:8024   */\n    tag_286:\n        /* \"#utility.yul\":7891:7901   */\n      0x00\n        /* \"#utility.yul\":7926:8018   */\n      tag_421\n        /* \"#utility.yul\":8014:8017   */\n      dup4\n        /* \"#utility.yul\":8006:8012   */\n      dup4\n        /* \"#utility.yul\":7926:8018   */\n      tag_285\n      jump\t// in\n    tag_421:\n        /* \"#utility.yul\":7912:8018   */\n      swap1\n      pop\n        /* \"#utility.yul\":7776:8024   */\n      swap3\n      swap2\n      pop\n      pop\n      jump\t// out\n        /* \"#utility.yul\":8030:8166   */\n    tag_287:\n        /* \"#utility.yul\":8123:8127   */\n      0x00\n        /* \"#utility.yul\":8155:8159   */\n      0x20\n        /* \"#utility.yul\":8150:8153   */\n      dup3\n        /* \"#utility.yul\":8146:8160   */\n      add\n        /* \"#utility.yul\":8138:8160   */\n      swap1\n      pop\n        /* \"#utility.yul\":8030:8166   */\n      swap2\n      swap1\n      pop\n      jump\t// out\n        /* \"#utility.yul\":8234:9329   */\n    tag_288:\n        /* \"#utility.yul\":8399:8402   */\n      0x00\n        /* \"#utility.yul\":8428:8505   */\n      tag_424\n        /* \"#utility.yul\":8499:8504   */\n      dup3\n        /* \"#utility.yul\":8428:8505   */\n      tag_277\n      jump\t// in\n    tag_424:\n        /* \"#utility.yul\":8521:8630   */\n      tag_425\n        /* \"#utility.yul\":8623:8629   */\n      dup2\n        /* \"#utility.yul\":8618:8621   */\n      dup6\n        /* \"#utility.yul\":8521:8630   */\n      tag_278\n      jump\t// in\n    tag_425:\n        /* \"#utility.yul\":8514:8630   */\n      swap4\n      pop\n        /* \"#utility.yul\":8656:8659   */\n      dup4\n        /* \"#utility.yul\":8701:8705   */\n      0x20\n        /* \"#utility.yul\":8693:8699   */\n      dup3\n        /* \"#utility.yul\":8689:8706   */\n      mul\n        /* \"#utility.yul\":8684:8687   */\n      dup6\n        /* \"#utility.yul\":8680:8707   */\n      add\n        /* \"#utility.yul\":8731:8810   */\n      tag_426\n        /* \"#utility.yul\":8804:8809   */\n      dup6\n        /* \"#utility.yul\":8731:8810   */\n      tag_279\n      jump\t// in\n    tag_426:\n        /* \"#utility.yul\":8833:8840   */\n      dup1\n        /* \"#utility.yul\":8864:8865   */\n      0x00\n        /* \"#utility.yul\":8849:9284   */\n    tag_427:\n        /* \"#utility.yul\":8874:8880   */\n      dup6\n        /* \"#utility.yul\":8871:8872   */\n      dup2\n        /* \"#utility.yul\":8868:8881   */\n      lt\n        /* \"#utility.yul\":8849:9284   */\n      iszero\n      tag_429\n      jumpi\n        /* \"#utility.yul\":8945:8954   */\n      dup5\n        /* \"#utility.yul\":8939:8943   */\n      dup5\n        /* \"#utility.yul\":8935:8955   */\n      sub\n        /* \"#utility.yul\":8930:8933   */\n      dup10\n        /* \"#utility.yul\":8923:8956   */\n      mstore\n        /* \"#utility.yul\":8996:9002   */\n      dup2\n        /* \"#utility.yul\":8990:9003   */\n      mload\n        /* \"#utility.yul\":9024:9134   */\n      tag_430\n        /* \"#utility.yul\":9129:9133   */\n      dup6\n        /* \"#utility.yul\":9114:9127   */\n      dup3\n        /* \"#utility.yul\":9024:9134   */\n      tag_286\n      jump\t// in\n    tag_430:\n        /* \"#utility.yul\":9016:9134   */\n      swap5\n      pop\n        /* \"#utility.yul\":9157:9240   */\n      tag_431\n        /* \"#utility.yul\":9233:9239   */\n      dup4\n        /* \"#utility.yul\":9157:9240   */\n      tag_287\n      jump\t// in\n    tag_431:\n        /* \"#utility.yul\":9147:9240   */\n      swap3\n      pop\n        /* \"#utility.yul\":9269:9273   */\n      0x20\n        /* \"#utility.yul\":9264:9267   */\n      dup11\n        /* \"#utility.yul\":9260:9274   */\n      add\n        /* \"#utility.yul\":9253:9274   */\n      swap10\n      pop\n        /* \"#utility.yul\":8909:9284   */\n      pop\n        /* \"#utility.yul\":8896:8897   */\n      0x01\n        /* \"#utility.yul\":8893:8894   */\n      dup2\n        /* \"#utility.yul\":8889:8898   */\n      add\n        /* \"#utility.yul\":8884:8898   */\n      swap1\n      pop\n        /* \"#utility.yul\":8849:9284   */\n      jump(tag_427)\n    tag_429:\n        /* \"#utility.yul\":8853:8867   */\n      pop\n        /* \"#utility.yul\":9300:9304   */\n      dup3\n        /* \"#utility.yul\":9293:9304   */\n      swap8\n      pop\n        /* \"#utility.yul\":9320:9323   */\n      dup8\n        /* \"#utility.yul\":9313:9323   */\n      swap6\n      pop\n        /* \"#utility.yul\":8404:9329   */\n      pop\n      pop\n      pop\n      pop\n      pop\n        /* \"#utility.yul\":8234:9329   */\n      swap3\n      swap2\n      pop\n      pop\n      jump\t// out\n        /* \"#utility.yul\":9335:9800   */\n    tag_82:\n        /* \"#utility.yul\":9524:9528   */\n      0x00\n        /* \"#utility.yul\":9562:9564   */\n      0x20\n        /* \"#utility.yul\":9551:9560   */\n      dup3\n        /* \"#utility.yul\":9547:9565   */\n      add\n        /* \"#utility.yul\":9539:9565   */\n      swap1\n      pop\n        /* \"#utility.yul\":9611:9620   */\n      dup2\n        /* \"#utility.yul\":9605:9609   */\n      dup2\n        /* \"#utility.yul\":9601:9621   */\n      sub\n        /* \"#utility.yul\":9597:9598   */\n      0x00\n        /* \"#utility.yul\":9586:9595   */\n      dup4\n        /* \"#utility.yul\":9582:9599   */\n      add\n        /* \"#utility.yul\":9575:9622   */\n      mstore\n        /* \"#utility.yul\":9639:9793   */\n      tag_433\n        /* \"#utility.yul\":9788:9792   */\n      dup2\n        /* \"#utility.yul\":9779:9785   */\n      dup5\n        /* \"#utility.yul\":9639:9793   */\n      tag_288\n      jump\t// in\n    tag_433:\n        /* \"#utility.yul\":9631:9793   */\n      swap1\n      pop\n        /* \"#utility.yul\":9335:9800   */\n      swap3\n      swap2\n      pop\n      pop\n      jump\t// out\n        /* \"#utility.yul\":9806:9923   */\n    tag_289:\n        /* \"#utility.yul\":9915:9916   */\n      0x00\n        /* \"#utility.yul\":9912:9913   */\n      dup1\n        /* \"#utility.yul\":9905:9917   */\n      revert\n        /* \"#utility.yul\":9929:10046   */\n    tag_290:\n        /* \"#utility.yul\":10038:10039   */\n      0x00\n        /* \"#utility.yul\":10035:10036   */\n      dup1\n        /* \"#utility.yul\":10028:10040   */\n      revert\n        /* \"#utility.yul\":10052:10232   */\n    tag_291:\n        /* \"#utility.yul\":10100:10177   */\n      0x4e487b7100000000000000000000000000000000000000000000000000000000\n        /* \"#utility.yul\":10097:10098   */\n      0x00\n        /* \"#utility.yul\":10090:10178   */\n      mstore\n        /* \"#utility.yul\":10197:10201   */\n      0x41\n        /* \"#utility.yul\":10194:10195   */\n      0x04\n        /* \"#utility.yul\":10187:10202   */\n      mstore\n        /* \"#utility.yul\":10221:10225   */\n      0x24\n        /* \"#utility.yul\":10218:10219   */\n      0x00\n        /* \"#utility.yul\":10211:10226   */\n      revert\n        /* \"#utility.yul\":10238:10519   */\n    tag_292:\n        /* \"#utility.yul\":10321:10348   */\n      tag_438\n        /* \"#utility.yul\":10343:10347   */\n      dup3\n        /* \"#utility.yul\":10321:10348   */\n      tag_273\n      jump\t// in\n    tag_438:\n        /* \"#utility.yul\":10313:10319   */\n      dup2\n        /* \"#utility.yul\":10309:10349   */\n      add\n        /* \"#utility.yul\":10451:10457   */\n      dup2\n        /* \"#utility.yul\":10439:10449   */\n      dup2\n        /* \"#utility.yul\":10436:10458   */\n      lt\n        /* \"#utility.yul\":10415:10433   */\n      0xffffffffffffffff\n        /* \"#utility.yul\":10403:10413   */\n      dup3\n        /* \"#utility.yul\":10400:10434   */\n      gt\n        /* \"#utility.yul\":10397:10459   */\n      or\n        /* \"#utility.yul\":10394:10482   */\n      iszero\n      tag_439\n      jumpi\n        /* \"#utility.yul\":10462:10480   */\n      tag_440\n      tag_291\n      jump\t// in\n    tag_440:\n        /* \"#utility.yul\":10394:10482   */\n    tag_439:\n        /* \"#utility.yul\":10502:10512   */\n      dup1\n        /* \"#utility.yul\":10498:10500   */\n      0x40\n        /* \"#utility.yul\":10491:10513   */\n      mstore\n        /* \"#utility.yul\":10281:10519   */\n      pop\n        /* \"#utility.yul\":10238:10519   */\n      pop\n      pop\n      jump\t// out\n        /* \"#utility.yul\":10525:10654   */\n    tag_293:\n        /* \"#utility.yul\":10559:10565   */\n      0x00\n        /* \"#utility.yul\":10586:10606   */\n      tag_442\n      tag_258\n      jump\t// in\n    tag_442:\n        /* \"#utility.yul\":10576:10606   */\n      swap1\n      pop\n        /* \"#utility.yul\":10615:10648   */\n      tag_443\n        /* \"#utility.yul\":10643:10647   */\n      dup3\n        /* \"#utility.yul\":10635:10641   */\n      dup3\n        /* \"#utility.yul\":10615:10648   */\n      tag_292\n      jump\t// in\n    tag_443:\n        /* \"#utility.yul\":10525:10654   */\n      swap2\n      swap1\n      pop\n      jump\t// out\n        /* \"#utility.yul\":10660:10968   */\n    tag_294:\n        /* \"#utility.yul\":10722:10726   */\n      0x00\n        /* \"#utility.yul\":10812:10830   */\n      0xffffffffffffffff\n        /* \"#utility.yul\":10804:10810   */\n      dup3\n        /* \"#utility.yul\":10801:10831   */\n      gt\n        /* \"#utility.yul\":10798:10854   */\n      iszero\n      tag_445\n      jumpi\n        /* \"#utility.yul\":10834:10852   */\n      tag_446\n      tag_291\n      jump\t// in\n    tag_446:\n        /* \"#utility.yul\":10798:10854   */\n    tag_445:\n        /* \"#utility.yul\":10872:10901   */\n      tag_447\n        /* \"#utility.yul\":10894:10900   */\n      dup3\n        /* \"#utility.yul\":10872:10901   */\n      tag_273\n      jump\t// in\n    tag_447:\n        /* \"#utility.yul\":10864:10901   */\n      swap1\n      pop\n        /* \"#utility.yul\":10956:10960   */\n      0x20\n        /* \"#utility.yul\":10950:10954   */\n      dup2\n        /* \"#utility.yul\":10946:10961   */\n      add\n        /* \"#utility.yul\":10938:10961   */\n      swap1\n      pop\n        /* \"#utility.yul\":10660:10968   */\n      swap2\n      swap1\n      pop\n      jump\t// out\n        /* \"#utility.yul\":10974:11128   */\n    tag_295:\n        /* \"#utility.yul\":11058:11064   */\n      dup3\n        /* \"#utility.yul\":11053:11056   */\n      dup2\n        /* \"#utility.yul\":11048:11051   */\n      dup4\n        /* \"#utility.yul\":11035:11065   */\n      calldatacopy\n        /* \"#utility.yul\":11120:11121   */\n      0x00\n        /* \"#utility.yul\":11111:11117   */\n      dup4\n        /* \"#utility.yul\":11106:11109   */\n      dup4\n        /* \"#utility.yul\":11102:11118   */\n      add\n        /* \"#utility.yul\":11095:11122   */\n      mstore\n        /* \"#utility.yul\":10974:11128   */\n      pop\n      pop\n      pop\n      jump\t// out\n        /* \"#utility.yul\":11134:11546   */\n    tag_296:\n        /* \"#utility.yul\":11212:11217   */\n      0x00\n        /* \"#utility.yul\":11237:11303   */\n      tag_450\n        /* \"#utility.yul\":11253:11302   */\n      tag_451\n        /* \"#utility.yul\":11295:11301   */\n      dup5\n        /* \"#utility.yul\":11253:11302   */\n      tag_294\n      jump\t// in\n    tag_451:\n        /* \"#utility.yul\":11237:11303   */\n      tag_293\n      jump\t// in\n    tag_450:\n        /* \"#utility.yul\":11228:11303   */\n      swap1\n      pop\n        /* \"#utility.yul\":11326:11332   */\n      dup3\n        /* \"#utility.yul\":11319:11324   */\n      dup2\n        /* \"#utility.yul\":11312:11333   */\n      mstore\n        /* \"#utility.yul\":11364:11368   */\n      0x20\n        /* \"#utility.yul\":11357:11362   */\n      dup2\n        /* \"#utility.yul\":11353:11369   */\n      add\n        /* \"#utility.yul\":11402:11405   */\n      dup5\n        /* \"#utility.yul\":11393:11399   */\n      dup5\n        /* \"#utility.yul\":11388:11391   */\n      dup5\n        /* \"#utility.yul\":11384:11400   */\n      add\n        /* \"#utility.yul\":11381:11406   */\n      gt\n        /* \"#utility.yul\":11378:11490   */\n      iszero\n      tag_452\n      jumpi\n        /* \"#utility.yul\":11409:11488   */\n      tag_453\n      tag_290\n      jump\t// in\n    tag_453:\n        /* \"#utility.yul\":11378:11490   */\n    tag_452:\n        /* \"#utility.yul\":11499:11540   */\n      tag_454\n        /* \"#utility.yul\":11533:11539   */\n      dup5\n        /* \"#utility.yul\":11528:11531   */\n      dup3\n        /* \"#utility.yul\":11523:11526   */\n      dup6\n        /* \"#utility.yul\":11499:11540   */\n      tag_295\n      jump\t// in\n    tag_454:\n        /* \"#utility.yul\":11218:11546   */\n      pop\n        /* \"#utility.yul\":11134:11546   */\n      swap4\n      swap3\n      pop\n      pop\n      pop\n      jump\t// out\n        /* \"#utility.yul\":11566:11906   */\n    tag_297:\n        /* \"#utility.yul\":11622:11627   */\n      0x00\n        /* \"#utility.yul\":11671:11674   */\n      dup3\n        /* \"#utility.yul\":11664:11668   */\n      0x1f\n        /* \"#utility.yul\":11656:11662   */\n      dup4\n        /* \"#utility.yul\":11652:11669   */\n      add\n        /* \"#utility.yul\":11648:11675   */\n      slt\n        /* \"#utility.yul\":11638:11760   */\n      tag_456\n      jumpi\n        /* \"#utility.yul\":11679:11758   */\n      tag_457\n      tag_289\n      jump\t// in\n    tag_457:\n        /* \"#utility.yul\":11638:11760   */\n    tag_456:\n        /* \"#utility.yul\":11796:11802   */\n      dup2\n        /* \"#utility.yul\":11783:11803   */\n      calldataload\n        /* \"#utility.yul\":11821:11900   */\n      tag_458\n        /* \"#utility.yul\":11896:11899   */\n      dup5\n        /* \"#utility.yul\":11888:11894   */\n      dup3\n        /* \"#utility.yul\":11881:11885   */\n      0x20\n        /* \"#utility.yul\":11873:11879   */\n      dup7\n        /* \"#utility.yul\":11869:11886   */\n      add\n        /* \"#utility.yul\":11821:11900   */\n      tag_296\n      jump\t// in\n    tag_458:\n        /* \"#utility.yul\":11812:11900   */\n      swap2\n      pop\n        /* \"#utility.yul\":11628:11906   */\n      pop\n        /* \"#utility.yul\":11566:11906   */\n      swap3\n      swap2\n      pop\n      pop\n      jump\t// out\n        /* \"#utility.yul\":11912:12050   */\n    tag_298:\n        /* \"#utility.yul\":11993:12025   */\n      tag_460\n        /* \"#utility.yul\":12019:12024   */\n      dup2\n        /* \"#utility.yul\":11993:12025   */\n      tag_275\n      jump\t// in\n    tag_460:\n        /* \"#utility.yul\":11986:11991   */\n      dup2\n        /* \"#utility.yul\":11983:12026   */\n      eq\n        /* \"#utility.yul\":11973:12044   */\n      tag_461\n      jumpi\n        /* \"#utility.yul\":12040:12041   */\n      0x00\n        /* \"#utility.yul\":12037:12038   */\n      dup1\n        /* \"#utility.yul\":12030:12042   */\n      revert\n        /* \"#utility.yul\":11973:12044   */\n    tag_461:\n        /* \"#utility.yul\":11912:12050   */\n      pop\n      jump\t// out\n        /* \"#utility.yul\":12056:12211   */\n    tag_299:\n        /* \"#utility.yul\":12110:12115   */\n      0x00\n        /* \"#utility.yul\":12148:12154   */\n      dup2\n        /* \"#utility.yul\":12135:12155   */\n      calldataload\n        /* \"#utility.yul\":12126:12155   */\n      swap1\n      pop\n        /* \"#utility.yul\":12164:12205   */\n      tag_463\n        /* \"#utility.yul\":12199:12204   */\n      dup2\n        /* \"#utility.yul\":12164:12205   */\n      tag_298\n      jump\t// in\n    tag_463:\n        /* \"#utility.yul\":12056:12211   */\n      swap3\n      swap2\n      pop\n      pop\n      jump\t// out\n        /* \"#utility.yul\":12217:13032   */\n    tag_88:\n        /* \"#utility.yul\":12312:12318   */\n      0x00\n        /* \"#utility.yul\":12320:12326   */\n      dup1\n        /* \"#utility.yul\":12328:12334   */\n      0x00\n        /* \"#utility.yul\":12377:12379   */\n      0x60\n        /* \"#utility.yul\":12365:12374   */\n      dup5\n        /* \"#utility.yul\":12356:12363   */\n      dup7\n        /* \"#utility.yul\":12352:12375   */\n      sub\n        /* \"#utility.yul\":12348:12380   */\n      slt\n        /* \"#utility.yul\":12345:12464   */\n      iszero\n      tag_465\n      jumpi\n        /* \"#utility.yul\":12383:12462   */\n      tag_466\n      tag_259\n      jump\t// in\n    tag_466:\n        /* \"#utility.yul\":12345:12464   */\n    tag_465:\n        /* \"#utility.yul\":12531:12532   */\n      0x00\n        /* \"#utility.yul\":12520:12529   */\n      dup5\n        /* \"#utility.yul\":12516:12533   */\n      add\n        /* \"#utility.yul\":12503:12534   */\n      calldataload\n        /* \"#utility.yul\":12561:12579   */\n      0xffffffffffffffff\n        /* \"#utility.yul\":12553:12559   */\n      dup2\n        /* \"#utility.yul\":12550:12580   */\n      gt\n        /* \"#utility.yul\":12547:12664   */\n      iszero\n      tag_467\n      jumpi\n        /* \"#utility.yul\":12583:12662   */\n      tag_468\n      tag_260\n      jump\t// in\n    tag_468:\n        /* \"#utility.yul\":12547:12664   */\n    tag_467:\n        /* \"#utility.yul\":12688:12751   */\n      tag_469\n        /* \"#utility.yul\":12743:12750   */\n      dup7\n        /* \"#utility.yul\":12734:12740   */\n      dup3\n        /* \"#utility.yul\":12723:12732   */\n      dup8\n        /* \"#utility.yul\":12719:12741   */\n      add\n        /* \"#utility.yul\":12688:12751   */\n      tag_297\n      jump\t// in\n    tag_469:\n        /* \"#utility.yul\":12678:12751   */\n      swap4\n      pop\n        /* \"#utility.yul\":12474:12761   */\n      pop\n        /* \"#utility.yul\":12800:12802   */\n      0x20\n        /* \"#utility.yul\":12826:12879   */\n      tag_470\n        /* \"#utility.yul\":12871:12878   */\n      dup7\n        /* \"#utility.yul\":12862:12868   */\n      dup3\n        /* \"#utility.yul\":12851:12860   */\n      dup8\n        /* \"#utility.yul\":12847:12869   */\n      add\n        /* \"#utility.yul\":12826:12879   */\n      tag_263\n      jump\t// in\n    tag_470:\n        /* \"#utility.yul\":12816:12879   */\n      swap3\n      pop\n        /* \"#utility.yul\":12771:12889   */\n      pop\n        /* \"#utility.yul\":12928:12930   */\n      0x40\n        /* \"#utility.yul\":12954:13015   */\n      tag_471\n        /* \"#utility.yul\":13007:13014   */\n      dup7\n        /* \"#utility.yul\":12998:13004   */\n      dup3\n        /* \"#utility.yul\":12987:12996   */\n      dup8\n        /* \"#utility.yul\":12983:13005   */\n      add\n        /* \"#utility.yul\":12954:13015   */\n      tag_299\n      jump\t// in\n    tag_471:\n        /* \"#utility.yul\":12944:13015   */\n      swap2\n      pop\n        /* \"#utility.yul\":12899:13025   */\n      pop\n        /* \"#utility.yul\":12217:13032   */\n      swap3\n      pop\n      swap3\n      pop\n      swap3\n      jump\t// out\n        /* \"#utility.yul\":13038:13160   */\n    tag_300:\n        /* \"#utility.yul\":13111:13135   */\n      tag_473\n        /* \"#utility.yul\":13129:13134   */\n      dup2\n        /* \"#utility.yul\":13111:13135   */\n      tag_268\n      jump\t// in\n    tag_473:\n        /* \"#utility.yul\":13104:13109   */\n      dup2\n        /* \"#utility.yul\":13101:13136   */\n      eq\n        /* \"#utility.yul\":13091:13154   */\n      tag_474\n      jumpi\n        /* \"#utility.yul\":13150:13151   */\n      0x00\n        /* \"#utility.yul\":13147:13148   */\n      dup1\n        /* \"#utility.yul\":13140:13152   */\n      revert\n        /* \"#utility.yul\":13091:13154   */\n    tag_474:\n        /* \"#utility.yul\":13038:13160   */\n      pop\n      jump\t// out\n        /* \"#utility.yul\":13166:13305   */\n    tag_301:\n        /* \"#utility.yul\":13212:13217   */\n      0x00\n        /* \"#utility.yul\":13250:13256   */\n      dup2\n        /* \"#utility.yul\":13237:13257   */\n      calldataload\n        /* \"#utility.yul\":13228:13257   */\n      swap1\n      pop\n        /* \"#utility.yul\":13266:13299   */\n      tag_476\n        /* \"#utility.yul\":13293:13298   */\n      dup2\n        /* \"#utility.yul\":13266:13299   */\n      tag_300\n      jump\t// in\n    tag_476:\n        /* \"#utility.yul\":13166:13305   */\n      swap3\n      swap2\n      pop\n      pop\n      jump\t// out\n        /* \"#utility.yul\":13311:13640   */\n    tag_113:\n        /* \"#utility.yul\":13370:13376   */\n      0x00\n        /* \"#utility.yul\":13419:13421   */\n      0x20\n        /* \"#utility.yul\":13407:13416   */\n      dup3\n        /* \"#utility.yul\":13398:13405   */\n      dup5\n        /* \"#utility.yul\":13394:13417   */\n      sub\n        /* \"#utility.yul\":13390:13422   */\n      slt\n        /* \"#utility.yul\":13387:13506   */\n      iszero\n      tag_478\n      jumpi\n        /* \"#utility.yul\":13425:13504   */\n      tag_479\n      tag_259\n      jump\t// in\n    tag_479:\n        /* \"#utility.yul\":13387:13506   */\n    tag_478:\n        /* \"#utility.yul\":13545:13546   */\n      0x00\n        /* \"#utility.yul\":13570:13623   */\n      tag_480\n        /* \"#utility.yul\":13615:13622   */\n      dup5\n        /* \"#utility.yul\":13606:13612   */\n      dup3\n        /* \"#utility.yul\":13595:13604   */\n      dup6\n        /* \"#utility.yul\":13591:13613   */\n      add\n        /* \"#utility.yul\":13570:13623   */\n      tag_301\n      jump\t// in\n    tag_480:\n        /* \"#utility.yul\":13560:13623   */\n      swap2\n      pop\n        /* \"#utility.yul\":13516:13633   */\n      pop\n        /* \"#utility.yul\":13311:13640   */\n      swap3\n      swap2\n      pop\n      pop\n      jump\t// out\n        /* \"#utility.yul\":13646:14120   */\n    tag_130:\n        /* \"#utility.yul\":13714:13720   */\n      0x00\n        /* \"#utility.yul\":13722:13728   */\n      dup1\n        /* \"#utility.yul\":13771:13773   */\n      0x40\n        /* \"#utility.yul\":13759:13768   */\n      dup4\n        /* \"#utility.yul\":13750:13757   */\n      dup6\n        /* \"#utility.yul\":13746:13769   */\n      sub\n        /* \"#utility.yul\":13742:13774   */\n      slt\n        /* \"#utility.yul\":13739:13858   */\n      iszero\n      tag_482\n      jumpi\n        /* \"#utility.yul\":13777:13856   */\n      tag_483\n      tag_259\n      jump\t// in\n    tag_483:\n        /* \"#utility.yul\":13739:13858   */\n    tag_482:\n        /* \"#utility.yul\":13897:13898   */\n      0x00\n        /* \"#utility.yul\":13922:13975   */\n      tag_484\n        /* \"#utility.yul\":13967:13974   */\n      dup6\n        /* \"#utility.yul\":13958:13964   */\n      dup3\n        /* \"#utility.yul\":13947:13956   */\n      dup7\n        /* \"#utility.yul\":13943:13965   */\n      add\n        /* \"#utility.yul\":13922:13975   */\n      tag_301\n      jump\t// in\n    tag_484:\n        /* \"#utility.yul\":13912:13975   */\n      swap3\n      pop\n        /* \"#utility.yul\":13868:13985   */\n      pop\n        /* \"#utility.yul\":14024:14026   */\n      0x20\n        /* \"#utility.yul\":14050:14103   */\n      tag_485\n        /* \"#utility.yul\":14095:14102   */\n      dup6\n        /* \"#utility.yul\":14086:14092   */\n      dup3\n        /* \"#utility.yul\":14075:14084   */\n      dup7\n        /* \"#utility.yul\":14071:14093   */\n      add\n        /* \"#utility.yul\":14050:14103   */\n      tag_263\n      jump\t// in\n    tag_485:\n        /* \"#utility.yul\":14040:14103   */\n      swap2\n      pop\n        /* \"#utility.yul\":13995:14113   */\n      pop\n        /* \"#utility.yul\":13646:14120   */\n      swap3\n      pop\n      swap3\n      swap1\n      pop\n      jump\t// out\n        /* \"#utility.yul\":14126:14360   */\n    tag_302:\n        /* \"#utility.yul\":14266:14300   */\n      0x5065726d697373696f6e2064656e6965643a20596f7520646f206e6f74206f77\n        /* \"#utility.yul\":14262:14263   */\n      0x00\n        /* \"#utility.yul\":14254:14260   */\n      dup3\n        /* \"#utility.yul\":14250:14264   */\n      add\n        /* \"#utility.yul\":14243:14301   */\n      mstore\n        /* \"#utility.yul\":14335:14352   */\n      0x6e20746869732063616d706169676e0000000000000000000000000000000000\n        /* \"#utility.yul\":14330:14332   */\n      0x20\n        /* \"#utility.yul\":14322:14328   */\n      dup3\n        /* \"#utility.yul\":14318:14333   */\n      add\n        /* \"#utility.yul\":14311:14353   */\n      mstore\n        /* \"#utility.yul\":14126:14360   */\n      pop\n      jump\t// out\n        /* \"#utility.yul\":14366:14732   */\n    tag_303:\n        /* \"#utility.yul\":14508:14511   */\n      0x00\n        /* \"#utility.yul\":14529:14596   */\n      tag_488\n        /* \"#utility.yul\":14593:14595   */\n      0x2f\n        /* \"#utility.yul\":14588:14591   */\n      dup4\n        /* \"#utility.yul\":14529:14596   */\n      tag_271\n      jump\t// in\n    tag_488:\n        /* \"#utility.yul\":14522:14596   */\n      swap2\n      pop\n        /* \"#utility.yul\":14605:14698   */\n      tag_489\n        /* \"#utility.yul\":14694:14697   */\n      dup3\n        /* \"#utility.yul\":14605:14698   */\n      tag_302\n      jump\t// in\n    tag_489:\n        /* \"#utility.yul\":14723:14725   */\n      0x40\n        /* \"#utility.yul\":14718:14721   */\n      dup3\n        /* \"#utility.yul\":14714:14726   */\n      add\n        /* \"#utility.yul\":14707:14726   */\n      swap1\n      pop\n        /* \"#utility.yul\":14366:14732   */\n      swap2\n      swap1\n      pop\n      jump\t// out\n        /* \"#utility.yul\":14738:15157   */\n    tag_136:\n        /* \"#utility.yul\":14904:14908   */\n      0x00\n        /* \"#utility.yul\":14942:14944   */\n      0x20\n        /* \"#utility.yul\":14931:14940   */\n      dup3\n        /* \"#utility.yul\":14927:14945   */\n      add\n        /* \"#utility.yul\":14919:14945   */\n      swap1\n      pop\n        /* \"#utility.yul\":14991:15000   */\n      dup2\n        /* \"#utility.yul\":14985:14989   */\n      dup2\n        /* \"#utility.yul\":14981:15001   */\n      sub\n        /* \"#utility.yul\":14977:14978   */\n      0x00\n        /* \"#utility.yul\":14966:14975   */\n      dup4\n        /* \"#utility.yul\":14962:14979   */\n      add\n        /* \"#utility.yul\":14955:15002   */\n      mstore\n        /* \"#utility.yul\":15019:15150   */\n      tag_491\n        /* \"#utility.yul\":15145:15149   */\n      dup2\n        /* \"#utility.yul\":15019:15150   */\n      tag_303\n      jump\t// in\n    tag_491:\n        /* \"#utility.yul\":15011:15150   */\n      swap1\n      pop\n        /* \"#utility.yul\":14738:15157   */\n      swap2\n      swap1\n      pop\n      jump\t// out\n        /* \"#utility.yul\":15163:15334   */\n    tag_304:\n        /* \"#utility.yul\":15303:15326   */\n      0x43616d706169676e206861732063616e63656c65640000000000000000000000\n        /* \"#utility.yul\":15299:15300   */\n      0x00\n        /* \"#utility.yul\":15291:15297   */\n      dup3\n        /* \"#utility.yul\":15287:15301   */\n      add\n        /* \"#utility.yul\":15280:15327   */\n      mstore\n        /* \"#utility.yul\":15163:15334   */\n      pop\n      jump\t// out\n        /* \"#utility.yul\":15340:15706   */\n    tag_305:\n        /* \"#utility.yul\":15482:15485   */\n      0x00\n        /* \"#utility.yul\":15503:15570   */\n      tag_494\n        /* \"#utility.yul\":15567:15569   */\n      0x15\n        /* \"#utility.yul\":15562:15565   */\n      dup4\n        /* \"#utility.yul\":15503:15570   */\n      tag_271\n      jump\t// in\n    tag_494:\n        /* \"#utility.yul\":15496:15570   */\n      swap2\n      pop\n        /* \"#utility.yul\":15579:15672   */\n      tag_495\n        /* \"#utility.yul\":15668:15671   */\n      dup3\n        /* \"#utility.yul\":15579:15672   */\n      tag_304\n      jump\t// in\n    tag_495:\n        /* \"#utility.yul\":15697:15699   */\n      0x20\n        /* \"#utility.yul\":15692:15695   */\n      dup3\n        /* \"#utility.yul\":15688:15700   */\n      add\n        /* \"#utility.yul\":15681:15700   */\n      swap1\n      pop\n        /* \"#utility.yul\":15340:15706   */\n      swap2\n      swap1\n      pop\n      jump\t// out\n        /* \"#utility.yul\":15712:16131   */\n    tag_140:\n        /* \"#utility.yul\":15878:15882   */\n      0x00\n        /* \"#utility.yul\":15916:15918   */\n      0x20\n        /* \"#utility.yul\":15905:15914   */\n      dup3\n        /* \"#utility.yul\":15901:15919   */\n      add\n        /* \"#utility.yul\":15893:15919   */\n      swap1\n      pop\n        /* \"#utility.yul\":15965:15974   */\n      dup2\n        /* \"#utility.yul\":15959:15963   */\n      dup2\n        /* \"#utility.yul\":15955:15975   */\n      sub\n        /* \"#utility.yul\":15951:15952   */\n      0x00\n        /* \"#utility.yul\":15940:15949   */\n      dup4\n        /* \"#utility.yul\":15936:15953   */\n      add\n        /* \"#utility.yul\":15929:15976   */\n      mstore\n        /* \"#utility.yul\":15993:16124   */\n      tag_497\n        /* \"#utility.yul\":16119:16123   */\n      dup2\n        /* \"#utility.yul\":15993:16124   */\n      tag_305\n      jump\t// in\n    tag_497:\n        /* \"#utility.yul\":15985:16124   */\n      swap1\n      pop\n        /* \"#utility.yul\":15712:16131   */\n      swap2\n      swap1\n      pop\n      jump\t// out\n        /* \"#utility.yul\":16137:16317   */\n    tag_144:\n        /* \"#utility.yul\":16185:16262   */\n      0x4e487b7100000000000000000000000000000000000000000000000000000000\n        /* \"#utility.yul\":16182:16183   */\n      0x00\n        /* \"#utility.yul\":16175:16263   */\n      mstore\n        /* \"#utility.yul\":16282:16286   */\n      0x32\n        /* \"#utility.yul\":16279:16280   */\n      0x04\n        /* \"#utility.yul\":16272:16287   */\n      mstore\n        /* \"#utility.yul\":16306:16310   */\n      0x24\n        /* \"#utility.yul\":16303:16304   */\n      0x00\n        /* \"#utility.yul\":16296:16311   */\n      revert\n        /* \"#utility.yul\":16323:16499   */\n    tag_306:\n        /* \"#utility.yul\":16463:16491   */\n      0x5265717565737420686173206265656e20636f6d706c65746564000000000000\n        /* \"#utility.yul\":16459:16460   */\n      0x00\n        /* \"#utility.yul\":16451:16457   */\n      dup3\n        /* \"#utility.yul\":16447:16461   */\n      add\n        /* \"#utility.yul\":16440:16492   */\n      mstore\n        /* \"#utility.yul\":16323:16499   */\n      pop\n      jump\t// out\n        /* \"#utility.yul\":16505:16871   */\n    tag_307:\n        /* \"#utility.yul\":16647:16650   */\n      0x00\n        /* \"#utility.yul\":16668:16735   */\n      tag_501\n        /* \"#utility.yul\":16732:16734   */\n      0x1a\n        /* \"#utility.yul\":16727:16730   */\n      dup4\n        /* \"#utility.yul\":16668:16735   */\n      tag_271\n      jump\t// in\n    tag_501:\n        /* \"#utility.yul\":16661:16735   */\n      swap2\n      pop\n        /* \"#utility.yul\":16744:16837   */\n      tag_502\n        /* \"#utility.yul\":16833:16836   */\n      dup3\n        /* \"#utility.yul\":16744:16837   */\n      tag_306\n      jump\t// in\n    tag_502:\n        /* \"#utility.yul\":16862:16864   */\n      0x20\n        /* \"#utility.yul\":16857:16860   */\n      dup3\n        /* \"#utility.yul\":16853:16865   */\n      add\n        /* \"#utility.yul\":16846:16865   */\n      swap1\n      pop\n        /* \"#utility.yul\":16505:16871   */\n      swap2\n      swap1\n      pop\n      jump\t// out\n        /* \"#utility.yul\":16877:17296   */\n    tag_148:\n        /* \"#utility.yul\":17043:17047   */\n      0x00\n        /* \"#utility.yul\":17081:17083   */\n      0x20\n        /* \"#utility.yul\":17070:17079   */\n      dup3\n        /* \"#utility.yul\":17066:17084   */\n      add\n        /* \"#utility.yul\":17058:17084   */\n      swap1\n      pop\n        /* \"#utility.yul\":17130:17139   */\n      dup2\n        /* \"#utility.yul\":17124:17128   */\n      dup2\n        /* \"#utility.yul\":17120:17140   */\n      sub\n        /* \"#utility.yul\":17116:17117   */\n      0x00\n        /* \"#utility.yul\":17105:17114   */\n      dup4\n        /* \"#utility.yul\":17101:17118   */\n      add\n        /* \"#utility.yul\":17094:17141   */\n      mstore\n        /* \"#utility.yul\":17158:17289   */\n      tag_504\n        /* \"#utility.yul\":17284:17288   */\n      dup2\n        /* \"#utility.yul\":17158:17289   */\n      tag_307\n      jump\t// in\n    tag_504:\n        /* \"#utility.yul\":17150:17289   */\n      swap1\n      pop\n        /* \"#utility.yul\":16877:17296   */\n      swap2\n      swap1\n      pop\n      jump\t// out\n        /* \"#utility.yul\":17302:17482   */\n    tag_308:\n        /* \"#utility.yul\":17350:17427   */\n      0x4e487b7100000000000000000000000000000000000000000000000000000000\n        /* \"#utility.yul\":17347:17348   */\n      0x00\n        /* \"#utility.yul\":17340:17428   */\n      mstore\n        /* \"#utility.yul\":17447:17451   */\n      0x12\n        /* \"#utility.yul\":17444:17445   */\n      0x04\n        /* \"#utility.yul\":17437:17452   */\n      mstore\n        /* \"#utility.yul\":17471:17475   */\n      0x24\n        /* \"#utility.yul\":17468:17469   */\n      0x00\n        /* \"#utility.yul\":17461:17476   */\n      revert\n        /* \"#utility.yul\":17488:17668   */\n    tag_309:\n        /* \"#utility.yul\":17536:17613   */\n      0x4e487b7100000000000000000000000000000000000000000000000000000000\n        /* \"#utility.yul\":17533:17534   */\n      0x00\n        /* \"#utility.yul\":17526:17614   */\n      mstore\n        /* \"#utility.yul\":17633:17637   */\n      0x11\n        /* \"#utility.yul\":17630:17631   */\n      0x04\n        /* \"#utility.yul\":17623:17638   */\n      mstore\n        /* \"#utility.yul\":17657:17661   */\n      0x24\n        /* \"#utility.yul\":17654:17655   */\n      0x00\n        /* \"#utility.yul\":17647:17662   */\n      revert\n        /* \"#utility.yul\":17674:17859   */\n    tag_150:\n        /* \"#utility.yul\":17714:17715   */\n      0x00\n        /* \"#utility.yul\":17731:17751   */\n      tag_508\n        /* \"#utility.yul\":17749:17750   */\n      dup3\n        /* \"#utility.yul\":17731:17751   */\n      tag_261\n      jump\t// in\n    tag_508:\n        /* \"#utility.yul\":17726:17751   */\n      swap2\n      pop\n        /* \"#utility.yul\":17765:17785   */\n      tag_509\n        /* \"#utility.yul\":17783:17784   */\n      dup4\n        /* \"#utility.yul\":17765:17785   */\n      tag_261\n      jump\t// in\n    tag_509:\n        /* \"#utility.yul\":17760:17785   */\n      swap3\n      pop\n        /* \"#utility.yul\":17804:17805   */\n      dup3\n        /* \"#utility.yul\":17794:17829   */\n      tag_510\n      jumpi\n        /* \"#utility.yul\":17809:17827   */\n      tag_511\n      tag_308\n      jump\t// in\n    tag_511:\n        /* \"#utility.yul\":17794:17829   */\n    tag_510:\n        /* \"#utility.yul\":17851:17852   */\n      dup3\n        /* \"#utility.yul\":17848:17849   */\n      dup3\n        /* \"#utility.yul\":17844:17853   */\n      div\n        /* \"#utility.yul\":17839:17853   */\n      swap1\n      pop\n        /* \"#utility.yul\":17674:17859   */\n      swap3\n      swap2\n      pop\n      pop\n      jump\t// out\n        /* \"#utility.yul\":17865:18090   */\n    tag_310:\n        /* \"#utility.yul\":18005:18039   */\n      0x5265717565737420646f6573206e6f74206861766520656e6f75676820617070\n        /* \"#utility.yul\":18001:18002   */\n      0x00\n        /* \"#utility.yul\":17993:17999   */\n      dup3\n        /* \"#utility.yul\":17989:18003   */\n      add\n        /* \"#utility.yul\":17982:18040   */\n      mstore\n        /* \"#utility.yul\":18074:18082   */\n      0x726f76616c730000000000000000000000000000000000000000000000000000\n        /* \"#utility.yul\":18069:18071   */\n      0x20\n        /* \"#utility.yul\":18061:18067   */\n      dup3\n        /* \"#utility.yul\":18057:18072   */\n      add\n        /* \"#utility.yul\":18050:18083   */\n      mstore\n        /* \"#utility.yul\":17865:18090   */\n      pop\n      jump\t// out\n        /* \"#utility.yul\":18096:18462   */\n    tag_311:\n        /* \"#utility.yul\":18238:18241   */\n      0x00\n        /* \"#utility.yul\":18259:18326   */\n      tag_514\n        /* \"#utility.yul\":18323:18325   */\n      0x26\n        /* \"#utility.yul\":18318:18321   */\n      dup4\n        /* \"#utility.yul\":18259:18326   */\n      tag_271\n      jump\t// in\n    tag_514:\n        /* \"#utility.yul\":18252:18326   */\n      swap2\n      pop\n        /* \"#utility.yul\":18335:18428   */\n      tag_515\n        /* \"#utility.yul\":18424:18427   */\n      dup3\n        /* \"#utility.yul\":18335:18428   */\n      tag_310\n      jump\t// in\n    tag_515:\n        /* \"#utility.yul\":18453:18455   */\n      0x40\n        /* \"#utility.yul\":18448:18451   */\n      dup3\n        /* \"#utility.yul\":18444:18456   */\n      add\n        /* \"#utility.yul\":18437:18456   */\n      swap1\n      pop\n        /* \"#utility.yul\":18096:18462   */\n      swap2\n      swap1\n      pop\n      jump\t// out\n        /* \"#utility.yul\":18468:18887   */\n    tag_153:\n        /* \"#utility.yul\":18634:18638   */\n      0x00\n        /* \"#utility.yul\":18672:18674   */\n      0x20\n        /* \"#utility.yul\":18661:18670   */\n      dup3\n        /* \"#utility.yul\":18657:18675   */\n      add\n        /* \"#utility.yul\":18649:18675   */\n      swap1\n      pop\n        /* \"#utility.yul\":18721:18730   */\n      dup2\n        /* \"#utility.yul\":18715:18719   */\n      dup2\n        /* \"#utility.yul\":18711:18731   */\n      sub\n        /* \"#utility.yul\":18707:18708   */\n      0x00\n        /* \"#utility.yul\":18696:18705   */\n      dup4\n        /* \"#utility.yul\":18692:18709   */\n      add\n        /* \"#utility.yul\":18685:18732   */\n      mstore\n        /* \"#utility.yul\":18749:18880   */\n      tag_517\n        /* \"#utility.yul\":18875:18879   */\n      dup2\n        /* \"#utility.yul\":18749:18880   */\n      tag_311\n      jump\t// in\n    tag_517:\n        /* \"#utility.yul\":18741:18880   */\n      swap1\n      pop\n        /* \"#utility.yul\":18468:18887   */\n      swap2\n      swap1\n      pop\n      jump\t// out\n        /* \"#utility.yul\":18893:19069   */\n    tag_312:\n        /* \"#utility.yul\":19033:19061   */\n      0x43616d706169676e2068617320616c726561647920656e646564000000000000\n        /* \"#utility.yul\":19029:19030   */\n      0x00\n        /* \"#utility.yul\":19021:19027   */\n      dup3\n        /* \"#utility.yul\":19017:19031   */\n      add\n        /* \"#utility.yul\":19010:19062   */\n      mstore\n        /* \"#utility.yul\":18893:19069   */\n      pop\n      jump\t// out\n        /* \"#utility.yul\":19075:19441   */\n    tag_313:\n        /* \"#utility.yul\":19217:19220   */\n      0x00\n        /* \"#utility.yul\":19238:19305   */\n      tag_520\n        /* \"#utility.yul\":19302:19304   */\n      0x1a\n        /* \"#utility.yul\":19297:19300   */\n      dup4\n        /* \"#utility.yul\":19238:19305   */\n      tag_271\n      jump\t// in\n    tag_520:\n        /* \"#utility.yul\":19231:19305   */\n      swap2\n      pop\n        /* \"#utility.yul\":19314:19407   */\n      tag_521\n        /* \"#utility.yul\":19403:19406   */\n      dup3\n        /* \"#utility.yul\":19314:19407   */\n      tag_312\n      jump\t// in\n    tag_521:\n        /* \"#utility.yul\":19432:19434   */\n      0x20\n        /* \"#utility.yul\":19427:19430   */\n      dup3\n        /* \"#utility.yul\":19423:19435   */\n      add\n        /* \"#utility.yul\":19416:19435   */\n      swap1\n      pop\n        /* \"#utility.yul\":19075:19441   */\n      swap2\n      swap1\n      pop\n      jump\t// out\n        /* \"#utility.yul\":19447:19866   */\n    tag_162:\n        /* \"#utility.yul\":19613:19617   */\n      0x00\n        /* \"#utility.yul\":19651:19653   */\n      0x20\n        /* \"#utility.yul\":19640:19649   */\n      dup3\n        /* \"#utility.yul\":19636:19654   */\n      add\n        /* \"#utility.yul\":19628:19654   */\n      swap1\n      pop\n        /* \"#utility.yul\":19700:19709   */\n      dup2\n        /* \"#utility.yul\":19694:19698   */\n      dup2\n        /* \"#utility.yul\":19690:19710   */\n      sub\n        /* \"#utility.yul\":19686:19687   */\n      0x00\n        /* \"#utility.yul\":19675:19684   */\n      dup4\n        /* \"#utility.yul\":19671:19688   */\n      add\n        /* \"#utility.yul\":19664:19711   */\n      mstore\n        /* \"#utility.yul\":19728:19859   */\n      tag_523\n        /* \"#utility.yul\":19854:19858   */\n      dup2\n        /* \"#utility.yul\":19728:19859   */\n      tag_313\n      jump\t// in\n    tag_523:\n        /* \"#utility.yul\":19720:19859   */\n      swap1\n      pop\n        /* \"#utility.yul\":19447:19866   */\n      swap2\n      swap1\n      pop\n      jump\t// out\n        /* \"#utility.yul\":19872:20095   */\n    tag_314:\n        /* \"#utility.yul\":20012:20046   */\n      0x596f7520617265206e6f7420696e2074686520636f6e7472696275746f727320\n        /* \"#utility.yul\":20008:20009   */\n      0x00\n        /* \"#utility.yul\":20000:20006   */\n      dup3\n        /* \"#utility.yul\":19996:20010   */\n      add\n        /* \"#utility.yul\":19989:20047   */\n      mstore\n        /* \"#utility.yul\":20081:20087   */\n      0x6c69737400000000000000000000000000000000000000000000000000000000\n        /* \"#utility.yul\":20076:20078   */\n      0x20\n        /* \"#utility.yul\":20068:20074   */\n      dup3\n        /* \"#utility.yul\":20064:20079   */\n      add\n        /* \"#utility.yul\":20057:20088   */\n      mstore\n        /* \"#utility.yul\":19872:20095   */\n      pop\n      jump\t// out\n        /* \"#utility.yul\":20101:20467   */\n    tag_315:\n        /* \"#utility.yul\":20243:20246   */\n      0x00\n        /* \"#utility.yul\":20264:20331   */\n      tag_526\n        /* \"#utility.yul\":20328:20330   */\n      0x24\n        /* \"#utility.yul\":20323:20326   */\n      dup4\n        /* \"#utility.yul\":20264:20331   */\n      tag_271\n      jump\t// in\n    tag_526:\n        /* \"#utility.yul\":20257:20331   */\n      swap2\n      pop\n        /* \"#utility.yul\":20340:20433   */\n      tag_527\n        /* \"#utility.yul\":20429:20432   */\n      dup3\n        /* \"#utility.yul\":20340:20433   */\n      tag_314\n      jump\t// in\n    tag_527:\n        /* \"#utility.yul\":20458:20460   */\n      0x40\n        /* \"#utility.yul\":20453:20456   */\n      dup3\n        /* \"#utility.yul\":20449:20461   */\n      add\n        /* \"#utility.yul\":20442:20461   */\n      swap1\n      pop\n        /* \"#utility.yul\":20101:20467   */\n      swap2\n      swap1\n      pop\n      jump\t// out\n        /* \"#utility.yul\":20473:20892   */\n    tag_166:\n        /* \"#utility.yul\":20639:20643   */\n      0x00\n        /* \"#utility.yul\":20677:20679   */\n      0x20\n        /* \"#utility.yul\":20666:20675   */\n      dup3\n        /* \"#utility.yul\":20662:20680   */\n      add\n        /* \"#utility.yul\":20654:20680   */\n      swap1\n      pop\n        /* \"#utility.yul\":20726:20735   */\n      dup2\n        /* \"#utility.yul\":20720:20724   */\n      dup2\n        /* \"#utility.yul\":20716:20736   */\n      sub\n        /* \"#utility.yul\":20712:20713   */\n      0x00\n        /* \"#utility.yul\":20701:20710   */\n      dup4\n        /* \"#utility.yul\":20697:20714   */\n      add\n        /* \"#utility.yul\":20690:20737   */\n      mstore\n        /* \"#utility.yul\":20754:20885   */\n      tag_529\n        /* \"#utility.yul\":20880:20884   */\n      dup2\n        /* \"#utility.yul\":20754:20885   */\n      tag_315\n      jump\t// in\n    tag_529:\n        /* \"#utility.yul\":20746:20885   */\n      swap1\n      pop\n        /* \"#utility.yul\":20473:20892   */\n      swap2\n      swap1\n      pop\n      jump\t// out\n        /* \"#utility.yul\":20898:21132   */\n    tag_316:\n        /* \"#utility.yul\":21038:21072   */\n      0x596f752063616e6e6f742077697468647261772c2043616d706169676e206861\n        /* \"#utility.yul\":21034:21035   */\n      0x00\n        /* \"#utility.yul\":21026:21032   */\n      dup3\n        /* \"#utility.yul\":21022:21036   */\n      add\n        /* \"#utility.yul\":21015:21073   */\n      mstore\n        /* \"#utility.yul\":21107:21124   */\n      0x73206e6f74207375636365656465640000000000000000000000000000000000\n        /* \"#utility.yul\":21102:21104   */\n      0x20\n        /* \"#utility.yul\":21094:21100   */\n      dup3\n        /* \"#utility.yul\":21090:21105   */\n      add\n        /* \"#utility.yul\":21083:21125   */\n      mstore\n        /* \"#utility.yul\":20898:21132   */\n      pop\n      jump\t// out\n        /* \"#utility.yul\":21138:21504   */\n    tag_317:\n        /* \"#utility.yul\":21280:21283   */\n      0x00\n        /* \"#utility.yul\":21301:21368   */\n      tag_532\n        /* \"#utility.yul\":21365:21367   */\n      0x2f\n        /* \"#utility.yul\":21360:21363   */\n      dup4\n        /* \"#utility.yul\":21301:21368   */\n      tag_271\n      jump\t// in\n    tag_532:\n        /* \"#utility.yul\":21294:21368   */\n      swap2\n      pop\n        /* \"#utility.yul\":21377:21470   */\n      tag_533\n        /* \"#utility.yul\":21466:21469   */\n      dup3\n        /* \"#utility.yul\":21377:21470   */\n      tag_316\n      jump\t// in\n    tag_533:\n        /* \"#utility.yul\":21495:21497   */\n      0x40\n        /* \"#utility.yul\":21490:21493   */\n      dup3\n        /* \"#utility.yul\":21486:21498   */\n      add\n        /* \"#utility.yul\":21479:21498   */\n      swap1\n      pop\n        /* \"#utility.yul\":21138:21504   */\n      swap2\n      swap1\n      pop\n      jump\t// out\n        /* \"#utility.yul\":21510:21929   */\n    tag_170:\n        /* \"#utility.yul\":21676:21680   */\n      0x00\n        /* \"#utility.yul\":21714:21716   */\n      0x20\n        /* \"#utility.yul\":21703:21712   */\n      dup3\n        /* \"#utility.yul\":21699:21717   */\n      add\n        /* \"#utility.yul\":21691:21717   */\n      swap1\n      pop\n        /* \"#utility.yul\":21763:21772   */\n      dup2\n        /* \"#utility.yul\":21757:21761   */\n      dup2\n        /* \"#utility.yul\":21753:21773   */\n      sub\n        /* \"#utility.yul\":21749:21750   */\n      0x00\n        /* \"#utility.yul\":21738:21747   */\n      dup4\n        /* \"#utility.yul\":21734:21751   */\n      add\n        /* \"#utility.yul\":21727:21774   */\n      mstore\n        /* \"#utility.yul\":21791:21922   */\n      tag_535\n        /* \"#utility.yul\":21917:21921   */\n      dup2\n        /* \"#utility.yul\":21791:21922   */\n      tag_317\n      jump\t// in\n    tag_535:\n        /* \"#utility.yul\":21783:21922   */\n      swap1\n      pop\n        /* \"#utility.yul\":21510:21929   */\n      swap2\n      swap1\n      pop\n      jump\t// out\n        /* \"#utility.yul\":21935:22106   */\n    tag_175:\n        /* \"#utility.yul\":21974:21977   */\n      0x00\n        /* \"#utility.yul\":21997:22021   */\n      tag_537\n        /* \"#utility.yul\":22015:22020   */\n      dup3\n        /* \"#utility.yul\":21997:22021   */\n      tag_261\n      jump\t// in\n    tag_537:\n        /* \"#utility.yul\":21988:22021   */\n      swap2\n      pop\n        /* \"#utility.yul\":22043:22047   */\n      0x00\n        /* \"#utility.yul\":22036:22041   */\n      dup3\n        /* \"#utility.yul\":22033:22048   */\n      sub\n        /* \"#utility.yul\":22030:22071   */\n      tag_538\n      jumpi\n        /* \"#utility.yul\":22051:22069   */\n      tag_539\n      tag_309\n      jump\t// in\n    tag_539:\n        /* \"#utility.yul\":22030:22071   */\n    tag_538:\n        /* \"#utility.yul\":22098:22099   */\n      0x01\n        /* \"#utility.yul\":22091:22096   */\n      dup3\n        /* \"#utility.yul\":22087:22100   */\n      sub\n        /* \"#utility.yul\":22080:22100   */\n      swap1\n      pop\n        /* \"#utility.yul\":21935:22106   */\n      swap2\n      swap1\n      pop\n      jump\t// out\n        /* \"#utility.yul\":22112:22303   */\n    tag_177:\n        /* \"#utility.yul\":22152:22156   */\n      0x00\n        /* \"#utility.yul\":22172:22192   */\n      tag_541\n        /* \"#utility.yul\":22190:22191   */\n      dup3\n        /* \"#utility.yul\":22172:22192   */\n      tag_261\n      jump\t// in\n    tag_541:\n        /* \"#utility.yul\":22167:22192   */\n      swap2\n      pop\n        /* \"#utility.yul\":22206:22226   */\n      tag_542\n        /* \"#utility.yul\":22224:22225   */\n      dup4\n        /* \"#utility.yul\":22206:22226   */\n      tag_261\n      jump\t// in\n    tag_542:\n        /* \"#utility.yul\":22201:22226   */\n      swap3\n      pop\n        /* \"#utility.yul\":22245:22246   */\n      dup3\n        /* \"#utility.yul\":22242:22243   */\n      dup3\n        /* \"#utility.yul\":22239:22247   */\n      lt\n        /* \"#utility.yul\":22236:22270   */\n      iszero\n      tag_543\n      jumpi\n        /* \"#utility.yul\":22250:22268   */\n      tag_544\n      tag_309\n      jump\t// in\n    tag_544:\n        /* \"#utility.yul\":22236:22270   */\n    tag_543:\n        /* \"#utility.yul\":22295:22296   */\n      dup3\n        /* \"#utility.yul\":22292:22293   */\n      dup3\n        /* \"#utility.yul\":22288:22297   */\n      sub\n        /* \"#utility.yul\":22280:22297   */\n      swap1\n      pop\n        /* \"#utility.yul\":22112:22303   */\n      swap3\n      swap2\n      pop\n      pop\n      jump\t// out\n        /* \"#utility.yul\":22309:22489   */\n    tag_318:\n        /* \"#utility.yul\":22357:22434   */\n      0x4e487b7100000000000000000000000000000000000000000000000000000000\n        /* \"#utility.yul\":22354:22355   */\n      0x00\n        /* \"#utility.yul\":22347:22435   */\n      mstore\n        /* \"#utility.yul\":22454:22458   */\n      0x22\n        /* \"#utility.yul\":22451:22452   */\n      0x04\n        /* \"#utility.yul\":22444:22459   */\n      mstore\n        /* \"#utility.yul\":22478:22482   */\n      0x24\n        /* \"#utility.yul\":22475:22476   */\n      0x00\n        /* \"#utility.yul\":22468:22483   */\n      revert\n        /* \"#utility.yul\":22495:22815   */\n    tag_182:\n        /* \"#utility.yul\":22539:22545   */\n      0x00\n        /* \"#utility.yul\":22576:22577   */\n      0x02\n        /* \"#utility.yul\":22570:22574   */\n      dup3\n        /* \"#utility.yul\":22566:22578   */\n      div\n        /* \"#utility.yul\":22556:22578   */\n      swap1\n      pop\n        /* \"#utility.yul\":22623:22624   */\n      0x01\n        /* \"#utility.yul\":22617:22621   */\n      dup3\n        /* \"#utility.yul\":22613:22625   */\n      and\n        /* \"#utility.yul\":22644:22662   */\n      dup1\n        /* \"#utility.yul\":22634:22715   */\n      tag_547\n      jumpi\n        /* \"#utility.yul\":22700:22704   */\n      0x7f\n        /* \"#utility.yul\":22692:22698   */\n      dup3\n        /* \"#utility.yul\":22688:22705   */\n      and\n        /* \"#utility.yul\":22678:22705   */\n      swap2\n      pop\n        /* \"#utility.yul\":22634:22715   */\n    tag_547:\n        /* \"#utility.yul\":22762:22764   */\n      0x20\n        /* \"#utility.yul\":22754:22760   */\n      dup3\n        /* \"#utility.yul\":22751:22765   */\n      lt\n        /* \"#utility.yul\":22731:22749   */\n      dup2\n        /* \"#utility.yul\":22728:22766   */\n      sub\n        /* \"#utility.yul\":22725:22809   */\n      tag_548\n      jumpi\n        /* \"#utility.yul\":22781:22799   */\n      tag_549\n      tag_318\n      jump\t// in\n    tag_549:\n        /* \"#utility.yul\":22725:22809   */\n    tag_548:\n        /* \"#utility.yul\":22546:22815   */\n      pop\n        /* \"#utility.yul\":22495:22815   */\n      swap2\n      swap1\n      pop\n      jump\t// out\n        /* \"#utility.yul\":22821:23047   */\n    tag_319:\n        /* \"#utility.yul\":22961:22995   */\n      0x56616c7565206973206c657373207468616e206d696e696d756d20636f6e7472\n        /* \"#utility.yul\":22957:22958   */\n      0x00\n        /* \"#utility.yul\":22949:22955   */\n      dup3\n        /* \"#utility.yul\":22945:22959   */\n      add\n        /* \"#utility.yul\":22938:22996   */\n      mstore\n        /* \"#utility.yul\":23030:23039   */\n      0x69627574696f6e00000000000000000000000000000000000000000000000000\n        /* \"#utility.yul\":23025:23027   */\n      0x20\n        /* \"#utility.yul\":23017:23023   */\n      dup3\n        /* \"#utility.yul\":23013:23028   */\n      add\n        /* \"#utility.yul\":23006:23040   */\n      mstore\n        /* \"#utility.yul\":22821:23047   */\n      pop\n      jump\t// out\n        /* \"#utility.yul\":23053:23419   */\n    tag_320:\n        /* \"#utility.yul\":23195:23198   */\n      0x00\n        /* \"#utility.yul\":23216:23283   */\n      tag_552\n        /* \"#utility.yul\":23280:23282   */\n      0x27\n        /* \"#utility.yul\":23275:23278   */\n      dup4\n        /* \"#utility.yul\":23216:23283   */\n      tag_271\n      jump\t// in\n    tag_552:\n        /* \"#utility.yul\":23209:23283   */\n      swap2\n      pop\n        /* \"#utility.yul\":23292:23385   */\n      tag_553\n        /* \"#utility.yul\":23381:23384   */\n      dup3\n        /* \"#utility.yul\":23292:23385   */\n      tag_319\n      jump\t// in\n    tag_553:\n        /* \"#utility.yul\":23410:23412   */\n      0x40\n        /* \"#utility.yul\":23405:23408   */\n      dup3\n        /* \"#utility.yul\":23401:23413   */\n      add\n        /* \"#utility.yul\":23394:23413   */\n      swap1\n      pop\n        /* \"#utility.yul\":23053:23419   */\n      swap2\n      swap1\n      pop\n      jump\t// out\n        /* \"#utility.yul\":23425:23844   */\n    tag_206:\n        /* \"#utility.yul\":23591:23595   */\n      0x00\n        /* \"#utility.yul\":23629:23631   */\n      0x20\n        /* \"#utility.yul\":23618:23627   */\n      dup3\n        /* \"#utility.yul\":23614:23632   */\n      add\n        /* \"#utility.yul\":23606:23632   */\n      swap1\n      pop\n        /* \"#utility.yul\":23678:23687   */\n      dup2\n        /* \"#utility.yul\":23672:23676   */\n      dup2\n        /* \"#utility.yul\":23668:23688   */\n      sub\n        /* \"#utility.yul\":23664:23665   */\n      0x00\n        /* \"#utility.yul\":23653:23662   */\n      dup4\n        /* \"#utility.yul\":23649:23666   */\n      add\n        /* \"#utility.yul\":23642:23689   */\n      mstore\n        /* \"#utility.yul\":23706:23837   */\n      tag_555\n        /* \"#utility.yul\":23832:23836   */\n      dup2\n        /* \"#utility.yul\":23706:23837   */\n      tag_320\n      jump\t// in\n    tag_555:\n        /* \"#utility.yul\":23698:23837   */\n      swap1\n      pop\n        /* \"#utility.yul\":23425:23844   */\n      swap2\n      swap1\n      pop\n      jump\t// out\n        /* \"#utility.yul\":23850:24155   */\n    tag_208:\n        /* \"#utility.yul\":23890:23893   */\n      0x00\n        /* \"#utility.yul\":23909:23929   */\n      tag_557\n        /* \"#utility.yul\":23927:23928   */\n      dup3\n        /* \"#utility.yul\":23909:23929   */\n      tag_261\n      jump\t// in\n    tag_557:\n        /* \"#utility.yul\":23904:23929   */\n      swap2\n      pop\n        /* \"#utility.yul\":23943:23963   */\n      tag_558\n        /* \"#utility.yul\":23961:23962   */\n      dup4\n        /* \"#utility.yul\":23943:23963   */\n      tag_261\n      jump\t// in\n    tag_558:\n        /* \"#utility.yul\":23938:23963   */\n      swap3\n      pop\n        /* \"#utility.yul\":24097:24098   */\n      dup3\n        /* \"#utility.yul\":24029:24095   */\n      0xffffffffffffffffffffffffffffffffffffffffffffffffffffffffffffffff\n        /* \"#utility.yul\":24025:24099   */\n      sub\n        /* \"#utility.yul\":24022:24023   */\n      dup3\n        /* \"#utility.yul\":24019:24100   */\n      gt\n        /* \"#utility.yul\":24016:24123   */\n      iszero\n      tag_559\n      jumpi\n        /* \"#utility.yul\":24103:24121   */\n      tag_560\n      tag_309\n      jump\t// in\n    tag_560:\n        /* \"#utility.yul\":24016:24123   */\n    tag_559:\n        /* \"#utility.yul\":24147:24148   */\n      dup3\n        /* \"#utility.yul\":24144:24145   */\n      dup3\n        /* \"#utility.yul\":24140:24149   */\n      add\n        /* \"#utility.yul\":24133:24149   */\n      swap1\n      pop\n        /* \"#utility.yul\":23850:24155   */\n      swap3\n      swap2\n      pop\n      pop\n      jump\t// out\n        /* \"#utility.yul\":24161:24394   */\n    tag_211:\n        /* \"#utility.yul\":24200:24203   */\n      0x00\n        /* \"#utility.yul\":24223:24247   */\n      tag_562\n        /* \"#utility.yul\":24241:24246   */\n      dup3\n        /* \"#utility.yul\":24223:24247   */\n      tag_261\n      jump\t// in\n    tag_562:\n        /* \"#utility.yul\":24214:24247   */\n      swap2\n      pop\n        /* \"#utility.yul\":24269:24335   */\n      0xffffffffffffffffffffffffffffffffffffffffffffffffffffffffffffffff\n        /* \"#utility.yul\":24262:24267   */\n      dup3\n        /* \"#utility.yul\":24259:24336   */\n      sub\n        /* \"#utility.yul\":24256:24359   */\n      tag_563\n      jumpi\n        /* \"#utility.yul\":24339:24357   */\n      tag_564\n      tag_309\n      jump\t// in\n    tag_564:\n        /* \"#utility.yul\":24256:24359   */\n    tag_563:\n        /* \"#utility.yul\":24386:24387   */\n      0x01\n        /* \"#utility.yul\":24379:24384   */\n      dup3\n        /* \"#utility.yul\":24375:24388   */\n      add\n        /* \"#utility.yul\":24368:24388   */\n      swap1\n      pop\n        /* \"#utility.yul\":24161:24394   */\n      swap2\n      swap1\n      pop\n      jump\t// out\n        /* \"#utility.yul\":24400:24572   */\n    tag_321:\n        /* \"#utility.yul\":24540:24564   */\n      0x43616d706169676e206861732073756363656564656400000000000000000000\n        /* \"#utility.yul\":24536:24537   */\n      0x00\n        /* \"#utility.yul\":24528:24534   */\n      dup3\n        /* \"#utility.yul\":24524:24538   */\n      add\n        /* \"#utility.yul\":24517:24565   */\n      mstore\n        /* \"#utility.yul\":24400:24572   */\n      pop\n      jump\t// out\n        /* \"#utility.yul\":24578:24944   */\n    tag_322:\n        /* \"#utility.yul\":24720:24723   */\n      0x00\n        /* \"#utility.yul\":24741:24808   */\n      tag_567\n        /* \"#utility.yul\":24805:24807   */\n      0x16\n        /* \"#utility.yul\":24800:24803   */\n      dup4\n        /* \"#utility.yul\":24741:24808   */\n      tag_271\n      jump\t// in\n    tag_567:\n        /* \"#utility.yul\":24734:24808   */\n      swap2\n      pop\n        /* \"#utility.yul\":24817:24910   */\n      tag_568\n        /* \"#utility.yul\":24906:24909   */\n      dup3\n        /* \"#utility.yul\":24817:24910   */\n      tag_321\n      jump\t// in\n    tag_568:\n        /* \"#utility.yul\":24935:24937   */\n      0x20\n        /* \"#utility.yul\":24930:24933   */\n      dup3\n        /* \"#utility.yul\":24926:24938   */\n      add\n        /* \"#utility.yul\":24919:24938   */\n      swap1\n      pop\n        /* \"#utility.yul\":24578:24944   */\n      swap2\n      swap1\n      pop\n      jump\t// out\n        /* \"#utility.yul\":24950:25369   */\n    tag_219:\n        /* \"#utility.yul\":25116:25120   */\n      0x00\n        /* \"#utility.yul\":25154:25156   */\n      0x20\n        /* \"#utility.yul\":25143:25152   */\n      dup3\n        /* \"#utility.yul\":25139:25157   */\n      add\n        /* \"#utility.yul\":25131:25157   */\n      swap1\n      pop\n        /* \"#utility.yul\":25203:25212   */\n      dup2\n        /* \"#utility.yul\":25197:25201   */\n      dup2\n        /* \"#utility.yul\":25193:25213   */\n      sub\n        /* \"#utility.yul\":25189:25190   */\n      0x00\n        /* \"#utility.yul\":25178:25187   */\n      dup4\n        /* \"#utility.yul\":25174:25191   */\n      add\n        /* \"#utility.yul\":25167:25214   */\n      mstore\n        /* \"#utility.yul\":25231:25362   */\n      tag_570\n        /* \"#utility.yul\":25357:25361   */\n      dup2\n        /* \"#utility.yul\":25231:25362   */\n      tag_322\n      jump\t// in\n    tag_570:\n        /* \"#utility.yul\":25223:25362   */\n      swap1\n      pop\n        /* \"#utility.yul\":24950:25369   */\n      swap2\n      swap1\n      pop\n      jump\t// out\n        /* \"#utility.yul\":25375:25516   */\n    tag_323:\n        /* \"#utility.yul\":25424:25428   */\n      0x00\n        /* \"#utility.yul\":25447:25450   */\n      dup2\n        /* \"#utility.yul\":25439:25450   */\n      swap1\n      pop\n        /* \"#utility.yul\":25470:25473   */\n      dup2\n        /* \"#utility.yul\":25467:25468   */\n      0x00\n        /* \"#utility.yul\":25460:25474   */\n      mstore\n        /* \"#utility.yul\":25504:25508   */\n      0x20\n        /* \"#utility.yul\":25501:25502   */\n      0x00\n        /* \"#utility.yul\":25491:25509   */\n      keccak256\n        /* \"#utility.yul\":25483:25509   */\n      swap1\n      pop\n        /* \"#utility.yul\":25375:25516   */\n      swap2\n      swap1\n      pop\n      jump\t// out\n        /* \"#utility.yul\":25522:25615   */\n    tag_324:\n        /* \"#utility.yul\":25559:25565   */\n      0x00\n        /* \"#utility.yul\":25606:25608   */\n      0x20\n        /* \"#utility.yul\":25601:25603   */\n      0x1f\n        /* \"#utility.yul\":25594:25599   */\n      dup4\n        /* \"#utility.yul\":25590:25604   */\n      add\n        /* \"#utility.yul\":25586:25609   */\n      div\n        /* \"#utility.yul\":25576:25609   */\n      swap1\n      pop\n        /* \"#utility.yul\":25522:25615   */\n      swap2\n      swap1\n      pop\n      jump\t// out\n        /* \"#utility.yul\":25621:25728   */\n    tag_325:\n        /* \"#utility.yul\":25665:25673   */\n      0x00\n        /* \"#utility.yul\":25715:25720   */\n      dup3\n        /* \"#utility.yul\":25709:25713   */\n      dup3\n        /* \"#utility.yul\":25705:25721   */\n      shl\n        /* \"#utility.yul\":25684:25721   */\n      swap1\n      pop\n        /* \"#utility.yul\":25621:25728   */\n      swap3\n      swap2\n      pop\n      pop\n      jump\t// out\n        /* \"#utility.yul\":25734:26127   */\n    tag_326:\n        /* \"#utility.yul\":25803:25809   */\n      0x00\n        /* \"#utility.yul\":25853:25854   */\n      0x08\n        /* \"#utility.yul\":25841:25851   */\n      dup4\n        /* \"#utility.yul\":25837:25855   */\n      mul\n        /* \"#utility.yul\":25876:25973   */\n      tag_575\n        /* \"#utility.yul\":25906:25972   */\n      0xffffffffffffffffffffffffffffffffffffffffffffffffffffffffffffffff\n        /* \"#utility.yul\":25895:25904   */\n      dup3\n        /* \"#utility.yul\":25876:25973   */\n      tag_325\n      jump\t// in\n    tag_575:\n        /* \"#utility.yul\":25994:26033   */\n      tag_576\n        /* \"#utility.yul\":26024:26032   */\n      dup7\n        /* \"#utility.yul\":26013:26022   */\n      dup4\n        /* \"#utility.yul\":25994:26033   */\n      tag_325\n      jump\t// in\n    tag_576:\n        /* \"#utility.yul\":25982:26033   */\n      swap6\n      pop\n        /* \"#utility.yul\":26066:26070   */\n      dup1\n        /* \"#utility.yul\":26062:26071   */\n      not\n        /* \"#utility.yul\":26055:26060   */\n      dup5\n        /* \"#utility.yul\":26051:26072   */\n      and\n        /* \"#utility.yul\":26042:26072   */\n      swap4\n      pop\n        /* \"#utility.yul\":26115:26119   */\n      dup1\n        /* \"#utility.yul\":26105:26113   */\n      dup7\n        /* \"#utility.yul\":26101:26120   */\n      and\n        /* \"#utility.yul\":26094:26099   */\n      dup5\n        /* \"#utility.yul\":26091:26121   */\n      or\n        /* \"#utility.yul\":26081:26121   */\n      swap3\n      pop\n        /* \"#utility.yul\":25810:26127   */\n      pop\n      pop\n        /* \"#utility.yul\":25734:26127   */\n      swap4\n      swap3\n      pop\n      pop\n      pop\n      jump\t// out\n        /* \"#utility.yul\":26133:26193   */\n    tag_327:\n        /* \"#utility.yul\":26161:26164   */\n      0x00\n        /* \"#utility.yul\":26182:26187   */\n      dup2\n        /* \"#utility.yul\":26175:26187   */\n      swap1\n      pop\n        /* \"#utility.yul\":26133:26193   */\n      swap2\n      swap1\n      pop\n      jump\t// out\n        /* \"#utility.yul\":26199:26341   */\n    tag_328:\n        /* \"#utility.yul\":26249:26258   */\n      0x00\n        /* \"#utility.yul\":26282:26335   */\n      tag_579\n        /* \"#utility.yul\":26300:26334   */\n      tag_580\n        /* \"#utility.yul\":26309:26333   */\n      tag_581\n        /* \"#utility.yul\":26327:26332   */\n      dup5\n        /* \"#utility.yul\":26309:26333   */\n      tag_261\n      jump\t// in\n    tag_581:\n        /* \"#utility.yul\":26300:26334   */\n      tag_327\n      jump\t// in\n    tag_580:\n        /* \"#utility.yul\":26282:26335   */\n      tag_261\n      jump\t// in\n    tag_579:\n        /* \"#utility.yul\":26269:26335   */\n      swap1\n      pop\n        /* \"#utility.yul\":26199:26341   */\n      swap2\n      swap1\n      pop\n      jump\t// out\n        /* \"#utility.yul\":26347:26422   */\n    tag_329:\n        /* \"#utility.yul\":26390:26393   */\n      0x00\n        /* \"#utility.yul\":26411:26416   */\n      dup2\n        /* \"#utility.yul\":26404:26416   */\n      swap1\n      pop\n        /* \"#utility.yul\":26347:26422   */\n      swap2\n      swap1\n      pop\n      jump\t// out\n        /* \"#utility.yul\":26428:26697   */\n    tag_330:\n        /* \"#utility.yul\":26538:26577   */\n      tag_584\n        /* \"#utility.yul\":26569:26576   */\n      dup4\n        /* \"#utility.yul\":26538:26577   */\n      tag_328\n      jump\t// in\n    tag_584:\n        /* \"#utility.yul\":26599:26690   */\n      tag_585\n        /* \"#utility.yul\":26648:26689   */\n      tag_586\n        /* \"#utility.yul\":26672:26688   */\n      dup3\n        /* \"#utility.yul\":26648:26689   */\n      tag_329\n      jump\t// in\n    tag_586:\n        /* \"#utility.yul\":26640:26646   */\n      dup5\n        /* \"#utility.yul\":26633:26637   */\n      dup5\n        /* \"#utility.yul\":26627:26638   */\n      sload\n        /* \"#utility.yul\":26599:26690   */\n      tag_326\n      jump\t// in\n    tag_585:\n        /* \"#utility.yul\":26593:26597   */\n      dup3\n        /* \"#utility.yul\":26586:26691   */\n      sstore\n        /* \"#utility.yul\":26504:26697   */\n      pop\n        /* \"#utility.yul\":26428:26697   */\n      pop\n      pop\n      pop\n      jump\t// out\n        /* \"#utility.yul\":26703:26776   */\n    tag_331:\n        /* \"#utility.yul\":26748:26751   */\n      0x00\n        /* \"#utility.yul\":26703:26776   */\n      swap1\n      jump\t// out\n        /* \"#utility.yul\":26782:26971   */\n    tag_332:\n        /* \"#utility.yul\":26859:26891   */\n      tag_589\n      tag_331\n      jump\t// in\n    tag_589:\n        /* \"#utility.yul\":26900:26965   */\n      tag_590\n        /* \"#utility.yul\":26958:26964   */\n      dup2\n        /* \"#utility.yul\":26950:26956   */\n      dup5\n        /* \"#utility.yul\":26944:26948   */\n      dup5\n        /* \"#utility.yul\":26900:26965   */\n      tag_330\n      jump\t// in\n    tag_590:\n        /* \"#utility.yul\":26835:26971   */\n      pop\n        /* \"#utility.yul\":26782:26971   */\n      pop\n      pop\n      jump\t// out\n        /* \"#utility.yul\":26977:27163   */\n    tag_333:\n        /* \"#utility.yul\":27037:27157   */\n    tag_592:\n        /* \"#utility.yul\":27054:27057   */\n      dup2\n        /* \"#utility.yul\":27047:27052   */\n      dup2\n        /* \"#utility.yul\":27044:27058   */\n      lt\n        /* \"#utility.yul\":27037:27157   */\n      iszero\n      tag_594\n      jumpi\n        /* \"#utility.yul\":27108:27147   */\n      tag_595\n        /* \"#utility.yul\":27145:27146   */\n      0x00\n        /* \"#utility.yul\":27138:27143   */\n      dup3\n        /* \"#utility.yul\":27108:27147   */\n      tag_332\n      jump\t// in\n    tag_595:\n        /* \"#utility.yul\":27081:27082   */\n      0x01\n        /* \"#utility.yul\":27074:27079   */\n      dup2\n        /* \"#utility.yul\":27070:27083   */\n      add\n        /* \"#utility.yul\":27061:27083   */\n      swap1\n      pop\n        /* \"#utility.yul\":27037:27157   */\n      jump(tag_592)\n    tag_594:\n        /* \"#utility.yul\":26977:27163   */\n      pop\n      pop\n      jump\t// out\n        /* \"#utility.yul\":27169:27712   */\n    tag_334:\n        /* \"#utility.yul\":27270:27272   */\n      0x1f\n        /* \"#utility.yul\":27265:27268   */\n      dup3\n        /* \"#utility.yul\":27262:27273   */\n      gt\n        /* \"#utility.yul\":27259:27705   */\n      iszero\n      tag_597\n      jumpi\n        /* \"#utility.yul\":27304:27342   */\n      tag_598\n        /* \"#utility.yul\":27336:27341   */\n      dup2\n        /* \"#utility.yul\":27304:27342   */\n      tag_323\n      jump\t// in\n    tag_598:\n        /* \"#utility.yul\":27388:27417   */\n      tag_599\n        /* \"#utility.yul\":27406:27416   */\n      dup5\n        /* \"#utility.yul\":27388:27417   */\n      tag_324\n      jump\t// in\n    tag_599:\n        /* \"#utility.yul\":27378:27386   */\n      dup2\n        /* \"#utility.yul\":27374:27418   */\n      add\n        /* \"#utility.yul\":27571:27573   */\n      0x20\n        /* \"#utility.yul\":27559:27569   */\n      dup6\n        /* \"#utility.yul\":27556:27574   */\n      lt\n        /* \"#utility.yul\":27553:27602   */\n      iszero\n      tag_600\n      jumpi\n        /* \"#utility.yul\":27592:27600   */\n      dup2\n        /* \"#utility.yul\":27577:27600   */\n      swap1\n      pop\n        /* \"#utility.yul\":27553:27602   */\n    tag_600:\n        /* \"#utility.yul\":27615:27695   */\n      tag_601\n        /* \"#utility.yul\":27671:27693   */\n      tag_602\n        /* \"#utility.yul\":27689:27692   */\n      dup6\n        /* \"#utility.yul\":27671:27693   */\n      tag_324\n      jump\t// in\n    tag_602:\n        /* \"#utility.yul\":27661:27669   */\n      dup4\n        /* \"#utility.yul\":27657:27694   */\n      add\n        /* \"#utility.yul\":27644:27655   */\n      dup3\n        /* \"#utility.yul\":27615:27695   */\n      tag_333\n      jump\t// in\n    tag_601:\n        /* \"#utility.yul\":27274:27705   */\n      pop\n      pop\n        /* \"#utility.yul\":27259:27705   */\n    tag_597:\n        /* \"#utility.yul\":27169:27712   */\n      pop\n      pop\n      pop\n      jump\t// out\n        /* \"#utility.yul\":27718:27835   */\n    tag_335:\n        /* \"#utility.yul\":27772:27780   */\n      0x00\n        /* \"#utility.yul\":27822:27827   */\n      dup3\n        /* \"#utility.yul\":27816:27820   */\n      dup3\n        /* \"#utility.yul\":27812:27828   */\n      shr\n        /* \"#utility.yul\":27791:27828   */\n      swap1\n      pop\n        /* \"#utility.yul\":27718:27835   */\n      swap3\n      swap2\n      pop\n      pop\n      jump\t// out\n        /* \"#utility.yul\":27841:28010   */\n    tag_336:\n        /* \"#utility.yul\":27885:27891   */\n      0x00\n        /* \"#utility.yul\":27918:27969   */\n      tag_605\n        /* \"#utility.yul\":27966:27967   */\n      0x00\n        /* \"#utility.yul\":27962:27968   */\n      not\n        /* \"#utility.yul\":27954:27959   */\n      dup5\n        /* \"#utility.yul\":27951:27952   */\n      0x08\n        /* \"#utility.yul\":27947:27960   */\n      mul\n        /* \"#utility.yul\":27918:27969   */\n      tag_335\n      jump\t// in\n    tag_605:\n        /* \"#utility.yul\":27914:27970   */\n      not\n        /* \"#utility.yul\":27999:28003   */\n      dup1\n        /* \"#utility.yul\":27993:27997   */\n      dup4\n        /* \"#utility.yul\":27989:28004   */\n      and\n        /* \"#utility.yul\":27979:28004   */\n      swap2\n      pop\n        /* \"#utility.yul\":27892:28010   */\n      pop\n        /* \"#utility.yul\":27841:28010   */\n      swap3\n      swap2\n      pop\n      pop\n      jump\t// out\n        /* \"#utility.yul\":28015:28310   */\n    tag_337:\n        /* \"#utility.yul\":28091:28095   */\n      0x00\n        /* \"#utility.yul\":28237:28266   */\n      tag_607\n        /* \"#utility.yul\":28262:28265   */\n      dup4\n        /* \"#utility.yul\":28256:28260   */\n      dup4\n        /* \"#utility.yul\":28237:28266   */\n      tag_336\n      jump\t// in\n    tag_607:\n        /* \"#utility.yul\":28229:28266   */\n      swap2\n      pop\n        /* \"#utility.yul\":28299:28302   */\n      dup3\n        /* \"#utility.yul\":28296:28297   */\n      0x02\n        /* \"#utility.yul\":28292:28303   */\n      mul\n        /* \"#utility.yul\":28286:28290   */\n      dup3\n        /* \"#utility.yul\":28283:28304   */\n      or\n        /* \"#utility.yul\":28275:28304   */\n      swap1\n      pop\n        /* \"#utility.yul\":28015:28310   */\n      swap3\n      swap2\n      pop\n      pop\n      jump\t// out\n        /* \"#utility.yul\":28315:29710   */\n    tag_226:\n        /* \"#utility.yul\":28432:28469   */\n      tag_609\n        /* \"#utility.yul\":28465:28468   */\n      dup3\n        /* \"#utility.yul\":28432:28469   */\n      tag_270\n      jump\t// in\n    tag_609:\n        /* \"#utility.yul\":28534:28552   */\n      0xffffffffffffffff\n        /* \"#utility.yul\":28526:28532   */\n      dup2\n        /* \"#utility.yul\":28523:28553   */\n      gt\n        /* \"#utility.yul\":28520:28576   */\n      iszero\n      tag_610\n      jumpi\n        /* \"#utility.yul\":28556:28574   */\n      tag_611\n      tag_291\n      jump\t// in\n    tag_611:\n        /* \"#utility.yul\":28520:28576   */\n    tag_610:\n        /* \"#utility.yul\":28600:28638   */\n      tag_612\n        /* \"#utility.yul\":28632:28636   */\n      dup3\n        /* \"#utility.yul\":28626:28637   */\n      sload\n        /* \"#utility.yul\":28600:28638   */\n      tag_182\n      jump\t// in\n    tag_612:\n        /* \"#utility.yul\":28685:28752   */\n      tag_613\n        /* \"#utility.yul\":28745:28751   */\n      dup3\n        /* \"#utility.yul\":28737:28743   */\n      dup3\n        /* \"#utility.yul\":28731:28735   */\n      dup6\n        /* \"#utility.yul\":28685:28752   */\n      tag_334\n      jump\t// in\n    tag_613:\n        /* \"#utility.yul\":28779:28780   */\n      0x00\n        /* \"#utility.yul\":28803:28807   */\n      0x20\n        /* \"#utility.yul\":28790:28807   */\n      swap1\n      pop\n        /* \"#utility.yul\":28835:28837   */\n      0x1f\n        /* \"#utility.yul\":28827:28833   */\n      dup4\n        /* \"#utility.yul\":28824:28838   */\n      gt\n        /* \"#utility.yul\":28852:28853   */\n      0x01\n        /* \"#utility.yul\":28847:29465   */\n      dup2\n      eq\n      tag_615\n      jumpi\n        /* \"#utility.yul\":29509:29510   */\n      0x00\n        /* \"#utility.yul\":29526:29532   */\n      dup5\n        /* \"#utility.yul\":29523:29600   */\n      iszero\n      tag_616\n      jumpi\n        /* \"#utility.yul\":29575:29584   */\n      dup3\n        /* \"#utility.yul\":29570:29573   */\n      dup8\n        /* \"#utility.yul\":29566:29585   */\n      add\n        /* \"#utility.yul\":29560:29586   */\n      mload\n        /* \"#utility.yul\":29551:29586   */\n      swap1\n      pop\n        /* \"#utility.yul\":29523:29600   */\n    tag_616:\n        /* \"#utility.yul\":29626:29693   */\n      tag_617\n        /* \"#utility.yul\":29686:29692   */\n      dup6\n        /* \"#utility.yul\":29679:29684   */\n      dup3\n        /* \"#utility.yul\":29626:29693   */\n      tag_337\n      jump\t// in\n    tag_617:\n        /* \"#utility.yul\":29620:29624   */\n      dup7\n        /* \"#utility.yul\":29613:29694   */\n      sstore\n        /* \"#utility.yul\":29482:29704   */\n      pop\n        /* \"#utility.yul\":28817:29704   */\n      jump(tag_614)\n        /* \"#utility.yul\":28847:29465   */\n    tag_615:\n        /* \"#utility.yul\":28899:28903   */\n      0x1f\n        /* \"#utility.yul\":28895:28904   */\n      not\n        /* \"#utility.yul\":28887:28893   */\n      dup5\n        /* \"#utility.yul\":28883:28905   */\n      and\n        /* \"#utility.yul\":28933:28970   */\n      tag_618\n        /* \"#utility.yul\":28965:28969   */\n      dup7\n        /* \"#utility.yul\":28933:28970   */\n      tag_323\n      jump\t// in\n    tag_618:\n        /* \"#utility.yul\":28992:28993   */\n      0x00\n        /* \"#utility.yul\":29006:29214   */\n    tag_619:\n        /* \"#utility.yul\":29020:29027   */\n      dup3\n        /* \"#utility.yul\":29017:29018   */\n      dup2\n        /* \"#utility.yul\":29014:29028   */\n      lt\n        /* \"#utility.yul\":29006:29214   */\n      iszero\n      tag_621\n      jumpi\n        /* \"#utility.yul\":29099:29108   */\n      dup5\n        /* \"#utility.yul\":29094:29097   */\n      dup10\n        /* \"#utility.yul\":29090:29109   */\n      add\n        /* \"#utility.yul\":29084:29110   */\n      mload\n        /* \"#utility.yul\":29076:29082   */\n      dup3\n        /* \"#utility.yul\":29069:29111   */\n      sstore\n        /* \"#utility.yul\":29150:29151   */\n      0x01\n        /* \"#utility.yul\":29142:29148   */\n      dup3\n        /* \"#utility.yul\":29138:29152   */\n      add\n        /* \"#utility.yul\":29128:29152   */\n      swap2\n      pop\n        /* \"#utility.yul\":29197:29199   */\n      0x20\n        /* \"#utility.yul\":29186:29195   */\n      dup6\n        /* \"#utility.yul\":29182:29200   */\n      add\n        /* \"#utility.yul\":29169:29200   */\n      swap5\n      pop\n        /* \"#utility.yul\":29043:29047   */\n      0x20\n        /* \"#utility.yul\":29040:29041   */\n      dup2\n        /* \"#utility.yul\":29036:29048   */\n      add\n        /* \"#utility.yul\":29031:29048   */\n      swap1\n      pop\n        /* \"#utility.yul\":29006:29214   */\n      jump(tag_619)\n    tag_621:\n        /* \"#utility.yul\":29242:29248   */\n      dup7\n        /* \"#utility.yul\":29233:29240   */\n      dup4\n        /* \"#utility.yul\":29230:29249   */\n      lt\n        /* \"#utility.yul\":29227:29406   */\n      iszero\n      tag_622\n      jumpi\n        /* \"#utility.yul\":29300:29309   */\n      dup5\n        /* \"#utility.yul\":29295:29298   */\n      dup10\n        /* \"#utility.yul\":29291:29310   */\n      add\n        /* \"#utility.yul\":29285:29311   */\n      mload\n        /* \"#utility.yul\":29343:29391   */\n      tag_623\n        /* \"#utility.yul\":29385:29389   */\n      0x1f\n        /* \"#utility.yul\":29377:29383   */\n      dup10\n        /* \"#utility.yul\":29373:29390   */\n      and\n        /* \"#utility.yul\":29362:29371   */\n      dup3\n        /* \"#utility.yul\":29343:29391   */\n      tag_336\n      jump\t// in\n    tag_623:\n        /* \"#utility.yul\":29335:29341   */\n      dup4\n        /* \"#utility.yul\":29328:29392   */\n      sstore\n        /* \"#utility.yul\":29250:29406   */\n      pop\n        /* \"#utility.yul\":29227:29406   */\n    tag_622:\n        /* \"#utility.yul\":29452:29453   */\n      0x01\n        /* \"#utility.yul\":29448:29449   */\n      0x02\n        /* \"#utility.yul\":29440:29446   */\n      dup9\n        /* \"#utility.yul\":29436:29450   */\n      mul\n        /* \"#utility.yul\":29432:29454   */\n      add\n        /* \"#utility.yul\":29426:29430   */\n      dup9\n        /* \"#utility.yul\":29419:29455   */\n      sstore\n        /* \"#utility.yul\":28854:29465   */\n      pop\n      pop\n      pop\n        /* \"#utility.yul\":28817:29704   */\n    tag_614:\n      pop\n        /* \"#utility.yul\":28407:29710   */\n      pop\n      pop\n      pop\n        /* \"#utility.yul\":28315:29710   */\n      pop\n      pop\n      jump\t// out\n        /* \"#utility.yul\":29716:29940   */\n    tag_338:\n        /* \"#utility.yul\":29856:29890   */\n      0x596f75206861766520616c726561647920617070726f76656420746865207265\n        /* \"#utility.yul\":29852:29853   */\n      0x00\n        /* \"#utility.yul\":29844:29850   */\n      dup3\n        /* \"#utility.yul\":29840:29854   */\n      add\n        /* \"#utility.yul\":29833:29891   */\n      mstore\n        /* \"#utility.yul\":29925:29932   */\n      0x7175657374000000000000000000000000000000000000000000000000000000\n        /* \"#utility.yul\":29920:29922   */\n      0x20\n        /* \"#utility.yul\":29912:29918   */\n      dup3\n        /* \"#utility.yul\":29908:29923   */\n      add\n        /* \"#utility.yul\":29901:29933   */\n      mstore\n        /* \"#utility.yul\":29716:29940   */\n      pop\n      jump\t// out\n        /* \"#utility.yul\":29946:30312   */\n    tag_339:\n        /* \"#utility.yul\":30088:30091   */\n      0x00\n        /* \"#utility.yul\":30109:30176   */\n      tag_626\n        /* \"#utility.yul\":30173:30175   */\n      0x25\n        /* \"#utility.yul\":30168:30171   */\n      dup4\n        /* \"#utility.yul\":30109:30176   */\n      tag_271\n      jump\t// in\n    tag_626:\n        /* \"#utility.yul\":30102:30176   */\n      swap2\n      pop\n        /* \"#utility.yul\":30185:30278   */\n      tag_627\n        /* \"#utility.yul\":30274:30277   */\n      dup3\n        /* \"#utility.yul\":30185:30278   */\n      tag_338\n      jump\t// in\n    tag_627:\n        /* \"#utility.yul\":30303:30305   */\n      0x40\n        /* \"#utility.yul\":30298:30301   */\n      dup3\n        /* \"#utility.yul\":30294:30306   */\n      add\n        /* \"#utility.yul\":30287:30306   */\n      swap1\n      pop\n        /* \"#utility.yul\":29946:30312   */\n      swap2\n      swap1\n      pop\n      jump\t// out\n        /* \"#utility.yul\":30318:30737   */\n    tag_246:\n        /* \"#utility.yul\":30484:30488   */\n      0x00\n        /* \"#utility.yul\":30522:30524   */\n      0x20\n        /* \"#utility.yul\":30511:30520   */\n      dup3\n        /* \"#utility.yul\":30507:30525   */\n      add\n        /* \"#utility.yul\":30499:30525   */\n      swap1\n      pop\n        /* \"#utility.yul\":30571:30580   */\n      dup2\n        /* \"#utility.yul\":30565:30569   */\n      dup2\n        /* \"#utility.yul\":30561:30581   */\n      sub\n        /* \"#utility.yul\":30557:30558   */\n      0x00\n        /* \"#utility.yul\":30546:30555   */\n      dup4\n        /* \"#utility.yul\":30542:30559   */\n      add\n        /* \"#utility.yul\":30535:30582   */\n      mstore\n        /* \"#utility.yul\":30599:30730   */\n      tag_629\n        /* \"#utility.yul\":30725:30729   */\n      dup2\n        /* \"#utility.yul\":30599:30730   */\n      tag_339\n      jump\t// in\n    tag_629:\n        /* \"#utility.yul\":30591:30730   */\n      swap1\n      pop\n        /* \"#utility.yul\":30318:30737   */\n      swap2\n      swap1\n      pop\n      jump\t// out\n\n    auxdata: 0xa26469706673582212204231d7cbe85bf229d3589a1308550768b4ba8917c9300ce43c63094b36b2a2a164736f6c634300080f0033\n}\n","bytecode":{"linkReferences":{},"object":"60806040523480156200001157600080fd5b50604051620029613803806200296183398181016040528101906200003791906200018f565b4283116200007c576040517f08c379a0000000000000000000000000000000000000000000000000000000008152600401620000739062000288565b60405180910390fd5b806000806101000a81548173ffffffffffffffffffffffffffffffffffffffff021916908373ffffffffffffffffffffffffffffffffffffffff16021790555083600181905550600060028190555042600381905550826004819055508160058190555050505050620002aa565b600080fd5b6000819050919050565b6200010481620000ef565b81146200011057600080fd5b50565b6000815190506200012481620000f9565b92915050565b600073ffffffffffffffffffffffffffffffffffffffff82169050919050565b600062000157826200012a565b9050919050565b62000169816200014a565b81146200017557600080fd5b50565b60008151905062000189816200015e565b92915050565b60008060008060808587031215620001ac57620001ab620000ea565b5b6000620001bc8782880162000113565b9450506020620001cf8782880162000113565b9350506040620001e28782880162000113565b9250506060620001f58782880162000178565b91505092959194509250565b600082825260208201905092915050565b7f456e642074696d65206973206c657373207468616e2063757272656e7420746960008201527f6d65000000000000000000000000000000000000000000000000000000000000602082015250565b60006200027060228362000201565b91506200027d8262000212565b604082019050919050565b60006020820190508181036000830152620002a38162000261565b9050919050565b6126a780620002ba6000396000f3fe60806040526004361061014b5760003560e01c806388ffe867116100b6578063bbb484451161006f578063bbb484451461042f578063c5055f2f1461045a578063c744656514610497578063d7d1bbdb146104c2578063ea8a1af0146104eb578063ffabc673146105025761014b565b806388ffe867146103505780638a9cfd551461035a5780638f32d59b146103835780639b4b1786146103ae578063aeafca2e146103d9578063ba2cb6c5146104045761014b565b8063481c6a7511610108578063481c6a7514610247578063590e1ae3146102725780637723421d1461027c5780637cc3ae8c146102b957806381d12c58146102e45780638813ce12146103255761014b565b8063034410061461015057806312065fe01461016c5780633410452a146101975780633f9942ff146101c257806340193883146101ed5780634051ddac14610218575b600080fd5b61016a60048036038101906101659190611634565b61053f565b005b34801561017857600080fd5b50610181610779565b60405161018e9190611670565b60405180910390f35b3480156101a357600080fd5b506101ac610781565b6040516101b99190611670565b60405180910390f35b3480156101ce57600080fd5b506101d761078e565b6040516101e491906116a6565b60405180910390f35b3480156101f957600080fd5b506102026107a1565b60405161020f9190611670565b60405180910390f35b34801561022457600080fd5b5061022d6107a7565b60405161023e959493929190611702565b60405180910390f35b34801561025357600080fd5b5061025c6107ee565b6040516102699190611755565b60405180910390f35b61027a610812565b005b34801561028857600080fd5b506102a3600480360381019061029e9190611634565b610a29565b6040516102b091906116a6565b60405180910390f35b3480156102c557600080fd5b506102ce610a9b565b6040516102db9190611670565b60405180910390f35b3480156102f057600080fd5b5061030b60048036038101906103069190611634565b610aa1565b60405161031c95949392919061182a565b60405180910390f35b34801561033157600080fd5b5061033a610b9c565b6040516103479190611a33565b60405180910390f35b610358610d12565b005b34801561036657600080fd5b50610381600480360381019061037c9190611bb6565b610ec8565b005b34801561038f57600080fd5b506103986110f7565b6040516103a591906116a6565b60405180910390f35b3480156103ba57600080fd5b506103c361118f565b6040516103d09190611670565b60405180910390f35b3480156103e557600080fd5b506103ee611195565b6040516103fb9190611670565b60405180910390f35b34801561041057600080fd5b5061041961119b565b6040516104269190611670565b60405180910390f35b34801561043b57600080fd5b506104446111a1565b6040516104519190611670565b60405180910390f35b34801561046657600080fd5b50610481600480360381019061047c9190611c51565b6111ed565b60405161048e9190611670565b60405180910390f35b3480156104a357600080fd5b506104ac611205565b6040516104b99190611670565b60405180910390f35b3480156104ce57600080fd5b506104e960048036038101906104e49190611634565b61120b565b005b3480156104f757600080fd5b5061050061147a565b005b34801561050e57600080fd5b5061052960048036038101906105249190611c7e565b6115bb565b60405161053691906116a6565b60405180910390f35b60008054906101000a900473ffffffffffffffffffffffffffffffffffffffff1673ffffffffffffffffffffffffffffffffffffffff163373ffffffffffffffffffffffffffffffffffffffff16146105cd576040517f08c379a00000000000000000000000000000000000000000000000000000000081526004016105c490611d30565b60405180910390fd5b600a60009054906101000a900460ff161561061d576040517f08c379a000000000000000000000000000000000000000000000000000000000815260040161061490611d9c565b60405180910390fd5b60006006828154811061063357610632611dbc565b5b906000526020600020906004020190508060020160149054906101000a900460ff1615610695576040517f08c379a000000000000000000000000000000000000000000000000000000000815260040161068c90611e37565b60405180910390fd5b60026007546106a49190611eb5565b8160030154116106e9576040517f08c379a00000000000000000000000000000000000000000000000000000000081526004016106e090611f58565b60405180910390fd5b8060020160009054906101000a900473ffffffffffffffffffffffffffffffffffffffff1673ffffffffffffffffffffffffffffffffffffffff166108fc82600101549081150290604051600060405180830381858888f19350505050158015610757573d6000803e3d6000fd5b5060018160020160146101000a81548160ff0219169083151502179055505050565b600047905090565b6000600680549050905090565b600a60009054906101000a900460ff1681565b60015481565b60008060008060006005544760068054905060075460008054906101000a900473ffffffffffffffffffffffffffffffffffffffff16945094509450945094509091929394565b60008054906101000a900473ffffffffffffffffffffffffffffffffffffffff1681565b600454421115610857576040517f08c379a000000000000000000000000000000000000000000000000000000000815260040161084e90611fc4565b60405180910390fd5b6000600860003373ffffffffffffffffffffffffffffffffffffffff1673ffffffffffffffffffffffffffffffffffffffff16815260200190815260200160002054116108d9576040517f08c379a00000000000000000000000000000000000000000000000000000000081526004016108d090612056565b60405180910390fd5b6001546002541061091f576040517f08c379a0000000000000000000000000000000000000000000000000000000008152600401610916906120e8565b60405180910390fd5b6000600860003373ffffffffffffffffffffffffffffffffffffffff1673ffffffffffffffffffffffffffffffffffffffff16815260200190815260200160002054905060003390508073ffffffffffffffffffffffffffffffffffffffff166108fc839081150290604051600060405180830381858888f193505050501580156109ae573d6000803e3d6000fd5b506000600860003373ffffffffffffffffffffffffffffffffffffffff1673ffffffffffffffffffffffffffffffffffffffff1681526020019081526020016000208190555060076000815480929190610a0790612108565b91905055508160026000828254610a1e9190612131565b925050819055505050565b6000803390506000600960008373ffffffffffffffffffffffffffffffffffffffff1673ffffffffffffffffffffffffffffffffffffffff168152602001908152602001600020600085815260200190815260200160002060009054906101000a900460ff1690508092505050919050565b60045481565b60068181548110610ab157600080fd5b9060005260206000209060040201600091509050806000018054610ad490612194565b80601f0160208091040260200160405190810160405280929190818152602001828054610b0090612194565b8015610b4d5780601f10610b2257610100808354040283529160200191610b4d565b820191906000526020600020905b815481529060010190602001808311610b3057829003601f168201915b5050505050908060010154908060020160009054906101000a900473ffffffffffffffffffffffffffffffffffffffff16908060020160149054906101000a900460ff16908060030154905085565b60606006805480602002602001604051908101604052809291908181526020016000905b82821015610d0957838290600052602060002090600402016040518060a0016040529081600082018054610bf390612194565b80601f0160208091040260200160405190810160405280929190818152602001828054610c1f90612194565b8015610c6c5780601f10610c4157610100808354040283529160200191610c6c565b820191906000526020600020905b815481529060010190602001808311610c4f57829003601f168201915b50505050508152602001600182015481526020016002820160009054906101000a900473ffffffffffffffffffffffffffffffffffffffff1673ffffffffffffffffffffffffffffffffffffffff1673ffffffffffffffffffffffffffffffffffffffff1681526020016002820160149054906101000a900460ff1615151515815260200160038201548152505081526020019060010190610bc0565b50505050905090565b600454421115610d57576040517f08c379a0000000000000000000000000000000000000000000000000000000008152600401610d4e90611fc4565b60405180910390fd5b600a60009054906101000a900460ff1615610da7576040517f08c379a0000000000000000000000000000000000000000000000000000000008152600401610d9e90611d9c565b60405180910390fd5b60055434118015610db85750600034115b610df7576040517f08c379a0000000000000000000000000000000000000000000000000000000008152600401610dee90612237565b60405180910390fd5b3460026000828254610e099190612257565b925050819055506000600860003373ffffffffffffffffffffffffffffffffffffffff1673ffffffffffffffffffffffffffffffffffffffff1681526020019081526020016000205403610e705760076000815480929190610e6a906122ad565b91905055505b34600860003373ffffffffffffffffffffffffffffffffffffffff1673ffffffffffffffffffffffffffffffffffffffff1681526020019081526020016000206000828254610ebf9190612257565b92505081905550565b60008054906101000a900473ffffffffffffffffffffffffffffffffffffffff1673ffffffffffffffffffffffffffffffffffffffff163373ffffffffffffffffffffffffffffffffffffffff1614610f56576040517f08c379a0000000000000000000000000000000000000000000000000000000008152600401610f4d90611d30565b60405180910390fd5b6001546002541015610f9d576040517f08c379a0000000000000000000000000000000000000000000000000000000008152600401610f9490612341565b60405180910390fd5b600a60009054906101000a900460ff1615610fed576040517f08c379a0000000000000000000000000000000000000000000000000000000008152600401610fe490611d9c565b60405180910390fd5b60006040518060a001604052808581526020018481526020018373ffffffffffffffffffffffffffffffffffffffff1681526020016000151581526020016000815250905060068190806001815401808255809150506001900390600052602060002090600402016000909190919091506000820151816000019081611073919061250d565b506020820151816001015560408201518160020160006101000a81548173ffffffffffffffffffffffffffffffffffffffff021916908373ffffffffffffffffffffffffffffffffffffffff16021790555060608201518160020160146101000a81548160ff02191690831515021790555060808201518160030155505050505050565b60008060009054906101000a900473ffffffffffffffffffffffffffffffffffffffff1673ffffffffffffffffffffffffffffffffffffffff163373ffffffffffffffffffffffffffffffffffffffff1614611188576040517f08c379a000000000000000000000000000000000000000000000000000000000815260040161117f90611d30565b60405180910390fd5b6001905090565b60055481565b60025481565b60075481565b600080339050600860008273ffffffffffffffffffffffffffffffffffffffff1673ffffffffffffffffffffffffffffffffffffffff1681526020019081526020016000205491505090565b60086020528060005260406000206000915090505481565b60035481565b6000600860003373ffffffffffffffffffffffffffffffffffffffff1673ffffffffffffffffffffffffffffffffffffffff168152602001908152602001600020541161128d576040517f08c379a000000000000000000000000000000000000000000000000000000000815260040161128490612056565b60405180910390fd5b600a60009054906101000a900460ff16156112dd576040517f08c379a00000000000000000000000000000000000000000000000000000000081526004016112d490611d9c565b60405180910390fd5b6000600682815481106112f3576112f2611dbc565b5b906000526020600020906004020190508060020160149054906101000a900460ff1615611355576040517f08c379a000000000000000000000000000000000000000000000000000000000815260040161134c90611e37565b60405180910390fd5b600960003373ffffffffffffffffffffffffffffffffffffffff1673ffffffffffffffffffffffffffffffffffffffff168152602001908152602001600020600083815260200190815260200160002060009054906101000a900460ff16156113f3576040517f08c379a00000000000000000000000000000000000000000000000000000000081526004016113ea90612651565b60405180910390fd5b6001600960003373ffffffffffffffffffffffffffffffffffffffff1673ffffffffffffffffffffffffffffffffffffffff168152602001908152602001600020600084815260200190815260200160002060006101000a81548160ff021916908315150217905550806003016000815480929190611471906122ad565b91905055505050565b60008054906101000a900473ffffffffffffffffffffffffffffffffffffffff1673ffffffffffffffffffffffffffffffffffffffff163373ffffffffffffffffffffffffffffffffffffffff1614611508576040517f08c379a00000000000000000000000000000000000000000000000000000000081526004016114ff90611d30565b60405180910390fd5b600a60009054906101000a900460ff1615611558576040517f08c379a000000000000000000000000000000000000000000000000000000000815260040161154f90611d9c565b60405180910390fd5b6001546002541061159e576040517f08c379a0000000000000000000000000000000000000000000000000000000008152600401611595906120e8565b60405180910390fd5b6001600a60006101000a81548160ff021916908315150217905550565b60096020528160005260406000206020528060005260406000206000915091509054906101000a900460ff1681565b6000604051905090565b600080fd5b600080fd5b6000819050919050565b611611816115fe565b811461161c57600080fd5b50565b60008135905061162e81611608565b92915050565b60006020828403121561164a576116496115f4565b5b60006116588482850161161f565b91505092915050565b61166a816115fe565b82525050565b60006020820190506116856000830184611661565b92915050565b60008115159050919050565b6116a08161168b565b82525050565b60006020820190506116bb6000830184611697565b92915050565b600073ffffffffffffffffffffffffffffffffffffffff82169050919050565b60006116ec826116c1565b9050919050565b6116fc816116e1565b82525050565b600060a0820190506117176000830188611661565b6117246020830187611661565b6117316040830186611661565b61173e6060830185611661565b61174b60808301846116f3565b9695505050505050565b600060208201905061176a60008301846116f3565b92915050565b600081519050919050565b600082825260208201905092915050565b60005b838110156117aa57808201518184015260208101905061178f565b838111156117b9576000848401525b50505050565b6000601f19601f8301169050919050565b60006117db82611770565b6117e5818561177b565b93506117f581856020860161178c565b6117fe816117bf565b840191505092915050565b6000611814826116c1565b9050919050565b61182481611809565b82525050565b600060a082019050818103600083015261184481886117d0565b90506118536020830187611661565b611860604083018661181b565b61186d6060830185611697565b61187a6080830184611661565b9695505050505050565b600081519050919050565b600082825260208201905092915050565b6000819050602082019050919050565b600082825260208201905092915050565b60006118cc82611770565b6118d681856118b0565b93506118e681856020860161178c565b6118ef816117bf565b840191505092915050565b611903816115fe565b82525050565b61191281611809565b82525050565b6119218161168b565b82525050565b600060a083016000830151848203600086015261194482826118c1565b915050602083015161195960208601826118fa565b50604083015161196c6040860182611909565b50606083015161197f6060860182611918565b50608083015161199260808601826118fa565b508091505092915050565b60006119a98383611927565b905092915050565b6000602082019050919050565b60006119c982611884565b6119d3818561188f565b9350836020820285016119e5856118a0565b8060005b85811015611a215784840389528151611a02858261199d565b9450611a0d836119b1565b925060208a019950506001810190506119e9565b50829750879550505050505092915050565b60006020820190508181036000830152611a4d81846119be565b905092915050565b600080fd5b600080fd5b7f4e487b7100000000000000000000000000000000000000000000000000000000600052604160045260246000fd5b611a97826117bf565b810181811067ffffffffffffffff82111715611ab657611ab5611a5f565b5b80604052505050565b6000611ac96115ea565b9050611ad58282611a8e565b919050565b600067ffffffffffffffff821115611af557611af4611a5f565b5b611afe826117bf565b9050602081019050919050565b82818337600083830152505050565b6000611b2d611b2884611ada565b611abf565b905082815260208101848484011115611b4957611b48611a5a565b5b611b54848285611b0b565b509392505050565b600082601f830112611b7157611b70611a55565b5b8135611b81848260208601611b1a565b91505092915050565b611b9381611809565b8114611b9e57600080fd5b50565b600081359050611bb081611b8a565b92915050565b600080600060608486031215611bcf57611bce6115f4565b5b600084013567ffffffffffffffff811115611bed57611bec6115f9565b5b611bf986828701611b5c565b9350506020611c0a8682870161161f565b9250506040611c1b86828701611ba1565b9150509250925092565b611c2e816116e1565b8114611c3957600080fd5b50565b600081359050611c4b81611c25565b92915050565b600060208284031215611c6757611c666115f4565b5b6000611c7584828501611c3c565b91505092915050565b60008060408385031215611c9557611c946115f4565b5b6000611ca385828601611c3c565b9250506020611cb48582860161161f565b9150509250929050565b7f5065726d697373696f6e2064656e6965643a20596f7520646f206e6f74206f7760008201527f6e20746869732063616d706169676e0000000000000000000000000000000000602082015250565b6000611d1a602f8361177b565b9150611d2582611cbe565b604082019050919050565b60006020820190508181036000830152611d4981611d0d565b9050919050565b7f43616d706169676e206861732063616e63656c65640000000000000000000000600082015250565b6000611d8660158361177b565b9150611d9182611d50565b602082019050919050565b60006020820190508181036000830152611db581611d79565b9050919050565b7f4e487b7100000000000000000000000000000000000000000000000000000000600052603260045260246000fd5b7f5265717565737420686173206265656e20636f6d706c65746564000000000000600082015250565b6000611e21601a8361177b565b9150611e2c82611deb565b602082019050919050565b60006020820190508181036000830152611e5081611e14565b9050919050565b7f4e487b7100000000000000000000000000000000000000000000000000000000600052601260045260246000fd5b7f4e487b7100000000000000000000000000000000000000000000000000000000600052601160045260246000fd5b6000611ec0826115fe565b9150611ecb836115fe565b925082611edb57611eda611e57565b5b828204905092915050565b7f5265717565737420646f6573206e6f74206861766520656e6f7567682061707060008201527f726f76616c730000000000000000000000000000000000000000000000000000602082015250565b6000611f4260268361177b565b9150611f4d82611ee6565b604082019050919050565b60006020820190508181036000830152611f7181611f35565b9050919050565b7f43616d706169676e2068617320616c726561647920656e646564000000000000600082015250565b6000611fae601a8361177b565b9150611fb982611f78565b602082019050919050565b60006020820190508181036000830152611fdd81611fa1565b9050919050565b7f596f7520617265206e6f7420696e2074686520636f6e7472696275746f72732060008201527f6c69737400000000000000000000000000000000000000000000000000000000602082015250565b600061204060248361177b565b915061204b82611fe4565b604082019050919050565b6000602082019050818103600083015261206f81612033565b9050919050565b7f596f752063616e6e6f742077697468647261772c2043616d706169676e20686160008201527f73206e6f74207375636365656465640000000000000000000000000000000000602082015250565b60006120d2602f8361177b565b91506120dd82612076565b604082019050919050565b60006020820190508181036000830152612101816120c5565b9050919050565b6000612113826115fe565b91506000820361212657612125611e86565b5b600182039050919050565b600061213c826115fe565b9150612147836115fe565b92508282101561215a57612159611e86565b5b828203905092915050565b7f4e487b7100000000000000000000000000000000000000000000000000000000600052602260045260246000fd5b600060028204905060018216806121ac57607f821691505b6020821081036121bf576121be612165565b5b50919050565b7f56616c7565206973206c657373207468616e206d696e696d756d20636f6e747260008201527f69627574696f6e00000000000000000000000000000000000000000000000000602082015250565b600061222160278361177b565b915061222c826121c5565b604082019050919050565b6000602082019050818103600083015261225081612214565b9050919050565b6000612262826115fe565b915061226d836115fe565b9250827fffffffffffffffffffffffffffffffffffffffffffffffffffffffffffffffff038211156122a2576122a1611e86565b5b828201905092915050565b60006122b8826115fe565b91507fffffffffffffffffffffffffffffffffffffffffffffffffffffffffffffffff82036122ea576122e9611e86565b5b600182019050919050565b7f43616d706169676e206861732073756363656564656400000000000000000000600082015250565b600061232b60168361177b565b9150612336826122f5565b602082019050919050565b6000602082019050818103600083015261235a8161231e565b9050919050565b60008190508160005260206000209050919050565b60006020601f8301049050919050565b600082821b905092915050565b6000600883026123c37fffffffffffffffffffffffffffffffffffffffffffffffffffffffffffffffff82612386565b6123cd8683612386565b95508019841693508086168417925050509392505050565b6000819050919050565b600061240a612405612400846115fe565b6123e5565b6115fe565b9050919050565b6000819050919050565b612424836123ef565b61243861243082612411565b848454612393565b825550505050565b600090565b61244d612440565b61245881848461241b565b505050565b5b8181101561247c57612471600082612445565b60018101905061245e565b5050565b601f8211156124c15761249281612361565b61249b84612376565b810160208510156124aa578190505b6124be6124b685612376565b83018261245d565b50505b505050565b600082821c905092915050565b60006124e4600019846008026124c6565b1980831691505092915050565b60006124fd83836124d3565b9150826002028217905092915050565b61251682611770565b67ffffffffffffffff81111561252f5761252e611a5f565b5b6125398254612194565b612544828285612480565b600060209050601f8311600181146125775760008415612565578287015190505b61256f85826124f1565b8655506125d7565b601f19841661258586612361565b60005b828110156125ad57848901518255600182019150602085019450602081019050612588565b868310156125ca57848901516125c6601f8916826124d3565b8355505b6001600288020188555050505b505050505050565b7f596f75206861766520616c726561647920617070726f7665642074686520726560008201527f7175657374000000000000000000000000000000000000000000000000000000602082015250565b600061263b60258361177b565b9150612646826125df565b604082019050919050565b6000602082019050818103600083015261266a8161262e565b905091905056fea26469706673582212204231d7cbe85bf229d3589a1308550768b4ba8917c9300ce43c63094b36b2a2a164736f6c634300080f0033","opcodes":"PUSH1 0x80 PUSH1 0x40 MSTORE CALLVALUE DUP1 ISZERO PUSH3 0x11 JUMPI PUSH1 0x0 DUP1 REVERT JUMPDEST POP PUSH1 0x40 MLOAD PUSH3 0x2961 CODESIZE SUB DUP1 PUSH3 0x2961 DUP4 CODECOPY DUP2 DUP2 ADD PUSH1 0x40 MSTORE DUP2 ADD SWAP1 PUSH3 0x37 SWAP2 SWAP1 PUSH3 0x18F JUMP JUMPDEST TIMESTAMP DUP4 GT PUSH3 0x7C JUMPI PUSH1 0x40 MLOAD PUSH32 0x8C379A000000000000000000000000000000000000000000000000000000000 DUP2 MSTORE PUSH1 0x4 ADD PUSH3 0x73 SWAP1 PUSH3 0x288 JUMP JUMPDEST PUSH1 0x40 MLOAD DUP1 SWAP2 SUB SWAP1 REVERT JUMPDEST DUP1 PUSH1 0x0 DUP1 PUSH2 0x100 EXP DUP2 SLOAD DUP2 PUSH20 0xFFFFFFFFFFFFFFFFFFFFFFFFFFFFFFFFFFFFFFFF MUL NOT AND SWAP1 DUP4 PUSH20 0xFFFFFFFFFFFFFFFFFFFFFFFFFFFFFFFFFFFFFFFF AND MUL OR SWAP1 SSTORE POP DUP4 PUSH1 0x1 DUP2 SWAP1 SSTORE POP PUSH1 0x0 PUSH1 0x2 DUP2 SWAP1 SSTORE POP TIMESTAMP PUSH1 0x3 DUP2 SWAP1 SSTORE POP DUP3 PUSH1 0x4 DUP2 SWAP1 SSTORE POP DUP2 PUSH1 0x5 DUP2 SWAP1 SSTORE POP POP POP POP POP PUSH3 0x2AA JUMP JUMPDEST PUSH1 0x0 DUP1 REVERT JUMPDEST PUSH1 0x0 DUP2 SWAP1 POP SWAP2 SWAP1 POP JUMP JUMPDEST PUSH3 0x104 DUP2 PUSH3 0xEF JUMP JUMPDEST DUP2 EQ PUSH3 0x110 JUMPI PUSH1 0x0 DUP1 REVERT JUMPDEST POP JUMP JUMPDEST PUSH1 0x0 DUP2 MLOAD SWAP1 POP PUSH3 0x124 DUP2 PUSH3 0xF9 JUMP JUMPDEST SWAP3 SWAP2 POP POP JUMP JUMPDEST PUSH1 0x0 PUSH20 0xFFFFFFFFFFFFFFFFFFFFFFFFFFFFFFFFFFFFFFFF DUP3 AND SWAP1 POP SWAP2 SWAP1 POP JUMP JUMPDEST PUSH1 0x0 PUSH3 0x157 DUP3 PUSH3 0x12A JUMP JUMPDEST SWAP1 POP SWAP2 SWAP1 POP JUMP JUMPDEST PUSH3 0x169 DUP2 PUSH3 0x14A JUMP JUMPDEST DUP2 EQ PUSH3 0x175 JUMPI PUSH1 0x0 DUP1 REVERT JUMPDEST POP JUMP JUMPDEST PUSH1 0x0 DUP2 MLOAD SWAP1 POP PUSH3 0x189 DUP2 PUSH3 0x15E JUMP JUMPDEST SWAP3 SWAP2 POP POP JUMP JUMPDEST PUSH1 0x0 DUP1 PUSH1 0x0 DUP1 PUSH1 0x80 DUP6 DUP8 SUB SLT ISZERO PUSH3 0x1AC JUMPI PUSH3 0x1AB PUSH3 0xEA JUMP JUMPDEST JUMPDEST PUSH1 0x0 PUSH3 0x1BC DUP8 DUP3 DUP9 ADD PUSH3 0x113 JUMP JUMPDEST SWAP5 POP POP PUSH1 0x20 PUSH3 0x1CF DUP8 DUP3 DUP9 ADD PUSH3 0x113 JUMP JUMPDEST SWAP4 POP POP PUSH1 0x40 PUSH3 0x1E2 DUP8 DUP3 DUP9 ADD PUSH3 0x113 JUMP JUMPDEST SWAP3 POP POP PUSH1 0x60 PUSH3 0x1F5 DUP8 DUP3 DUP9 ADD PUSH3 0x178 JUMP JUMPDEST SWAP2 POP POP SWAP3 SWAP6 SWAP2 SWAP5 POP SWAP3 POP JUMP JUMPDEST PUSH1 0x0 DUP3 DUP3 MSTORE PUSH1 0x20 DUP3 ADD SWAP1 POP SWAP3 SWAP2 POP POP JUMP JUMPDEST PUSH32 0x456E642074696D65206973206C657373207468616E2063757272656E74207469 PUSH1 0x0 DUP3 ADD MSTORE PUSH32 0x6D65000000000000000000000000000000000000000000000000000000000000 PUSH1 0x20 DUP3 ADD MSTORE POP JUMP JUMPDEST PUSH1 0x0 PUSH3 0x270 PUSH1 0x22 DUP4 PUSH3 0x201 JUMP JUMPDEST SWAP2 POP PUSH3 0x27D DUP3 PUSH3 0x212 JUMP JUMPDEST PUSH1 0x40 DUP3 ADD SWAP1 POP SWAP2 SWAP1 POP JUMP JUMPDEST PUSH1 0x0 PUSH1 0x20 DUP3 ADD SWAP1 POP DUP2 DUP2 SUB PUSH1 0x0 DUP4 ADD MSTORE PUSH3 0x2A3 DUP2 PUSH3 0x261 JUMP JUMPDEST SWAP1 POP SWAP2 SWAP1 POP JUMP JUMPDEST PUSH2 0x26A7 DUP1 PUSH3 0x2BA PUSH1 0x0 CODECOPY PUSH1 0x0 RETURN INVALID PUSH1 0x80 PUSH1 0x40 MSTORE PUSH1 0x4 CALLDATASIZE LT PUSH2 0x14B JUMPI PUSH1 0x0 CALLDATALOAD PUSH1 0xE0 SHR DUP1 PUSH4 0x88FFE867 GT PUSH2 0xB6 JUMPI DUP1 PUSH4 0xBBB48445 GT PUSH2 0x6F JUMPI DUP1 PUSH4 0xBBB48445 EQ PUSH2 0x42F JUMPI DUP1 PUSH4 0xC5055F2F EQ PUSH2 0x45A JUMPI DUP1 PUSH4 0xC7446565 EQ PUSH2 0x497 JUMPI DUP1 PUSH4 0xD7D1BBDB EQ PUSH2 0x4C2 JUMPI DUP1 PUSH4 0xEA8A1AF0 EQ PUSH2 0x4EB JUMPI DUP1 PUSH4 0xFFABC673 EQ PUSH2 0x502 JUMPI PUSH2 0x14B JUMP JUMPDEST DUP1 PUSH4 0x88FFE867 EQ PUSH2 0x350 JUMPI DUP1 PUSH4 0x8A9CFD55 EQ PUSH2 0x35A JUMPI DUP1 PUSH4 0x8F32D59B EQ PUSH2 0x383 JUMPI DUP1 PUSH4 0x9B4B1786 EQ PUSH2 0x3AE JUMPI DUP1 PUSH4 0xAEAFCA2E EQ PUSH2 0x3D9 JUMPI DUP1 PUSH4 0xBA2CB6C5 EQ PUSH2 0x404 JUMPI PUSH2 0x14B JUMP JUMPDEST DUP1 PUSH4 0x481C6A75 GT PUSH2 0x108 JUMPI DUP1 PUSH4 0x481C6A75 EQ PUSH2 0x247 JUMPI DUP1 PUSH4 0x590E1AE3 EQ PUSH2 0x272 JUMPI DUP1 PUSH4 0x7723421D EQ PUSH2 0x27C JUMPI DUP1 PUSH4 0x7CC3AE8C EQ PUSH2 0x2B9 JUMPI DUP1 PUSH4 0x81D12C58 EQ PUSH2 0x2E4 JUMPI DUP1 PUSH4 0x8813CE12 EQ PUSH2 0x325 JUMPI PUSH2 0x14B JUMP JUMPDEST DUP1 PUSH4 0x3441006 EQ PUSH2 0x150 JUMPI DUP1 PUSH4 0x12065FE0 EQ PUSH2 0x16C JUMPI DUP1 PUSH4 0x3410452A EQ PUSH2 0x197 JUMPI DUP1 PUSH4 0x3F9942FF EQ PUSH2 0x1C2 JUMPI DUP1 PUSH4 0x40193883 EQ PUSH2 0x1ED JUMPI DUP1 PUSH4 0x4051DDAC EQ PUSH2 0x218 JUMPI JUMPDEST PUSH1 0x0 DUP1 REVERT JUMPDEST PUSH2 0x16A PUSH1 0x4 DUP1 CALLDATASIZE SUB DUP2 ADD SWAP1 PUSH2 0x165 SWAP2 SWAP1 PUSH2 0x1634 JUMP JUMPDEST PUSH2 0x53F JUMP JUMPDEST STOP JUMPDEST CALLVALUE DUP1 ISZERO PUSH2 0x178 JUMPI PUSH1 0x0 DUP1 REVERT JUMPDEST POP PUSH2 0x181 PUSH2 0x779 JUMP JUMPDEST PUSH1 0x40 MLOAD PUSH2 0x18E SWAP2 SWAP1 PUSH2 0x1670 JUMP JUMPDEST PUSH1 0x40 MLOAD DUP1 SWAP2 SUB SWAP1 RETURN JUMPDEST CALLVALUE DUP1 ISZERO PUSH2 0x1A3 JUMPI PUSH1 0x0 DUP1 REVERT JUMPDEST POP PUSH2 0x1AC PUSH2 0x781 JUMP JUMPDEST PUSH1 0x40 MLOAD PUSH2 0x1B9 SWAP2 SWAP1 PUSH2 0x1670 JUMP JUMPDEST PUSH1 0x40 MLOAD DUP1 SWAP2 SUB SWAP1 RETURN JUMPDEST CALLVALUE DUP1 ISZERO PUSH2 0x1CE JUMPI PUSH1 0x0 DUP1 REVERT JUMPDEST POP PUSH2 0x1D7 PUSH2 0x78E JUMP JUMPDEST PUSH1 0x40 MLOAD PUSH2 0x1E4 SWAP2 SWAP1 PUSH2 0x16A6 JUMP JUMPDEST PUSH1 0x40 MLOAD DUP1 SWAP2 SUB SWAP1 RETURN JUMPDEST CALLVALUE DUP1 ISZERO PUSH2 0x1F9 JUMPI PUSH1 0x0 DUP1 REVERT JUMPDEST POP PUSH2 0x202 PUSH2 0x7A1 JUMP JUMPDEST PUSH1 0x40 MLOAD PUSH2 0x20F SWAP2 SWAP1 PUSH2 0x1670 JUMP JUMPDEST PUSH1 0x40 MLOAD DUP1 SWAP2 SUB SWAP1 RETURN JUMPDEST CALLVALUE DUP1 ISZERO PUSH2 0x224 JUMPI PUSH1 0x0 DUP1 REVERT JUMPDEST POP PUSH2 0x22D PUSH2 0x7A7 JUMP JUMPDEST PUSH1 0x40 MLOAD PUSH2 0x23E SWAP6 SWAP5 SWAP4 SWAP3 SWAP2 SWAP1 PUSH2 0x1702 JUMP JUMPDEST PUSH1 0x40 MLOAD DUP1 SWAP2 SUB SWAP1 RETURN JUMPDEST CALLVALUE DUP1 ISZERO PUSH2 0x253 JUMPI PUSH1 0x0 DUP1 REVERT JUMPDEST POP PUSH2 0x25C PUSH2 0x7EE JUMP JUMPDEST PUSH1 0x40 MLOAD PUSH2 0x269 SWAP2 SWAP1 PUSH2 0x1755 JUMP JUMPDEST PUSH1 0x40 MLOAD DUP1 SWAP2 SUB SWAP1 RETURN JUMPDEST PUSH2 0x27A PUSH2 0x812 JUMP JUMPDEST STOP JUMPDEST CALLVALUE DUP1 ISZERO PUSH2 0x288 JUMPI PUSH1 0x0 DUP1 REVERT JUMPDEST POP PUSH2 0x2A3 PUSH1 0x4 DUP1 CALLDATASIZE SUB DUP2 ADD SWAP1 PUSH2 0x29E SWAP2 SWAP1 PUSH2 0x1634 JUMP JUMPDEST PUSH2 0xA29 JUMP JUMPDEST PUSH1 0x40 MLOAD PUSH2 0x2B0 SWAP2 SWAP1 PUSH2 0x16A6 JUMP JUMPDEST PUSH1 0x40 MLOAD DUP1 SWAP2 SUB SWAP1 RETURN JUMPDEST CALLVALUE DUP1 ISZERO PUSH2 0x2C5 JUMPI PUSH1 0x0 DUP1 REVERT JUMPDEST POP PUSH2 0x2CE PUSH2 0xA9B JUMP JUMPDEST PUSH1 0x40 MLOAD PUSH2 0x2DB SWAP2 SWAP1 PUSH2 0x1670 JUMP JUMPDEST PUSH1 0x40 MLOAD DUP1 SWAP2 SUB SWAP1 RETURN JUMPDEST CALLVALUE DUP1 ISZERO PUSH2 0x2F0 JUMPI PUSH1 0x0 DUP1 REVERT JUMPDEST POP PUSH2 0x30B PUSH1 0x4 DUP1 CALLDATASIZE SUB DUP2 ADD SWAP1 PUSH2 0x306 SWAP2 SWAP1 PUSH2 0x1634 JUMP JUMPDEST PUSH2 0xAA1 JUMP JUMPDEST PUSH1 0x40 MLOAD PUSH2 0x31C SWAP6 SWAP5 SWAP4 SWAP3 SWAP2 SWAP1 PUSH2 0x182A JUMP JUMPDEST PUSH1 0x40 MLOAD DUP1 SWAP2 SUB SWAP1 RETURN JUMPDEST CALLVALUE DUP1 ISZERO PUSH2 0x331 JUMPI PUSH1 0x0 DUP1 REVERT JUMPDEST POP PUSH2 0x33A PUSH2 0xB9C JUMP JUMPDEST PUSH1 0x40 MLOAD PUSH2 0x347 SWAP2 SWAP1 PUSH2 0x1A33 JUMP JUMPDEST PUSH1 0x40 MLOAD DUP1 SWAP2 SUB SWAP1 RETURN JUMPDEST PUSH2 0x358 PUSH2 0xD12 JUMP JUMPDEST STOP JUMPDEST CALLVALUE DUP1 ISZERO PUSH2 0x366 JUMPI PUSH1 0x0 DUP1 REVERT JUMPDEST POP PUSH2 0x381 PUSH1 0x4 DUP1 CALLDATASIZE SUB DUP2 ADD SWAP1 PUSH2 0x37C SWAP2 SWAP1 PUSH2 0x1BB6 JUMP JUMPDEST PUSH2 0xEC8 JUMP JUMPDEST STOP JUMPDEST CALLVALUE DUP1 ISZERO PUSH2 0x38F JUMPI PUSH1 0x0 DUP1 REVERT JUMPDEST POP PUSH2 0x398 PUSH2 0x10F7 JUMP JUMPDEST PUSH1 0x40 MLOAD PUSH2 0x3A5 SWAP2 SWAP1 PUSH2 0x16A6 JUMP JUMPDEST PUSH1 0x40 MLOAD DUP1 SWAP2 SUB SWAP1 RETURN JUMPDEST CALLVALUE DUP1 ISZERO PUSH2 0x3BA JUMPI PUSH1 0x0 DUP1 REVERT JUMPDEST POP PUSH2 0x3C3 PUSH2 0x118F JUMP JUMPDEST PUSH1 0x40 MLOAD PUSH2 0x3D0 SWAP2 SWAP1 PUSH2 0x1670 JUMP JUMPDEST PUSH1 0x40 MLOAD DUP1 SWAP2 SUB SWAP1 RETURN JUMPDEST CALLVALUE DUP1 ISZERO PUSH2 0x3E5 JUMPI PUSH1 0x0 DUP1 REVERT JUMPDEST POP PUSH2 0x3EE PUSH2 0x1195 JUMP JUMPDEST PUSH1 0x40 MLOAD PUSH2 0x3FB SWAP2 SWAP1 PUSH2 0x1670 JUMP JUMPDEST PUSH1 0x40 MLOAD DUP1 SWAP2 SUB SWAP1 RETURN JUMPDEST CALLVALUE DUP1 ISZERO PUSH2 0x410 JUMPI PUSH1 0x0 DUP1 REVERT JUMPDEST POP PUSH2 0x419 PUSH2 0x119B JUMP JUMPDEST PUSH1 0x40 MLOAD PUSH2 0x426 SWAP2 SWAP1 PUSH2 0x1670 JUMP JUMPDEST PUSH1 0x40 MLOAD DUP1 SWAP2 SUB SWAP1 RETURN JUMPDEST CALLVALUE DUP1 ISZERO PUSH2 0x43B JUMPI PUSH1 0x0 DUP1 REVERT JUMPDEST POP PUSH2 0x444 PUSH2 0x11A1 JUMP JUMPDEST PUSH1 0x40 MLOAD PUSH2 0x451 SWAP2 SWAP1 PUSH2 0x1670 JUMP JUMPDEST PUSH1 0x40 MLOAD DUP1 SWAP2 SUB SWAP1 RETURN JUMPDEST CALLVALUE DUP1 ISZERO PUSH2 0x466 JUMPI PUSH1 0x0 DUP1 REVERT JUMPDEST POP PUSH2 0x481 PUSH1 0x4 DUP1 CALLDATASIZE SUB DUP2 ADD SWAP1 PUSH2 0x47C SWAP2 SWAP1 PUSH2 0x1C51 JUMP JUMPDEST PUSH2 0x11ED JUMP JUMPDEST PUSH1 0x40 MLOAD PUSH2 0x48E SWAP2 SWAP1 PUSH2 0x1670 JUMP JUMPDEST PUSH1 0x40 MLOAD DUP1 SWAP2 SUB SWAP1 RETURN JUMPDEST CALLVALUE DUP1 ISZERO PUSH2 0x4A3 JUMPI PUSH1 0x0 DUP1 REVERT JUMPDEST POP PUSH2 0x4AC PUSH2 0x1205 JUMP JUMPDEST PUSH1 0x40 MLOAD PUSH2 0x4B9 SWAP2 SWAP1 PUSH2 0x1670 JUMP JUMPDEST PUSH1 0x40 MLOAD DUP1 SWAP2 SUB SWAP1 RETURN JUMPDEST CALLVALUE DUP1 ISZERO PUSH2 0x4CE JUMPI PUSH1 0x0 DUP1 REVERT JUMPDEST POP PUSH2 0x4E9 PUSH1 0x4 DUP1 CALLDATASIZE SUB DUP2 ADD SWAP1 PUSH2 0x4E4 SWAP2 SWAP1 PUSH2 0x1634 JUMP JUMPDEST PUSH2 0x120B JUMP JUMPDEST STOP JUMPDEST CALLVALUE DUP1 ISZERO PUSH2 0x4F7 JUMPI PUSH1 0x0 DUP1 REVERT JUMPDEST POP PUSH2 0x500 PUSH2 0x147A JUMP JUMPDEST STOP JUMPDEST CALLVALUE DUP1 ISZERO PUSH2 0x50E JUMPI PUSH1 0x0 DUP1 REVERT JUMPDEST POP PUSH2 0x529 PUSH1 0x4 DUP1 CALLDATASIZE SUB DUP2 ADD SWAP1 PUSH2 0x524 SWAP2 SWAP1 PUSH2 0x1C7E JUMP JUMPDEST PUSH2 0x15BB JUMP JUMPDEST PUSH1 0x40 MLOAD PUSH2 0x536 SWAP2 SWAP1 PUSH2 0x16A6 JUMP JUMPDEST PUSH1 0x40 MLOAD DUP1 SWAP2 SUB SWAP1 RETURN JUMPDEST PUSH1 0x0 DUP1 SLOAD SWAP1 PUSH2 0x100 EXP SWAP1 DIV PUSH20 0xFFFFFFFFFFFFFFFFFFFFFFFFFFFFFFFFFFFFFFFF AND PUSH20 0xFFFFFFFFFFFFFFFFFFFFFFFFFFFFFFFFFFFFFFFF AND CALLER PUSH20 0xFFFFFFFFFFFFFFFFFFFFFFFFFFFFFFFFFFFFFFFF AND EQ PUSH2 0x5CD JUMPI PUSH1 0x40 MLOAD PUSH32 0x8C379A000000000000000000000000000000000000000000000000000000000 DUP2 MSTORE PUSH1 0x4 ADD PUSH2 0x5C4 SWAP1 PUSH2 0x1D30 JUMP JUMPDEST PUSH1 0x40 MLOAD DUP1 SWAP2 SUB SWAP1 REVERT JUMPDEST PUSH1 0xA PUSH1 0x0 SWAP1 SLOAD SWAP1 PUSH2 0x100 EXP SWAP1 DIV PUSH1 0xFF AND ISZERO PUSH2 0x61D JUMPI PUSH1 0x40 MLOAD PUSH32 0x8C379A000000000000000000000000000000000000000000000000000000000 DUP2 MSTORE PUSH1 0x4 ADD PUSH2 0x614 SWAP1 PUSH2 0x1D9C JUMP JUMPDEST PUSH1 0x40 MLOAD DUP1 SWAP2 SUB SWAP1 REVERT JUMPDEST PUSH1 0x0 PUSH1 0x6 DUP3 DUP2 SLOAD DUP2 LT PUSH2 0x633 JUMPI PUSH2 0x632 PUSH2 0x1DBC JUMP JUMPDEST JUMPDEST SWAP1 PUSH1 0x0 MSTORE PUSH1 0x20 PUSH1 0x0 KECCAK256 SWAP1 PUSH1 0x4 MUL ADD SWAP1 POP DUP1 PUSH1 0x2 ADD PUSH1 0x14 SWAP1 SLOAD SWAP1 PUSH2 0x100 EXP SWAP1 DIV PUSH1 0xFF AND ISZERO PUSH2 0x695 JUMPI PUSH1 0x40 MLOAD PUSH32 0x8C379A000000000000000000000000000000000000000000000000000000000 DUP2 MSTORE PUSH1 0x4 ADD PUSH2 0x68C SWAP1 PUSH2 0x1E37 JUMP JUMPDEST PUSH1 0x40 MLOAD DUP1 SWAP2 SUB SWAP1 REVERT JUMPDEST PUSH1 0x2 PUSH1 0x7 SLOAD PUSH2 0x6A4 SWAP2 SWAP1 PUSH2 0x1EB5 JUMP JUMPDEST DUP2 PUSH1 0x3 ADD SLOAD GT PUSH2 0x6E9 JUMPI PUSH1 0x40 MLOAD PUSH32 0x8C379A000000000000000000000000000000000000000000000000000000000 DUP2 MSTORE PUSH1 0x4 ADD PUSH2 0x6E0 SWAP1 PUSH2 0x1F58 JUMP JUMPDEST PUSH1 0x40 MLOAD DUP1 SWAP2 SUB SWAP1 REVERT JUMPDEST DUP1 PUSH1 0x2 ADD PUSH1 0x0 SWAP1 SLOAD SWAP1 PUSH2 0x100 EXP SWAP1 DIV PUSH20 0xFFFFFFFFFFFFFFFFFFFFFFFFFFFFFFFFFFFFFFFF AND PUSH20 0xFFFFFFFFFFFFFFFFFFFFFFFFFFFFFFFFFFFFFFFF AND PUSH2 0x8FC DUP3 PUSH1 0x1 ADD SLOAD SWAP1 DUP2 ISZERO MUL SWAP1 PUSH1 0x40 MLOAD PUSH1 0x0 PUSH1 0x40 MLOAD DUP1 DUP4 SUB DUP2 DUP6 DUP9 DUP9 CALL SWAP4 POP POP POP POP ISZERO DUP1 ISZERO PUSH2 0x757 JUMPI RETURNDATASIZE PUSH1 0x0 DUP1 RETURNDATACOPY RETURNDATASIZE PUSH1 0x0 REVERT JUMPDEST POP PUSH1 0x1 DUP2 PUSH1 0x2 ADD PUSH1 0x14 PUSH2 0x100 EXP DUP2 SLOAD DUP2 PUSH1 0xFF MUL NOT AND SWAP1 DUP4 ISZERO ISZERO MUL OR SWAP1 SSTORE POP POP POP JUMP JUMPDEST PUSH1 0x0 SELFBALANCE SWAP1 POP SWAP1 JUMP JUMPDEST PUSH1 0x0 PUSH1 0x6 DUP1 SLOAD SWAP1 POP SWAP1 POP SWAP1 JUMP JUMPDEST PUSH1 0xA PUSH1 0x0 SWAP1 SLOAD SWAP1 PUSH2 0x100 EXP SWAP1 DIV PUSH1 0xFF AND DUP2 JUMP JUMPDEST PUSH1 0x1 SLOAD DUP2 JUMP JUMPDEST PUSH1 0x0 DUP1 PUSH1 0x0 DUP1 PUSH1 0x0 PUSH1 0x5 SLOAD SELFBALANCE PUSH1 0x6 DUP1 SLOAD SWAP1 POP PUSH1 0x7 SLOAD PUSH1 0x0 DUP1 SLOAD SWAP1 PUSH2 0x100 EXP SWAP1 DIV PUSH20 0xFFFFFFFFFFFFFFFFFFFFFFFFFFFFFFFFFFFFFFFF AND SWAP5 POP SWAP5 POP SWAP5 POP SWAP5 POP SWAP5 POP SWAP1 SWAP2 SWAP3 SWAP4 SWAP5 JUMP JUMPDEST PUSH1 0x0 DUP1 SLOAD SWAP1 PUSH2 0x100 EXP SWAP1 DIV PUSH20 0xFFFFFFFFFFFFFFFFFFFFFFFFFFFFFFFFFFFFFFFF AND DUP2 JUMP JUMPDEST PUSH1 0x4 SLOAD TIMESTAMP GT ISZERO PUSH2 0x857 JUMPI PUSH1 0x40 MLOAD PUSH32 0x8C379A000000000000000000000000000000000000000000000000000000000 DUP2 MSTORE PUSH1 0x4 ADD PUSH2 0x84E SWAP1 PUSH2 0x1FC4 JUMP JUMPDEST PUSH1 0x40 MLOAD DUP1 SWAP2 SUB SWAP1 REVERT JUMPDEST PUSH1 0x0 PUSH1 0x8 PUSH1 0x0 CALLER PUSH20 0xFFFFFFFFFFFFFFFFFFFFFFFFFFFFFFFFFFFFFFFF AND PUSH20 0xFFFFFFFFFFFFFFFFFFFFFFFFFFFFFFFFFFFFFFFF AND DUP2 MSTORE PUSH1 0x20 ADD SWAP1 DUP2 MSTORE PUSH1 0x20 ADD PUSH1 0x0 KECCAK256 SLOAD GT PUSH2 0x8D9 JUMPI PUSH1 0x40 MLOAD PUSH32 0x8C379A000000000000000000000000000000000000000000000000000000000 DUP2 MSTORE PUSH1 0x4 ADD PUSH2 0x8D0 SWAP1 PUSH2 0x2056 JUMP JUMPDEST PUSH1 0x40 MLOAD DUP1 SWAP2 SUB SWAP1 REVERT JUMPDEST PUSH1 0x1 SLOAD PUSH1 0x2 SLOAD LT PUSH2 0x91F JUMPI PUSH1 0x40 MLOAD PUSH32 0x8C379A000000000000000000000000000000000000000000000000000000000 DUP2 MSTORE PUSH1 0x4 ADD PUSH2 0x916 SWAP1 PUSH2 0x20E8 JUMP JUMPDEST PUSH1 0x40 MLOAD DUP1 SWAP2 SUB SWAP1 REVERT JUMPDEST PUSH1 0x0 PUSH1 0x8 PUSH1 0x0 CALLER PUSH20 0xFFFFFFFFFFFFFFFFFFFFFFFFFFFFFFFFFFFFFFFF AND PUSH20 0xFFFFFFFFFFFFFFFFFFFFFFFFFFFFFFFFFFFFFFFF AND DUP2 MSTORE PUSH1 0x20 ADD SWAP1 DUP2 MSTORE PUSH1 0x20 ADD PUSH1 0x0 KECCAK256 SLOAD SWAP1 POP PUSH1 0x0 CALLER SWAP1 POP DUP1 PUSH20 0xFFFFFFFFFFFFFFFFFFFFFFFFFFFFFFFFFFFFFFFF AND PUSH2 0x8FC DUP4 SWAP1 DUP2 ISZERO MUL SWAP1 PUSH1 0x40 MLOAD PUSH1 0x0 PUSH1 0x40 MLOAD DUP1 DUP4 SUB DUP2 DUP6 DUP9 DUP9 CALL SWAP4 POP POP POP POP ISZERO DUP1 ISZERO PUSH2 0x9AE JUMPI RETURNDATASIZE PUSH1 0x0 DUP1 RETURNDATACOPY RETURNDATASIZE PUSH1 0x0 REVERT JUMPDEST POP PUSH1 0x0 PUSH1 0x8 PUSH1 0x0 CALLER PUSH20 0xFFFFFFFFFFFFFFFFFFFFFFFFFFFFFFFFFFFFFFFF AND PUSH20 0xFFFFFFFFFFFFFFFFFFFFFFFFFFFFFFFFFFFFFFFF AND DUP2 MSTORE PUSH1 0x20 ADD SWAP1 DUP2 MSTORE PUSH1 0x20 ADD PUSH1 0x0 KECCAK256 DUP2 SWAP1 SSTORE POP PUSH1 0x7 PUSH1 0x0 DUP2 SLOAD DUP1 SWAP3 SWAP2 SWAP1 PUSH2 0xA07 SWAP1 PUSH2 0x2108 JUMP JUMPDEST SWAP2 SWAP1 POP SSTORE POP DUP2 PUSH1 0x2 PUSH1 0x0 DUP3 DUP3 SLOAD PUSH2 0xA1E SWAP2 SWAP1 PUSH2 0x2131 JUMP JUMPDEST SWAP3 POP POP DUP2 SWAP1 SSTORE POP POP POP JUMP JUMPDEST PUSH1 0x0 DUP1 CALLER SWAP1 POP PUSH1 0x0 PUSH1 0x9 PUSH1 0x0 DUP4 PUSH20 0xFFFFFFFFFFFFFFFFFFFFFFFFFFFFFFFFFFFFFFFF AND PUSH20 0xFFFFFFFFFFFFFFFFFFFFFFFFFFFFFFFFFFFFFFFF AND DUP2 MSTORE PUSH1 0x20 ADD SWAP1 DUP2 MSTORE PUSH1 0x20 ADD PUSH1 0x0 KECCAK256 PUSH1 0x0 DUP6 DUP2 MSTORE PUSH1 0x20 ADD SWAP1 DUP2 MSTORE PUSH1 0x20 ADD PUSH1 0x0 KECCAK256 PUSH1 0x0 SWAP1 SLOAD SWAP1 PUSH2 0x100 EXP SWAP1 DIV PUSH1 0xFF AND SWAP1 POP DUP1 SWAP3 POP POP POP SWAP2 SWAP1 POP JUMP JUMPDEST PUSH1 0x4 SLOAD DUP2 JUMP JUMPDEST PUSH1 0x6 DUP2 DUP2 SLOAD DUP2 LT PUSH2 0xAB1 JUMPI PUSH1 0x0 DUP1 REVERT JUMPDEST SWAP1 PUSH1 0x0 MSTORE PUSH1 0x20 PUSH1 0x0 KECCAK256 SWAP1 PUSH1 0x4 MUL ADD PUSH1 0x0 SWAP2 POP SWAP1 POP DUP1 PUSH1 0x0 ADD DUP1 SLOAD PUSH2 0xAD4 SWAP1 PUSH2 0x2194 JUMP JUMPDEST DUP1 PUSH1 0x1F ADD PUSH1 0x20 DUP1 SWAP2 DIV MUL PUSH1 0x20 ADD PUSH1 0x40 MLOAD SWAP1 DUP2 ADD PUSH1 0x40 MSTORE DUP1 SWAP3 SWAP2 SWAP1 DUP2 DUP2 MSTORE PUSH1 0x20 ADD DUP3 DUP1 SLOAD PUSH2 0xB00 SWAP1 PUSH2 0x2194 JUMP JUMPDEST DUP1 ISZERO PUSH2 0xB4D JUMPI DUP1 PUSH1 0x1F LT PUSH2 0xB22 JUMPI PUSH2 0x100 DUP1 DUP4 SLOAD DIV MUL DUP4 MSTORE SWAP2 PUSH1 0x20 ADD SWAP2 PUSH2 0xB4D JUMP JUMPDEST DUP3 ADD SWAP2 SWAP1 PUSH1 0x0 MSTORE PUSH1 0x20 PUSH1 0x0 KECCAK256 SWAP1 JUMPDEST DUP2 SLOAD DUP2 MSTORE SWAP1 PUSH1 0x1 ADD SWAP1 PUSH1 0x20 ADD DUP1 DUP4 GT PUSH2 0xB30 JUMPI DUP3 SWAP1 SUB PUSH1 0x1F AND DUP3 ADD SWAP2 JUMPDEST POP POP POP POP POP SWAP1 DUP1 PUSH1 0x1 ADD SLOAD SWAP1 DUP1 PUSH1 0x2 ADD PUSH1 0x0 SWAP1 SLOAD SWAP1 PUSH2 0x100 EXP SWAP1 DIV PUSH20 0xFFFFFFFFFFFFFFFFFFFFFFFFFFFFFFFFFFFFFFFF AND SWAP1 DUP1 PUSH1 0x2 ADD PUSH1 0x14 SWAP1 SLOAD SWAP1 PUSH2 0x100 EXP SWAP1 DIV PUSH1 0xFF AND SWAP1 DUP1 PUSH1 0x3 ADD SLOAD SWAP1 POP DUP6 JUMP JUMPDEST PUSH1 0x60 PUSH1 0x6 DUP1 SLOAD DUP1 PUSH1 0x20 MUL PUSH1 0x20 ADD PUSH1 0x40 MLOAD SWAP1 DUP2 ADD PUSH1 0x40 MSTORE DUP1 SWAP3 SWAP2 SWAP1 DUP2 DUP2 MSTORE PUSH1 0x20 ADD PUSH1 0x0 SWAP1 JUMPDEST DUP3 DUP3 LT ISZERO PUSH2 0xD09 JUMPI DUP4 DUP3 SWAP1 PUSH1 0x0 MSTORE PUSH1 0x20 PUSH1 0x0 KECCAK256 SWAP1 PUSH1 0x4 MUL ADD PUSH1 0x40 MLOAD DUP1 PUSH1 0xA0 ADD PUSH1 0x40 MSTORE SWAP1 DUP2 PUSH1 0x0 DUP3 ADD DUP1 SLOAD PUSH2 0xBF3 SWAP1 PUSH2 0x2194 JUMP JUMPDEST DUP1 PUSH1 0x1F ADD PUSH1 0x20 DUP1 SWAP2 DIV MUL PUSH1 0x20 ADD PUSH1 0x40 MLOAD SWAP1 DUP2 ADD PUSH1 0x40 MSTORE DUP1 SWAP3 SWAP2 SWAP1 DUP2 DUP2 MSTORE PUSH1 0x20 ADD DUP3 DUP1 SLOAD PUSH2 0xC1F SWAP1 PUSH2 0x2194 JUMP JUMPDEST DUP1 ISZERO PUSH2 0xC6C JUMPI DUP1 PUSH1 0x1F LT PUSH2 0xC41 JUMPI PUSH2 0x100 DUP1 DUP4 SLOAD DIV MUL DUP4 MSTORE SWAP2 PUSH1 0x20 ADD SWAP2 PUSH2 0xC6C JUMP JUMPDEST DUP3 ADD SWAP2 SWAP1 PUSH1 0x0 MSTORE PUSH1 0x20 PUSH1 0x0 KECCAK256 SWAP1 JUMPDEST DUP2 SLOAD DUP2 MSTORE SWAP1 PUSH1 0x1 ADD SWAP1 PUSH1 0x20 ADD DUP1 DUP4 GT PUSH2 0xC4F JUMPI DUP3 SWAP1 SUB PUSH1 0x1F AND DUP3 ADD SWAP2 JUMPDEST POP POP POP POP POP DUP2 MSTORE PUSH1 0x20 ADD PUSH1 0x1 DUP3 ADD SLOAD DUP2 MSTORE PUSH1 0x20 ADD PUSH1 0x2 DUP3 ADD PUSH1 0x0 SWAP1 SLOAD SWAP1 PUSH2 0x100 EXP SWAP1 DIV PUSH20 0xFFFFFFFFFFFFFFFFFFFFFFFFFFFFFFFFFFFFFFFF AND PUSH20 0xFFFFFFFFFFFFFFFFFFFFFFFFFFFFFFFFFFFFFFFF AND PUSH20 0xFFFFFFFFFFFFFFFFFFFFFFFFFFFFFFFFFFFFFFFF AND DUP2 MSTORE PUSH1 0x20 ADD PUSH1 0x2 DUP3 ADD PUSH1 0x14 SWAP1 SLOAD SWAP1 PUSH2 0x100 EXP SWAP1 DIV PUSH1 0xFF AND ISZERO ISZERO ISZERO ISZERO DUP2 MSTORE PUSH1 0x20 ADD PUSH1 0x3 DUP3 ADD SLOAD DUP2 MSTORE POP POP DUP2 MSTORE PUSH1 0x20 ADD SWAP1 PUSH1 0x1 ADD SWAP1 PUSH2 0xBC0 JUMP JUMPDEST POP POP POP POP SWAP1 POP SWAP1 JUMP JUMPDEST PUSH1 0x4 SLOAD TIMESTAMP GT ISZERO PUSH2 0xD57 JUMPI PUSH1 0x40 MLOAD PUSH32 0x8C379A000000000000000000000000000000000000000000000000000000000 DUP2 MSTORE PUSH1 0x4 ADD PUSH2 0xD4E SWAP1 PUSH2 0x1FC4 JUMP JUMPDEST PUSH1 0x40 MLOAD DUP1 SWAP2 SUB SWAP1 REVERT JUMPDEST PUSH1 0xA PUSH1 0x0 SWAP1 SLOAD SWAP1 PUSH2 0x100 EXP SWAP1 DIV PUSH1 0xFF AND ISZERO PUSH2 0xDA7 JUMPI PUSH1 0x40 MLOAD PUSH32 0x8C379A000000000000000000000000000000000000000000000000000000000 DUP2 MSTORE PUSH1 0x4 ADD PUSH2 0xD9E SWAP1 PUSH2 0x1D9C JUMP JUMPDEST PUSH1 0x40 MLOAD DUP1 SWAP2 SUB SWAP1 REVERT JUMPDEST PUSH1 0x5 SLOAD CALLVALUE GT DUP1 ISZERO PUSH2 0xDB8 JUMPI POP PUSH1 0x0 CALLVALUE GT JUMPDEST PUSH2 0xDF7 JUMPI PUSH1 0x40 MLOAD PUSH32 0x8C379A000000000000000000000000000000000000000000000000000000000 DUP2 MSTORE PUSH1 0x4 ADD PUSH2 0xDEE SWAP1 PUSH2 0x2237 JUMP JUMPDEST PUSH1 0x40 MLOAD DUP1 SWAP2 SUB SWAP1 REVERT JUMPDEST CALLVALUE PUSH1 0x2 PUSH1 0x0 DUP3 DUP3 SLOAD PUSH2 0xE09 SWAP2 SWAP1 PUSH2 0x2257 JUMP JUMPDEST SWAP3 POP POP DUP2 SWAP1 SSTORE POP PUSH1 0x0 PUSH1 0x8 PUSH1 0x0 CALLER PUSH20 0xFFFFFFFFFFFFFFFFFFFFFFFFFFFFFFFFFFFFFFFF AND PUSH20 0xFFFFFFFFFFFFFFFFFFFFFFFFFFFFFFFFFFFFFFFF AND DUP2 MSTORE PUSH1 0x20 ADD SWAP1 DUP2 MSTORE PUSH1 0x20 ADD PUSH1 0x0 KECCAK256 SLOAD SUB PUSH2 0xE70 JUMPI PUSH1 0x7 PUSH1 0x0 DUP2 SLOAD DUP1 SWAP3 SWAP2 SWAP1 PUSH2 0xE6A SWAP1 PUSH2 0x22AD JUMP JUMPDEST SWAP2 SWAP1 POP SSTORE POP JUMPDEST CALLVALUE PUSH1 0x8 PUSH1 0x0 CALLER PUSH20 0xFFFFFFFFFFFFFFFFFFFFFFFFFFFFFFFFFFFFFFFF AND PUSH20 0xFFFFFFFFFFFFFFFFFFFFFFFFFFFFFFFFFFFFFFFF AND DUP2 MSTORE PUSH1 0x20 ADD SWAP1 DUP2 MSTORE PUSH1 0x20 ADD PUSH1 0x0 KECCAK256 PUSH1 0x0 DUP3 DUP3 SLOAD PUSH2 0xEBF SWAP2 SWAP1 PUSH2 0x2257 JUMP JUMPDEST SWAP3 POP POP DUP2 SWAP1 SSTORE POP JUMP JUMPDEST PUSH1 0x0 DUP1 SLOAD SWAP1 PUSH2 0x100 EXP SWAP1 DIV PUSH20 0xFFFFFFFFFFFFFFFFFFFFFFFFFFFFFFFFFFFFFFFF AND PUSH20 0xFFFFFFFFFFFFFFFFFFFFFFFFFFFFFFFFFFFFFFFF AND CALLER PUSH20 0xFFFFFFFFFFFFFFFFFFFFFFFFFFFFFFFFFFFFFFFF AND EQ PUSH2 0xF56 JUMPI PUSH1 0x40 MLOAD PUSH32 0x8C379A000000000000000000000000000000000000000000000000000000000 DUP2 MSTORE PUSH1 0x4 ADD PUSH2 0xF4D SWAP1 PUSH2 0x1D30 JUMP JUMPDEST PUSH1 0x40 MLOAD DUP1 SWAP2 SUB SWAP1 REVERT JUMPDEST PUSH1 0x1 SLOAD PUSH1 0x2 SLOAD LT ISZERO PUSH2 0xF9D JUMPI PUSH1 0x40 MLOAD PUSH32 0x8C379A000000000000000000000000000000000000000000000000000000000 DUP2 MSTORE PUSH1 0x4 ADD PUSH2 0xF94 SWAP1 PUSH2 0x2341 JUMP JUMPDEST PUSH1 0x40 MLOAD DUP1 SWAP2 SUB SWAP1 REVERT JUMPDEST PUSH1 0xA PUSH1 0x0 SWAP1 SLOAD SWAP1 PUSH2 0x100 EXP SWAP1 DIV PUSH1 0xFF AND ISZERO PUSH2 0xFED JUMPI PUSH1 0x40 MLOAD PUSH32 0x8C379A000000000000000000000000000000000000000000000000000000000 DUP2 MSTORE PUSH1 0x4 ADD PUSH2 0xFE4 SWAP1 PUSH2 0x1D9C JUMP JUMPDEST PUSH1 0x40 MLOAD DUP1 SWAP2 SUB SWAP1 REVERT JUMPDEST PUSH1 0x0 PUSH1 0x40 MLOAD DUP1 PUSH1 0xA0 ADD PUSH1 0x40 MSTORE DUP1 DUP6 DUP2 MSTORE PUSH1 0x20 ADD DUP5 DUP2 MSTORE PUSH1 0x20 ADD DUP4 PUSH20 0xFFFFFFFFFFFFFFFFFFFFFFFFFFFFFFFFFFFFFFFF AND DUP2 MSTORE PUSH1 0x20 ADD PUSH1 0x0 ISZERO ISZERO DUP2 MSTORE PUSH1 0x20 ADD PUSH1 0x0 DUP2 MSTORE POP SWAP1 POP PUSH1 0x6 DUP2 SWAP1 DUP1 PUSH1 0x1 DUP2 SLOAD ADD DUP1 DUP3 SSTORE DUP1 SWAP2 POP POP PUSH1 0x1 SWAP1 SUB SWAP1 PUSH1 0x0 MSTORE PUSH1 0x20 PUSH1 0x0 KECCAK256 SWAP1 PUSH1 0x4 MUL ADD PUSH1 0x0 SWAP1 SWAP2 SWAP1 SWAP2 SWAP1 SWAP2 POP PUSH1 0x0 DUP3 ADD MLOAD DUP2 PUSH1 0x0 ADD SWAP1 DUP2 PUSH2 0x1073 SWAP2 SWAP1 PUSH2 0x250D JUMP JUMPDEST POP PUSH1 0x20 DUP3 ADD MLOAD DUP2 PUSH1 0x1 ADD SSTORE PUSH1 0x40 DUP3 ADD MLOAD DUP2 PUSH1 0x2 ADD PUSH1 0x0 PUSH2 0x100 EXP DUP2 SLOAD DUP2 PUSH20 0xFFFFFFFFFFFFFFFFFFFFFFFFFFFFFFFFFFFFFFFF MUL NOT AND SWAP1 DUP4 PUSH20 0xFFFFFFFFFFFFFFFFFFFFFFFFFFFFFFFFFFFFFFFF AND MUL OR SWAP1 SSTORE POP PUSH1 0x60 DUP3 ADD MLOAD DUP2 PUSH1 0x2 ADD PUSH1 0x14 PUSH2 0x100 EXP DUP2 SLOAD DUP2 PUSH1 0xFF MUL NOT AND SWAP1 DUP4 ISZERO ISZERO MUL OR SWAP1 SSTORE POP PUSH1 0x80 DUP3 ADD MLOAD DUP2 PUSH1 0x3 ADD SSTORE POP POP POP POP POP POP JUMP JUMPDEST PUSH1 0x0 DUP1 PUSH1 0x0 SWAP1 SLOAD SWAP1 PUSH2 0x100 EXP SWAP1 DIV PUSH20 0xFFFFFFFFFFFFFFFFFFFFFFFFFFFFFFFFFFFFFFFF AND PUSH20 0xFFFFFFFFFFFFFFFFFFFFFFFFFFFFFFFFFFFFFFFF AND CALLER PUSH20 0xFFFFFFFFFFFFFFFFFFFFFFFFFFFFFFFFFFFFFFFF AND EQ PUSH2 0x1188 JUMPI PUSH1 0x40 MLOAD PUSH32 0x8C379A000000000000000000000000000000000000000000000000000000000 DUP2 MSTORE PUSH1 0x4 ADD PUSH2 0x117F SWAP1 PUSH2 0x1D30 JUMP JUMPDEST PUSH1 0x40 MLOAD DUP1 SWAP2 SUB SWAP1 REVERT JUMPDEST PUSH1 0x1 SWAP1 POP SWAP1 JUMP JUMPDEST PUSH1 0x5 SLOAD DUP2 JUMP JUMPDEST PUSH1 0x2 SLOAD DUP2 JUMP JUMPDEST PUSH1 0x7 SLOAD DUP2 JUMP JUMPDEST PUSH1 0x0 DUP1 CALLER SWAP1 POP PUSH1 0x8 PUSH1 0x0 DUP3 PUSH20 0xFFFFFFFFFFFFFFFFFFFFFFFFFFFFFFFFFFFFFFFF AND PUSH20 0xFFFFFFFFFFFFFFFFFFFFFFFFFFFFFFFFFFFFFFFF AND DUP2 MSTORE PUSH1 0x20 ADD SWAP1 DUP2 MSTORE PUSH1 0x20 ADD PUSH1 0x0 KECCAK256 SLOAD SWAP2 POP POP SWAP1 JUMP JUMPDEST PUSH1 0x8 PUSH1 0x20 MSTORE DUP1 PUSH1 0x0 MSTORE PUSH1 0x40 PUSH1 0x0 KECCAK256 PUSH1 0x0 SWAP2 POP SWAP1 POP SLOAD DUP2 JUMP JUMPDEST PUSH1 0x3 SLOAD DUP2 JUMP JUMPDEST PUSH1 0x0 PUSH1 0x8 PUSH1 0x0 CALLER PUSH20 0xFFFFFFFFFFFFFFFFFFFFFFFFFFFFFFFFFFFFFFFF AND PUSH20 0xFFFFFFFFFFFFFFFFFFFFFFFFFFFFFFFFFFFFFFFF AND DUP2 MSTORE PUSH1 0x20 ADD SWAP1 DUP2 MSTORE PUSH1 0x20 ADD PUSH1 0x0 KECCAK256 SLOAD GT PUSH2 0x128D JUMPI PUSH1 0x40 MLOAD PUSH32 0x8C379A000000000000000000000000000000000000000000000000000000000 DUP2 MSTORE PUSH1 0x4 ADD PUSH2 0x1284 SWAP1 PUSH2 0x2056 JUMP JUMPDEST PUSH1 0x40 MLOAD DUP1 SWAP2 SUB SWAP1 REVERT JUMPDEST PUSH1 0xA PUSH1 0x0 SWAP1 SLOAD SWAP1 PUSH2 0x100 EXP SWAP1 DIV PUSH1 0xFF AND ISZERO PUSH2 0x12DD JUMPI PUSH1 0x40 MLOAD PUSH32 0x8C379A000000000000000000000000000000000000000000000000000000000 DUP2 MSTORE PUSH1 0x4 ADD PUSH2 0x12D4 SWAP1 PUSH2 0x1D9C JUMP JUMPDEST PUSH1 0x40 MLOAD DUP1 SWAP2 SUB SWAP1 REVERT JUMPDEST PUSH1 0x0 PUSH1 0x6 DUP3 DUP2 SLOAD DUP2 LT PUSH2 0x12F3 JUMPI PUSH2 0x12F2 PUSH2 0x1DBC JUMP JUMPDEST JUMPDEST SWAP1 PUSH1 0x0 MSTORE PUSH1 0x20 PUSH1 0x0 KECCAK256 SWAP1 PUSH1 0x4 MUL ADD SWAP1 POP DUP1 PUSH1 0x2 ADD PUSH1 0x14 SWAP1 SLOAD SWAP1 PUSH2 0x100 EXP SWAP1 DIV PUSH1 0xFF AND ISZERO PUSH2 0x1355 JUMPI PUSH1 0x40 MLOAD PUSH32 0x8C379A000000000000000000000000000000000000000000000000000000000 DUP2 MSTORE PUSH1 0x4 ADD PUSH2 0x134C SWAP1 PUSH2 0x1E37 JUMP JUMPDEST PUSH1 0x40 MLOAD DUP1 SWAP2 SUB SWAP1 REVERT JUMPDEST PUSH1 0x9 PUSH1 0x0 CALLER PUSH20 0xFFFFFFFFFFFFFFFFFFFFFFFFFFFFFFFFFFFFFFFF AND PUSH20 0xFFFFFFFFFFFFFFFFFFFFFFFFFFFFFFFFFFFFFFFF AND DUP2 MSTORE PUSH1 0x20 ADD SWAP1 DUP2 MSTORE PUSH1 0x20 ADD PUSH1 0x0 KECCAK256 PUSH1 0x0 DUP4 DUP2 MSTORE PUSH1 0x20 ADD SWAP1 DUP2 MSTORE PUSH1 0x20 ADD PUSH1 0x0 KECCAK256 PUSH1 0x0 SWAP1 SLOAD SWAP1 PUSH2 0x100 EXP SWAP1 DIV PUSH1 0xFF AND ISZERO PUSH2 0x13F3 JUMPI PUSH1 0x40 MLOAD PUSH32 0x8C379A000000000000000000000000000000000000000000000000000000000 DUP2 MSTORE PUSH1 0x4 ADD PUSH2 0x13EA SWAP1 PUSH2 0x2651 JUMP JUMPDEST PUSH1 0x40 MLOAD DUP1 SWAP2 SUB SWAP1 REVERT JUMPDEST PUSH1 0x1 PUSH1 0x9 PUSH1 0x0 CALLER PUSH20 0xFFFFFFFFFFFFFFFFFFFFFFFFFFFFFFFFFFFFFFFF AND PUSH20 0xFFFFFFFFFFFFFFFFFFFFFFFFFFFFFFFFFFFFFFFF AND DUP2 MSTORE PUSH1 0x20 ADD SWAP1 DUP2 MSTORE PUSH1 0x20 ADD PUSH1 0x0 KECCAK256 PUSH1 0x0 DUP5 DUP2 MSTORE PUSH1 0x20 ADD SWAP1 DUP2 MSTORE PUSH1 0x20 ADD PUSH1 0x0 KECCAK256 PUSH1 0x0 PUSH2 0x100 EXP DUP2 SLOAD DUP2 PUSH1 0xFF MUL NOT AND SWAP1 DUP4 ISZERO ISZERO MUL OR SWAP1 SSTORE POP DUP1 PUSH1 0x3 ADD PUSH1 0x0 DUP2 SLOAD DUP1 SWAP3 SWAP2 SWAP1 PUSH2 0x1471 SWAP1 PUSH2 0x22AD JUMP JUMPDEST SWAP2 SWAP1 POP SSTORE POP POP POP JUMP JUMPDEST PUSH1 0x0 DUP1 SLOAD SWAP1 PUSH2 0x100 EXP SWAP1 DIV PUSH20 0xFFFFFFFFFFFFFFFFFFFFFFFFFFFFFFFFFFFFFFFF AND PUSH20 0xFFFFFFFFFFFFFFFFFFFFFFFFFFFFFFFFFFFFFFFF AND CALLER PUSH20 0xFFFFFFFFFFFFFFFFFFFFFFFFFFFFFFFFFFFFFFFF AND EQ PUSH2 0x1508 JUMPI PUSH1 0x40 MLOAD PUSH32 0x8C379A000000000000000000000000000000000000000000000000000000000 DUP2 MSTORE PUSH1 0x4 ADD PUSH2 0x14FF SWAP1 PUSH2 0x1D30 JUMP JUMPDEST PUSH1 0x40 MLOAD DUP1 SWAP2 SUB SWAP1 REVERT JUMPDEST PUSH1 0xA PUSH1 0x0 SWAP1 SLOAD SWAP1 PUSH2 0x100 EXP SWAP1 DIV PUSH1 0xFF AND ISZERO PUSH2 0x1558 JUMPI PUSH1 0x40 MLOAD PUSH32 0x8C379A000000000000000000000000000000000000000000000000000000000 DUP2 MSTORE PUSH1 0x4 ADD PUSH2 0x154F SWAP1 PUSH2 0x1D9C JUMP JUMPDEST PUSH1 0x40 MLOAD DUP1 SWAP2 SUB SWAP1 REVERT JUMPDEST PUSH1 0x1 SLOAD PUSH1 0x2 SLOAD LT PUSH2 0x159E JUMPI PUSH1 0x40 MLOAD PUSH32 0x8C379A000000000000000000000000000000000000000000000000000000000 DUP2 MSTORE PUSH1 0x4 ADD PUSH2 0x1595 SWAP1 PUSH2 0x20E8 JUMP JUMPDEST PUSH1 0x40 MLOAD DUP1 SWAP2 SUB SWAP1 REVERT JUMPDEST PUSH1 0x1 PUSH1 0xA PUSH1 0x0 PUSH2 0x100 EXP DUP2 SLOAD DUP2 PUSH1 0xFF MUL NOT AND SWAP1 DUP4 ISZERO ISZERO MUL OR SWAP1 SSTORE POP JUMP JUMPDEST PUSH1 0x9 PUSH1 0x20 MSTORE DUP2 PUSH1 0x0 MSTORE PUSH1 0x40 PUSH1 0x0 KECCAK256 PUSH1 0x20 MSTORE DUP1 PUSH1 0x0 MSTORE PUSH1 0x40 PUSH1 0x0 KECCAK256 PUSH1 0x0 SWAP2 POP SWAP2 POP SWAP1 SLOAD SWAP1 PUSH2 0x100 EXP SWAP1 DIV PUSH1 0xFF AND DUP2 JUMP JUMPDEST PUSH1 0x0 PUSH1 0x40 MLOAD SWAP1 POP SWAP1 JUMP JUMPDEST PUSH1 0x0 DUP1 REVERT JUMPDEST PUSH1 0x0 DUP1 REVERT JUMPDEST PUSH1 0x0 DUP2 SWAP1 POP SWAP2 SWAP1 POP JUMP JUMPDEST PUSH2 0x1611 DUP2 PUSH2 0x15FE JUMP JUMPDEST DUP2 EQ PUSH2 0x161C JUMPI PUSH1 0x0 DUP1 REVERT JUMPDEST POP JUMP JUMPDEST PUSH1 0x0 DUP2 CALLDATALOAD SWAP1 POP PUSH2 0x162E DUP2 PUSH2 0x1608 JUMP JUMPDEST SWAP3 SWAP2 POP POP JUMP JUMPDEST PUSH1 0x0 PUSH1 0x20 DUP3 DUP5 SUB SLT ISZERO PUSH2 0x164A JUMPI PUSH2 0x1649 PUSH2 0x15F4 JUMP JUMPDEST JUMPDEST PUSH1 0x0 PUSH2 0x1658 DUP5 DUP3 DUP6 ADD PUSH2 0x161F JUMP JUMPDEST SWAP2 POP POP SWAP3 SWAP2 POP POP JUMP JUMPDEST PUSH2 0x166A DUP2 PUSH2 0x15FE JUMP JUMPDEST DUP3 MSTORE POP POP JUMP JUMPDEST PUSH1 0x0 PUSH1 0x20 DUP3 ADD SWAP1 POP PUSH2 0x1685 PUSH1 0x0 DUP4 ADD DUP5 PUSH2 0x1661 JUMP JUMPDEST SWAP3 SWAP2 POP POP JUMP JUMPDEST PUSH1 0x0 DUP2 ISZERO ISZERO SWAP1 POP SWAP2 SWAP1 POP JUMP JUMPDEST PUSH2 0x16A0 DUP2 PUSH2 0x168B JUMP JUMPDEST DUP3 MSTORE POP POP JUMP JUMPDEST PUSH1 0x0 PUSH1 0x20 DUP3 ADD SWAP1 POP PUSH2 0x16BB PUSH1 0x0 DUP4 ADD DUP5 PUSH2 0x1697 JUMP JUMPDEST SWAP3 SWAP2 POP POP JUMP JUMPDEST PUSH1 0x0 PUSH20 0xFFFFFFFFFFFFFFFFFFFFFFFFFFFFFFFFFFFFFFFF DUP3 AND SWAP1 POP SWAP2 SWAP1 POP JUMP JUMPDEST PUSH1 0x0 PUSH2 0x16EC DUP3 PUSH2 0x16C1 JUMP JUMPDEST SWAP1 POP SWAP2 SWAP1 POP JUMP JUMPDEST PUSH2 0x16FC DUP2 PUSH2 0x16E1 JUMP JUMPDEST DUP3 MSTORE POP POP JUMP JUMPDEST PUSH1 0x0 PUSH1 0xA0 DUP3 ADD SWAP1 POP PUSH2 0x1717 PUSH1 0x0 DUP4 ADD DUP9 PUSH2 0x1661 JUMP JUMPDEST PUSH2 0x1724 PUSH1 0x20 DUP4 ADD DUP8 PUSH2 0x1661 JUMP JUMPDEST PUSH2 0x1731 PUSH1 0x40 DUP4 ADD DUP7 PUSH2 0x1661 JUMP JUMPDEST PUSH2 0x173E PUSH1 0x60 DUP4 ADD DUP6 PUSH2 0x1661 JUMP JUMPDEST PUSH2 0x174B PUSH1 0x80 DUP4 ADD DUP5 PUSH2 0x16F3 JUMP JUMPDEST SWAP7 SWAP6 POP POP POP POP POP POP JUMP JUMPDEST PUSH1 0x0 PUSH1 0x20 DUP3 ADD SWAP1 POP PUSH2 0x176A PUSH1 0x0 DUP4 ADD DUP5 PUSH2 0x16F3 JUMP JUMPDEST SWAP3 SWAP2 POP POP JUMP JUMPDEST PUSH1 0x0 DUP2 MLOAD SWAP1 POP SWAP2 SWAP1 POP JUMP JUMPDEST PUSH1 0x0 DUP3 DUP3 MSTORE PUSH1 0x20 DUP3 ADD SWAP1 POP SWAP3 SWAP2 POP POP JUMP JUMPDEST PUSH1 0x0 JUMPDEST DUP4 DUP2 LT ISZERO PUSH2 0x17AA JUMPI DUP1 DUP3 ADD MLOAD DUP2 DUP5 ADD MSTORE PUSH1 0x20 DUP2 ADD SWAP1 POP PUSH2 0x178F JUMP JUMPDEST DUP4 DUP2 GT ISZERO PUSH2 0x17B9 JUMPI PUSH1 0x0 DUP5 DUP5 ADD MSTORE JUMPDEST POP POP POP POP JUMP JUMPDEST PUSH1 0x0 PUSH1 0x1F NOT PUSH1 0x1F DUP4 ADD AND SWAP1 POP SWAP2 SWAP1 POP JUMP JUMPDEST PUSH1 0x0 PUSH2 0x17DB DUP3 PUSH2 0x1770 JUMP JUMPDEST PUSH2 0x17E5 DUP2 DUP6 PUSH2 0x177B JUMP JUMPDEST SWAP4 POP PUSH2 0x17F5 DUP2 DUP6 PUSH1 0x20 DUP7 ADD PUSH2 0x178C JUMP JUMPDEST PUSH2 0x17FE DUP2 PUSH2 0x17BF JUMP JUMPDEST DUP5 ADD SWAP2 POP POP SWAP3 SWAP2 POP POP JUMP JUMPDEST PUSH1 0x0 PUSH2 0x1814 DUP3 PUSH2 0x16C1 JUMP JUMPDEST SWAP1 POP SWAP2 SWAP1 POP JUMP JUMPDEST PUSH2 0x1824 DUP2 PUSH2 0x1809 JUMP JUMPDEST DUP3 MSTORE POP POP JUMP JUMPDEST PUSH1 0x0 PUSH1 0xA0 DUP3 ADD SWAP1 POP DUP2 DUP2 SUB PUSH1 0x0 DUP4 ADD MSTORE PUSH2 0x1844 DUP2 DUP9 PUSH2 0x17D0 JUMP JUMPDEST SWAP1 POP PUSH2 0x1853 PUSH1 0x20 DUP4 ADD DUP8 PUSH2 0x1661 JUMP JUMPDEST PUSH2 0x1860 PUSH1 0x40 DUP4 ADD DUP7 PUSH2 0x181B JUMP JUMPDEST PUSH2 0x186D PUSH1 0x60 DUP4 ADD DUP6 PUSH2 0x1697 JUMP JUMPDEST PUSH2 0x187A PUSH1 0x80 DUP4 ADD DUP5 PUSH2 0x1661 JUMP JUMPDEST SWAP7 SWAP6 POP POP POP POP POP POP JUMP JUMPDEST PUSH1 0x0 DUP2 MLOAD SWAP1 POP SWAP2 SWAP1 POP JUMP JUMPDEST PUSH1 0x0 DUP3 DUP3 MSTORE PUSH1 0x20 DUP3 ADD SWAP1 POP SWAP3 SWAP2 POP POP JUMP JUMPDEST PUSH1 0x0 DUP2 SWAP1 POP PUSH1 0x20 DUP3 ADD SWAP1 POP SWAP2 SWAP1 POP JUMP JUMPDEST PUSH1 0x0 DUP3 DUP3 MSTORE PUSH1 0x20 DUP3 ADD SWAP1 POP SWAP3 SWAP2 POP POP JUMP JUMPDEST PUSH1 0x0 PUSH2 0x18CC DUP3 PUSH2 0x1770 JUMP JUMPDEST PUSH2 0x18D6 DUP2 DUP6 PUSH2 0x18B0 JUMP JUMPDEST SWAP4 POP PUSH2 0x18E6 DUP2 DUP6 PUSH1 0x20 DUP7 ADD PUSH2 0x178C JUMP JUMPDEST PUSH2 0x18EF DUP2 PUSH2 0x17BF JUMP JUMPDEST DUP5 ADD SWAP2 POP POP SWAP3 SWAP2 POP POP JUMP JUMPDEST PUSH2 0x1903 DUP2 PUSH2 0x15FE JUMP JUMPDEST DUP3 MSTORE POP POP JUMP JUMPDEST PUSH2 0x1912 DUP2 PUSH2 0x1809 JUMP JUMPDEST DUP3 MSTORE POP POP JUMP JUMPDEST PUSH2 0x1921 DUP2 PUSH2 0x168B JUMP JUMPDEST DUP3 MSTORE POP POP JUMP JUMPDEST PUSH1 0x0 PUSH1 0xA0 DUP4 ADD PUSH1 0x0 DUP4 ADD MLOAD DUP5 DUP3 SUB PUSH1 0x0 DUP7 ADD MSTORE PUSH2 0x1944 DUP3 DUP3 PUSH2 0x18C1 JUMP JUMPDEST SWAP2 POP POP PUSH1 0x20 DUP4 ADD MLOAD PUSH2 0x1959 PUSH1 0x20 DUP7 ADD DUP3 PUSH2 0x18FA JUMP JUMPDEST POP PUSH1 0x40 DUP4 ADD MLOAD PUSH2 0x196C PUSH1 0x40 DUP7 ADD DUP3 PUSH2 0x1909 JUMP JUMPDEST POP PUSH1 0x60 DUP4 ADD MLOAD PUSH2 0x197F PUSH1 0x60 DUP7 ADD DUP3 PUSH2 0x1918 JUMP JUMPDEST POP PUSH1 0x80 DUP4 ADD MLOAD PUSH2 0x1992 PUSH1 0x80 DUP7 ADD DUP3 PUSH2 0x18FA JUMP JUMPDEST POP DUP1 SWAP2 POP POP SWAP3 SWAP2 POP POP JUMP JUMPDEST PUSH1 0x0 PUSH2 0x19A9 DUP4 DUP4 PUSH2 0x1927 JUMP JUMPDEST SWAP1 POP SWAP3 SWAP2 POP POP JUMP JUMPDEST PUSH1 0x0 PUSH1 0x20 DUP3 ADD SWAP1 POP SWAP2 SWAP1 POP JUMP JUMPDEST PUSH1 0x0 PUSH2 0x19C9 DUP3 PUSH2 0x1884 JUMP JUMPDEST PUSH2 0x19D3 DUP2 DUP6 PUSH2 0x188F JUMP JUMPDEST SWAP4 POP DUP4 PUSH1 0x20 DUP3 MUL DUP6 ADD PUSH2 0x19E5 DUP6 PUSH2 0x18A0 JUMP JUMPDEST DUP1 PUSH1 0x0 JUMPDEST DUP6 DUP2 LT ISZERO PUSH2 0x1A21 JUMPI DUP5 DUP5 SUB DUP10 MSTORE DUP2 MLOAD PUSH2 0x1A02 DUP6 DUP3 PUSH2 0x199D JUMP JUMPDEST SWAP5 POP PUSH2 0x1A0D DUP4 PUSH2 0x19B1 JUMP JUMPDEST SWAP3 POP PUSH1 0x20 DUP11 ADD SWAP10 POP POP PUSH1 0x1 DUP2 ADD SWAP1 POP PUSH2 0x19E9 JUMP JUMPDEST POP DUP3 SWAP8 POP DUP8 SWAP6 POP POP POP POP POP POP SWAP3 SWAP2 POP POP JUMP JUMPDEST PUSH1 0x0 PUSH1 0x20 DUP3 ADD SWAP1 POP DUP2 DUP2 SUB PUSH1 0x0 DUP4 ADD MSTORE PUSH2 0x1A4D DUP2 DUP5 PUSH2 0x19BE JUMP JUMPDEST SWAP1 POP SWAP3 SWAP2 POP POP JUMP JUMPDEST PUSH1 0x0 DUP1 REVERT JUMPDEST PUSH1 0x0 DUP1 REVERT JUMPDEST PUSH32 0x4E487B7100000000000000000000000000000000000000000000000000000000 PUSH1 0x0 MSTORE PUSH1 0x41 PUSH1 0x4 MSTORE PUSH1 0x24 PUSH1 0x0 REVERT JUMPDEST PUSH2 0x1A97 DUP3 PUSH2 0x17BF JUMP JUMPDEST DUP2 ADD DUP2 DUP2 LT PUSH8 0xFFFFFFFFFFFFFFFF DUP3 GT OR ISZERO PUSH2 0x1AB6 JUMPI PUSH2 0x1AB5 PUSH2 0x1A5F JUMP JUMPDEST JUMPDEST DUP1 PUSH1 0x40 MSTORE POP POP POP JUMP JUMPDEST PUSH1 0x0 PUSH2 0x1AC9 PUSH2 0x15EA JUMP JUMPDEST SWAP1 POP PUSH2 0x1AD5 DUP3 DUP3 PUSH2 0x1A8E JUMP JUMPDEST SWAP2 SWAP1 POP JUMP JUMPDEST PUSH1 0x0 PUSH8 0xFFFFFFFFFFFFFFFF DUP3 GT ISZERO PUSH2 0x1AF5 JUMPI PUSH2 0x1AF4 PUSH2 0x1A5F JUMP JUMPDEST JUMPDEST PUSH2 0x1AFE DUP3 PUSH2 0x17BF JUMP JUMPDEST SWAP1 POP PUSH1 0x20 DUP2 ADD SWAP1 POP SWAP2 SWAP1 POP JUMP JUMPDEST DUP3 DUP2 DUP4 CALLDATACOPY PUSH1 0x0 DUP4 DUP4 ADD MSTORE POP POP POP JUMP JUMPDEST PUSH1 0x0 PUSH2 0x1B2D PUSH2 0x1B28 DUP5 PUSH2 0x1ADA JUMP JUMPDEST PUSH2 0x1ABF JUMP JUMPDEST SWAP1 POP DUP3 DUP2 MSTORE PUSH1 0x20 DUP2 ADD DUP5 DUP5 DUP5 ADD GT ISZERO PUSH2 0x1B49 JUMPI PUSH2 0x1B48 PUSH2 0x1A5A JUMP JUMPDEST JUMPDEST PUSH2 0x1B54 DUP5 DUP3 DUP6 PUSH2 0x1B0B JUMP JUMPDEST POP SWAP4 SWAP3 POP POP POP JUMP JUMPDEST PUSH1 0x0 DUP3 PUSH1 0x1F DUP4 ADD SLT PUSH2 0x1B71 JUMPI PUSH2 0x1B70 PUSH2 0x1A55 JUMP JUMPDEST JUMPDEST DUP2 CALLDATALOAD PUSH2 0x1B81 DUP5 DUP3 PUSH1 0x20 DUP7 ADD PUSH2 0x1B1A JUMP JUMPDEST SWAP2 POP POP SWAP3 SWAP2 POP POP JUMP JUMPDEST PUSH2 0x1B93 DUP2 PUSH2 0x1809 JUMP JUMPDEST DUP2 EQ PUSH2 0x1B9E JUMPI PUSH1 0x0 DUP1 REVERT JUMPDEST POP JUMP JUMPDEST PUSH1 0x0 DUP2 CALLDATALOAD SWAP1 POP PUSH2 0x1BB0 DUP2 PUSH2 0x1B8A JUMP JUMPDEST SWAP3 SWAP2 POP POP JUMP JUMPDEST PUSH1 0x0 DUP1 PUSH1 0x0 PUSH1 0x60 DUP5 DUP7 SUB SLT ISZERO PUSH2 0x1BCF JUMPI PUSH2 0x1BCE PUSH2 0x15F4 JUMP JUMPDEST JUMPDEST PUSH1 0x0 DUP5 ADD CALLDATALOAD PUSH8 0xFFFFFFFFFFFFFFFF DUP2 GT ISZERO PUSH2 0x1BED JUMPI PUSH2 0x1BEC PUSH2 0x15F9 JUMP JUMPDEST JUMPDEST PUSH2 0x1BF9 DUP7 DUP3 DUP8 ADD PUSH2 0x1B5C JUMP JUMPDEST SWAP4 POP POP PUSH1 0x20 PUSH2 0x1C0A DUP7 DUP3 DUP8 ADD PUSH2 0x161F JUMP JUMPDEST SWAP3 POP POP PUSH1 0x40 PUSH2 0x1C1B DUP7 DUP3 DUP8 ADD PUSH2 0x1BA1 JUMP JUMPDEST SWAP2 POP POP SWAP3 POP SWAP3 POP SWAP3 JUMP JUMPDEST PUSH2 0x1C2E DUP2 PUSH2 0x16E1 JUMP JUMPDEST DUP2 EQ PUSH2 0x1C39 JUMPI PUSH1 0x0 DUP1 REVERT JUMPDEST POP JUMP JUMPDEST PUSH1 0x0 DUP2 CALLDATALOAD SWAP1 POP PUSH2 0x1C4B DUP2 PUSH2 0x1C25 JUMP JUMPDEST SWAP3 SWAP2 POP POP JUMP JUMPDEST PUSH1 0x0 PUSH1 0x20 DUP3 DUP5 SUB SLT ISZERO PUSH2 0x1C67 JUMPI PUSH2 0x1C66 PUSH2 0x15F4 JUMP JUMPDEST JUMPDEST PUSH1 0x0 PUSH2 0x1C75 DUP5 DUP3 DUP6 ADD PUSH2 0x1C3C JUMP JUMPDEST SWAP2 POP POP SWAP3 SWAP2 POP POP JUMP JUMPDEST PUSH1 0x0 DUP1 PUSH1 0x40 DUP4 DUP6 SUB SLT ISZERO PUSH2 0x1C95 JUMPI PUSH2 0x1C94 PUSH2 0x15F4 JUMP JUMPDEST JUMPDEST PUSH1 0x0 PUSH2 0x1CA3 DUP6 DUP3 DUP7 ADD PUSH2 0x1C3C JUMP JUMPDEST SWAP3 POP POP PUSH1 0x20 PUSH2 0x1CB4 DUP6 DUP3 DUP7 ADD PUSH2 0x161F JUMP JUMPDEST SWAP2 POP POP SWAP3 POP SWAP3 SWAP1 POP JUMP JUMPDEST PUSH32 0x5065726D697373696F6E2064656E6965643A20596F7520646F206E6F74206F77 PUSH1 0x0 DUP3 ADD MSTORE PUSH32 0x6E20746869732063616D706169676E0000000000000000000000000000000000 PUSH1 0x20 DUP3 ADD MSTORE POP JUMP JUMPDEST PUSH1 0x0 PUSH2 0x1D1A PUSH1 0x2F DUP4 PUSH2 0x177B JUMP JUMPDEST SWAP2 POP PUSH2 0x1D25 DUP3 PUSH2 0x1CBE JUMP JUMPDEST PUSH1 0x40 DUP3 ADD SWAP1 POP SWAP2 SWAP1 POP JUMP JUMPDEST PUSH1 0x0 PUSH1 0x20 DUP3 ADD SWAP1 POP DUP2 DUP2 SUB PUSH1 0x0 DUP4 ADD MSTORE PUSH2 0x1D49 DUP2 PUSH2 0x1D0D JUMP JUMPDEST SWAP1 POP SWAP2 SWAP1 POP JUMP JUMPDEST PUSH32 0x43616D706169676E206861732063616E63656C65640000000000000000000000 PUSH1 0x0 DUP3 ADD MSTORE POP JUMP JUMPDEST PUSH1 0x0 PUSH2 0x1D86 PUSH1 0x15 DUP4 PUSH2 0x177B JUMP JUMPDEST SWAP2 POP PUSH2 0x1D91 DUP3 PUSH2 0x1D50 JUMP JUMPDEST PUSH1 0x20 DUP3 ADD SWAP1 POP SWAP2 SWAP1 POP JUMP JUMPDEST PUSH1 0x0 PUSH1 0x20 DUP3 ADD SWAP1 POP DUP2 DUP2 SUB PUSH1 0x0 DUP4 ADD MSTORE PUSH2 0x1DB5 DUP2 PUSH2 0x1D79 JUMP JUMPDEST SWAP1 POP SWAP2 SWAP1 POP JUMP JUMPDEST PUSH32 0x4E487B7100000000000000000000000000000000000000000000000000000000 PUSH1 0x0 MSTORE PUSH1 0x32 PUSH1 0x4 MSTORE PUSH1 0x24 PUSH1 0x0 REVERT JUMPDEST PUSH32 0x5265717565737420686173206265656E20636F6D706C65746564000000000000 PUSH1 0x0 DUP3 ADD MSTORE POP JUMP JUMPDEST PUSH1 0x0 PUSH2 0x1E21 PUSH1 0x1A DUP4 PUSH2 0x177B JUMP JUMPDEST SWAP2 POP PUSH2 0x1E2C DUP3 PUSH2 0x1DEB JUMP JUMPDEST PUSH1 0x20 DUP3 ADD SWAP1 POP SWAP2 SWAP1 POP JUMP JUMPDEST PUSH1 0x0 PUSH1 0x20 DUP3 ADD SWAP1 POP DUP2 DUP2 SUB PUSH1 0x0 DUP4 ADD MSTORE PUSH2 0x1E50 DUP2 PUSH2 0x1E14 JUMP JUMPDEST SWAP1 POP SWAP2 SWAP1 POP JUMP JUMPDEST PUSH32 0x4E487B7100000000000000000000000000000000000000000000000000000000 PUSH1 0x0 MSTORE PUSH1 0x12 PUSH1 0x4 MSTORE PUSH1 0x24 PUSH1 0x0 REVERT JUMPDEST PUSH32 0x4E487B7100000000000000000000000000000000000000000000000000000000 PUSH1 0x0 MSTORE PUSH1 0x11 PUSH1 0x4 MSTORE PUSH1 0x24 PUSH1 0x0 REVERT JUMPDEST PUSH1 0x0 PUSH2 0x1EC0 DUP3 PUSH2 0x15FE JUMP JUMPDEST SWAP2 POP PUSH2 0x1ECB DUP4 PUSH2 0x15FE JUMP JUMPDEST SWAP3 POP DUP3 PUSH2 0x1EDB JUMPI PUSH2 0x1EDA PUSH2 0x1E57 JUMP JUMPDEST JUMPDEST DUP3 DUP3 DIV SWAP1 POP SWAP3 SWAP2 POP POP JUMP JUMPDEST PUSH32 0x5265717565737420646F6573206E6F74206861766520656E6F75676820617070 PUSH1 0x0 DUP3 ADD MSTORE PUSH32 0x726F76616C730000000000000000000000000000000000000000000000000000 PUSH1 0x20 DUP3 ADD MSTORE POP JUMP JUMPDEST PUSH1 0x0 PUSH2 0x1F42 PUSH1 0x26 DUP4 PUSH2 0x177B JUMP JUMPDEST SWAP2 POP PUSH2 0x1F4D DUP3 PUSH2 0x1EE6 JUMP JUMPDEST PUSH1 0x40 DUP3 ADD SWAP1 POP SWAP2 SWAP1 POP JUMP JUMPDEST PUSH1 0x0 PUSH1 0x20 DUP3 ADD SWAP1 POP DUP2 DUP2 SUB PUSH1 0x0 DUP4 ADD MSTORE PUSH2 0x1F71 DUP2 PUSH2 0x1F35 JUMP JUMPDEST SWAP1 POP SWAP2 SWAP1 POP JUMP JUMPDEST PUSH32 0x43616D706169676E2068617320616C726561647920656E646564000000000000 PUSH1 0x0 DUP3 ADD MSTORE POP JUMP JUMPDEST PUSH1 0x0 PUSH2 0x1FAE PUSH1 0x1A DUP4 PUSH2 0x177B JUMP JUMPDEST SWAP2 POP PUSH2 0x1FB9 DUP3 PUSH2 0x1F78 JUMP JUMPDEST PUSH1 0x20 DUP3 ADD SWAP1 POP SWAP2 SWAP1 POP JUMP JUMPDEST PUSH1 0x0 PUSH1 0x20 DUP3 ADD SWAP1 POP DUP2 DUP2 SUB PUSH1 0x0 DUP4 ADD MSTORE PUSH2 0x1FDD DUP2 PUSH2 0x1FA1 JUMP JUMPDEST SWAP1 POP SWAP2 SWAP1 POP JUMP JUMPDEST PUSH32 0x596F7520617265206E6F7420696E2074686520636F6E7472696275746F727320 PUSH1 0x0 DUP3 ADD MSTORE PUSH32 0x6C69737400000000000000000000000000000000000000000000000000000000 PUSH1 0x20 DUP3 ADD MSTORE POP JUMP JUMPDEST PUSH1 0x0 PUSH2 0x2040 PUSH1 0x24 DUP4 PUSH2 0x177B JUMP JUMPDEST SWAP2 POP PUSH2 0x204B DUP3 PUSH2 0x1FE4 JUMP JUMPDEST PUSH1 0x40 DUP3 ADD SWAP1 POP SWAP2 SWAP1 POP JUMP JUMPDEST PUSH1 0x0 PUSH1 0x20 DUP3 ADD SWAP1 POP DUP2 DUP2 SUB PUSH1 0x0 DUP4 ADD MSTORE PUSH2 0x206F DUP2 PUSH2 0x2033 JUMP JUMPDEST SWAP1 POP SWAP2 SWAP1 POP JUMP JUMPDEST PUSH32 0x596F752063616E6E6F742077697468647261772C2043616D706169676E206861 PUSH1 0x0 DUP3 ADD MSTORE PUSH32 0x73206E6F74207375636365656465640000000000000000000000000000000000 PUSH1 0x20 DUP3 ADD MSTORE POP JUMP JUMPDEST PUSH1 0x0 PUSH2 0x20D2 PUSH1 0x2F DUP4 PUSH2 0x177B JUMP JUMPDEST SWAP2 POP PUSH2 0x20DD DUP3 PUSH2 0x2076 JUMP JUMPDEST PUSH1 0x40 DUP3 ADD SWAP1 POP SWAP2 SWAP1 POP JUMP JUMPDEST PUSH1 0x0 PUSH1 0x20 DUP3 ADD SWAP1 POP DUP2 DUP2 SUB PUSH1 0x0 DUP4 ADD MSTORE PUSH2 0x2101 DUP2 PUSH2 0x20C5 JUMP JUMPDEST SWAP1 POP SWAP2 SWAP1 POP JUMP JUMPDEST PUSH1 0x0 PUSH2 0x2113 DUP3 PUSH2 0x15FE JUMP JUMPDEST SWAP2 POP PUSH1 0x0 DUP3 SUB PUSH2 0x2126 JUMPI PUSH2 0x2125 PUSH2 0x1E86 JUMP JUMPDEST JUMPDEST PUSH1 0x1 DUP3 SUB SWAP1 POP SWAP2 SWAP1 POP JUMP JUMPDEST PUSH1 0x0 PUSH2 0x213C DUP3 PUSH2 0x15FE JUMP JUMPDEST SWAP2 POP PUSH2 0x2147 DUP4 PUSH2 0x15FE JUMP JUMPDEST SWAP3 POP DUP3 DUP3 LT ISZERO PUSH2 0x215A JUMPI PUSH2 0x2159 PUSH2 0x1E86 JUMP JUMPDEST JUMPDEST DUP3 DUP3 SUB SWAP1 POP SWAP3 SWAP2 POP POP JUMP JUMPDEST PUSH32 0x4E487B7100000000000000000000000000000000000000000000000000000000 PUSH1 0x0 MSTORE PUSH1 0x22 PUSH1 0x4 MSTORE PUSH1 0x24 PUSH1 0x0 REVERT JUMPDEST PUSH1 0x0 PUSH1 0x2 DUP3 DIV SWAP1 POP PUSH1 0x1 DUP3 AND DUP1 PUSH2 0x21AC JUMPI PUSH1 0x7F DUP3 AND SWAP2 POP JUMPDEST PUSH1 0x20 DUP3 LT DUP2 SUB PUSH2 0x21BF JUMPI PUSH2 0x21BE PUSH2 0x2165 JUMP JUMPDEST JUMPDEST POP SWAP2 SWAP1 POP JUMP JUMPDEST PUSH32 0x56616C7565206973206C657373207468616E206D696E696D756D20636F6E7472 PUSH1 0x0 DUP3 ADD MSTORE PUSH32 0x69627574696F6E00000000000000000000000000000000000000000000000000 PUSH1 0x20 DUP3 ADD MSTORE POP JUMP JUMPDEST PUSH1 0x0 PUSH2 0x2221 PUSH1 0x27 DUP4 PUSH2 0x177B JUMP JUMPDEST SWAP2 POP PUSH2 0x222C DUP3 PUSH2 0x21C5 JUMP JUMPDEST PUSH1 0x40 DUP3 ADD SWAP1 POP SWAP2 SWAP1 POP JUMP JUMPDEST PUSH1 0x0 PUSH1 0x20 DUP3 ADD SWAP1 POP DUP2 DUP2 SUB PUSH1 0x0 DUP4 ADD MSTORE PUSH2 0x2250 DUP2 PUSH2 0x2214 JUMP JUMPDEST SWAP1 POP SWAP2 SWAP1 POP JUMP JUMPDEST PUSH1 0x0 PUSH2 0x2262 DUP3 PUSH2 0x15FE JUMP JUMPDEST SWAP2 POP PUSH2 0x226D DUP4 PUSH2 0x15FE JUMP JUMPDEST SWAP3 POP DUP3 PUSH32 0xFFFFFFFFFFFFFFFFFFFFFFFFFFFFFFFFFFFFFFFFFFFFFFFFFFFFFFFFFFFFFFFF SUB DUP3 GT ISZERO PUSH2 0x22A2 JUMPI PUSH2 0x22A1 PUSH2 0x1E86 JUMP JUMPDEST JUMPDEST DUP3 DUP3 ADD SWAP1 POP SWAP3 SWAP2 POP POP JUMP JUMPDEST PUSH1 0x0 PUSH2 0x22B8 DUP3 PUSH2 0x15FE JUMP JUMPDEST SWAP2 POP PUSH32 0xFFFFFFFFFFFFFFFFFFFFFFFFFFFFFFFFFFFFFFFFFFFFFFFFFFFFFFFFFFFFFFFF DUP3 SUB PUSH2 0x22EA JUMPI PUSH2 0x22E9 PUSH2 0x1E86 JUMP JUMPDEST JUMPDEST PUSH1 0x1 DUP3 ADD SWAP1 POP SWAP2 SWAP1 POP JUMP JUMPDEST PUSH32 0x43616D706169676E206861732073756363656564656400000000000000000000 PUSH1 0x0 DUP3 ADD MSTORE POP JUMP JUMPDEST PUSH1 0x0 PUSH2 0x232B PUSH1 0x16 DUP4 PUSH2 0x177B JUMP JUMPDEST SWAP2 POP PUSH2 0x2336 DUP3 PUSH2 0x22F5 JUMP JUMPDEST PUSH1 0x20 DUP3 ADD SWAP1 POP SWAP2 SWAP1 POP JUMP JUMPDEST PUSH1 0x0 PUSH1 0x20 DUP3 ADD SWAP1 POP DUP2 DUP2 SUB PUSH1 0x0 DUP4 ADD MSTORE PUSH2 0x235A DUP2 PUSH2 0x231E JUMP JUMPDEST SWAP1 POP SWAP2 SWAP1 POP JUMP JUMPDEST PUSH1 0x0 DUP2 SWAP1 POP DUP2 PUSH1 0x0 MSTORE PUSH1 0x20 PUSH1 0x0 KECCAK256 SWAP1 POP SWAP2 SWAP1 POP JUMP JUMPDEST PUSH1 0x0 PUSH1 0x20 PUSH1 0x1F DUP4 ADD DIV SWAP1 POP SWAP2 SWAP1 POP JUMP JUMPDEST PUSH1 0x0 DUP3 DUP3 SHL SWAP1 POP SWAP3 SWAP2 POP POP JUMP JUMPDEST PUSH1 0x0 PUSH1 0x8 DUP4 MUL PUSH2 0x23C3 PUSH32 0xFFFFFFFFFFFFFFFFFFFFFFFFFFFFFFFFFFFFFFFFFFFFFFFFFFFFFFFFFFFFFFFF DUP3 PUSH2 0x2386 JUMP JUMPDEST PUSH2 0x23CD DUP7 DUP4 PUSH2 0x2386 JUMP JUMPDEST SWAP6 POP DUP1 NOT DUP5 AND SWAP4 POP DUP1 DUP7 AND DUP5 OR SWAP3 POP POP POP SWAP4 SWAP3 POP POP POP JUMP JUMPDEST PUSH1 0x0 DUP2 SWAP1 POP SWAP2 SWAP1 POP JUMP JUMPDEST PUSH1 0x0 PUSH2 0x240A PUSH2 0x2405 PUSH2 0x2400 DUP5 PUSH2 0x15FE JUMP JUMPDEST PUSH2 0x23E5 JUMP JUMPDEST PUSH2 0x15FE JUMP JUMPDEST SWAP1 POP SWAP2 SWAP1 POP JUMP JUMPDEST PUSH1 0x0 DUP2 SWAP1 POP SWAP2 SWAP1 POP JUMP JUMPDEST PUSH2 0x2424 DUP4 PUSH2 0x23EF JUMP JUMPDEST PUSH2 0x2438 PUSH2 0x2430 DUP3 PUSH2 0x2411 JUMP JUMPDEST DUP5 DUP5 SLOAD PUSH2 0x2393 JUMP JUMPDEST DUP3 SSTORE POP POP POP POP JUMP JUMPDEST PUSH1 0x0 SWAP1 JUMP JUMPDEST PUSH2 0x244D PUSH2 0x2440 JUMP JUMPDEST PUSH2 0x2458 DUP2 DUP5 DUP5 PUSH2 0x241B JUMP JUMPDEST POP POP POP JUMP JUMPDEST JUMPDEST DUP2 DUP2 LT ISZERO PUSH2 0x247C JUMPI PUSH2 0x2471 PUSH1 0x0 DUP3 PUSH2 0x2445 JUMP JUMPDEST PUSH1 0x1 DUP2 ADD SWAP1 POP PUSH2 0x245E JUMP JUMPDEST POP POP JUMP JUMPDEST PUSH1 0x1F DUP3 GT ISZERO PUSH2 0x24C1 JUMPI PUSH2 0x2492 DUP2 PUSH2 0x2361 JUMP JUMPDEST PUSH2 0x249B DUP5 PUSH2 0x2376 JUMP JUMPDEST DUP2 ADD PUSH1 0x20 DUP6 LT ISZERO PUSH2 0x24AA JUMPI DUP2 SWAP1 POP JUMPDEST PUSH2 0x24BE PUSH2 0x24B6 DUP6 PUSH2 0x2376 JUMP JUMPDEST DUP4 ADD DUP3 PUSH2 0x245D JUMP JUMPDEST POP POP JUMPDEST POP POP POP JUMP JUMPDEST PUSH1 0x0 DUP3 DUP3 SHR SWAP1 POP SWAP3 SWAP2 POP POP JUMP JUMPDEST PUSH1 0x0 PUSH2 0x24E4 PUSH1 0x0 NOT DUP5 PUSH1 0x8 MUL PUSH2 0x24C6 JUMP JUMPDEST NOT DUP1 DUP4 AND SWAP2 POP POP SWAP3 SWAP2 POP POP JUMP JUMPDEST PUSH1 0x0 PUSH2 0x24FD DUP4 DUP4 PUSH2 0x24D3 JUMP JUMPDEST SWAP2 POP DUP3 PUSH1 0x2 MUL DUP3 OR SWAP1 POP SWAP3 SWAP2 POP POP JUMP JUMPDEST PUSH2 0x2516 DUP3 PUSH2 0x1770 JUMP JUMPDEST PUSH8 0xFFFFFFFFFFFFFFFF DUP2 GT ISZERO PUSH2 0x252F JUMPI PUSH2 0x252E PUSH2 0x1A5F JUMP JUMPDEST JUMPDEST PUSH2 0x2539 DUP3 SLOAD PUSH2 0x2194 JUMP JUMPDEST PUSH2 0x2544 DUP3 DUP3 DUP6 PUSH2 0x2480 JUMP JUMPDEST PUSH1 0x0 PUSH1 0x20 SWAP1 POP PUSH1 0x1F DUP4 GT PUSH1 0x1 DUP2 EQ PUSH2 0x2577 JUMPI PUSH1 0x0 DUP5 ISZERO PUSH2 0x2565 JUMPI DUP3 DUP8 ADD MLOAD SWAP1 POP JUMPDEST PUSH2 0x256F DUP6 DUP3 PUSH2 0x24F1 JUMP JUMPDEST DUP7 SSTORE POP PUSH2 0x25D7 JUMP JUMPDEST PUSH1 0x1F NOT DUP5 AND PUSH2 0x2585 DUP7 PUSH2 0x2361 JUMP JUMPDEST PUSH1 0x0 JUMPDEST DUP3 DUP2 LT ISZERO PUSH2 0x25AD JUMPI DUP5 DUP10 ADD MLOAD DUP3 SSTORE PUSH1 0x1 DUP3 ADD SWAP2 POP PUSH1 0x20 DUP6 ADD SWAP5 POP PUSH1 0x20 DUP2 ADD SWAP1 POP PUSH2 0x2588 JUMP JUMPDEST DUP7 DUP4 LT ISZERO PUSH2 0x25CA JUMPI DUP5 DUP10 ADD MLOAD PUSH2 0x25C6 PUSH1 0x1F DUP10 AND DUP3 PUSH2 0x24D3 JUMP JUMPDEST DUP4 SSTORE POP JUMPDEST PUSH1 0x1 PUSH1 0x2 DUP9 MUL ADD DUP9 SSTORE POP POP POP JUMPDEST POP POP POP POP POP POP JUMP JUMPDEST PUSH32 0x596F75206861766520616C726561647920617070726F76656420746865207265 PUSH1 0x0 DUP3 ADD MSTORE PUSH32 0x7175657374000000000000000000000000000000000000000000000000000000 PUSH1 0x20 DUP3 ADD MSTORE POP JUMP JUMPDEST PUSH1 0x0 PUSH2 0x263B PUSH1 0x25 DUP4 PUSH2 0x177B JUMP JUMPDEST SWAP2 POP PUSH2 0x2646 DUP3 PUSH2 0x25DF JUMP JUMPDEST PUSH1 0x40 DUP3 ADD SWAP1 POP SWAP2 SWAP1 POP JUMP JUMPDEST PUSH1 0x0 PUSH1 0x20 DUP3 ADD SWAP1 POP DUP2 DUP2 SUB PUSH1 0x0 DUP4 ADD MSTORE PUSH2 0x266A DUP2 PUSH2 0x262E JUMP JUMPDEST SWAP1 POP SWAP2 SWAP1 POP JUMP INVALID LOG2 PUSH5 0x6970667358 0x22 SLT KECCAK256 TIMESTAMP BALANCE 0xD7 0xCB 0xE8 JUMPDEST CALLCODE 0x29 0xD3 PC SWAP11 SGT ADDMOD SSTORE SMOD PUSH9 0xB4BA8917C9300CE43C PUSH4 0x94B36B2 LOG2 LOG1 PUSH5 0x736F6C6343 STOP ADDMOD 0xF STOP CALLER "},"gasEstimates":{"creation":{"codeDepositCost":"1979000","executionCost":"infinite","totalCost":"infinite"},"external":{"approvals(address,uint256)":"3219","approveRequest(uint256)":"infinite","cancel()":"33067","canceled()":"2561","countPledges()":"2562","createRequest(string,uint256,address)":"infinite","endAt()":"2518","finalizeRequest(uint256)":"infinite","getBalance()":"385","getContributionAmount()":"2561","getRequestApproval(uint256)":"3004","getRequests()":"infinite","getRequestsCount()":"2513","getSummary()":"infinite","goal()":"2541","isOwner()":"2691","manager()":"2534","minPledge()":"2518","pledge()":"infinite","pledgeOf(address)":"2858","pledged()":"2540","refund()":"infinite","requests(uint256)":"infinite","startAt()":"2495"}},"methodIdentifiers":{"approvals(address,uint256)":"ffabc673","approveRequest(uint256)":"d7d1bbdb","cancel()":"ea8a1af0","canceled()":"3f9942ff","countPledges()":"ba2cb6c5","createRequest(string,uint256,address)":"8a9cfd55","endAt()":"7cc3ae8c","finalizeRequest(uint256)":"03441006","getBalance()":"12065fe0","getContributionAmount()":"bbb48445","getRequestApproval(uint256)":"7723421d","getRequests()":"8813ce12","getRequestsCount()":"3410452a","getSummary()":"4051ddac","goal()":"40193883","isOwner()":"8f32d59b","manager()":"481c6a75","minPledge()":"9b4b1786","pledge()":"88ffe867","pledgeOf(address)":"c5055f2f","pledged()":"aeafca2e","refund()":"590e1ae3","requests(uint256)":"81d12c58","startAt()":"c7446565"}},"storageLayout":{"storage":[{"astId":65,"contract":"Campaign.sol:Campaign","label":"manager","offset":0,"slot":"0","type":"t_address"},{"astId":67,"contract":"Campaign.sol:Campaign","label":"goal","offset":0,"slot":"1","type":"t_uint256"},{"astId":69,"contract":"Campaign.sol:Campaign","label":"pledged","offset":0,"slot":"2","type":"t_uint256"},{"astId":71,"contract":"Campaign.sol:Campaign","label":"startAt","offset":0,"slot":"3","type":"t_uint256"},{"astId":73,"contract":"Campaign.sol:Campaign","label":"endAt","offset":0,"slot":"4","type":"t_uint256"},{"astId":75,"contract":"Campaign.sol:Campaign","label":"minPledge","offset":0,"slot":"5","type":"t_uint256"},{"astId":79,"contract":"Campaign.sol:Campaign","label":"requests","offset":0,"slot":"6","type":"t_array(t_struct(Request)63_storage)dyn_storage"},{"astId":81,"contract":"Campaign.sol:Campaign","label":"countPledges","offset":0,"slot":"7","type":"t_uint256"},{"astId":85,"contract":"Campaign.sol:Campaign","label":"pledgeOf","offset":0,"slot":"8","type":"t_mapping(t_address,t_uint256)"},{"astId":91,"contract":"Campaign.sol:Campaign","label":"approvals","offset":0,"slot":"9","type":"t_mapping(t_address,t_mapping(t_uint256,t_bool))"},{"astId":93,"contract":"Campaign.sol:Campaign","label":"canceled","offset":0,"slot":"10","type":"t_bool"}],"types":{"t_address":{"encoding":"inplace","label":"address","numberOfBytes":"20"},"t_address_payable":{"encoding":"inplace","label":"address payable","numberOfBytes":"20"},"t_array(t_struct(Request)63_storage)dyn_storage":{"base":"t_struct(Request)63_storage","encoding":"dynamic_array","label":"struct Campaign.Request[]","numberOfBytes":"32"},"t_bool":{"encoding":"inplace","label":"bool","numberOfBytes":"1"},"t_mapping(t_address,t_mapping(t_uint256,t_bool))":{"encoding":"mapping","key":"t_address","label":"mapping(address => mapping(uint256 => bool))","numberOfBytes":"32","value":"t_mapping(t_uint256,t_bool)"},"t_mapping(t_address,t_uint256)":{"encoding":"mapping","key":"t_address","label":"mapping(address => uint256)","numberOfBytes":"32","value":"t_uint256"},"t_mapping(t_uint256,t_bool)":{"encoding":"mapping","key":"t_uint256","label":"mapping(uint256 => bool)","numberOfBytes":"32","value":"t_bool"},"t_string_storage":{"encoding":"bytes","label":"string","numberOfBytes":"32"},"t_struct(Request)63_storage":{"encoding":"inplace","label":"struct Campaign.Request","members":[{"astId":54,"contract":"Campaign.sol:Campaign","label":"description","offset":0,"slot":"0","type":"t_string_storage"},{"astId":56,"contract":"Campaign.sol:Campaign","label":"amount","offset":0,"slot":"1","type":"t_uint256"},{"astId":58,"contract":"Campaign.sol:Campaign","label":"recipient","offset":0,"slot":"2","type":"t_address_payable"},{"astId":60,"contract":"Campaign.sol:Campaign","label":"completed","offset":20,"slot":"2","type":"t_bool"},{"astId":62,"contract":"Campaign.sol:Campaign","label":"countApprovals","offset":0,"slot":"3","type":"t_uint256"}],"numberOfBytes":"128"},"t_uint256":{"encoding":"inplace","label":"uint256","numberOfBytes":"32"}}},"userdoc":{"kind":"user","methods":{},"version":1}}